{
  "contractName": "AccessControl",
  "abi": [
    {
      "constant": true,
      "inputs": [],
      "name": "owner",
      "outputs": [
        {
          "name": "",
          "type": "address"
        }
      ],
      "payable": false,
      "stateMutability": "view",
      "type": "function"
    },
    {
      "constant": true,
      "inputs": [],
      "name": "ROLE_MINTER",
      "outputs": [
        {
          "name": "",
          "type": "uint8"
        }
      ],
      "payable": false,
      "stateMutability": "view",
      "type": "function"
    },
    {
      "constant": true,
      "inputs": [],
      "name": "ROLE_UNDER_MINTER",
      "outputs": [
        {
          "name": "",
          "type": "uint8"
        }
      ],
      "payable": false,
      "stateMutability": "view",
      "type": "function"
    },
    {
      "constant": true,
      "inputs": [],
      "name": "ROLE_KNOWN_ORIGIN",
      "outputs": [
        {
          "name": "",
          "type": "uint8"
        }
      ],
      "payable": false,
      "stateMutability": "view",
      "type": "function"
    },
    {
      "inputs": [],
      "payable": false,
      "stateMutability": "nonpayable",
      "type": "constructor"
    },
    {
      "anonymous": false,
      "inputs": [
        {
          "indexed": true,
          "name": "operator",
          "type": "address"
        },
        {
          "indexed": false,
          "name": "role",
          "type": "uint8"
        }
      ],
      "name": "RoleAdded",
      "type": "event"
    },
    {
      "anonymous": false,
      "inputs": [
        {
          "indexed": true,
          "name": "operator",
          "type": "address"
        },
        {
          "indexed": false,
          "name": "role",
          "type": "uint8"
        }
      ],
      "name": "RoleRemoved",
      "type": "event"
    },
    {
      "constant": false,
      "inputs": [
        {
          "name": "_operator",
          "type": "address"
        },
        {
          "name": "_role",
          "type": "uint8"
        }
      ],
      "name": "addAddressToAccessControl",
      "outputs": [],
      "payable": false,
      "stateMutability": "nonpayable",
      "type": "function"
    },
    {
      "constant": false,
      "inputs": [
        {
          "name": "_operator",
          "type": "address"
        },
        {
          "name": "_role",
          "type": "uint8"
        }
      ],
      "name": "removeAddressFromAccessControl",
      "outputs": [],
      "payable": false,
      "stateMutability": "nonpayable",
      "type": "function"
    },
    {
      "constant": true,
      "inputs": [
        {
          "name": "_operator",
          "type": "address"
        },
        {
          "name": "_role",
          "type": "uint8"
        }
      ],
      "name": "checkRole",
      "outputs": [],
      "payable": false,
      "stateMutability": "view",
      "type": "function"
    },
    {
      "constant": true,
      "inputs": [
        {
          "name": "_operator",
          "type": "address"
        },
        {
          "name": "_role",
          "type": "uint8"
        }
      ],
      "name": "hasRole",
      "outputs": [
        {
          "name": "",
          "type": "bool"
        }
      ],
      "payable": false,
      "stateMutability": "view",
      "type": "function"
    }
  ],
  "bytecode": "0x608060405234801561001057600080fd5b5060008054600160a060020a03191633179055610402806100326000396000f30060806040526004361061008d5763ffffffff7c010000000000000000000000000000000000000000000000000000000060003504166323a3ad72811461009257806343923258146100bb5780638da5cb5b146100e257806392afc33a1461011357806395a8c58d1461013e578063975347b814610179578063985989d2146101a0578063be46b94c146101b5575b600080fd5b34801561009e57600080fd5b506100b9600160a060020a036004351660ff602435166101ca565b005b3480156100c757600080fd5b506100b9600160a060020a036004351660ff602435166101f0565b3480156100ee57600080fd5b506100f7610282565b60408051600160a060020a039092168252519081900360200190f35b34801561011f57600080fd5b50610128610291565b6040805160ff9092168252519081900360200190f35b34801561014a57600080fd5b50610165600160a060020a036004351660ff60243516610296565b604080519115158252519081900360200190f35b34801561018557600080fd5b506100b9600160a060020a036004351660ff602435166102bf565b3480156101ac57600080fd5b50610128610351565b3480156101c157600080fd5b50610128610356565b60ff811660009081526001602052604090206101ec908363ffffffff61035b16565b5050565b600054600160a060020a031633148061020f575061020f336001610296565b151561021a57600080fd5b60ff8116600090815260016020526040902061023c908363ffffffff61037016565b6040805160ff831681529051600160a060020a038416917f0ed8a6a6a166243876472f7a8610b62c1a76c67911642d39ff34ead38105534f919081900360200190a25050565b600054600160a060020a031681565b600281565b60ff811660009081526001602052604081206102b8908463ffffffff61039516565b9392505050565b600054600160a060020a03163314806102de57506102de336001610296565b15156102e957600080fd5b60ff8116600090815260016020526040902061030b908363ffffffff6103b416565b6040805160ff831681529051600160a060020a038416917f3824b64a1e23d936b458f4e31445c664d2bc9c14e842407917cbc100b0236a2f919081900360200190a25050565b600381565b600181565b6103658282610395565b15156101ec57600080fd5b600160a060020a0316600090815260209190915260409020805460ff19166001179055565b600160a060020a03166000908152602091909152604090205460ff1690565b600160a060020a0316600090815260209190915260409020805460ff191690555600a165627a7a723058205815a5764eae5ffbdd1e63aef6445d1fc351a43a58a77eee1ae144889d4380040029",
  "source": "pragma solidity ^0.4.24;\n\nimport \"openzeppelin-solidity/contracts/access/rbac/Roles.sol\";\n\n/**\n * @title Based on OpenZeppelin Whitelist & RBCA contracts\n * @dev The AccessControl contract provides different access for addresses, and provides basic authorization control functions.\n */\ncontract AccessControl {\n\n  using Roles for Roles.Role;\n\n  uint8 public constant ROLE_KNOWN_ORIGIN = 1;\n  uint8 public constant ROLE_MINTER = 2;\n  uint8 public constant ROLE_UNDER_MINTER = 3;\n\n  event RoleAdded(address indexed operator, uint8 role);\n  event RoleRemoved(address indexed operator, uint8 role);\n\n  address public owner;\n\n  mapping(uint8 => Roles.Role) private roles;\n\n  modifier onlyIfKnownOrigin() {\n    require(msg.sender == owner || hasRole(msg.sender, ROLE_KNOWN_ORIGIN));\n    _;\n  }\n\n  modifier onlyIfMinter() {\n    require(msg.sender == owner || hasRole(msg.sender, ROLE_KNOWN_ORIGIN) || hasRole(msg.sender, ROLE_MINTER));\n    _;\n  }\n\n  modifier onlyIfUnderMinter() {\n    require(msg.sender == owner || hasRole(msg.sender, ROLE_KNOWN_ORIGIN) || hasRole(msg.sender, ROLE_UNDER_MINTER));\n    _;\n  }\n\n  constructor() public {\n    owner = msg.sender;\n  }\n\n  ////////////////////////////////////\n  // Whitelist/RBCA Derived Methods //\n  ////////////////////////////////////\n\n  function addAddressToAccessControl(address _operator, uint8 _role)\n  public\n  onlyIfKnownOrigin\n  {\n    roles[_role].add(_operator);\n    emit RoleAdded(_operator, _role);\n  }\n\n  function removeAddressFromAccessControl(address _operator, uint8 _role)\n  public\n  onlyIfKnownOrigin\n  {\n    roles[_role].remove(_operator);\n    emit RoleRemoved(_operator, _role);\n  }\n\n  function checkRole(address _operator, uint8 _role)\n  public\n  view\n  {\n    roles[_role].check(_operator);\n  }\n\n  function hasRole(address _operator, uint8 _role)\n  public\n  view\n  returns (bool)\n  {\n    return roles[_role].has(_operator);\n  }\n\n}\n",
  "sourcePath": "/Users/jamesmorgan/Dropbox/workspace-blockrocket/known-origin-web3-marketplace/contracts/v2/AccessControl.sol",
  "compiler": {
    "name": "solc",
    "version": "0.4.24+commit.e67f0147.Emscripten.clang"
  },
  "schemaVersion": "3.0.0-beta.0",
  "updatedAt": "2018-09-22T07:03:07.880Z"
}