{
  "contractName": "ArtistAcceptingBids",
  "abi": [
    {
      "constant": false,
      "inputs": [],
      "name": "unpause",
      "outputs": [],
      "payable": false,
      "stateMutability": "nonpayable",
      "type": "function"
    },
    {
      "constant": true,
      "inputs": [],
      "name": "minBidAmount",
      "outputs": [
        {
          "name": "",
          "type": "uint256"
        }
      ],
      "payable": false,
      "stateMutability": "view",
      "type": "function"
    },
    {
      "constant": true,
      "inputs": [],
      "name": "paused",
      "outputs": [
        {
          "name": "",
          "type": "bool"
        }
      ],
      "payable": false,
      "stateMutability": "view",
      "type": "function"
    },
    {
      "constant": true,
      "inputs": [],
      "name": "koCommissionAccount",
      "outputs": [
        {
          "name": "",
          "type": "address"
        }
      ],
      "payable": false,
      "stateMutability": "view",
      "type": "function"
    },
    {
      "constant": false,
      "inputs": [],
      "name": "renounceOwnership",
      "outputs": [],
      "payable": false,
      "stateMutability": "nonpayable",
      "type": "function"
    },
    {
      "constant": false,
      "inputs": [],
      "name": "pause",
      "outputs": [],
      "payable": false,
      "stateMutability": "nonpayable",
      "type": "function"
    },
    {
      "constant": true,
      "inputs": [],
      "name": "owner",
      "outputs": [
        {
          "name": "",
          "type": "address"
        }
      ],
      "payable": false,
      "stateMutability": "view",
      "type": "function"
    },
    {
      "constant": true,
      "inputs": [],
      "name": "kodaAddress",
      "outputs": [
        {
          "name": "",
          "type": "address"
        }
      ],
      "payable": false,
      "stateMutability": "view",
      "type": "function"
    },
    {
      "constant": false,
      "inputs": [
        {
          "name": "_newOwner",
          "type": "address"
        }
      ],
      "name": "transferOwnership",
      "outputs": [],
      "payable": false,
      "stateMutability": "nonpayable",
      "type": "function"
    },
    {
      "inputs": [
        {
          "name": "_kodaAddress",
          "type": "address"
        }
      ],
      "payable": false,
      "stateMutability": "nonpayable",
      "type": "constructor"
    },
    {
      "anonymous": false,
      "inputs": [
        {
          "indexed": true,
          "name": "_bidder",
          "type": "address"
        },
        {
          "indexed": true,
          "name": "_editionNumber",
          "type": "uint256"
        },
        {
          "indexed": true,
          "name": "_amount",
          "type": "uint256"
        }
      ],
      "name": "BidPlaced",
      "type": "event"
    },
    {
      "anonymous": false,
      "inputs": [
        {
          "indexed": true,
          "name": "_bidder",
          "type": "address"
        },
        {
          "indexed": true,
          "name": "_editionNumber",
          "type": "uint256"
        },
        {
          "indexed": true,
          "name": "_amount",
          "type": "uint256"
        }
      ],
      "name": "BidIncreased",
      "type": "event"
    },
    {
      "anonymous": false,
      "inputs": [
        {
          "indexed": true,
          "name": "_bidder",
          "type": "address"
        },
        {
          "indexed": true,
          "name": "_editionNumber",
          "type": "uint256"
        }
      ],
      "name": "BidWithdrawn",
      "type": "event"
    },
    {
      "anonymous": false,
      "inputs": [
        {
          "indexed": true,
          "name": "_bidder",
          "type": "address"
        },
        {
          "indexed": true,
          "name": "_editionNumber",
          "type": "uint256"
        },
        {
          "indexed": true,
          "name": "_tokenId",
          "type": "uint256"
        },
        {
          "indexed": false,
          "name": "_amount",
          "type": "uint256"
        }
      ],
      "name": "BidAccepted",
      "type": "event"
    },
    {
      "anonymous": false,
      "inputs": [
        {
          "indexed": true,
          "name": "_editionNumber",
          "type": "uint256"
        },
        {
          "indexed": true,
          "name": "_bidder",
          "type": "address"
        },
        {
          "indexed": true,
          "name": "_amount",
          "type": "uint256"
        }
      ],
      "name": "BidderRefunded",
      "type": "event"
    },
    {
      "anonymous": false,
      "inputs": [
        {
          "indexed": true,
          "name": "_editionNumber",
          "type": "uint256"
        }
      ],
      "name": "AuctionCancelled",
      "type": "event"
    },
    {
      "anonymous": false,
      "inputs": [],
      "name": "Pause",
      "type": "event"
    },
    {
      "anonymous": false,
      "inputs": [],
      "name": "Unpause",
      "type": "event"
    },
    {
      "anonymous": false,
      "inputs": [
        {
          "indexed": true,
          "name": "previousOwner",
          "type": "address"
        }
      ],
      "name": "OwnershipRenounced",
      "type": "event"
    },
    {
      "anonymous": false,
      "inputs": [
        {
          "indexed": true,
          "name": "previousOwner",
          "type": "address"
        },
        {
          "indexed": true,
          "name": "newOwner",
          "type": "address"
        }
      ],
      "name": "OwnershipTransferred",
      "type": "event"
    },
    {
      "constant": false,
      "inputs": [
        {
          "name": "_editionNumber",
          "type": "uint256"
        }
      ],
      "name": "placeBid",
      "outputs": [
        {
          "name": "success",
          "type": "bool"
        }
      ],
      "payable": true,
      "stateMutability": "payable",
      "type": "function"
    },
    {
      "constant": false,
      "inputs": [
        {
          "name": "_editionNumber",
          "type": "uint256"
        }
      ],
      "name": "increaseBid",
      "outputs": [
        {
          "name": "success",
          "type": "bool"
        }
      ],
      "payable": true,
      "stateMutability": "payable",
      "type": "function"
    },
    {
      "constant": false,
      "inputs": [
        {
          "name": "_editionNumber",
          "type": "uint256"
        }
      ],
      "name": "withdrawBid",
      "outputs": [
        {
          "name": "success",
          "type": "bool"
        }
      ],
      "payable": false,
      "stateMutability": "nonpayable",
      "type": "function"
    },
    {
      "constant": false,
      "inputs": [
        {
          "name": "_editionNumber",
          "type": "uint256"
        }
      ],
      "name": "cancelAuction",
      "outputs": [
        {
          "name": "success",
          "type": "bool"
        }
      ],
      "payable": false,
      "stateMutability": "nonpayable",
      "type": "function"
    },
    {
      "constant": false,
      "inputs": [
        {
          "name": "_editionNumber",
          "type": "uint256"
        }
      ],
      "name": "acceptBid",
      "outputs": [
        {
          "name": "tokenId",
          "type": "uint256"
        }
      ],
      "payable": false,
      "stateMutability": "nonpayable",
      "type": "function"
    },
    {
      "constant": false,
      "inputs": [
        {
          "name": "_editionNumber",
          "type": "uint256"
        }
      ],
      "name": "enableEdition",
      "outputs": [
        {
          "name": "",
          "type": "bool"
        }
      ],
      "payable": false,
      "stateMutability": "nonpayable",
      "type": "function"
    },
    {
      "constant": false,
      "inputs": [
        {
          "name": "_editionNumber",
          "type": "uint256"
        }
      ],
      "name": "disableEdition",
      "outputs": [
        {
          "name": "",
          "type": "bool"
        }
      ],
      "payable": false,
      "stateMutability": "nonpayable",
      "type": "function"
    },
    {
      "constant": false,
      "inputs": [
        {
          "name": "_editionNumber",
          "type": "uint256"
        },
        {
          "name": "_address",
          "type": "address"
        }
      ],
      "name": "setArtistsControlAddress",
      "outputs": [
        {
          "name": "",
          "type": "bool"
        }
      ],
      "payable": false,
      "stateMutability": "nonpayable",
      "type": "function"
    },
    {
      "constant": false,
      "inputs": [
        {
          "name": "_editionNumber",
          "type": "uint256"
        },
        {
          "name": "_address",
          "type": "address"
        }
      ],
      "name": "setArtistsControlAddressAndEnabledEdition",
      "outputs": [
        {
          "name": "",
          "type": "bool"
        }
      ],
      "payable": false,
      "stateMutability": "nonpayable",
      "type": "function"
    },
    {
      "constant": false,
      "inputs": [
        {
          "name": "_minBidAmount",
          "type": "uint256"
        }
      ],
      "name": "setMinBidAmount",
      "outputs": [],
      "payable": false,
      "stateMutability": "nonpayable",
      "type": "function"
    },
    {
      "constant": false,
      "inputs": [
        {
          "name": "_kodaAddress",
          "type": "address"
        }
      ],
      "name": "setKodavV2",
      "outputs": [],
      "payable": false,
      "stateMutability": "nonpayable",
      "type": "function"
    },
    {
      "constant": false,
      "inputs": [
        {
          "name": "_koCommissionAccount",
          "type": "address"
        }
      ],
      "name": "setKoCommissionAccount",
      "outputs": [],
      "payable": false,
      "stateMutability": "nonpayable",
      "type": "function"
    },
    {
      "constant": false,
      "inputs": [
        {
          "name": "_withdrawalAccount",
          "type": "address"
        }
      ],
      "name": "withdrawStuckEther",
      "outputs": [],
      "payable": false,
      "stateMutability": "nonpayable",
      "type": "function"
    },
    {
      "constant": false,
      "inputs": [
        {
          "name": "_withdrawalAccount",
          "type": "address"
        },
        {
          "name": "_amount",
          "type": "uint256"
        }
      ],
      "name": "withdrawStuckEtherOfAmount",
      "outputs": [],
      "payable": false,
      "stateMutability": "nonpayable",
      "type": "function"
    },
    {
      "constant": false,
      "inputs": [
        {
          "name": "_editionNumber",
          "type": "uint256"
        },
        {
          "name": "_bidder",
          "type": "address"
        },
        {
          "name": "_amount",
          "type": "uint256"
        }
      ],
      "name": "manualOverrideEditionHighestBidAndBidder",
      "outputs": [
        {
          "name": "",
          "type": "bool"
        }
      ],
      "payable": false,
      "stateMutability": "nonpayable",
      "type": "function"
    },
    {
      "constant": false,
      "inputs": [
        {
          "name": "_editionNumber",
          "type": "uint256"
        },
        {
          "name": "_bidder",
          "type": "address"
        }
      ],
      "name": "manualDeleteEditionBids",
      "outputs": [
        {
          "name": "",
          "type": "bool"
        }
      ],
      "payable": false,
      "stateMutability": "nonpayable",
      "type": "function"
    },
    {
      "constant": true,
      "inputs": [
        {
          "name": "_editionNumber",
          "type": "uint256"
        }
      ],
      "name": "auctionDetails",
      "outputs": [
        {
          "name": "_enabled",
          "type": "bool"
        },
        {
          "name": "_bidder",
          "type": "address"
        },
        {
          "name": "_value",
          "type": "uint256"
        },
        {
          "name": "_controller",
          "type": "address"
        }
      ],
      "payable": false,
      "stateMutability": "view",
      "type": "function"
    },
    {
      "constant": true,
      "inputs": [
        {
          "name": "_editionNumber",
          "type": "uint256"
        }
      ],
      "name": "highestBidForEdition",
      "outputs": [
        {
          "name": "_bidder",
          "type": "address"
        },
        {
          "name": "_value",
          "type": "uint256"
        }
      ],
      "payable": false,
      "stateMutability": "view",
      "type": "function"
    },
    {
      "constant": true,
      "inputs": [
        {
          "name": "_editionNumber",
          "type": "uint256"
        }
      ],
      "name": "isEditionEnabled",
      "outputs": [
        {
          "name": "",
          "type": "bool"
        }
      ],
      "payable": false,
      "stateMutability": "view",
      "type": "function"
    },
    {
      "constant": true,
      "inputs": [
        {
          "name": "_editionNumber",
          "type": "uint256"
        }
      ],
      "name": "editionController",
      "outputs": [
        {
          "name": "",
          "type": "address"
        }
      ],
      "payable": false,
      "stateMutability": "view",
      "type": "function"
    }
  ],
  "bytecode": "0x60806040526000805460a060020a60ff0219169055662386f26fc1000060055534801561002b57600080fd5b50604051602080612160833981016040525160008054600160a060020a03199081163390811790925560068054600160a060020a0390941693821693909317909255600780549092161790556120da806100866000396000f3006080604052600436106101735763ffffffff7c010000000000000000000000000000000000000000000000000000000060003504166270c5378114610178578063017b0d00146101975780630eaaf4c8146101d257806326ccd77a146101ea5780632b1fd58a1461020d5780633f4ba83a14610237578063417fd6b61461024c57806349751788146102645780635c975abb146102795780635e101e511461028e5780636e93dbdc146102c2578063715018a6146102d757806374b799af146102ec5780638456cb59146103045780638603d31a146103195780638ba5882a146103645780638da5cb5b1461038b578063953e474a146103a057806396b5a755146103c157806396d9a881146103d95780639979ef45146103fd578063b5e7f3c314610408578063b9e04eea1461042c578063bbee17a314610450578063e0397a9414610471578063e0758c9d14610495578063e3ecbd7e146104aa578063e4ae2e88146104c2578063f2fde38b146104da575b600080fd5b6101836004356104fb565b604080519115158252519081900360200190f35b3480156101a357600080fd5b506101af600435610913565b60408051600160a060020a03909316835260208301919091528051918290030190f35b3480156101de57600080fd5b50610183600435610944565b3480156101f657600080fd5b5061020b600160a060020a0360043516610afb565b005b34801561021957600080fd5b50610225600435610c04565b60408051918252519081900360200190f35b34801561024357600080fd5b5061020b6112c0565b34801561025857600080fd5b5061020b600435611336565b34801561027057600080fd5b50610225611352565b34801561028557600080fd5b50610183611358565b34801561029a57600080fd5b506102a6600435611368565b60408051600160a060020a039092168252519081900360200190f35b3480156102ce57600080fd5b506102a6611383565b3480156102e357600080fd5b5061020b611392565b3480156102f857600080fd5b506101836004356113f1565b34801561031057600080fd5b5061020b611425565b34801561032557600080fd5b506103316004356114a0565b604080519415158552600160a060020a039384166020860152848101929092529091166060830152519081900360800190f35b34801561037057600080fd5b50610183600435600160a060020a03602435166044356114f0565b34801561039757600080fd5b506102a6611554565b3480156103ac57600080fd5b5061020b600160a060020a0360043516611563565b3480156103cd57600080fd5b506101836004356115fc565b3480156103e557600080fd5b50610183600435600160a060020a036024351661172c565b610183600435611786565b34801561041457600080fd5b50610183600435600160a060020a0360243516611c2e565b34801561043857600080fd5b5061020b600160a060020a0360043516602435611c8e565b34801561045c57600080fd5b5061020b600160a060020a0360043516611df0565b34801561047d57600080fd5b50610183600435600160a060020a0360243516611e29565b3480156104a157600080fd5b506102a6611e74565b3480156104b657600080fd5b50610183600435611e83565b3480156104ce57600080fd5b50610183600435611e98565b3480156104e657600080fd5b5061020b600160a060020a0360043516611ed0565b6000805460a060020a900460ff161561051357600080fd5b600554341015610593576040805160e560020a62461bcd02815260206004820152602b60248201527f42696473206d75737420626520686967686572207468616e206d696e696d756d60448201527f2062696420616d6f756e74000000000000000000000000000000000000000000606482015290519081900360840190fd5b6006546040805160e160020a6361597daf0281526004810185905290518492600092600160a060020a039091169163c2b2fb5e9160248082019260209290919082900301818787803b1580156105e857600080fd5b505af11580156105fc573d6000803e3d6000fd5b505050506040513d602081101561061257600080fd5b5051905080151561065b576040805160e560020a62461bcd028152602060048201526016602482015260008051602061208f833981519152604482015290519081900360640190fd5b600084815260026020526040902054849060ff1615156106eb576040805160e560020a62461bcd02815260206004820152602360248201527f45646974696f6e206973206e6f7420656e61626c656420666f7220617563746960448201527f6f6e730000000000000000000000000000000000000000000000000000000000606482015290519081900360840190fd5b600654604080517fbc02844c0000000000000000000000000000000000000000000000000000000081526004810188905290518792600092600160a060020a039091169163bc02844c9160248082019260209290919082900301818787803b15801561075657600080fd5b505af115801561076a573d6000803e3d6000fd5b505050506040513d602081101561078057600080fd5b5051905060008111610802576040805160e560020a62461bcd02815260206004820152603360248201527f556e61626c6520746f2061636365707420616e79206d6f726520626964732c2060448201527f65646974696f6e20697320736f6c64206f757400000000000000000000000000606482015290519081900360840190fd5b6000878152600360205260409020548790600160a060020a03163314610898576040805160e560020a62461bcd02815260206004820152603560248201527f43616e206f6e6c7920776974686472617720612062696420696620796f75206160448201527f7265207468652068696768657374206269646465720000000000000000000000606482015290519081900360840190fd5b60008881526004602090815260408083203384529091529020546108c2903463ffffffff611ef316565b6000898152600460209081526040808320338085529252808320849055518b927fabdd90c2558a13a111c790b3e52da9a52768834a1139e2993b68b6db09c071c591a4506001979650505050505050565b60009081526003602090815260408083205460048352818420600160a060020a039091168085529252909120549091565b6000805460a060020a900460ff161561095c57600080fd5b6006546040805160e160020a6361597daf0281526004810185905290518492600092600160a060020a039091169163c2b2fb5e9160248082019260209290919082900301818787803b1580156109b157600080fd5b505af11580156109c5573d6000803e3d6000fd5b505050506040513d60208110156109db57600080fd5b50519050801515610a24576040805160e560020a62461bcd028152602060048201526016602482015260008051602061208f833981519152604482015290519081900360640190fd5b6000848152600360205260409020548490600160a060020a03163314610aba576040805160e560020a62461bcd02815260206004820152603560248201527f43616e206f6e6c7920776974686472617720612062696420696620796f75206160448201527f7265207468652068696768657374206269646465720000000000000000000000606482015290519081900360840190fd5b610ac385611f00565b604051859033907f03f0427e8bcfdf5f69217150cf160ebe2dac5fa607336fd7643bfd61a901908090600090a3506001949350505050565b600054600160a060020a03163314610b1257600080fd5b600160a060020a0381161515610b72576040805160e560020a62461bcd02815260206004820152601860248201527f496e76616c696420616464726573732070726f76696465640000000000000000604482015290519081900360640190fd5b30311515610bca576040805160e560020a62461bcd02815260206004820152601960248201527f4e6f206d6f726520657468657220746f20776974686472617700000000000000604482015290519081900360640190fd5b604051600160a060020a03821690303180156108fc02916000818181858888f19350505050158015610c00573d6000803e3d6000fd5b5050565b60008060008060008060008060008060149054906101000a900460ff16151515610c2d57600080fd5b60008a8152600160205260409020548a90600160a060020a0316331480610c5e5750600054600160a060020a031633145b1515610cda576040805160e560020a62461bcd02815260206004820152602660248201527f45646974696f6e206e6f74206d616e616765642062792063616c6c696e67206160448201527f6464726573730000000000000000000000000000000000000000000000000000606482015290519081900360840190fd5b60008b8152600260205260409020548b9060ff161515610d6a576040805160e560020a62461bcd02815260206004820152602360248201527f45646974696f6e206973206e6f7420656e61626c656420666f7220617563746960448201527f6f6e730000000000000000000000000000000000000000000000000000000000606482015290519081900360840190fd5b600654604080517fbc02844c000000000000000000000000000000000000000000000000000000008152600481018f90529051600160a060020a039092169163bc02844c916024808201926020929091908290030181600087803b158015610dd157600080fd5b505af1158015610de5573d6000803e3d6000fd5b505050506040513d6020811015610dfb57600080fd5b5051995060008a11610e7d576040805160e560020a62461bcd02815260206004820152602960248201527f556e61626c6520746f20616363657074206269642c2065646974696f6e20697360448201527f20736f6c64206f75740000000000000000000000000000000000000000000000606482015290519081900360840190fd5b60008c815260036020526040902054600160a060020a03169850881515610f14576040805160e560020a62461bcd02815260206004820152603560248201527f43616e6e6f742077696e20616e2061756374696f6e207768656e20746865726560448201527f206973206e6f2068696768657374206269646465720000000000000000000000606482015290519081900360840190fd5b60008c8152600460209081526040808320600160a060020a038d1684529091528120549850881015610fb6576040805160e560020a62461bcd02815260206004820152602c60248201527f43616e6e6f742077696e20616e2061756374696f6e207768656e206e6f20626960448201527f6420616d6f756e74207365740000000000000000000000000000000000000000606482015290519081900360840190fd5b600660009054906101000a9004600160a060020a0316600160a060020a03166340c10f198a8e6040518363ffffffff167c01000000000000000000000000000000000000000000000000000000000281526004018083600160a060020a0316600160a060020a0316815260200182815260200192505050602060405180830381600087803b15801561104757600080fd5b505af115801561105b573d6000803e3d6000fd5b505050506040513d602081101561107157600080fd5b505196508615156110cc576040805160e560020a62461bcd02815260206004820152601860248201527f4661696c656420746f206d696e74206e657720746f6b656e0000000000000000604482015290519081900360640190fd5b600654604080517f32fd8478000000000000000000000000000000000000000000000000000000008152600481018f90528151600160a060020a03909316926332fd8478926024808401939192918290030181600087803b15801561113057600080fd5b505af1158015611144573d6000803e3d6000fd5b505050506040513d604081101561115a57600080fd5b50805160209091015190965094506111898561117d8a606463ffffffff611fce16565b9063ffffffff611fe316565b935060008411156111cc57604051600160a060020a0387169085156108fc029086906000818181858888f193505050501580156111ca573d6000803e3d6000fd5b505b6111dc888563ffffffff61200c16565b9250600083111561122357600754604051600160a060020a039091169084156108fc029085906000818181858888f19350505050158015611221573d6000803e3d6000fd5b505b60008c81526003602052604090208054600160a060020a03191690556112508a600163ffffffff61200c16565b151561126d5760008c8152600260205260409020805460ff191690555b868c8a600160a060020a03167f77273c2a169296530c120eb6f1142012378aad0ed4337eac090eaf4223a1a2f18b6040518082815260200191505060405180910390a450949a9950505050505050505050565b600054600160a060020a031633146112d757600080fd5b60005460a060020a900460ff1615156112ef57600080fd5b6000805474ff0000000000000000000000000000000000000000191681556040517f7805862f689e2f13df9f062ff482ad3ad112aca9e0847911ed832e158c525b339190a1565b600054600160a060020a0316331461134d57600080fd5b600555565b60055481565b60005460a060020a900460ff1681565b600090815260016020526040902054600160a060020a031690565b600754600160a060020a031681565b600054600160a060020a031633146113a957600080fd5b60008054604051600160a060020a03909116917ff8df31144d9c2f0f6b59d69b8b98abd5459d07f2742c4df920b25aae33c6482091a260008054600160a060020a0319169055565b60008054600160a060020a0316331461140957600080fd5b506000908152600260205260409020805460ff19169055600190565b600054600160a060020a0316331461143c57600080fd5b60005460a060020a900460ff161561145357600080fd5b6000805474ff0000000000000000000000000000000000000000191660a060020a1781556040517f6985a02210a168e66602d3235cb6db0e70f92b3ba4d376a33c0f3d9434bff6259190a1565b60008181526003602090815260408083205460048352818420600160a060020a039182168086529084528285205486865260018552838620546002909552929094205460ff169392169193509193565b60008054600160a060020a0316331461150857600080fd5b506000838152600460209081526040808320600160a060020a03959095168084529482528083209390935593815260039093529091208054600160a060020a0319169091179055600190565b600054600160a060020a031681565b600054600160a060020a0316331461157a57600080fd5b600160a060020a03811615156115da576040805160e560020a62461bcd02815260206004820152600f60248201527f496e76616c696420616464726573730000000000000000000000000000000000604482015290519081900360640190fd5b60078054600160a060020a031916600160a060020a0392909216919091179055565b60008054600160a060020a0316331461161457600080fd5b6006546040805160e160020a6361597daf0281526004810185905290518492600092600160a060020a039091169163c2b2fb5e9160248082019260209290919082900301818787803b15801561166957600080fd5b505af115801561167d573d6000803e3d6000fd5b505050506040513d602081101561169357600080fd5b505190508015156116dc576040805160e560020a62461bcd028152602060048201526016602482015260008051602061208f833981519152604482015290519081900360640190fd5b6116e584611f00565b600084815260026020526040808220805460ff191690555185917f2809c7e17bf978fbc7194c0a694b638c4215e9140cacc6c38ca36010b45697df91a25060019392505050565b60008054600160a060020a0316331461174457600080fd5b5060008281526003602090815260408083208054600160a060020a031916905560048252808320600160a060020a038516845290915281205560015b92915050565b6000805460a060020a900460ff161561179e57600080fd5b6006546040805160e160020a6361597daf0281526004810185905290518492600092600160a060020a039091169163c2b2fb5e9160248082019260209290919082900301818787803b1580156117f357600080fd5b505af1158015611807573d6000803e3d6000fd5b505050506040513d602081101561181d57600080fd5b50519050801515611866576040805160e560020a62461bcd028152602060048201526016602482015260008051602061208f833981519152604482015290519081900360640190fd5b600084815260026020526040902054849060ff1615156118f6576040805160e560020a62461bcd02815260206004820152602360248201527f45646974696f6e206973206e6f7420656e61626c656420666f7220617563746960448201527f6f6e730000000000000000000000000000000000000000000000000000000000606482015290519081900360840190fd5b60008581526003602090815260408083205460048352818420600160a060020a0390911680855292529091205460055487929190349061193d90839063ffffffff611ef316565b11156119b9576040805160e560020a62461bcd02815260206004820152603760248201527f42696473206d75737420626520686967686572207468616e2070726576696f7560448201527f73206269647320706c7573206d696e696d756d20626964000000000000000000606482015290519081900360840190fd5b6000888152600360205260409020548890600160a060020a031633811415611a51576040805160e560020a62461bcd02815260206004820152603560248201527f43616e742062696420616e796d6f72652c20796f752061726520616c7265616460448201527f79207468652063757272656e7420686967686573740000000000000000000000606482015290519081900360840190fd5b600654604080517fbc02844c000000000000000000000000000000000000000000000000000000008152600481018d905290518c92600092600160a060020a039091169163bc02844c9160248082019260209290919082900301818787803b158015611abc57600080fd5b505af1158015611ad0573d6000803e3d6000fd5b505050506040513d6020811015611ae657600080fd5b5051905060008111611b68576040805160e560020a62461bcd02815260206004820152603360248201527f556e61626c6520746f2061636365707420616e79206d6f726520626964732c2060448201527f65646974696f6e20697320736f6c64206f757400000000000000000000000000606482015290519081900360840190fd5b611b718c611f00565b34600460008e8152602001908152602001600020600033600160a060020a0316600160a060020a031681526020019081526020016000208190555033600360008e815260200190815260200160002060006101000a815481600160a060020a030219169083600160a060020a03160217905550348c33600160a060020a03167fdf8644c0a4c21ed214ce69f395675b3a5fcd1039083daea5058898de40ea314960405160405180910390a45060019b9a5050505050505050505050565b60008054600160a060020a03163314611c4657600080fd5b506000828152600260209081526040808320805460ff19166001908117909155918290529091208054600160a060020a038416600160a060020a031990911617905592915050565b600054600160a060020a03163314611ca557600080fd5b600160a060020a0382161515611d05576040805160e560020a62461bcd02815260206004820152601860248201527f496e76616c696420616464726573732070726f76696465640000000000000000604482015290519081900360640190fd5b801515611d5c576040805160e560020a62461bcd02815260206004820152601a60248201527f496e76616c696420616d6f756e7420746f207769746864726177000000000000604482015290519081900360640190fd5b3031811115611db5576040805160e560020a62461bcd02815260206004820152601960248201527f4e6f206d6f726520657468657220746f20776974686472617700000000000000604482015290519081900360640190fd5b604051600160a060020a0383169082156108fc029083906000818181858888f19350505050158015611deb573d6000803e3d6000fd5b505050565b600054600160a060020a03163314611e0757600080fd5b60068054600160a060020a031916600160a060020a0392909216919091179055565b60008054600160a060020a03163314611e4157600080fd5b5060008281526001602081905260409091208054600160a060020a038416600160a060020a031990911617905592915050565b600654600160a060020a031681565b60009081526002602052604090205460ff1690565b60008054600160a060020a03163314611eb057600080fd5b506000908152600260205260409020805460ff1916600190811790915590565b600054600160a060020a03163314611ee757600080fd5b611ef08161201e565b50565b8181018281101561178057fe5b60008181526003602090815260408083205460048352818420600160a060020a039091168085529252909120548115801590611f3c5750600081115b15611deb576000838152600360205260408082208054600160a060020a031916905551600160a060020a0384169183156108fc02918491818181858888f19350505050158015611f90573d6000803e3d6000fd5b508082600160a060020a0316847fa01ed4ff1bfc084518bd795b4114da41c800c9ae1fc5e594cb505cb4c0c3fae160405160405180910390a4505050565b60008183811515611fdb57fe5b049392505050565b6000821515611ff457506000611780565b5081810281838281151561200457fe5b041461178057fe5b60008282111561201857fe5b50900390565b600160a060020a038116151561203357600080fd5b60008054604051600160a060020a03808516939216917f8be0079c531659141344cd1fd0a4f28419497f9722a3daafe3b4186f6b6457e091a360008054600160a060020a031916600160a060020a0392909216919091179055560045646974696f6e20646f6573206e6f7420657869737400000000000000000000a165627a7a723058206a399a33860f7ce240245dd15b30fefe18f0bf102508cb8c99a3bc3e07cef6940029",
  "source": "pragma solidity 0.4.24;\n\nimport \"openzeppelin-solidity/contracts/ownership/Ownable.sol\";\nimport \"openzeppelin-solidity/contracts/lifecycle/Pausable.sol\";\nimport \"openzeppelin-solidity/contracts/math/SafeMath.sol\";\n\n/**\n* Auction interface definition - event and method definitions\n*\n* https://www.knownorigin.io/\n*/\ninterface IAuction {\n\n  event BidPlaced(\n    address indexed _bidder,\n    uint256 indexed _editionNumber,\n    uint256 indexed _amount\n  );\n\n  event BidIncreased(\n    address indexed _bidder,\n    uint256 indexed _editionNumber,\n    uint256 indexed _amount\n  );\n\n  event BidWithdrawn(\n    address indexed _bidder,\n    uint256 indexed _editionNumber\n  );\n\n  event BidAccepted(\n    address indexed _bidder,\n    uint256 indexed _editionNumber,\n    uint256 indexed _tokenId,\n    uint256 _amount\n  );\n\n  event BidderRefunded(\n    uint256 indexed _editionNumber,\n    address indexed _bidder,\n    uint256 indexed _amount\n  );\n\n  event AuctionCancelled(\n    uint256 indexed _editionNumber\n  );\n\n  function placeBid(uint256 _editionNumber) public payable returns (bool success);\n\n  function increaseBid(uint256 _editionNumber) public payable returns (bool success);\n\n  function withdrawBid(uint256 _editionNumber) public returns (bool success);\n\n  function acceptBid(uint256 _editionNumber) public returns (uint256 tokenId);\n\n  function cancelAuction(uint256 _editionNumber) public returns (bool success);\n}\n\n/**\n* Minimal interface definition for KODA V2 contract calls\n*\n* https://www.knownorigin.io/\n*/\ninterface IKODAV2 {\n  function mint(address _to, uint256 _editionNumber) external returns (uint256);\n\n  function editionExists(uint256 _editionNumber) external returns (bool);\n\n  function totalRemaining(uint256 _editionNumber) external view returns (uint256);\n\n  function artistCommission(uint256 _editionNumber) external view returns (address _artistAccount, uint256 _artistCommission);\n}\n\n/**\n* @title Artists accepting bidding contract for KnownOrigin (KODA)\n*\n* Rules:\n* Can only bid for an edition which is enabled\n* Can only add new bids higher than previous highest bid plus minimum bid amount\n* Can increase your bid, only if you are the top current bidder\n* Once outbid, original bidder has ETH returned\n* Cannot double bid once you are already the highest bidder, can only call increaseBid()\n* Only the defined controller address can accept the bid\n* If a bid is revoked, the auction remains open however no highest bid exists\n* If the contract is Paused, no public actions can happen e.g. bids, increases, withdrawals\n* Managers of contract have full control over it act as a fallback in-case funds go missing or errors are found\n* On accepting of any bid, funds are split to KO and Artists - optional 3rd party split not currently supported\n* If an edition is sold out, the auction is stopped, manual refund required by bidder or owner\n* Upon cancelling a bid which is in flight, funds are returned and contract stops further bids on the edition\n* Artists commissions and address are pulled from the KODA contract and are not based on the controller address\n*\n* Scenario:\n* 1) Config artist (Dave) & edition (1000)\n* 2) Bob places a bid on edition 1000 for 1 ETH\n* 3) Alice places a higher bid of 1.5ETH, overriding Bobs position as the leader, sends Bobs 1 ETH back and taking 1st place\n* 4) Dave accepts Alice's bid\n* 5) KODA token generated and transferred to Alice, funds are split between KO and Artist\n*\n* https://www.knownorigin.io/\n*\n* BE ORIGINAL. BUY ORIGINAL.\n*/\ncontract ArtistAcceptingBids is Ownable, Pausable, IAuction {\n  using SafeMath for uint256;\n\n  // A mapping of the controller address to the edition number\n  mapping(uint256 => address) internal editionNumberToArtistControlAddress;\n\n  // Enabled/disable the auction for the edition number\n  mapping(uint256 => bool) internal enabledEditions;\n\n  // Edition to current highest bidders address\n  mapping(uint256 => address) internal editionHighestBid;\n\n  // Mapping for edition -> bidder -> bid amount\n  mapping(uint256 => mapping(address => uint256)) internal editionBids;\n\n  // Min increase in bid amount\n  uint256 public minBidAmount = 0.01 ether;\n\n  // Interface into the KODA world\n  IKODAV2 public kodaAddress;\n\n  // KO account which can receive commission\n  address public koCommissionAccount;\n\n  ///////////////\n  // Modifiers //\n  ///////////////\n\n  // Checks the auction is enabled\n  modifier whenAuctionEnabled(uint256 _editionNumber) {\n    require(enabledEditions[_editionNumber], \"Edition is not enabled for auctions\");\n    _;\n  }\n\n  // Checks the msg.sender is the artists control address or the auction owner\n  modifier whenCallerIsController(uint256 _editionNumber) {\n    require(editionNumberToArtistControlAddress[_editionNumber] == msg.sender || msg.sender == owner, \"Edition not managed by calling address\");\n    _;\n  }\n\n  // Checks the bid is higher than the current amount + min bid\n  modifier whenPlacedBidIsAboveMinAmount(uint256 _editionNumber) {\n    address currentHighestBidder = editionHighestBid[_editionNumber];\n    uint256 currentHighestBidderAmount = editionBids[_editionNumber][currentHighestBidder];\n    require(currentHighestBidderAmount.add(minBidAmount) <= msg.value, \"Bids must be higher than previous bids plus minimum bid\");\n    _;\n  }\n\n  // Checks the bid is higher than the min bid\n  modifier whenBidIncreaseIsAboveMinAmount() {\n    require(minBidAmount <= msg.value, \"Bids must be higher than minimum bid amount\");\n    _;\n  }\n\n  // Check the caller in not already the highest bidder\n  modifier whenCallerNotAlreadyTheHighestBidder(uint256 _editionNumber) {\n    address currentHighestBidder = editionHighestBid[_editionNumber];\n    require(currentHighestBidder != msg.sender, \"Cant bid anymore, you are already the current highest\");\n    _;\n  }\n\n  // Checks msg.sender is the highest bidder\n  modifier whenCallerIsHighestBidder(uint256 _editionNumber) {\n    require(editionHighestBid[_editionNumber] == msg.sender, \"Can only withdraw a bid if you are the highest bidder\");\n    _;\n  }\n\n  // Only when editions are not sold out in KODA\n  modifier whenEditionNotSoldOut(uint256 _editionNumber) {\n    uint256 totalRemaining = kodaAddress.totalRemaining(_editionNumber);\n    require(totalRemaining > 0, \"Unable to accept any more bids, edition is sold out\");\n    _;\n  }\n\n  // Only when edition exists in KODA\n  modifier whenEditionExists(uint256 _editionNumber) {\n    bool editionExists = kodaAddress.editionExists(_editionNumber);\n    require(editionExists, \"Edition does not exist\");\n    _;\n  }\n\n  /////////////////\n  // Constructor //\n  /////////////////\n\n  // Set the caller as the default KO account\n  constructor(IKODAV2 _kodaAddress) public {\n    kodaAddress = _kodaAddress;\n    koCommissionAccount = msg.sender;\n  }\n\n  //////////////////////////\n  // Core Auction Methods //\n  //////////////////////////\n\n  /**\n   * @dev Public method for placing a bid, reverts if:\n   * - Contract is Paused\n   * - Edition provided is not valid\n   * - Edition provided is not configured for auctions\n   * - Edition provided is sold out\n   * - msg.sender is already the highest bidder\n   * - msg.value is not greater than highest bid + minimum amount\n   * @dev refunds the previous bidders ether if the bid is overwritten\n   * @return true on success\n   */\n  function placeBid(uint256 _editionNumber)\n  public\n  payable\n  whenNotPaused\n  whenEditionExists(_editionNumber)\n  whenAuctionEnabled(_editionNumber)\n  whenPlacedBidIsAboveMinAmount(_editionNumber)\n  whenCallerNotAlreadyTheHighestBidder(_editionNumber)\n  whenEditionNotSoldOut(_editionNumber)\n  returns (bool success)\n  {\n    // Grab the previous holders bid so we can refund it\n    _refundHighestBidder(_editionNumber);\n\n    // Keep a record of the current users bid (previous bidder has been refunded)\n    editionBids[_editionNumber][msg.sender] = msg.value;\n\n    // Update the highest bid to be the latest bidder\n    editionHighestBid[_editionNumber] = msg.sender;\n\n    // Emit event\n    emit BidPlaced(msg.sender, _editionNumber, msg.value);\n\n    return true;\n  }\n\n  /**\n   * @dev Public method for increasing your bid, reverts if:\n   * - Contract is Paused\n   * - Edition provided is not valid\n   * - Edition provided is not configured for auctions\n   * - Edition provided is sold out\n   * - msg.sender is not the current highest bidder\n   * @return true on success\n   */\n  function increaseBid(uint256 _editionNumber)\n  public\n  payable\n  whenNotPaused\n  whenBidIncreaseIsAboveMinAmount\n  whenEditionExists(_editionNumber)\n  whenAuctionEnabled(_editionNumber)\n  whenEditionNotSoldOut(_editionNumber)\n  whenCallerIsHighestBidder(_editionNumber)\n  returns (bool success)\n  {\n    // Bump the current highest bid by provided amount\n    editionBids[_editionNumber][msg.sender] = editionBids[_editionNumber][msg.sender].add(msg.value);\n\n    // Emit event\n    emit BidIncreased(msg.sender, _editionNumber, editionBids[_editionNumber][msg.sender]);\n\n    return true;\n  }\n\n  /**\n   * @dev Public method for withdrawing your bid, reverts if:\n   * - Contract is Paused\n   * - msg.sender is not the current highest bidder\n   * @dev removes current highest bid so there is no current highest bidder\n   * @return true on success\n   */\n  function withdrawBid(uint256 _editionNumber)\n  public\n  whenNotPaused\n  whenEditionExists(_editionNumber)\n  whenCallerIsHighestBidder(_editionNumber)\n  returns (bool success)\n  {\n    // get current highest bid and refund it\n    _refundHighestBidder(_editionNumber);\n\n    // Fire event\n    emit BidWithdrawn(msg.sender, _editionNumber);\n\n    return true;\n  }\n\n  /**\n   * @dev Method for cancelling an auction, only called from contract owner\n   * @dev refunds previous highest bidders bid\n   * @dev removes current highest bid so there is no current highest bidder\n   * @return true on success\n   */\n  function cancelAuction(uint256 _editionNumber)\n  public\n  onlyOwner\n  whenEditionExists(_editionNumber)\n  returns (bool success)\n  {\n    // get current highest bid and refund it\n    _refundHighestBidder(_editionNumber);\n\n    // Disable the auction\n    enabledEditions[_editionNumber] = false;\n\n    // Fire event\n    emit AuctionCancelled(_editionNumber);\n\n    return true;\n  }\n\n  /**\n   * @dev Method for accepting the highest bid, only called by edition creator, reverts if:\n   * - Contract is Paused\n   * - msg.sender is not the edition controller\n   * - Edition provided is not valid\n   * @dev Mints a new token in KODA contract\n   * @dev Splits bid amount to KO and Artist, based on KODA contract defined values\n   * @dev Removes current highest bid so there is no current highest bidder\n   * @dev If no more editions are available the auction is stopped\n   * @return the generated tokenId on success\n   */\n  function acceptBid(uint256 _editionNumber)\n  public\n  whenNotPaused\n  whenCallerIsController(_editionNumber) // Checks only the controller can call this\n  whenAuctionEnabled(_editionNumber) // Checks auction is still enabled\n  returns (uint256 tokenId)\n  {\n    // Get total remaining here so we can use it below\n    uint256 totalRemaining = kodaAddress.totalRemaining(_editionNumber);\n    require(totalRemaining > 0, \"Unable to accept bid, edition is sold out\");\n\n    // Get the winner of the bidding action\n    address winningAccount = editionHighestBid[_editionNumber];\n    require(winningAccount != address(0), \"Cannot win an auction when there is no highest bidder\");\n\n    uint256 winningBidAmount = editionBids[_editionNumber][winningAccount];\n    require(winningBidAmount >= 0, \"Cannot win an auction when no bid amount set\");\n\n    // Mint a new token to the winner\n    uint256 _tokenId = kodaAddress.mint(winningAccount, _editionNumber);\n    require(_tokenId != 0, \"Failed to mint new token\");\n\n    // Get the commission and split bid amount accordingly\n    address artistAccount;\n    uint256 artistCommission;\n    (artistAccount, artistCommission) = kodaAddress.artistCommission(_editionNumber);\n\n    // Extract the artists commission and send it\n    uint256 artistPayment = winningBidAmount.div(100).mul(artistCommission);\n    if (artistPayment > 0) {\n      artistAccount.transfer(artistPayment);\n    }\n\n    // Send KO remaining amount\n    uint256 remainingCommission = winningBidAmount.sub(artistPayment);\n    if (remainingCommission > 0) {\n      koCommissionAccount.transfer(remainingCommission);\n    }\n\n    // Clear out highest bidder for this auction\n    delete editionHighestBid[_editionNumber];\n\n    // If the edition is sold out, disable the auction\n    if (totalRemaining.sub(1) == 0) {\n      enabledEditions[_editionNumber] = false;\n    }\n\n    // Fire event\n    emit BidAccepted(winningAccount, _editionNumber, _tokenId, winningBidAmount);\n\n    return _tokenId;\n  }\n\n  /**\n   * Returns funds of the previous highest bidder back to them if present\n   */\n  function _refundHighestBidder(uint256 _editionNumber) internal {\n    // Get current highest bidder\n    address currentHighestBidder = editionHighestBid[_editionNumber];\n\n    // Get current highest bid amount\n    uint256 currentHighestBiddersAmount = editionBids[_editionNumber][currentHighestBidder];\n\n    if (currentHighestBidder != address(0) && currentHighestBiddersAmount > 0) {\n\n      // Clear out highest bidder as there is no long one\n      delete editionHighestBid[_editionNumber];\n\n      // Refund it\n      currentHighestBidder.transfer(currentHighestBiddersAmount);\n\n      // Emit event\n      emit BidderRefunded(_editionNumber, currentHighestBidder, currentHighestBiddersAmount);\n    }\n  }\n\n  ///////////////////////////////\n  // Public management methods //\n  ///////////////////////////////\n\n  /**\n   * @dev Enables the edition for auctions\n   * @dev Only callable from owner\n   */\n  function enableEdition(uint256 _editionNumber) onlyOwner public returns (bool) {\n    enabledEditions[_editionNumber] = true;\n    return true;\n  }\n\n  /**\n   * @dev Disables the edition for auctions\n   * @dev Only callable from owner\n   */\n  function disableEdition(uint256 _editionNumber) onlyOwner public returns (bool) {\n    enabledEditions[_editionNumber] = false;\n    return true;\n  }\n\n  /**\n   * @dev Sets the edition artist control address\n   * @dev Only callable from owner\n   */\n  function setArtistsControlAddress(uint256 _editionNumber, address _address) onlyOwner public returns (bool) {\n    editionNumberToArtistControlAddress[_editionNumber] = _address;\n    return true;\n  }\n\n  /**\n   * @dev Sets the edition artist control address and enables the edition for auction\n   * @dev Only callable from owner\n   */\n  function setArtistsControlAddressAndEnabledEdition(uint256 _editionNumber, address _address) onlyOwner public returns (bool) {\n    enabledEditions[_editionNumber] = true;\n    editionNumberToArtistControlAddress[_editionNumber] = _address;\n    return true;\n  }\n\n  /**\n   * @dev Sets the minimum bid amount\n   * @dev Only callable from owner\n   */\n  function setMinBidAmount(uint256 _minBidAmount) onlyOwner public {\n    minBidAmount = _minBidAmount;\n  }\n\n  /**\n   * @dev Sets the KODA address\n   * @dev Only callable from owner\n   */\n  function setKodavV2(IKODAV2 _kodaAddress) onlyOwner public {\n    kodaAddress = _kodaAddress;\n  }\n\n  /**\n   * @dev Sets the KODA address\n   * @dev Only callable from owner\n   */\n  function setKoCommissionAccount(address _koCommissionAccount) public onlyOwner {\n    require(_koCommissionAccount != address(0), \"Invalid address\");\n    koCommissionAccount = _koCommissionAccount;\n  }\n\n  /////////////////////////////\n  // Manual Override methods //\n  /////////////////////////////\n\n  /**\n   * @dev Allows for the ability to extract ether so we can distribute to the correct bidders accordingly\n   * @dev Only callable from owner\n   */\n  function withdrawStuckEther(address _withdrawalAccount) onlyOwner public {\n    require(_withdrawalAccount != address(0), \"Invalid address provided\");\n    require(address(this).balance != 0, \"No more ether to withdraw\");\n    _withdrawalAccount.transfer(address(this).balance);\n  }\n\n  /**\n   * @dev Allows for the ability to extract specific ether amounts so we can distribute to the correct bidders accordingly\n   * @dev Only callable from owner\n   */\n  function withdrawStuckEtherOfAmount(address _withdrawalAccount, uint256 _amount) onlyOwner public {\n    require(_withdrawalAccount != address(0), \"Invalid address provided\");\n    require(_amount != 0, \"Invalid amount to withdraw\");\n    require(address(this).balance >= _amount, \"No more ether to withdraw\");\n    _withdrawalAccount.transfer(_amount);\n  }\n\n  /**\n   * @dev Manual override method for setting edition highest bid & the highest bidder to the provided address\n   * @dev Only callable from owner\n   */\n  function manualOverrideEditionHighestBidAndBidder(uint256 _editionNumber, address _bidder, uint256 _amount) onlyOwner public returns (bool) {\n    editionBids[_editionNumber][_bidder] = _amount;\n    editionHighestBid[_editionNumber] = _bidder;\n    return true;\n  }\n\n  /**\n   * @dev Manual override method removing bidding values\n   * @dev Only callable from owner\n   */\n  function manualDeleteEditionBids(uint256 _editionNumber, address _bidder) onlyOwner public returns (bool) {\n    delete editionHighestBid[_editionNumber];\n    delete editionBids[_editionNumber][_bidder];\n    return true;\n  }\n\n  //////////////////////////\n  // Public query methods //\n  //////////////////////////\n\n  /**\n   * @dev Look up all the known data about the latest edition bidding round\n   * @dev Returns zeros for all values when not valid\n   */\n  function auctionDetails(uint256 _editionNumber) public view returns (bool _enabled, address _bidder, uint256 _value, address _controller) {\n    address highestBidder = editionHighestBid[_editionNumber];\n    uint256 bidValue = editionBids[_editionNumber][highestBidder];\n    address controlAddress = editionNumberToArtistControlAddress[_editionNumber];\n    return (\n    enabledEditions[_editionNumber],\n    highestBidder,\n    bidValue,\n    controlAddress\n    );\n  }\n\n  /**\n   * @dev Look up all the current highest bidder for the latest edition\n   * @dev Returns zeros for all values when not valid\n   */\n  function highestBidForEdition(uint256 _editionNumber) public view returns (address _bidder, uint256 _value) {\n    address highestBidder = editionHighestBid[_editionNumber];\n    uint256 bidValue = editionBids[_editionNumber][highestBidder];\n    return (highestBidder, bidValue);\n  }\n\n  /**\n   * @dev Check an edition is enabled for auction\n   */\n  function isEditionEnabled(uint256 _editionNumber) public view returns (bool) {\n    return enabledEditions[_editionNumber];\n  }\n\n  /**\n   * @dev Check which address can action a bid for the given edition\n   */\n  function editionController(uint256 _editionNumber) public view returns (address) {\n    return editionNumberToArtistControlAddress[_editionNumber];\n  }\n\n}\n",
  "sourcePath": "/Users/andy/workspace/known-origin-web3-marketplace/contracts/v2/auctions/ArtistAcceptingBids.sol",
  "compiler": {
    "name": "solc",
    "version": "0.4.24+commit.e67f0147.Emscripten.clang"
  },
  "schemaVersion": "3.0.0-beta.1",
  "updatedAt": "2018-10-25T13:29:39.319Z"
}