{
  "contractName": "ArtistAcceptingBids",
  "abi": [
    {
      "constant": false,
      "inputs": [],
      "name": "unpause",
      "outputs": [],
      "payable": false,
      "stateMutability": "nonpayable",
      "type": "function",
      "signature": "0x3f4ba83a"
    },
    {
      "constant": true,
      "inputs": [],
      "name": "minBidAmount",
      "outputs": [
        {
          "name": "",
          "type": "uint256"
        }
      ],
      "payable": false,
      "stateMutability": "view",
      "type": "function",
      "signature": "0x49751788"
    },
    {
      "constant": true,
      "inputs": [],
      "name": "paused",
      "outputs": [
        {
          "name": "",
          "type": "bool"
        }
      ],
      "payable": false,
      "stateMutability": "view",
      "type": "function",
      "signature": "0x5c975abb"
    },
    {
      "constant": true,
      "inputs": [],
      "name": "koCommissionAccount",
      "outputs": [
        {
          "name": "",
          "type": "address"
        }
      ],
      "payable": false,
      "stateMutability": "view",
      "type": "function",
      "signature": "0x6e93dbdc"
    },
    {
      "constant": false,
      "inputs": [],
      "name": "renounceOwnership",
      "outputs": [],
      "payable": false,
      "stateMutability": "nonpayable",
      "type": "function",
      "signature": "0x715018a6"
    },
    {
      "constant": false,
      "inputs": [],
      "name": "pause",
      "outputs": [],
      "payable": false,
      "stateMutability": "nonpayable",
      "type": "function",
      "signature": "0x8456cb59"
    },
    {
      "constant": true,
      "inputs": [],
      "name": "owner",
      "outputs": [
        {
          "name": "",
          "type": "address"
        }
      ],
      "payable": false,
      "stateMutability": "view",
      "type": "function",
      "signature": "0x8da5cb5b"
    },
    {
      "constant": true,
      "inputs": [],
      "name": "kodaAddress",
      "outputs": [
        {
          "name": "",
          "type": "address"
        }
      ],
      "payable": false,
      "stateMutability": "view",
      "type": "function",
      "signature": "0xe0758c9d"
    },
    {
      "constant": false,
      "inputs": [
        {
          "name": "_newOwner",
          "type": "address"
        }
      ],
      "name": "transferOwnership",
      "outputs": [],
      "payable": false,
      "stateMutability": "nonpayable",
      "type": "function",
      "signature": "0xf2fde38b"
    },
    {
      "inputs": [
        {
          "name": "_kodaAddress",
          "type": "address"
        }
      ],
      "payable": false,
      "stateMutability": "nonpayable",
      "type": "constructor",
      "signature": "constructor"
    },
    {
      "anonymous": false,
      "inputs": [
        {
          "indexed": true,
          "name": "_bidder",
          "type": "address"
        },
        {
          "indexed": true,
          "name": "_editionNumber",
          "type": "uint256"
        },
        {
          "indexed": true,
          "name": "_amount",
          "type": "uint256"
        }
      ],
      "name": "BidPlaced",
      "type": "event",
      "signature": "0xdf8644c0a4c21ed214ce69f395675b3a5fcd1039083daea5058898de40ea3149"
    },
    {
      "anonymous": false,
      "inputs": [
        {
          "indexed": true,
          "name": "_bidder",
          "type": "address"
        },
        {
          "indexed": true,
          "name": "_editionNumber",
          "type": "uint256"
        },
        {
          "indexed": true,
          "name": "_amount",
          "type": "uint256"
        }
      ],
      "name": "BidIncreased",
      "type": "event",
      "signature": "0xabdd90c2558a13a111c790b3e52da9a52768834a1139e2993b68b6db09c071c5"
    },
    {
      "anonymous": false,
      "inputs": [
        {
          "indexed": true,
          "name": "_bidder",
          "type": "address"
        },
        {
          "indexed": true,
          "name": "_editionNumber",
          "type": "uint256"
        }
      ],
      "name": "BidWithdrawn",
      "type": "event",
      "signature": "0x03f0427e8bcfdf5f69217150cf160ebe2dac5fa607336fd7643bfd61a9019080"
    },
    {
      "anonymous": false,
      "inputs": [
        {
          "indexed": true,
          "name": "_bidder",
          "type": "address"
        },
        {
          "indexed": true,
          "name": "_editionNumber",
          "type": "uint256"
        },
        {
          "indexed": true,
          "name": "_tokenId",
          "type": "uint256"
        },
        {
          "indexed": false,
          "name": "_amount",
          "type": "uint256"
        }
      ],
      "name": "BidAccepted",
      "type": "event",
      "signature": "0x77273c2a169296530c120eb6f1142012378aad0ed4337eac090eaf4223a1a2f1"
    },
    {
      "anonymous": false,
      "inputs": [
        {
          "indexed": true,
          "name": "_editionNumber",
          "type": "uint256"
        }
      ],
      "name": "EditionAuctionCanceled",
      "type": "event",
      "signature": "0xd80b530d37a21cce3efdd2ded0ebf5a50a2979f418fdc2c2efe241bc2499dc54"
    },
    {
      "anonymous": false,
      "inputs": [
        {
          "indexed": true,
          "name": "_editionNumber",
          "type": "uint256"
        },
        {
          "indexed": true,
          "name": "_bidder",
          "type": "address"
        },
        {
          "indexed": true,
          "name": "_amount",
          "type": "uint256"
        }
      ],
      "name": "BidderRefunded",
      "type": "event",
      "signature": "0xa01ed4ff1bfc084518bd795b4114da41c800c9ae1fc5e594cb505cb4c0c3fae1"
    },
    {
      "anonymous": false,
      "inputs": [],
      "name": "Pause",
      "type": "event",
      "signature": "0x6985a02210a168e66602d3235cb6db0e70f92b3ba4d376a33c0f3d9434bff625"
    },
    {
      "anonymous": false,
      "inputs": [],
      "name": "Unpause",
      "type": "event",
      "signature": "0x7805862f689e2f13df9f062ff482ad3ad112aca9e0847911ed832e158c525b33"
    },
    {
      "anonymous": false,
      "inputs": [
        {
          "indexed": true,
          "name": "previousOwner",
          "type": "address"
        }
      ],
      "name": "OwnershipRenounced",
      "type": "event",
      "signature": "0xf8df31144d9c2f0f6b59d69b8b98abd5459d07f2742c4df920b25aae33c64820"
    },
    {
      "anonymous": false,
      "inputs": [
        {
          "indexed": true,
          "name": "previousOwner",
          "type": "address"
        },
        {
          "indexed": true,
          "name": "newOwner",
          "type": "address"
        }
      ],
      "name": "OwnershipTransferred",
      "type": "event",
      "signature": "0x8be0079c531659141344cd1fd0a4f28419497f9722a3daafe3b4186f6b6457e0"
    },
    {
      "constant": false,
      "inputs": [
        {
          "name": "_editionNumber",
          "type": "uint256"
        }
      ],
      "name": "placeBid",
      "outputs": [
        {
          "name": "success",
          "type": "bool"
        }
      ],
      "payable": true,
      "stateMutability": "payable",
      "type": "function",
      "signature": "0x9979ef45"
    },
    {
      "constant": false,
      "inputs": [
        {
          "name": "_editionNumber",
          "type": "uint256"
        }
      ],
      "name": "increaseBid",
      "outputs": [
        {
          "name": "success",
          "type": "bool"
        }
      ],
      "payable": true,
      "stateMutability": "payable",
      "type": "function",
      "signature": "0x0070c537"
    },
    {
      "constant": false,
      "inputs": [
        {
          "name": "_editionNumber",
          "type": "uint256"
        }
      ],
      "name": "withdrawBid",
      "outputs": [
        {
          "name": "success",
          "type": "bool"
        }
      ],
      "payable": false,
      "stateMutability": "nonpayable",
      "type": "function",
      "signature": "0x0eaaf4c8"
    },
    {
      "constant": false,
      "inputs": [
        {
          "name": "_editionNumber",
          "type": "uint256"
        }
      ],
      "name": "cancelAuction",
      "outputs": [
        {
          "name": "success",
          "type": "bool"
        }
      ],
      "payable": false,
      "stateMutability": "nonpayable",
      "type": "function",
      "signature": "0x96b5a755"
    },
    {
      "constant": false,
      "inputs": [
        {
          "name": "_editionNumber",
          "type": "uint256"
        }
      ],
      "name": "acceptBid",
      "outputs": [
        {
          "name": "_tokenId",
          "type": "uint256"
        }
      ],
      "payable": false,
      "stateMutability": "nonpayable",
      "type": "function",
      "signature": "0x2b1fd58a"
    },
    {
      "constant": false,
      "inputs": [
        {
          "name": "_editionNumber",
          "type": "uint256"
        }
      ],
      "name": "enableEdition",
      "outputs": [
        {
          "name": "",
          "type": "bool"
        }
      ],
      "payable": false,
      "stateMutability": "nonpayable",
      "type": "function",
      "signature": "0xe4ae2e88"
    },
    {
      "constant": false,
      "inputs": [
        {
          "name": "_editionNumber",
          "type": "uint256"
        }
      ],
      "name": "disableEdition",
      "outputs": [
        {
          "name": "",
          "type": "bool"
        }
      ],
      "payable": false,
      "stateMutability": "nonpayable",
      "type": "function",
      "signature": "0x74b799af"
    },
    {
      "constant": false,
      "inputs": [
        {
          "name": "_editionNumber",
          "type": "uint256"
        },
        {
          "name": "_address",
          "type": "address"
        }
      ],
      "name": "setArtistsControlAddress",
      "outputs": [
        {
          "name": "",
          "type": "bool"
        }
      ],
      "payable": false,
      "stateMutability": "nonpayable",
      "type": "function",
      "signature": "0xe0397a94"
    },
    {
      "constant": false,
      "inputs": [
        {
          "name": "_editionNumber",
          "type": "uint256"
        },
        {
          "name": "_address",
          "type": "address"
        }
      ],
      "name": "setArtistsAddressAndEnabledEdition",
      "outputs": [
        {
          "name": "",
          "type": "bool"
        }
      ],
      "payable": false,
      "stateMutability": "nonpayable",
      "type": "function",
      "signature": "0xfa702622"
    },
    {
      "constant": false,
      "inputs": [
        {
          "name": "_minBidAmount",
          "type": "uint256"
        }
      ],
      "name": "setMinBidAmount",
      "outputs": [],
      "payable": false,
      "stateMutability": "nonpayable",
      "type": "function",
      "signature": "0x417fd6b6"
    },
    {
      "constant": false,
      "inputs": [
        {
          "name": "_kodaAddress",
          "type": "address"
        }
      ],
      "name": "setKodavV2",
      "outputs": [],
      "payable": false,
      "stateMutability": "nonpayable",
      "type": "function",
      "signature": "0xbbee17a3"
    },
    {
      "constant": false,
      "inputs": [
        {
          "name": "_koCommissionAccount",
          "type": "address"
        }
      ],
      "name": "setKoCommissionAccount",
      "outputs": [],
      "payable": false,
      "stateMutability": "nonpayable",
      "type": "function",
      "signature": "0x953e474a"
    },
    {
      "constant": false,
      "inputs": [
        {
          "name": "_withdrawalAccount",
          "type": "address"
        }
      ],
      "name": "withdrawStuckEther",
      "outputs": [],
      "payable": false,
      "stateMutability": "nonpayable",
      "type": "function",
      "signature": "0x26ccd77a"
    },
    {
      "constant": false,
      "inputs": [
        {
          "name": "_withdrawalAccount",
          "type": "address"
        },
        {
          "name": "_amount",
          "type": "uint256"
        }
      ],
      "name": "withdrawStuckEtherOfAmount",
      "outputs": [],
      "payable": false,
      "stateMutability": "nonpayable",
      "type": "function",
      "signature": "0xb9e04eea"
    },
    {
      "constant": false,
      "inputs": [
        {
          "name": "_editionNumber",
          "type": "uint256"
        },
        {
          "name": "_bidder",
          "type": "address"
        },
        {
          "name": "_amount",
          "type": "uint256"
        }
      ],
      "name": "manualOverrideEditionBid",
      "outputs": [
        {
          "name": "",
          "type": "bool"
        }
      ],
      "payable": false,
      "stateMutability": "nonpayable",
      "type": "function",
      "signature": "0xb5db26cd"
    },
    {
      "constant": false,
      "inputs": [
        {
          "name": "_editionNumber",
          "type": "uint256"
        },
        {
          "name": "_bidder",
          "type": "address"
        }
      ],
      "name": "manualOverrideEditionHighestBidder",
      "outputs": [
        {
          "name": "",
          "type": "bool"
        }
      ],
      "payable": false,
      "stateMutability": "nonpayable",
      "type": "function",
      "signature": "0x25084b04"
    },
    {
      "constant": false,
      "inputs": [
        {
          "name": "_editionNumber",
          "type": "uint256"
        },
        {
          "name": "_bidder",
          "type": "address"
        },
        {
          "name": "_amount",
          "type": "uint256"
        }
      ],
      "name": "manualOverrideEditionHighestBidAndBidder",
      "outputs": [
        {
          "name": "",
          "type": "bool"
        }
      ],
      "payable": false,
      "stateMutability": "nonpayable",
      "type": "function",
      "signature": "0x8ba5882a"
    },
    {
      "constant": false,
      "inputs": [
        {
          "name": "_editionNumber",
          "type": "uint256"
        },
        {
          "name": "_bidder",
          "type": "address"
        }
      ],
      "name": "manualDeleteEditionBids",
      "outputs": [
        {
          "name": "",
          "type": "bool"
        }
      ],
      "payable": false,
      "stateMutability": "nonpayable",
      "type": "function",
      "signature": "0x96d9a881"
    },
    {
      "constant": true,
      "inputs": [
        {
          "name": "_editionNumber",
          "type": "uint256"
        }
      ],
      "name": "auctionDetails",
      "outputs": [
        {
          "name": "_enabled",
          "type": "bool"
        },
        {
          "name": "_bidder",
          "type": "address"
        },
        {
          "name": "_value",
          "type": "uint256"
        },
        {
          "name": "_controller",
          "type": "address"
        }
      ],
      "payable": false,
      "stateMutability": "view",
      "type": "function",
      "signature": "0x8603d31a"
    },
    {
      "constant": true,
      "inputs": [
        {
          "name": "_editionNumber",
          "type": "uint256"
        }
      ],
      "name": "highestBidForEdition",
      "outputs": [
        {
          "name": "_bidder",
          "type": "address"
        },
        {
          "name": "_value",
          "type": "uint256"
        }
      ],
      "payable": false,
      "stateMutability": "view",
      "type": "function",
      "signature": "0x017b0d00"
    },
    {
      "constant": true,
      "inputs": [
        {
          "name": "_editionNumber",
          "type": "uint256"
        }
      ],
      "name": "isEditionEnabled",
      "outputs": [
        {
          "name": "",
          "type": "bool"
        }
      ],
      "payable": false,
      "stateMutability": "view",
      "type": "function",
      "signature": "0xe3ecbd7e"
    },
    {
      "constant": true,
      "inputs": [
        {
          "name": "_editionNumber",
          "type": "uint256"
        }
      ],
      "name": "editionController",
      "outputs": [
        {
          "name": "",
          "type": "address"
        }
      ],
      "payable": false,
      "stateMutability": "view",
      "type": "function",
      "signature": "0x5e101e51"
    }
  ],
  "bytecode": "0x60806040526000805460a060020a60ff0219169055662386f26fc1000060055534801561002b57600080fd5b50604051602080612262833981016040525160008054600160a060020a03199081163390811790925560068054600160a060020a0390941693821693909317909255600780549092161790556121dc806100866000396000f3006080604052600436106101895763ffffffff7c010000000000000000000000000000000000000000000000000000000060003504166270c537811461018e578063017b0d00146101ad5780630eaaf4c8146101e857806325084b041461020057806326ccd77a146102245780632b1fd58a146102475780633f4ba83a14610271578063417fd6b614610286578063497517881461029e5780635c975abb146102b35780635e101e51146102c85780636e93dbdc146102fc578063715018a61461031157806374b799af146103265780638456cb591461033e5780638603d31a146103535780638ba5882a1461039e5780638da5cb5b146103c5578063953e474a146103da57806396b5a755146103fb57806396d9a881146104135780639979ef4514610437578063b5db26cd14610442578063b9e04eea14610469578063bbee17a31461048d578063e0397a94146104ae578063e0758c9d146104d2578063e3ecbd7e146104e7578063e4ae2e88146104ff578063f2fde38b14610517578063fa70262214610538575b600080fd5b61019960043561055c565b604080519115158252519081900360200190f35b3480156101b957600080fd5b506101c5600435610974565b60408051600160a060020a03909316835260208301919091528051918290030190f35b3480156101f457600080fd5b506101996004356109a5565b34801561020c57600080fd5b50610199600435600160a060020a0360243516610b75565b34801561023057600080fd5b50610245600160a060020a0360043516610bbe565b005b34801561025357600080fd5b5061025f600435610cc7565b60408051918252519081900360200190f35b34801561027d57600080fd5b50610245611382565b34801561029257600080fd5b506102456004356113f8565b3480156102aa57600080fd5b5061025f611414565b3480156102bf57600080fd5b5061019961141a565b3480156102d457600080fd5b506102e060043561142a565b60408051600160a060020a039092168252519081900360200190f35b34801561030857600080fd5b506102e0611445565b34801561031d57600080fd5b50610245611454565b34801561033257600080fd5b506101996004356114b3565b34801561034a57600080fd5b506102456114e7565b34801561035f57600080fd5b5061036b600435611562565b604080519415158552600160a060020a039384166020860152848101929092529091166060830152519081900360800190f35b3480156103aa57600080fd5b50610199600435600160a060020a03602435166044356115b2565b3480156103d157600080fd5b506102e0611616565b3480156103e657600080fd5b50610245600160a060020a0360043516611625565b34801561040757600080fd5b506101996004356116be565b34801561041f57600080fd5b50610199600435600160a060020a0360243516611806565b61019960043561185e565b34801561044e57600080fd5b50610199600435600160a060020a0360243516604435611d06565b34801561047557600080fd5b50610245600160a060020a0360043516602435611d49565b34801561049957600080fd5b50610245600160a060020a0360043516611eab565b3480156104ba57600080fd5b50610199600435600160a060020a0360243516611ee4565b3480156104de57600080fd5b506102e0611f2f565b3480156104f357600080fd5b50610199600435611f3e565b34801561050b57600080fd5b50610199600435611f53565b34801561052357600080fd5b50610245600160a060020a0360043516611f8b565b34801561054457600080fd5b50610199600435600160a060020a0360243516611fae565b6000805460a060020a900460ff161561057457600080fd5b6005543410156105f4576040805160e560020a62461bcd02815260206004820152602b60248201527f42696473206d75737420626520686967686572207468616e206d696e696d756d60448201527f2062696420616d6f756e74000000000000000000000000000000000000000000606482015290519081900360840190fd5b6006546040805160e160020a6361597daf0281526004810185905290518492600092600160a060020a039091169163c2b2fb5e9160248082019260209290919082900301818787803b15801561064957600080fd5b505af115801561065d573d6000803e3d6000fd5b505050506040513d602081101561067357600080fd5b505190508015156106bc576040805160e560020a62461bcd0281526020600482015260166024820152600080516020612191833981519152604482015290519081900360640190fd5b600084815260026020526040902054849060ff16151561074c576040805160e560020a62461bcd02815260206004820152602360248201527f45646974696f6e206973206e6f7420656e61626c656420666f7220617563746960448201527f6f6e730000000000000000000000000000000000000000000000000000000000606482015290519081900360840190fd5b600654604080517fbc02844c0000000000000000000000000000000000000000000000000000000081526004810188905290518792600092600160a060020a039091169163bc02844c9160248082019260209290919082900301818787803b1580156107b757600080fd5b505af11580156107cb573d6000803e3d6000fd5b505050506040513d60208110156107e157600080fd5b5051905060008111610863576040805160e560020a62461bcd02815260206004820152603360248201527f556e61626c6520746f2061636365707420616e79206d6f726520626964732c2060448201527f65646974696f6e20697320736f6c64206f757400000000000000000000000000606482015290519081900360840190fd5b6000878152600360205260409020548790600160a060020a031633146108f9576040805160e560020a62461bcd02815260206004820152603560248201527f43616e206f6e6c7920776974686472617720612062696420696620796f75206160448201527f7265207468652068696768657374206269646465720000000000000000000000606482015290519081900360840190fd5b6000888152600460209081526040808320338452909152902054610923903463ffffffff61200e16565b6000898152600460209081526040808320338085529252808320849055518b927fabdd90c2558a13a111c790b3e52da9a52768834a1139e2993b68b6db09c071c591a4506001979650505050505050565b60009081526003602090815260408083205460048352818420600160a060020a039091168085529252909120549091565b6000805460a060020a900460ff16156109bd57600080fd5b6006546040805160e160020a6361597daf0281526004810185905290518492600092600160a060020a039091169163c2b2fb5e9160248082019260209290919082900301818787803b158015610a1257600080fd5b505af1158015610a26573d6000803e3d6000fd5b505050506040513d6020811015610a3c57600080fd5b50519050801515610a85576040805160e560020a62461bcd0281526020600482015260166024820152600080516020612191833981519152604482015290519081900360640190fd5b6000848152600360205260409020548490600160a060020a03163314610b1b576040805160e560020a62461bcd02815260206004820152603560248201527f43616e206f6e6c7920776974686472617720612062696420696620796f75206160448201527f7265207468652068696768657374206269646465720000000000000000000000606482015290519081900360840190fd5b610b248561201b565b6000858152600360205260408082208054600160a060020a031916905551869133917f03f0427e8bcfdf5f69217150cf160ebe2dac5fa607336fd7643bfd61a90190809190a3506001949350505050565b60008054600160a060020a03163314610b8d57600080fd5b5060008281526003602052604090208054600160a060020a031916600160a060020a03831617905560015b92915050565b600054600160a060020a03163314610bd557600080fd5b600160a060020a0381161515610c35576040805160e560020a62461bcd02815260206004820152601860248201527f496e76616c696420616464726573732070726f76696465640000000000000000604482015290519081900360640190fd5b30311515610c8d576040805160e560020a62461bcd02815260206004820152601960248201527f4e6f206d6f726520657468657220746f20776974686472617700000000000000604482015290519081900360640190fd5b604051600160a060020a03821690303180156108fc02916000818181858888f19350505050158015610cc3573d6000803e3d6000fd5b5050565b60008060008060008060008060008060149054906101000a900460ff16151515610cf057600080fd5b60008a8152600160205260409020548a90600160a060020a0316331480610d215750600054600160a060020a031633145b1515610d9d576040805160e560020a62461bcd02815260206004820152602660248201527f45646974696f6e206e6f74206d616e616765642062792063616c6c696e67206160448201527f6464726573730000000000000000000000000000000000000000000000000000606482015290519081900360840190fd5b60008b8152600260205260409020548b9060ff161515610e2d576040805160e560020a62461bcd02815260206004820152602360248201527f45646974696f6e206973206e6f7420656e61626c656420666f7220617563746960448201527f6f6e730000000000000000000000000000000000000000000000000000000000606482015290519081900360840190fd5b600654604080517fbc02844c000000000000000000000000000000000000000000000000000000008152600481018f90529051600160a060020a039092169163bc02844c916024808201926020929091908290030181600087803b158015610e9457600080fd5b505af1158015610ea8573d6000803e3d6000fd5b505050506040513d6020811015610ebe57600080fd5b5051995060008a11610f40576040805160e560020a62461bcd02815260206004820152602960248201527f556e61626c6520746f20616363657074206269642c2065646974696f6e20697360448201527f20736f6c64206f75740000000000000000000000000000000000000000000000606482015290519081900360840190fd5b60008c815260036020526040902054600160a060020a03169850881515610fd7576040805160e560020a62461bcd02815260206004820152603560248201527f43616e6e6f742077696e20616e2061756374696f6e207768656e20746865726560448201527f206973206e6f2068696768657374206269646465720000000000000000000000606482015290519081900360840190fd5b60008c8152600460209081526040808320600160a060020a038d16845290915281205498508811611078576040805160e560020a62461bcd02815260206004820152603760248201527f43616e6e6f742077696e20616e2061756374696f6e207768656e20626964206160448201527f6d6f756e7420756e64657220746865206d696e696d756d000000000000000000606482015290519081900360840190fd5b600660009054906101000a9004600160a060020a0316600160a060020a03166340c10f198a8e6040518363ffffffff167c01000000000000000000000000000000000000000000000000000000000281526004018083600160a060020a0316600160a060020a0316815260200182815260200192505050602060405180830381600087803b15801561110957600080fd5b505af115801561111d573d6000803e3d6000fd5b505050506040513d602081101561113357600080fd5b5051965086151561118e576040805160e560020a62461bcd02815260206004820152601860248201527f4661696c656420746f206d696e74206e657720746f6b656e0000000000000000604482015290519081900360640190fd5b600654604080517f32fd8478000000000000000000000000000000000000000000000000000000008152600481018f90528151600160a060020a03909316926332fd8478926024808401939192918290030181600087803b1580156111f257600080fd5b505af1158015611206573d6000803e3d6000fd5b505050506040513d604081101561121c57600080fd5b508051602090910151909650945061124b8561123f8a606463ffffffff6120d016565b9063ffffffff6120e516565b9350600084111561128e57604051600160a060020a0387169085156108fc029086906000818181858888f1935050505015801561128c573d6000803e3d6000fd5b505b61129e888563ffffffff61210e16565b925060008311156112e557600754604051600160a060020a039091169084156108fc029085906000818181858888f193505050501580156112e3573d6000803e3d6000fd5b505b60008c81526003602052604090208054600160a060020a03191690556113128a600163ffffffff61210e16565b151561132f5760008c8152600260205260409020805460ff191690555b868c8a600160a060020a03167f77273c2a169296530c120eb6f1142012378aad0ed4337eac090eaf4223a1a2f18b6040518082815260200191505060405180910390a450949a9950505050505050505050565b600054600160a060020a0316331461139957600080fd5b60005460a060020a900460ff1615156113b157600080fd5b6000805474ff0000000000000000000000000000000000000000191681556040517f7805862f689e2f13df9f062ff482ad3ad112aca9e0847911ed832e158c525b339190a1565b600054600160a060020a0316331461140f57600080fd5b600555565b60055481565b60005460a060020a900460ff1681565b600090815260016020526040902054600160a060020a031690565b600754600160a060020a031681565b600054600160a060020a0316331461146b57600080fd5b60008054604051600160a060020a03909116917ff8df31144d9c2f0f6b59d69b8b98abd5459d07f2742c4df920b25aae33c6482091a260008054600160a060020a0319169055565b60008054600160a060020a031633146114cb57600080fd5b506000908152600260205260409020805460ff19169055600190565b600054600160a060020a031633146114fe57600080fd5b60005460a060020a900460ff161561151557600080fd5b6000805474ff0000000000000000000000000000000000000000191660a060020a1781556040517f6985a02210a168e66602d3235cb6db0e70f92b3ba4d376a33c0f3d9434bff6259190a1565b60008181526003602090815260408083205460048352818420600160a060020a039182168086529084528285205486865260018552838620546002909552929094205460ff169392169193509193565b60008054600160a060020a031633146115ca57600080fd5b506000838152600460209081526040808320600160a060020a03959095168084529482528083209390935593815260039093529091208054600160a060020a0319169091179055600190565b600054600160a060020a031681565b600054600160a060020a0316331461163c57600080fd5b600160a060020a038116151561169c576040805160e560020a62461bcd02815260206004820152600f60248201527f496e76616c696420616464726573730000000000000000000000000000000000604482015290519081900360640190fd5b60078054600160a060020a031916600160a060020a0392909216919091179055565b60008054600160a060020a031633146116d657600080fd5b6006546040805160e160020a6361597daf0281526004810185905290518492600092600160a060020a039091169163c2b2fb5e9160248082019260209290919082900301818787803b15801561172b57600080fd5b505af115801561173f573d6000803e3d6000fd5b505050506040513d602081101561175557600080fd5b5051905080151561179e576040805160e560020a62461bcd0281526020600482015260166024820152600080516020612191833981519152604482015290519081900360640190fd5b6117a78461201b565b60008481526003602090815260408083208054600160a060020a03191690556002909152808220805460ff191690555185917fd80b530d37a21cce3efdd2ded0ebf5a50a2979f418fdc2c2efe241bc2499dc5491a25060019392505050565b60008054600160a060020a0316331461181e57600080fd5b5060009182526003602090815260408084208054600160a060020a031916905560048252808420600160a060020a03939093168452919052812055600190565b6000805460a060020a900460ff161561187657600080fd5b6006546040805160e160020a6361597daf0281526004810185905290518492600092600160a060020a039091169163c2b2fb5e9160248082019260209290919082900301818787803b1580156118cb57600080fd5b505af11580156118df573d6000803e3d6000fd5b505050506040513d60208110156118f557600080fd5b5051905080151561193e576040805160e560020a62461bcd0281526020600482015260166024820152600080516020612191833981519152604482015290519081900360640190fd5b600084815260026020526040902054849060ff1615156119ce576040805160e560020a62461bcd02815260206004820152602360248201527f45646974696f6e206973206e6f7420656e61626c656420666f7220617563746960448201527f6f6e730000000000000000000000000000000000000000000000000000000000606482015290519081900360840190fd5b60008581526003602090815260408083205460048352818420600160a060020a03909116808552925290912054600554879291903490611a1590839063ffffffff61200e16565b1115611a91576040805160e560020a62461bcd02815260206004820152603760248201527f42696473206d75737420626520686967686572207468616e2070726576696f7560448201527f73206269647320706c7573206d696e696d756d20626964000000000000000000606482015290519081900360840190fd5b6000888152600360205260409020548890600160a060020a031633811415611b29576040805160e560020a62461bcd02815260206004820152603560248201527f43616e742062696420616e796d6f72652c20796f752061726520616c7265616460448201527f79207468652063757272656e7420686967686573740000000000000000000000606482015290519081900360840190fd5b600654604080517fbc02844c000000000000000000000000000000000000000000000000000000008152600481018d905290518c92600092600160a060020a039091169163bc02844c9160248082019260209290919082900301818787803b158015611b9457600080fd5b505af1158015611ba8573d6000803e3d6000fd5b505050506040513d6020811015611bbe57600080fd5b5051905060008111611c40576040805160e560020a62461bcd02815260206004820152603360248201527f556e61626c6520746f2061636365707420616e79206d6f726520626964732c2060448201527f65646974696f6e20697320736f6c64206f757400000000000000000000000000606482015290519081900360840190fd5b611c498c61201b565b34600460008e8152602001908152602001600020600033600160a060020a0316600160a060020a031681526020019081526020016000208190555033600360008e815260200190815260200160002060006101000a815481600160a060020a030219169083600160a060020a03160217905550348c33600160a060020a03167fdf8644c0a4c21ed214ce69f395675b3a5fcd1039083daea5058898de40ea314960405160405180910390a45060019b9a5050505050505050505050565b60008054600160a060020a03163314611d1e57600080fd5b506000928352600460209081526040808520600160a060020a03949094168552929052912055600190565b600054600160a060020a03163314611d6057600080fd5b600160a060020a0382161515611dc0576040805160e560020a62461bcd02815260206004820152601860248201527f496e76616c696420616464726573732070726f76696465640000000000000000604482015290519081900360640190fd5b801515611e17576040805160e560020a62461bcd02815260206004820152601a60248201527f496e76616c696420616d6f756e7420746f207769746864726177000000000000604482015290519081900360640190fd5b3031811115611e70576040805160e560020a62461bcd02815260206004820152601960248201527f4e6f206d6f726520657468657220746f20776974686472617700000000000000604482015290519081900360640190fd5b604051600160a060020a0383169082156108fc029083906000818181858888f19350505050158015611ea6573d6000803e3d6000fd5b505050565b600054600160a060020a03163314611ec257600080fd5b60068054600160a060020a031916600160a060020a0392909216919091179055565b60008054600160a060020a03163314611efc57600080fd5b5060008281526001602081905260409091208054600160a060020a038416600160a060020a031990911617905592915050565b600654600160a060020a031681565b60009081526002602052604090205460ff1690565b60008054600160a060020a03163314611f6b57600080fd5b506000908152600260205260409020805460ff1916600190811790915590565b600054600160a060020a03163314611fa257600080fd5b611fab81612120565b50565b60008054600160a060020a03163314611fc657600080fd5b506000828152600260209081526040808320805460ff19166001908117909155918290529091208054600160a060020a038416600160a060020a031990911617905592915050565b81810182811015610bb857fe5b60008181526003602090815260408083205460048352818420600160a060020a0390911680855292529091205481158015906120575750600081115b15611ea657604051600160a060020a0383169082156108fc029083906000818181858888f19350505050158015612092573d6000803e3d6000fd5b508082600160a060020a0316847fa01ed4ff1bfc084518bd795b4114da41c800c9ae1fc5e594cb505cb4c0c3fae160405160405180910390a4505050565b600081838115156120dd57fe5b049392505050565b60008215156120f657506000610bb8565b5081810281838281151561210657fe5b0414610bb857fe5b60008282111561211a57fe5b50900390565b600160a060020a038116151561213557600080fd5b60008054604051600160a060020a03808516939216917f8be0079c531659141344cd1fd0a4f28419497f9722a3daafe3b4186f6b6457e091a360008054600160a060020a031916600160a060020a0392909216919091179055560045646974696f6e20646f6573206e6f7420657869737400000000000000000000a165627a7a723058208334d20d73bf6627396496da7630beba75efaf9a3195168189cd3a150d9f0f7d0029",
  "source": "pragma solidity 0.4.24;\n\nimport \"openzeppelin-solidity/contracts/ownership/Ownable.sol\";\nimport \"openzeppelin-solidity/contracts/lifecycle/Pausable.sol\";\nimport \"openzeppelin-solidity/contracts/math/SafeMath.sol\";\n\n/**\n* Auction interface definition - event and method definitions\n*\n* https://www.knownorigin.io/\n*/\ninterface IAuction {\n\n  event BidPlaced(\n    address indexed _bidder,\n    uint256 indexed _editionNumber,\n    uint256 indexed _amount\n  );\n\n  event BidIncreased(\n    address indexed _bidder,\n    uint256 indexed _editionNumber,\n    uint256 indexed _amount\n  );\n\n  event BidWithdrawn(\n    address indexed _bidder,\n    uint256 indexed _editionNumber\n  );\n\n  event BidAccepted(\n    address indexed _bidder,\n    uint256 indexed _editionNumber,\n    uint256 indexed _tokenId,\n    uint256 _amount\n  );\n\n  event EditionAuctionCanceled(\n    uint256 indexed _editionNumber\n  );\n\n  event BidderRefunded(\n    uint256 indexed _editionNumber,\n    address indexed _bidder,\n    uint256 indexed _amount\n  );\n\n  function placeBid(uint256 _editionNumber) external returns (bool success);\n\n  function increaseBid(uint256 _editionNumber) external returns (bool success);\n\n  function withdrawBid(uint256 _editionNumber) external returns (bool success);\n\n  function acceptBid(uint256 _editionNumber) external returns (bool success);\n\n  function cancelAuction(uint256 _editionNumber) external returns (bool success);\n}\n\n/**\n* Minimal interface definition for KODA V2 contract calls\n*\n* https://www.knownorigin.io/\n*/\ninterface IKODAV2 {\n  function mint(address _to, uint256 _editionNumber) external returns (uint256);\n\n  function editionExists(uint256 _editionNumber) external returns (bool);\n\n  function totalRemaining(uint256 _editionNumber) external view returns (uint256);\n\n  function artistCommission(uint256 _editionNumber) external view returns (address _artistAccount, uint256 _artistCommission);\n}\n\n/**\n* @title Artists accepting bidding contract for KnownOrigin (KODA)\n*\n* Rules:\n* Can only bid for an edition which is enabled\n* Can only add new bid higher than previous bid plus minimum bid amount (default is 0.01 eth)\n* Can increase your bid, only if you are the top current bidder\n* Once outbid, original bidder has ETH returned\n* Cannot double bid once you are already the highest bidder\n* Only the defined edition address can accept the bid\n* If a bid is revoked, the auction remains open however no highest bid exists\n* If the contract is Paused, no public actions can happen (worst case scenario)\n* Managers of contract have full control over it act as a fallback in-case funds go missing or bugs are found\n* On accepting of any bid, funds are split to KO and Artists - 3rd party split does not work (for now)\n* Contracts checks at various operations to see if edition is sold out, if sold out, auction is stopped, manual refund required by bidder\n* Upon cancelling a bid which is in flight, funds are returned and contract stops further bids on the edition\n* Artists commissions and address are pulled from the KODA contract, not the address who can accept the bid\n*\n* Scenario:\n* 1) Config artist & edition\n* 2) Bob places bid\n* 3) Alice places higher bid, overrides Bobs position as the leader, sends Bobs ETH back and takes 1st place\n* 4) Artist accepts highest bid\n* 5) Upon accepting, token generated and transferred to Alice, funds are absorbed and split as normal\n*\n* https://www.knownorigin.io/\n*\n* BE ORIGINAL. BUY ORIGINAL.\n*/\ncontract ArtistAcceptingBids is Ownable, Pausable, IAuction {\n  using SafeMath for uint256;\n\n  // A mapping of the control address to the edition number which enabled for auction\n  mapping(uint256 => address) internal editionNumberToControlAddress;\n\n  // Enabled/disable an editionNumber to be part of an auction\n  mapping(uint256 => bool) internal enabledEditions;\n\n  // Editions to address\n  mapping(uint256 => address) internal editionHighestBid;\n\n  // Mapping for edition -> bidder -> bid amount\n  mapping(uint256 => mapping(address => uint256)) editionBids;\n\n  // Min increase in bit about\n  uint256 public minBidAmount = 0.01 ether;\n\n  // Interface into the KODA world\n  IKODAV2 public kodaAddress;\n\n  // the KO account which can receive commission\n  address public koCommissionAccount;\n\n  ///////////////\n  // Modifiers //\n  ///////////////\n\n  // Checks the auction is enabled\n  modifier whenAuctionEnabled(uint256 _editionNumber) {\n    require(enabledEditions[_editionNumber], \"Edition is not enabled for auctions\");\n    _;\n  }\n\n  // TODO test owner\n  // Checks the msg.sender is the control address or the auction owner\n  modifier whenCallerIsController(uint256 _editionNumber) {\n    require(editionNumberToControlAddress[_editionNumber] == msg.sender || msg.sender == owner, \"Edition not managed by calling address\");\n    _;\n  }\n\n  // Checks the bid is higher than the current amount + min bid\n  modifier whenPlacedBidIsAboveMinAmount(uint256 _editionNumber) {\n    address currentHighestBidder = editionHighestBid[_editionNumber];\n    uint256 currentHighestBidderAmount = editionBids[_editionNumber][currentHighestBidder];\n    require(currentHighestBidderAmount.add(minBidAmount) <= msg.value, \"Bids must be higher than previous bids plus minimum bid\");\n    _;\n  }\n\n  // Checks the bid is higher than the min bid\n  modifier whenBidIncreaseIsAboveMinAmount() {\n    require(minBidAmount <= msg.value, \"Bids must be higher than minimum bid amount\");\n    _;\n  }\n\n  // Check the called in not already the highest bidder\n  modifier whenNotAlreadyTheHighestBidder(uint256 _editionNumber) {\n    address currentHighestBidder = editionHighestBid[_editionNumber];\n    require(currentHighestBidder != msg.sender, \"Cant bid anymore, you are already the current highest\");\n    _;\n  }\n\n  // Checks msg.sender is the highest bidder\n  modifier whenCallerIsHighestBidder(uint256 _editionNumber) {\n    require(editionHighestBid[_editionNumber] == msg.sender, \"Can only withdraw a bid if you are the highest bidder\");\n    _;\n  }\n\n  // Only when editions are not sold out in KO\n  modifier whenEditionNotSoldOut(uint256 _editionNumber) {\n    uint256 totalRemaining = kodaAddress.totalRemaining(_editionNumber);\n    require(totalRemaining > 0, \"Unable to accept any more bids, edition is sold out\");\n    _;\n  }\n\n  // Only when editions exists\n  modifier whenEditionExists(uint256 _editionNumber) {\n    bool editionExists = kodaAddress.editionExists(_editionNumber);\n    require(editionExists, \"Edition does not exist\");\n    _;\n  }\n\n  /////////////////\n  // Constructor //\n  /////////////////\n\n  // Set the caller as the default KO account\n  constructor(IKODAV2 _kodaAddress) public {\n    kodaAddress = _kodaAddress;\n    koCommissionAccount = msg.sender;\n  }\n\n  //////////////////////////\n  // Core Auction Methods //\n  //////////////////////////\n\n  /**\n   * @dev Public method for placing a bid, reverts if:\n   * - Contract is Paused\n   * - Edition provided is not valid\n   * - Edition provided is not configured for auctions\n   * - Edition provided is sold out\n   * - msg.sender is already the highest bidder\n   * - msg.value is not greater than highest bid + minimum amount\n   * @dev refunds the previous bidders ether if the bid is overwritten\n   * @return true on success\n   */\n  function placeBid(uint256 _editionNumber)\n  public\n  payable\n  whenNotPaused\n  whenEditionExists(_editionNumber) // Prevent invalid editions\n  whenAuctionEnabled(_editionNumber) // Prevent bids for editions not enabled\n  whenPlacedBidIsAboveMinAmount(_editionNumber) // Prevent bids below current price + min bid\n  whenNotAlreadyTheHighestBidder(_editionNumber) // Prevent double bids by the same address\n  whenEditionNotSoldOut(_editionNumber) // Checks not sold out in KO\n  returns (bool success)\n  {\n    // Grab the previous holders bid so we can refund it\n    _refundHighestBidder(_editionNumber);\n\n    // Keep a record of the current users bid (previous bidder has been refunded)\n    editionBids[_editionNumber][msg.sender] = msg.value;\n\n    // Update the highest bid to be the latest bidder\n    editionHighestBid[_editionNumber] = msg.sender;\n\n    // Emit event\n    emit BidPlaced(msg.sender, _editionNumber, msg.value);\n\n    return true;\n  }\n\n  /**\n   * @dev Public method for increasing your bid, reverts if:\n   * - Contract is Paused\n   * - Edition provided is not valid\n   * - Edition provided is not configured for auctions\n   * - Edition provided is sold out\n   * - msg.sender is not the current highest bidder\n   * @return true on success\n   */\n  function increaseBid(uint256 _editionNumber)\n  public\n  payable\n  whenNotPaused\n  whenBidIncreaseIsAboveMinAmount // Prevent increases less than min amount\n  whenEditionExists(_editionNumber) // Prevent invalid editions\n  whenAuctionEnabled(_editionNumber) // Prevent bids for editions not enabled\n  whenEditionNotSoldOut(_editionNumber) // Checks not sold out in KO\n  whenCallerIsHighestBidder(_editionNumber) // Check caller is the highest bidder\n  returns (bool success)\n  {\n    // Bump the current highest bid by provided amount\n    editionBids[_editionNumber][msg.sender] = editionBids[_editionNumber][msg.sender].add(msg.value);\n\n    // Emit event\n    emit BidIncreased(msg.sender, _editionNumber, editionBids[_editionNumber][msg.sender]);\n\n    return true;\n  }\n\n  /**\n   * @dev Public method for withdrawing your bid, reverts if:\n   * - Contract is Paused\n   * - msg.sender is not the current highest bidder\n   * @dev removes current highest bid so there is no current highest bidder\n   * @return true on success\n   */\n  function withdrawBid(uint256 _editionNumber)\n  public\n  whenNotPaused\n  whenEditionExists(_editionNumber) // Prevent invalid editions\n  whenCallerIsHighestBidder(_editionNumber) // Check caller is the highest bidder\n  returns (bool success)\n  {\n    // get current highest bid and refund it\n    _refundHighestBidder(_editionNumber);\n\n    // Clear out highest bidder as there is not long one\n    delete editionHighestBid[_editionNumber];\n\n    // Fire event\n    emit BidWithdrawn(msg.sender, _editionNumber);\n\n    return true;\n  }\n\n  /**\n   * @dev Method for cancelling an auction, only called from contract owner\n   * @dev refunds previous highest bidders bid\n   * @dev removes current highest bid so there is no current highest bidder\n   * @return true on success\n   */\n  function cancelAuction(uint256 _editionNumber)\n  public\n  onlyOwner\n  whenEditionExists(_editionNumber) // Prevent invalid editions\n  returns (bool success)\n  {\n    // get current highest bid and refund it\n    _refundHighestBidder(_editionNumber);\n\n    // Clear out highest bidder as there is not long one\n    delete editionHighestBid[_editionNumber];\n\n    // Disable the auction\n    enabledEditions[_editionNumber] = false;\n\n    // Fire event\n    emit EditionAuctionCanceled(_editionNumber);\n\n    return true;\n  }\n\n  /**\n   * @dev Method for accepting the highest bid, only called by edition creator, reverts if:\n   * - Contract is Paused\n   * - msg.sender is not the edition controller\n   * - Edition provided is not valid\n   * @dev Mints a new token in KODA contract\n   * @dev Splits bid amount to KO and Artist, based on KODA contract defined values\n   * @dev Removes current highest bid so there is no current highest bidder\n   * @dev If no more editions are available the auction is stopped\n   * @return the generated tokenId on success\n   */\n  function acceptBid(uint256 _editionNumber)\n  public\n  whenNotPaused\n  whenCallerIsController(_editionNumber) // Checks only the artist can this this\n  whenAuctionEnabled(_editionNumber) // Checks auction is still enabled\n  returns (uint256 _tokenId)\n  {\n    // Get total remaining here so we can use it below\n    uint256 totalRemaining = kodaAddress.totalRemaining(_editionNumber);\n    require(totalRemaining > 0, \"Unable to accept bid, edition is sold out\");\n\n    // Get the winner of the bidding action\n    address winningAccount = editionHighestBid[_editionNumber];\n    require(winningAccount != address(0), \"Cannot win an auction when there is no highest bidder\");\n\n    uint256 winningBidAmount = editionBids[_editionNumber][winningAccount];\n    require(winningBidAmount > 0, \"Cannot win an auction when bid amount under the minimum\");\n\n    // Mint a new token to the winner\n    uint256 tokenId = kodaAddress.mint(winningAccount, _editionNumber);\n    require(tokenId != 0, \"Failed to mint new token\");\n\n    // Get the commission and split bid amount accordingly\n    address artistAccount;\n    uint256 artistCommission;\n    (artistAccount, artistCommission) = kodaAddress.artistCommission(_editionNumber);\n\n    // Extract the artists commission and send it\n    uint256 artistPayment = winningBidAmount.div(100).mul(artistCommission);\n    if (artistPayment > 0) {\n      artistAccount.transfer(artistPayment);\n    }\n\n    // Send KO remaining amount\n    uint256 remainingCommission = winningBidAmount.sub(artistPayment);\n    if (remainingCommission > 0) {\n      koCommissionAccount.transfer(remainingCommission);\n    }\n\n    // Clear out highest bidder for this auction\n    delete editionHighestBid[_editionNumber];\n\n    // If the edition is sold out, disable the auction\n    if (totalRemaining.sub(1) == 0) {\n      enabledEditions[_editionNumber] = false;\n    }\n\n    // Fire event\n    emit BidAccepted(winningAccount, _editionNumber, tokenId, winningBidAmount);\n\n    return tokenId;\n  }\n\n  /**\n   * Returns funds of the previous highest bidder back to them if present\n   */\n  function _refundHighestBidder(uint256 _editionNumber) internal {\n    // Get current highest bidder\n    address currentHighestBidder = editionHighestBid[_editionNumber];\n\n    // Get current highest bid amount\n    uint256 currentHighestBiddersAmount = editionBids[_editionNumber][currentHighestBidder];\n\n    if (currentHighestBidder != address(0) && currentHighestBiddersAmount > 0) {\n      // Refund it\n      currentHighestBidder.transfer(currentHighestBiddersAmount);\n\n      emit BidderRefunded(_editionNumber, currentHighestBidder, currentHighestBiddersAmount);\n    }\n  }\n\n  ///////////////////////////////\n  // Public management methods //\n  ///////////////////////////////\n\n  /**\n   * @dev Enables the edition for auctions\n   * @dev Only callable from owner\n   */\n  function enableEdition(uint256 _editionNumber) onlyOwner public returns (bool) {\n    enabledEditions[_editionNumber] = true;\n    return true;\n  }\n\n  /**\n   * @dev Disables the edition for auctions\n   * @dev Only callable from owner\n   */\n  function disableEdition(uint256 _editionNumber) onlyOwner public returns (bool) {\n    enabledEditions[_editionNumber] = false;\n    return true;\n  }\n\n  /**\n   * @dev Sets the edition control address\n   * @dev Only callable from owner\n   */\n  function setArtistsControlAddress(uint256 _editionNumber, address _address) onlyOwner public returns (bool) {\n    editionNumberToControlAddress[_editionNumber] = _address;\n    return true;\n  }\n\n  /**\n   * @dev Sets the edition control address and enables the edition for auction\n   * @dev Only callable from owner\n   */\n  function setArtistsAddressAndEnabledEdition(uint256 _editionNumber, address _address) onlyOwner public returns (bool) {\n    enabledEditions[_editionNumber] = true;\n    editionNumberToControlAddress[_editionNumber] = _address;\n    return true;\n  }\n\n  /**\n   * @dev Sets the minimum bid amount\n   * @dev Only callable from owner\n   */\n  function setMinBidAmount(uint256 _minBidAmount) onlyOwner public {\n    minBidAmount = _minBidAmount;\n  }\n\n  /**\n   * @dev Sets the KODA address\n   * @dev Only callable from owner\n   */\n  function setKodavV2(IKODAV2 _kodaAddress) onlyOwner public {\n    kodaAddress = _kodaAddress;\n  }\n\n  /**\n   * @dev Sets the KODA address\n   * @dev Only callable from owner\n   */\n  function setKoCommissionAccount(address _koCommissionAccount) public onlyOwner {\n    require(_koCommissionAccount != address(0), \"Invalid address\");\n    koCommissionAccount = _koCommissionAccount;\n  }\n\n  /////////////////////////////\n  // Manual Override methods //\n  /////////////////////////////\n\n  /**\n   * @dev Last ditch resort to extract ether so we can distribute to the correct bidders accordingly, better safe than stuck\n   * @dev Only callable from owner\n   */\n  function withdrawStuckEther(address _withdrawalAccount) onlyOwner public {\n    require(_withdrawalAccount != address(0), \"Invalid address provided\");\n    require(address(this).balance != 0, \"No more ether to withdraw\");\n    _withdrawalAccount.transfer(address(this).balance);\n  }\n\n  /**\n   * @dev Allows withdrawal of an amount to an address\n   * @dev Only callable from owner\n   */\n  function withdrawStuckEtherOfAmount(address _withdrawalAccount, uint256 _amount) onlyOwner public {\n    require(_withdrawalAccount != address(0), \"Invalid address provided\");\n    require(_amount != 0, \"Invalid amount to withdraw\");\n    require(address(this).balance >= _amount, \"No more ether to withdraw\");\n    _withdrawalAccount.transfer(_amount);\n  }\n\n  /**\n   * @dev Manual override (last resort) method for overriding an edition bid\n   * @dev Only callable from owner\n   */\n  function manualOverrideEditionBid(uint256 _editionNumber, address _bidder, uint256 _amount) onlyOwner public returns (bool) {\n    editionBids[_editionNumber][_bidder] = _amount;\n    return true;\n  }\n\n  /**\n   * @dev Manual override (last resort) method for setting edition highest bid\n   * @dev Only callable from owner\n   */\n  function manualOverrideEditionHighestBidder(uint256 _editionNumber, address _bidder) onlyOwner public returns (bool) {\n    editionHighestBid[_editionNumber] = _bidder;\n    return true;\n  }\n\n  /**\n   * @dev Manual override (last resort) method for setting edition highest bid & the highest bidder to the provided address\n   * @dev Only callable from owner\n   */\n  function manualOverrideEditionHighestBidAndBidder(uint256 _editionNumber, address _bidder, uint256 _amount) onlyOwner public returns (bool) {\n    editionBids[_editionNumber][_bidder] = _amount;\n    editionHighestBid[_editionNumber] = _bidder;\n    return true;\n  }\n\n  /**\n   * @dev Manual override (last resort) method removing bidding values\n   * @dev Only callable from owner\n   */\n  function manualDeleteEditionBids(uint256 _editionNumber, address _bidder) onlyOwner public returns (bool) {\n    delete editionHighestBid[_editionNumber];\n    delete editionBids[_editionNumber][_bidder];\n    return true;\n  }\n\n  //////////////////////////\n  // Public query methods //\n  //////////////////////////\n\n  /**\n   * @dev Look up all the known data about the latest edition bidding round\n   * @dev Returns zeros for all values when not valid\n   */\n  function auctionDetails(uint256 _editionNumber) public view returns (bool _enabled, address _bidder, uint256 _value, address _controller) {\n    address highestBidder = editionHighestBid[_editionNumber];\n    uint256 bidValue = editionBids[_editionNumber][highestBidder];\n    address controlAddress = editionNumberToControlAddress[_editionNumber];\n    return (\n    enabledEditions[_editionNumber],\n    highestBidder,\n    bidValue,\n    controlAddress\n    );\n  }\n\n  /**\n   * @dev Look up all the current highest bidder for the latest edition\n   * @dev Returns zeros for all values when not valid\n   */\n  function highestBidForEdition(uint256 _editionNumber) public view returns (address _bidder, uint256 _value) {\n    address highestBidder = editionHighestBid[_editionNumber];\n    uint256 bidValue = editionBids[_editionNumber][highestBidder];\n    return (highestBidder, bidValue);\n  }\n\n  /**\n   * @dev Check an edition is enabled for auction\n   */\n  function isEditionEnabled(uint256 _editionNumber) public view returns (bool) {\n    return enabledEditions[_editionNumber];\n  }\n\n  /**\n   * @dev Check which address can action a bid for the given edition\n   */\n  function editionController(uint256 _editionNumber) public view returns (address) {\n    return editionNumberToControlAddress[_editionNumber];\n  }\n\n}\n",
  "sourcePath": "/Users/jamesmorgan/Dropbox/workspace-blockrocket/known-origin-web3-marketplace/contracts/v2/auctions/ArtistAcceptingBids.sol",
  "compiler": {
    "name": "solc",
    "version": "0.4.24+commit.e67f0147.Emscripten.clang"
  },
  "schemaVersion": "3.0.0-beta.1",
  "updatedAt": "2018-10-12T13:49:10.757Z"
}