{
  "contractName": "ArtistEditionControls",
  "abi": [
    {
      "constant": false,
      "inputs": [],
      "name": "unpause",
      "outputs": [],
      "payable": false,
      "stateMutability": "nonpayable",
      "type": "function",
      "signature": "0x3f4ba83a"
    },
    {
      "constant": true,
      "inputs": [],
      "name": "paused",
      "outputs": [
        {
          "name": "",
          "type": "bool"
        }
      ],
      "payable": false,
      "stateMutability": "view",
      "type": "function",
      "signature": "0x5c975abb"
    },
    {
      "constant": false,
      "inputs": [],
      "name": "renounceOwnership",
      "outputs": [],
      "payable": false,
      "stateMutability": "nonpayable",
      "type": "function",
      "signature": "0x715018a6"
    },
    {
      "constant": false,
      "inputs": [],
      "name": "pause",
      "outputs": [],
      "payable": false,
      "stateMutability": "nonpayable",
      "type": "function",
      "signature": "0x8456cb59"
    },
    {
      "constant": true,
      "inputs": [],
      "name": "owner",
      "outputs": [
        {
          "name": "",
          "type": "address"
        }
      ],
      "payable": false,
      "stateMutability": "view",
      "type": "function",
      "signature": "0x8da5cb5b"
    },
    {
      "constant": true,
      "inputs": [],
      "name": "kodaAddress",
      "outputs": [
        {
          "name": "",
          "type": "address"
        }
      ],
      "payable": false,
      "stateMutability": "view",
      "type": "function",
      "signature": "0xe0758c9d"
    },
    {
      "constant": false,
      "inputs": [
        {
          "name": "_newOwner",
          "type": "address"
        }
      ],
      "name": "transferOwnership",
      "outputs": [],
      "payable": false,
      "stateMutability": "nonpayable",
      "type": "function",
      "signature": "0xf2fde38b"
    },
    {
      "inputs": [
        {
          "name": "_kodaAddress",
          "type": "address"
        }
      ],
      "payable": false,
      "stateMutability": "nonpayable",
      "type": "constructor",
      "signature": "constructor"
    },
    {
      "anonymous": false,
      "inputs": [],
      "name": "Pause",
      "type": "event",
      "signature": "0x6985a02210a168e66602d3235cb6db0e70f92b3ba4d376a33c0f3d9434bff625"
    },
    {
      "anonymous": false,
      "inputs": [],
      "name": "Unpause",
      "type": "event",
      "signature": "0x7805862f689e2f13df9f062ff482ad3ad112aca9e0847911ed832e158c525b33"
    },
    {
      "anonymous": false,
      "inputs": [
        {
          "indexed": true,
          "name": "previousOwner",
          "type": "address"
        }
      ],
      "name": "OwnershipRenounced",
      "type": "event",
      "signature": "0xf8df31144d9c2f0f6b59d69b8b98abd5459d07f2742c4df920b25aae33c64820"
    },
    {
      "anonymous": false,
      "inputs": [
        {
          "indexed": true,
          "name": "previousOwner",
          "type": "address"
        },
        {
          "indexed": true,
          "name": "newOwner",
          "type": "address"
        }
      ],
      "name": "OwnershipTransferred",
      "type": "event",
      "signature": "0x8be0079c531659141344cd1fd0a4f28419497f9722a3daafe3b4186f6b6457e0"
    },
    {
      "constant": false,
      "inputs": [
        {
          "name": "_to",
          "type": "address"
        },
        {
          "name": "_editionNumber",
          "type": "uint256"
        }
      ],
      "name": "mint",
      "outputs": [
        {
          "name": "",
          "type": "uint256"
        }
      ],
      "payable": false,
      "stateMutability": "nonpayable",
      "type": "function",
      "signature": "0x40c10f19"
    },
    {
      "constant": false,
      "inputs": [
        {
          "name": "_editionNumber",
          "type": "uint256"
        },
        {
          "name": "_priceInWei",
          "type": "uint256"
        }
      ],
      "name": "setPriceInWei",
      "outputs": [
        {
          "name": "",
          "type": "bool"
        }
      ],
      "payable": false,
      "stateMutability": "nonpayable",
      "type": "function",
      "signature": "0x7e298249"
    },
    {
      "constant": false,
      "inputs": [
        {
          "name": "_kodaAddress",
          "type": "address"
        }
      ],
      "name": "setKodavV2",
      "outputs": [],
      "payable": false,
      "stateMutability": "nonpayable",
      "type": "function",
      "signature": "0xbbee17a3"
    }
  ],
  "bytecode": "0x60806040526000805460a060020a60ff021916905534801561002057600080fd5b50604051602080610bd2833981016040525160008054600160a060020a0319908116331790915560018054600160a060020a0390931692909116919091179055610b638061006f6000396000f3006080604052600436106100a35763ffffffff7c01000000000000000000000000000000000000000000000000000000006000350416633f4ba83a81146100a857806340c10f19146100bf5780635c975abb146100f5578063715018a61461011e5780637e298249146101335780638456cb591461014e5780638da5cb5b14610163578063bbee17a314610194578063e0758c9d146101b5578063f2fde38b146101ca575b600080fd5b3480156100b457600080fd5b506100bd6101eb565b005b3480156100cb57600080fd5b506100e3600160a060020a0360043516602435610261565b60408051918252519081900360200190f35b34801561010157600080fd5b5061010a610680565b604080519115158252519081900360200190f35b34801561012a57600080fd5b506100bd610690565b34801561013f57600080fd5b5061010a6004356024356106fc565b34801561015a57600080fd5b506100bd6109b8565b34801561016f57600080fd5b50610178610a33565b60408051600160a060020a039092168252519081900360200190f35b3480156101a057600080fd5b506100bd600160a060020a0360043516610a42565b3480156101c157600080fd5b50610178610a88565b3480156101d657600080fd5b506100bd600160a060020a0360043516610a97565b600054600160a060020a0316331461020257600080fd5b60005460a060020a900460ff16151561021a57600080fd5b6000805474ff0000000000000000000000000000000000000000191681556040517f7805862f689e2f13df9f062ff482ad3ad112aca9e0847911ed832e158c525b339190a1565b60008054819081908190819060a060020a900460ff161561028157600080fd5b600160a060020a038716156102e0576040805160e560020a62461bcd02815260206004820152601e60248201527f556e61626c6520746f2073656e6420746f207a65726f20616464726573730000604482015290519081900360640190fd5b600154604080517f32fd8478000000000000000000000000000000000000000000000000000000008152600481018990528151600160a060020a03909316926332fd8478926024808401939192918290030181600087803b15801561034457600080fd5b505af1158015610358573d6000803e3d6000fd5b505050506040513d604081101561036e57600080fd5b508051602090910151909450925033600160a060020a03851614610401576040805160e560020a62461bcd028152602060048201526024808201527f4f6e6c792066726f6d207468652065646974696f6e206172746973742061636360448201527f6f756e7400000000000000000000000000000000000000000000000000000000606482015290519081900360840190fd5b600154604080517fbbd1e1fc000000000000000000000000000000000000000000000000000000008152600481018990529051600160a060020a039092169163bbd1e1fc916024808201926020929091908290030181600087803b15801561046857600080fd5b505af115801561047c573d6000803e3d6000fd5b505050506040513d602081101561049257600080fd5b505191508115156104ed576040805160e560020a62461bcd02815260206004820152601b60248201527f4f6e6c79207768656e2065646974696f6e206973206163746976650000000000604482015290519081900360640190fd5b600154604080517fbc02844c000000000000000000000000000000000000000000000000000000008152600481018990529051600160a060020a039092169163bc02844c916024808201926020929091908290030181600087803b15801561055457600080fd5b505af1158015610568573d6000803e3d6000fd5b505050506040513d602081101561057e57600080fd5b50519050600281116105da576040805160e560020a62461bcd02815260206004820152601e60248201527f43616e6e6f74206d696e7420616e79206d6f72652066726f6d20686572650000604482015290519081900360640190fd5b600154604080517f40c10f19000000000000000000000000000000000000000000000000000000008152600160a060020a038a81166004830152602482018a9052915191909216916340c10f199160448083019260209291908290030181600087803b15801561064957600080fd5b505af115801561065d573d6000803e3d6000fd5b505050506040513d602081101561067357600080fd5b5051979650505050505050565b60005460a060020a900460ff1681565b600054600160a060020a031633146106a757600080fd5b60008054604051600160a060020a03909116917ff8df31144d9c2f0f6b59d69b8b98abd5459d07f2742c4df920b25aae33c6482091a26000805473ffffffffffffffffffffffffffffffffffffffff19169055565b6000805481908190819060a060020a900460ff161561071a57600080fd5b600154604080517f32fd8478000000000000000000000000000000000000000000000000000000008152600481018990528151600160a060020a03909316926332fd8478926024808401939192918290030181600087803b15801561077e57600080fd5b505af1158015610792573d6000803e3d6000fd5b505050506040513d60408110156107a857600080fd5b508051602090910151909350915033600160a060020a0384161461083b576040805160e560020a62461bcd028152602060048201526024808201527f4f6e6c792066726f6d207468652065646974696f6e206172746973742061636360448201527f6f756e7400000000000000000000000000000000000000000000000000000000606482015290519081900360840190fd5b600154604080517fbbd1e1fc000000000000000000000000000000000000000000000000000000008152600481018990529051600160a060020a039092169163bbd1e1fc916024808201926020929091908290030181600087803b1580156108a257600080fd5b505af11580156108b6573d6000803e3d6000fd5b505050506040513d60208110156108cc57600080fd5b50519050801515610927576040805160e560020a62461bcd02815260206004820152601b60248201527f4f6e6c79207768656e2065646974696f6e206973206163746976650000000000604482015290519081900360640190fd5b600154604080517f7eb9f04a00000000000000000000000000000000000000000000000000000000815260048101899052602481018890529051600160a060020a0390921691637eb9f04a9160448082019260009290919082900301818387803b15801561099457600080fd5b505af11580156109a8573d6000803e3d6000fd5b5060019998505050505050505050565b600054600160a060020a031633146109cf57600080fd5b60005460a060020a900460ff16156109e657600080fd5b6000805474ff0000000000000000000000000000000000000000191660a060020a1781556040517f6985a02210a168e66602d3235cb6db0e70f92b3ba4d376a33c0f3d9434bff6259190a1565b600054600160a060020a031681565b600054600160a060020a03163314610a5957600080fd5b6001805473ffffffffffffffffffffffffffffffffffffffff1916600160a060020a0392909216919091179055565b600154600160a060020a031681565b600054600160a060020a03163314610aae57600080fd5b610ab781610aba565b50565b600160a060020a0381161515610acf57600080fd5b60008054604051600160a060020a03808516939216917f8be0079c531659141344cd1fd0a4f28419497f9722a3daafe3b4186f6b6457e091a36000805473ffffffffffffffffffffffffffffffffffffffff1916600160a060020a03929092169190911790555600a165627a7a7230582023c29ad050322d62a1e223e14f634a2f7e0af37f1b120861b0542bb1b6dadc140029",
  "source": "pragma solidity 0.4.24;\n\nimport \"openzeppelin-solidity/contracts/ownership/Ownable.sol\";\nimport \"openzeppelin-solidity/contracts/lifecycle/Pausable.sol\";\nimport \"openzeppelin-solidity/contracts/math/SafeMath.sol\";\n\n/**\n* Minimal interface definition for KODA V2 contract calls\n*\n* https://www.knownorigin.io/\n*/\ninterface IKODAV2Controls {\n  function mint(address _to, uint256 _editionNumber) external returns (uint256);\n\n  function editionActive(uint256 _editionNumber) external view returns (bool);\n\n  function artistCommission(uint256 _editionNumber) external view returns (address _artistAccount, uint256 _artistCommission);\n\n  function totalAvailableEdition(uint256 _editionNumber) external view returns (uint256);\n\n  function updatePriceInWei(uint256 _editionNumber, uint256 _priceInWei) external;\n\n  function totalRemaining(uint256 _editionNumber) external view returns (uint256);\n}\n\n/**\n* @title Artists self minting for KnownOrigin (KODA)\n*\n* Allows for the edition artists to mint there own assets and control the price of an edition\n*\n* https://www.knownorigin.io/\n*\n* BE ORIGINAL. BUY ORIGINAL.\n*/\ncontract ArtistEditionControls is Ownable, Pausable {\n  using SafeMath for uint256;\n\n  // Interface into the KODA world\n  IKODAV2Controls public kodaAddress;\n\n  constructor(IKODAV2Controls _kodaAddress) public {\n    kodaAddress = _kodaAddress;\n  }\n\n  /**\n   * @dev Ability to mint new NFTs from an edition\n   * @dev Only callable from edition artists defined in KODA NFT contract\n   * @dev Only callable when contract is not paused\n   * @dev Reverts if edition is invalid\n   * @dev Reverts if edition is not active in KDOA NFT contract\n   * @dev Reverts if remaining assets in an edition are great than 2\n   */\n  function mint(address _to, uint256 _editionNumber)\n  external\n  whenNotPaused\n  returns (uint256)\n  {\n    require(_to == address(0), \"Unable to send to zero address\");\n\n    address artistAccount;\n    uint256 artistCommission;\n    (artistAccount, artistCommission) = kodaAddress.artistCommission(_editionNumber);\n    require(msg.sender == artistAccount, \"Only from the edition artist account\");\n\n    bool isActive = kodaAddress.editionActive(_editionNumber);\n    require(isActive, \"Only when edition is active\");\n\n    uint256 totalRemaining = kodaAddress.totalRemaining(_editionNumber);\n    require(totalRemaining > 2, \"Cannot mint any more from here\");\n\n    return kodaAddress.mint(_to, _editionNumber);\n  }\n\n  /**\n   * @dev Sets the price of the provided edition in the WEI\n   * @dev Only callable from edition artists defined in KODA NFT contract\n   * @dev Only callable when contract is not paused\n   * @dev Reverts if edition is invalid\n   * @dev Reverts if edition is not active in KDOA NFT contract\n   */\n  function setPriceInWei(uint256 _editionNumber, uint256 _priceInWei)\n  external\n  whenNotPaused\n  returns (bool)\n  {\n    address artistAccount;\n    uint256 artistCommission;\n    (artistAccount, artistCommission) = kodaAddress.artistCommission(_editionNumber);\n    require(msg.sender == artistAccount, \"Only from the edition artist account\");\n\n    bool isActive = kodaAddress.editionActive(_editionNumber);\n    require(isActive, \"Only when edition is active\");\n\n    kodaAddress.updatePriceInWei(_editionNumber, _priceInWei);\n\n    return true;\n  }\n\n  /**\n   * @dev Sets the KODA address\n   * @dev Only callable from owner\n   */\n  function setKodavV2(IKODAV2Controls _kodaAddress) onlyOwner public {\n    kodaAddress = _kodaAddress;\n  }\n}\n",
  "sourcePath": "/Users/jamesmorgan/Dropbox/workspace-blockrocket/known-origin-web3-marketplace/contracts/v2/tools/ArtistEditionControls.sol",
  "compiler": {
    "name": "solc",
    "version": "0.4.24+commit.e67f0147.Emscripten.clang"
  },
  "schemaVersion": "3.0.0-beta.1",
  "updatedAt": "2018-11-05T21:23:00.247Z"
}