{
  "contractName": "ERC721BasicToken",
  "abi": [
    {
      "anonymous": false,
      "inputs": [
        {
          "indexed": true,
          "name": "_from",
          "type": "address"
        },
        {
          "indexed": true,
          "name": "_to",
          "type": "address"
        },
        {
          "indexed": false,
          "name": "_tokenId",
          "type": "uint256"
        }
      ],
      "name": "Transfer",
      "type": "event"
    },
    {
      "anonymous": false,
      "inputs": [
        {
          "indexed": true,
          "name": "_owner",
          "type": "address"
        },
        {
          "indexed": true,
          "name": "_approved",
          "type": "address"
        },
        {
          "indexed": false,
          "name": "_tokenId",
          "type": "uint256"
        }
      ],
      "name": "Approval",
      "type": "event"
    },
    {
      "anonymous": false,
      "inputs": [
        {
          "indexed": true,
          "name": "_owner",
          "type": "address"
        },
        {
          "indexed": true,
          "name": "_operator",
          "type": "address"
        },
        {
          "indexed": false,
          "name": "_approved",
          "type": "bool"
        }
      ],
      "name": "ApprovalForAll",
      "type": "event"
    },
    {
      "constant": true,
      "inputs": [
        {
          "name": "_owner",
          "type": "address"
        }
      ],
      "name": "balanceOf",
      "outputs": [
        {
          "name": "",
          "type": "uint256"
        }
      ],
      "payable": false,
      "stateMutability": "view",
      "type": "function"
    },
    {
      "constant": true,
      "inputs": [
        {
          "name": "_tokenId",
          "type": "uint256"
        }
      ],
      "name": "ownerOf",
      "outputs": [
        {
          "name": "",
          "type": "address"
        }
      ],
      "payable": false,
      "stateMutability": "view",
      "type": "function"
    },
    {
      "constant": true,
      "inputs": [
        {
          "name": "_tokenId",
          "type": "uint256"
        }
      ],
      "name": "exists",
      "outputs": [
        {
          "name": "",
          "type": "bool"
        }
      ],
      "payable": false,
      "stateMutability": "view",
      "type": "function"
    },
    {
      "constant": false,
      "inputs": [
        {
          "name": "_to",
          "type": "address"
        },
        {
          "name": "_tokenId",
          "type": "uint256"
        }
      ],
      "name": "approve",
      "outputs": [],
      "payable": false,
      "stateMutability": "nonpayable",
      "type": "function"
    },
    {
      "constant": true,
      "inputs": [
        {
          "name": "_tokenId",
          "type": "uint256"
        }
      ],
      "name": "getApproved",
      "outputs": [
        {
          "name": "",
          "type": "address"
        }
      ],
      "payable": false,
      "stateMutability": "view",
      "type": "function"
    },
    {
      "constant": false,
      "inputs": [
        {
          "name": "_to",
          "type": "address"
        },
        {
          "name": "_approved",
          "type": "bool"
        }
      ],
      "name": "setApprovalForAll",
      "outputs": [],
      "payable": false,
      "stateMutability": "nonpayable",
      "type": "function"
    },
    {
      "constant": true,
      "inputs": [
        {
          "name": "_owner",
          "type": "address"
        },
        {
          "name": "_operator",
          "type": "address"
        }
      ],
      "name": "isApprovedForAll",
      "outputs": [
        {
          "name": "",
          "type": "bool"
        }
      ],
      "payable": false,
      "stateMutability": "view",
      "type": "function"
    },
    {
      "constant": false,
      "inputs": [
        {
          "name": "_from",
          "type": "address"
        },
        {
          "name": "_to",
          "type": "address"
        },
        {
          "name": "_tokenId",
          "type": "uint256"
        }
      ],
      "name": "transferFrom",
      "outputs": [],
      "payable": false,
      "stateMutability": "nonpayable",
      "type": "function"
    },
    {
      "constant": false,
      "inputs": [
        {
          "name": "_from",
          "type": "address"
        },
        {
          "name": "_to",
          "type": "address"
        },
        {
          "name": "_tokenId",
          "type": "uint256"
        }
      ],
      "name": "safeTransferFrom",
      "outputs": [],
      "payable": false,
      "stateMutability": "nonpayable",
      "type": "function"
    },
    {
      "constant": false,
      "inputs": [
        {
          "name": "_from",
          "type": "address"
        },
        {
          "name": "_to",
          "type": "address"
        },
        {
          "name": "_tokenId",
          "type": "uint256"
        },
        {
          "name": "_data",
          "type": "bytes"
        }
      ],
      "name": "safeTransferFrom",
      "outputs": [],
      "payable": false,
      "stateMutability": "nonpayable",
      "type": "function"
    }
  ],
  "bytecode": "0x608060405234801561001057600080fd5b506109f5806100206000396000f3006080604052600436106100a35763ffffffff7c0100000000000000000000000000000000000000000000000000000000600035041663081812fc81146100a8578063095ea7b3146100dc57806323b872dd1461010257806342842e0e1461012c5780634f558e79146101565780636352211e1461018257806370a082311461019a578063a22cb465146101cd578063b88d4fde146101f3578063e985e9c514610262575b600080fd5b3480156100b457600080fd5b506100c0600435610289565b60408051600160a060020a039092168252519081900360200190f35b3480156100e857600080fd5b50610100600160a060020a03600435166024356102a4565b005b34801561010e57600080fd5b50610100600160a060020a0360043581169060243516604435610396565b34801561013857600080fd5b50610100600160a060020a0360043581169060243516604435610445565b34801561016257600080fd5b5061016e60043561047d565b604080519115158252519081900360200190f35b34801561018e57600080fd5b506100c060043561049a565b3480156101a657600080fd5b506101bb600160a060020a03600435166104c4565b60408051918252519081900360200190f35b3480156101d957600080fd5b50610100600160a060020a036004351660243515156104f7565b3480156101ff57600080fd5b50604080516020601f60643560048181013592830184900484028501840190955281845261010094600160a060020a03813581169560248035909216956044359536956084940191819084018382808284375094975061057b9650505050505050565b34801561026e57600080fd5b5061016e600160a060020a03600435811690602435166105ba565b600090815260016020526040902054600160a060020a031690565b60006102af8261049a565b9050600160a060020a0383811690821614156102ca57600080fd5b33600160a060020a03821614806102e657506102e681336105ba565b15156102f157600080fd5b60006102fc83610289565b600160a060020a031614158061031a5750600160a060020a03831615155b1561039157600082815260016020908152604091829020805473ffffffffffffffffffffffffffffffffffffffff1916600160a060020a03878116918217909255835186815293519093918516927f8c5be1e5ebec7d5bd14f71427d1e84f3dd0314c0f7b2291e5b200ac8c7c3b925928290030190a35b505050565b806103a133826105e8565b15156103ac57600080fd5b600160a060020a03841615156103c157600080fd5b600160a060020a03831615156103d657600080fd5b6103e08483610647565b6103ea84836106f5565b6103f4838361078a565b82600160a060020a031684600160a060020a03167fddf252ad1be2c89b69c2b068fc378daa952ba7f163c4a11628f55a4df523b3ef846040518082815260200191505060405180910390a350505050565b8061045033826105e8565b151561045b57600080fd5b610477848484602060405190810160405280600081525061057b565b50505050565b600090815260208190526040902054600160a060020a0316151590565b600081815260208190526040812054600160a060020a03168015156104be57600080fd5b92915050565b6000600160a060020a03821615156104db57600080fd5b50600160a060020a031660009081526002602052604090205490565b600160a060020a03821633141561050d57600080fd5b336000818152600360209081526040808320600160a060020a03871680855290835292819020805460ff1916861515908117909155815190815290519293927f17307eab39ab6107e8899845ad3d59bd9653f200f220920489ca2b5937696c31929181900390910190a35050565b8161058633826105e8565b151561059157600080fd5b61059c858585610396565b6105a885858585610819565b15156105b357600080fd5b5050505050565b600160a060020a03918216600090815260036020908152604080832093909416825291909152205460ff1690565b6000806105f48361049a565b905080600160a060020a031684600160a060020a0316148061062f575083600160a060020a031661062484610289565b600160a060020a0316145b8061063f575061063f81856105ba565b949350505050565b81600160a060020a031661065a8261049a565b600160a060020a03161461066d57600080fd5b600081815260016020526040902054600160a060020a0316156106f1576000818152600160209081526040808320805473ffffffffffffffffffffffffffffffffffffffff1916905580518481529051600160a060020a038616927f8c5be1e5ebec7d5bd14f71427d1e84f3dd0314c0f7b2291e5b200ac8c7c3b925928290030190a35b5050565b81600160a060020a03166107088261049a565b600160a060020a03161461071b57600080fd5b600160a060020a03821660009081526002602052604090205461074590600163ffffffff6109a216565b600160a060020a039092166000908152600260209081526040808320949094559181529081905220805473ffffffffffffffffffffffffffffffffffffffff19169055565b600081815260208190526040902054600160a060020a0316156107ac57600080fd5b600081815260208181526040808320805473ffffffffffffffffffffffffffffffffffffffff1916600160a060020a038716908117909155835260029091529020546107f99060016109b4565b600160a060020a0390921660009081526002602052604090209190915550565b60008061082e85600160a060020a03166109c1565b151561083d5760019150610999565b84600160a060020a031663f0b9e5ba8786866040518463ffffffff167c01000000000000000000000000000000000000000000000000000000000281526004018084600160a060020a0316600160a060020a0316815260200183815260200180602001828103825283818151815260200191508051906020019080838360005b838110156108d55781810151838201526020016108bd565b50505050905090810190601f1680156109025780820380516001836020036101000a031916815260200191505b50945050505050602060405180830381600087803b15801561092357600080fd5b505af1158015610937573d6000803e3d6000fd5b505050506040513d602081101561094d57600080fd5b50517fffffffff0000000000000000000000000000000000000000000000000000000081167ff0b9e5ba0000000000000000000000000000000000000000000000000000000014925090505b50949350505050565b6000828211156109ae57fe5b50900390565b818101828110156104be57fe5b6000903b11905600a165627a7a72305820a02db69b973a401ae821484c10d02d7cad0296305b6df39f12157da7f711a9250029",
  "source": "pragma solidity ^0.4.21;\n\nimport \"./ERC721Basic.sol\";\nimport \"./ERC721Receiver.sol\";\nimport \"openzeppelin-solidity/contracts/math/SafeMath.sol\";\nimport \"openzeppelin-solidity/contracts/AddressUtils.sol\";\n\n/**\n * @title ERC721 Non-Fungible Token Standard basic implementation\n * @dev see https://github.com/ethereum/EIPs/blob/master/EIPS/eip-721.md\n */\ncontract ERC721BasicToken is ERC721Basic {\n  using SafeMath for uint256;\n  using AddressUtils for address;\n\n  // Equals to `bytes4(keccak256(\"onERC721Received(address,uint256,bytes)\"))`\n  // which can be also obtained as `ERC721Receiver(0).onERC721Received.selector`\n  bytes4 constant ERC721_RECEIVED = 0xf0b9e5ba;\n\n  // Mapping from token ID to owner\n  mapping (uint256 => address) internal tokenOwner;\n\n  // Mapping from token ID to approved address\n  mapping (uint256 => address) internal tokenApprovals;\n\n  // Mapping from owner to number of owned token\n  mapping (address => uint256) internal ownedTokensCount;\n\n  // Mapping from owner to operator approvals\n  mapping (address => mapping (address => bool)) internal operatorApprovals;\n\n  /**\n  * @dev Guarantees msg.sender is owner of the given token\n  * @param _tokenId uint256 ID of the token to validate its ownership belongs to msg.sender\n  */\n  modifier onlyOwnerOf(uint256 _tokenId) {\n    require(ownerOf(_tokenId) == msg.sender);\n    _;\n  }\n\n  /**\n  * @dev Checks msg.sender can transfer a token, by being owner, approved, or operator\n  * @param _tokenId uint256 ID of the token to validate\n  */\n  modifier canTransfer(uint256 _tokenId) {\n    require(isApprovedOrOwner(msg.sender, _tokenId));\n    _;\n  }\n\n  /**\n  * @dev Gets the balance of the specified address\n  * @param _owner address to query the balance of\n  * @return uint256 representing the amount owned by the passed address\n  */\n  function balanceOf(address _owner) public view returns (uint256) {\n    require(_owner != address(0));\n    return ownedTokensCount[_owner];\n  }\n\n  /**\n  * @dev Gets the owner of the specified token ID\n  * @param _tokenId uint256 ID of the token to query the owner of\n  * @return owner address currently marked as the owner of the given token ID\n  */\n  function ownerOf(uint256 _tokenId) public view returns (address) {\n    address owner = tokenOwner[_tokenId];\n    require(owner != address(0));\n    return owner;\n  }\n\n  /**\n  * @dev Returns whether the specified token exists\n  * @param _tokenId uint256 ID of the token to query the existance of\n  * @return whether the token exists\n  */\n  function exists(uint256 _tokenId) public view returns (bool) {\n    address owner = tokenOwner[_tokenId];\n    return owner != address(0);\n  }\n\n  /**\n  * @dev Approves another address to transfer the given token ID\n  * @dev The zero address indicates there is no approved address.\n  * @dev There can only be one approved address per token at a given time.\n  * @dev Can only be called by the token owner or an approved operator.\n  * @param _to address to be approved for the given token ID\n  * @param _tokenId uint256 ID of the token to be approved\n  */\n  function approve(address _to, uint256 _tokenId) public {\n    address owner = ownerOf(_tokenId);\n    require(_to != owner);\n    require(msg.sender == owner || isApprovedForAll(owner, msg.sender));\n\n    if (getApproved(_tokenId) != address(0) || _to != address(0)) {\n      tokenApprovals[_tokenId] = _to;\n      Approval(owner, _to, _tokenId);\n    }\n  }\n\n  /**\n   * @dev Gets the approved address for a token ID, or zero if no address set\n   * @param _tokenId uint256 ID of the token to query the approval of\n   * @return address currently approved for a the given token ID\n   */\n  function getApproved(uint256 _tokenId) public view returns (address) {\n    return tokenApprovals[_tokenId];\n  }\n\n\n  /**\n  * @dev Sets or unsets the approval of a given operator\n  * @dev An operator is allowed to transfer all tokens of the sender on their behalf\n  * @param _to operator address to set the approval\n  * @param _approved representing the status of the approval to be set\n  */\n  function setApprovalForAll(address _to, bool _approved) public {\n    require(_to != msg.sender);\n    operatorApprovals[msg.sender][_to] = _approved;\n    ApprovalForAll(msg.sender, _to, _approved);\n  }\n\n  /**\n   * @dev Tells whether an operator is approved by a given owner\n   * @param _owner owner address which you want to query the approval of\n   * @param _operator operator address which you want to query the approval of\n   * @return bool whether the given operator is approved by the given owner\n   */\n  function isApprovedForAll(address _owner, address _operator) public view returns (bool) {\n    return operatorApprovals[_owner][_operator];\n  }\n\n  /**\n  * @dev Transfers the ownership of a given token ID to another address\n  * @dev Usage of this method is discouraged, use `safeTransferFrom` whenever possible\n  * @dev Requires the msg sender to be the owner, approved, or operator\n  * @param _from current owner of the token\n  * @param _to address to receive the ownership of the given token ID\n  * @param _tokenId uint256 ID of the token to be transferred\n  */\n  function transferFrom(address _from, address _to, uint256 _tokenId) public canTransfer(_tokenId) {\n    require(_from != address(0));\n    require(_to != address(0));\n\n    clearApproval(_from, _tokenId);\n    removeTokenFrom(_from, _tokenId);\n    addTokenTo(_to, _tokenId);\n\n    Transfer(_from, _to, _tokenId);\n  }\n\n  /**\n  * @dev Safely transfers the ownership of a given token ID to another address\n  * @dev If the target address is a contract, it must implement `onERC721Received`,\n  *  which is called upon a safe transfer, and return the magic value\n  *  `bytes4(keccak256(\"onERC721Received(address,uint256,bytes)\"))`; otherwise,\n  *  the transfer is reverted.\n  * @dev Requires the msg sender to be the owner, approved, or operator\n  * @param _from current owner of the token\n  * @param _to address to receive the ownership of the given token ID\n  * @param _tokenId uint256 ID of the token to be transferred\n  */\n  function safeTransferFrom(address _from, address _to, uint256 _tokenId) public canTransfer(_tokenId) {\n    safeTransferFrom(_from, _to, _tokenId, \"\");\n  }\n\n  /**\n  * @dev Safely transfers the ownership of a given token ID to another address\n  * @dev If the target address is a contract, it must implement `onERC721Received`,\n  *  which is called upon a safe transfer, and return the magic value\n  *  `bytes4(keccak256(\"onERC721Received(address,uint256,bytes)\"))`; otherwise,\n  *  the transfer is reverted.\n  * @dev Requires the msg sender to be the owner, approved, or operator\n  * @param _from current owner of the token\n  * @param _to address to receive the ownership of the given token ID\n  * @param _tokenId uint256 ID of the token to be transferred\n  * @param _data bytes data to send along with a safe transfer check\n  */\n  function safeTransferFrom(address _from, address _to, uint256 _tokenId, bytes _data) public canTransfer(_tokenId) {\n    transferFrom(_from, _to, _tokenId);\n    require(checkAndCallSafeTransfer(_from, _to, _tokenId, _data));\n  }\n\n  /**\n   * @dev Returns whether the given spender can transfer a given token ID\n   * @param _spender address of the spender to query\n   * @param _tokenId uint256 ID of the token to be transferred\n   * @return bool whether the msg.sender is approved for the given token ID,\n   *  is an operator of the owner, or is the owner of the token\n   */\n  function isApprovedOrOwner(address _spender, uint256 _tokenId) internal view returns (bool) {\n    address owner = ownerOf(_tokenId);\n    return _spender == owner || getApproved(_tokenId) == _spender || isApprovedForAll(owner, _spender);\n  }\n\n  /**\n  * @dev Internal function to mint a new token\n  * @dev Reverts if the given token ID already exists\n  * @param _to The address that will own the minted token\n  * @param _tokenId uint256 ID of the token to be minted by the msg.sender\n  */\n  function _mint(address _to, uint256 _tokenId) internal {\n    require(_to != address(0));\n    addTokenTo(_to, _tokenId);\n    Transfer(address(0), _to, _tokenId);\n  }\n\n  /**\n  * @dev Internal function to burn a specific token\n  * @dev Reverts if the token does not exist\n  * @param _tokenId uint256 ID of the token being burned by the msg.sender\n  */\n  function _burn(address _owner, uint256 _tokenId) internal {\n    clearApproval(_owner, _tokenId);\n    removeTokenFrom(_owner, _tokenId);\n    Transfer(_owner, address(0), _tokenId);\n  }\n\n  /**\n  * @dev Internal function to clear current approval of a given token ID\n  * @dev Reverts if the given address is not indeed the owner of the token\n  * @param _owner owner of the token\n  * @param _tokenId uint256 ID of the token to be transferred\n  */\n  function clearApproval(address _owner, uint256 _tokenId) internal {\n    require(ownerOf(_tokenId) == _owner);\n    if (tokenApprovals[_tokenId] != address(0)) {\n      tokenApprovals[_tokenId] = address(0);\n      Approval(_owner, address(0), _tokenId);\n    }\n  }\n\n  /**\n  * @dev Internal function to add a token ID to the list of a given address\n  * @param _to address representing the new owner of the given token ID\n  * @param _tokenId uint256 ID of the token to be added to the tokens list of the given address\n  */\n  function addTokenTo(address _to, uint256 _tokenId) internal {\n    require(tokenOwner[_tokenId] == address(0));\n    tokenOwner[_tokenId] = _to;\n    ownedTokensCount[_to] = ownedTokensCount[_to].add(1);\n  }\n\n  /**\n  * @dev Internal function to remove a token ID from the list of a given address\n  * @param _from address representing the previous owner of the given token ID\n  * @param _tokenId uint256 ID of the token to be removed from the tokens list of the given address\n  */\n  function removeTokenFrom(address _from, uint256 _tokenId) internal {\n    require(ownerOf(_tokenId) == _from);\n    ownedTokensCount[_from] = ownedTokensCount[_from].sub(1);\n    tokenOwner[_tokenId] = address(0);\n  }\n\n  /**\n  * @dev Internal function to invoke `onERC721Received` on a target address\n  * @dev The call is not executed if the target address is not a contract\n  * @param _from address representing the previous owner of the given token ID\n  * @param _to target address that will receive the tokens\n  * @param _tokenId uint256 ID of the token to be transferred\n  * @param _data bytes optional data to send along with the call\n  * @return whether the call correctly returned the expected magic value\n  */\n  function checkAndCallSafeTransfer(address _from, address _to, uint256 _tokenId, bytes _data) internal returns (bool) {\n    if (!_to.isContract()) {\n      return true;\n    }\n    bytes4 retval = ERC721Receiver(_to).onERC721Received(_from, _tokenId, _data);\n    return (retval == ERC721_RECEIVED);\n  }\n}\n",
  "sourcePath": "/Users/jamesmorgan/Dropbox/workspace-blockrocket/known-origin-web3-marketplace/contracts/v1/ERC721BasicToken.sol",
  "compiler": {
    "name": "solc",
    "version": "0.4.24+commit.e67f0147.Emscripten.clang"
  },
  "schemaVersion": "2.0.1",
  "updatedAt": "2018-09-04T13:23:20.920Z"
}