{
  "contractName": "KnownOriginDigitalAsset",
  "abi": [
    {
      "constant": true,
      "inputs": [],
      "name": "name",
      "outputs": [
        {
          "name": "",
          "type": "string"
        }
      ],
      "payable": false,
      "stateMutability": "view",
      "type": "function"
    },
    {
      "constant": true,
      "inputs": [
        {
          "name": "_tokenId",
          "type": "uint256"
        }
      ],
      "name": "getApproved",
      "outputs": [
        {
          "name": "",
          "type": "address"
        }
      ],
      "payable": false,
      "stateMutability": "view",
      "type": "function"
    },
    {
      "constant": false,
      "inputs": [
        {
          "name": "_to",
          "type": "address"
        },
        {
          "name": "_tokenId",
          "type": "uint256"
        }
      ],
      "name": "approve",
      "outputs": [],
      "payable": false,
      "stateMutability": "nonpayable",
      "type": "function"
    },
    {
      "constant": true,
      "inputs": [],
      "name": "totalSupply",
      "outputs": [
        {
          "name": "",
          "type": "uint256"
        }
      ],
      "payable": false,
      "stateMutability": "view",
      "type": "function"
    },
    {
      "constant": false,
      "inputs": [
        {
          "name": "_from",
          "type": "address"
        },
        {
          "name": "_to",
          "type": "address"
        },
        {
          "name": "_tokenId",
          "type": "uint256"
        }
      ],
      "name": "transferFrom",
      "outputs": [],
      "payable": false,
      "stateMutability": "nonpayable",
      "type": "function"
    },
    {
      "constant": true,
      "inputs": [],
      "name": "totalPurchaseValueInWei",
      "outputs": [
        {
          "name": "",
          "type": "uint256"
        }
      ],
      "payable": false,
      "stateMutability": "view",
      "type": "function"
    },
    {
      "constant": true,
      "inputs": [
        {
          "name": "_owner",
          "type": "address"
        },
        {
          "name": "_index",
          "type": "uint256"
        }
      ],
      "name": "tokenOfOwnerByIndex",
      "outputs": [
        {
          "name": "",
          "type": "uint256"
        }
      ],
      "payable": false,
      "stateMutability": "view",
      "type": "function"
    },
    {
      "constant": true,
      "inputs": [],
      "name": "tokenIdPointer",
      "outputs": [
        {
          "name": "",
          "type": "uint256"
        }
      ],
      "payable": false,
      "stateMutability": "view",
      "type": "function"
    },
    {
      "constant": true,
      "inputs": [],
      "name": "totalNumberOfPurchases",
      "outputs": [
        {
          "name": "",
          "type": "uint256"
        }
      ],
      "payable": false,
      "stateMutability": "view",
      "type": "function"
    },
    {
      "constant": false,
      "inputs": [
        {
          "name": "_from",
          "type": "address"
        },
        {
          "name": "_to",
          "type": "address"
        },
        {
          "name": "_tokenId",
          "type": "uint256"
        }
      ],
      "name": "safeTransferFrom",
      "outputs": [],
      "payable": false,
      "stateMutability": "nonpayable",
      "type": "function"
    },
    {
      "constant": true,
      "inputs": [
        {
          "name": "_tokenId",
          "type": "uint256"
        }
      ],
      "name": "exists",
      "outputs": [
        {
          "name": "",
          "type": "bool"
        }
      ],
      "payable": false,
      "stateMutability": "view",
      "type": "function"
    },
    {
      "constant": true,
      "inputs": [
        {
          "name": "_index",
          "type": "uint256"
        }
      ],
      "name": "tokenByIndex",
      "outputs": [
        {
          "name": "",
          "type": "uint256"
        }
      ],
      "payable": false,
      "stateMutability": "view",
      "type": "function"
    },
    {
      "constant": true,
      "inputs": [],
      "name": "InterfaceSignature_ERC721Optional",
      "outputs": [
        {
          "name": "",
          "type": "bytes4"
        }
      ],
      "payable": false,
      "stateMutability": "view",
      "type": "function"
    },
    {
      "constant": true,
      "inputs": [
        {
          "name": "_tokenId",
          "type": "uint256"
        }
      ],
      "name": "ownerOf",
      "outputs": [
        {
          "name": "",
          "type": "address"
        }
      ],
      "payable": false,
      "stateMutability": "view",
      "type": "function"
    },
    {
      "constant": true,
      "inputs": [
        {
          "name": "_owner",
          "type": "address"
        }
      ],
      "name": "balanceOf",
      "outputs": [
        {
          "name": "",
          "type": "uint256"
        }
      ],
      "payable": false,
      "stateMutability": "view",
      "type": "function"
    },
    {
      "constant": true,
      "inputs": [],
      "name": "symbol",
      "outputs": [
        {
          "name": "",
          "type": "string"
        }
      ],
      "payable": false,
      "stateMutability": "view",
      "type": "function"
    },
    {
      "constant": false,
      "inputs": [
        {
          "name": "_to",
          "type": "address"
        },
        {
          "name": "_approved",
          "type": "bool"
        }
      ],
      "name": "setApprovalForAll",
      "outputs": [],
      "payable": false,
      "stateMutability": "nonpayable",
      "type": "function"
    },
    {
      "constant": false,
      "inputs": [
        {
          "name": "_from",
          "type": "address"
        },
        {
          "name": "_to",
          "type": "address"
        },
        {
          "name": "_tokenId",
          "type": "uint256"
        },
        {
          "name": "_data",
          "type": "bytes"
        }
      ],
      "name": "safeTransferFrom",
      "outputs": [],
      "payable": false,
      "stateMutability": "nonpayable",
      "type": "function"
    },
    {
      "constant": true,
      "inputs": [],
      "name": "curatorAccount",
      "outputs": [
        {
          "name": "",
          "type": "address"
        }
      ],
      "payable": false,
      "stateMutability": "view",
      "type": "function"
    },
    {
      "constant": true,
      "inputs": [
        {
          "name": "_owner",
          "type": "address"
        },
        {
          "name": "_operator",
          "type": "address"
        }
      ],
      "name": "isApprovedForAll",
      "outputs": [
        {
          "name": "",
          "type": "bool"
        }
      ],
      "payable": false,
      "stateMutability": "view",
      "type": "function"
    },
    {
      "constant": true,
      "inputs": [],
      "name": "developerAccount",
      "outputs": [
        {
          "name": "",
          "type": "address"
        }
      ],
      "payable": false,
      "stateMutability": "view",
      "type": "function"
    },
    {
      "inputs": [
        {
          "name": "_curatorAccount",
          "type": "address"
        }
      ],
      "payable": false,
      "stateMutability": "nonpayable",
      "type": "constructor"
    },
    {
      "payable": true,
      "stateMutability": "payable",
      "type": "fallback"
    },
    {
      "anonymous": false,
      "inputs": [
        {
          "indexed": true,
          "name": "_tokenId",
          "type": "uint256"
        },
        {
          "indexed": true,
          "name": "_buyer",
          "type": "address"
        }
      ],
      "name": "PurchasedWithEther",
      "type": "event"
    },
    {
      "anonymous": false,
      "inputs": [
        {
          "indexed": true,
          "name": "_tokenId",
          "type": "uint256"
        }
      ],
      "name": "PurchasedWithFiat",
      "type": "event"
    },
    {
      "anonymous": false,
      "inputs": [
        {
          "indexed": true,
          "name": "_tokenId",
          "type": "uint256"
        }
      ],
      "name": "PurchasedWithFiatReversed",
      "type": "event"
    },
    {
      "anonymous": false,
      "inputs": [
        {
          "indexed": true,
          "name": "_from",
          "type": "address"
        },
        {
          "indexed": true,
          "name": "_to",
          "type": "address"
        },
        {
          "indexed": false,
          "name": "_tokenId",
          "type": "uint256"
        }
      ],
      "name": "Transfer",
      "type": "event"
    },
    {
      "anonymous": false,
      "inputs": [
        {
          "indexed": true,
          "name": "_owner",
          "type": "address"
        },
        {
          "indexed": true,
          "name": "_approved",
          "type": "address"
        },
        {
          "indexed": false,
          "name": "_tokenId",
          "type": "uint256"
        }
      ],
      "name": "Approval",
      "type": "event"
    },
    {
      "anonymous": false,
      "inputs": [
        {
          "indexed": true,
          "name": "_owner",
          "type": "address"
        },
        {
          "indexed": true,
          "name": "_operator",
          "type": "address"
        },
        {
          "indexed": false,
          "name": "_approved",
          "type": "bool"
        }
      ],
      "name": "ApprovalForAll",
      "type": "event"
    },
    {
      "constant": true,
      "inputs": [
        {
          "name": "_interfaceID",
          "type": "bytes4"
        }
      ],
      "name": "supportsInterface",
      "outputs": [
        {
          "name": "",
          "type": "bool"
        }
      ],
      "payable": false,
      "stateMutability": "pure",
      "type": "function"
    },
    {
      "constant": false,
      "inputs": [
        {
          "name": "_tokenURI",
          "type": "string"
        },
        {
          "name": "_edition",
          "type": "bytes16"
        },
        {
          "name": "_priceInWei",
          "type": "uint256"
        },
        {
          "name": "_auctionStartDate",
          "type": "uint32"
        },
        {
          "name": "_artistAccount",
          "type": "address"
        }
      ],
      "name": "mint",
      "outputs": [],
      "payable": false,
      "stateMutability": "nonpayable",
      "type": "function"
    },
    {
      "constant": false,
      "inputs": [
        {
          "name": "_tokenId",
          "type": "uint256"
        }
      ],
      "name": "burn",
      "outputs": [],
      "payable": false,
      "stateMutability": "nonpayable",
      "type": "function"
    },
    {
      "constant": false,
      "inputs": [
        {
          "name": "_tokenId",
          "type": "uint256"
        },
        {
          "name": "_uri",
          "type": "string"
        }
      ],
      "name": "setTokenURI",
      "outputs": [],
      "payable": false,
      "stateMutability": "nonpayable",
      "type": "function"
    },
    {
      "constant": false,
      "inputs": [
        {
          "name": "_tokenId",
          "type": "uint256"
        },
        {
          "name": "_priceInWei",
          "type": "uint256"
        }
      ],
      "name": "setPriceInWei",
      "outputs": [],
      "payable": false,
      "stateMutability": "nonpayable",
      "type": "function"
    },
    {
      "constant": false,
      "inputs": [
        {
          "name": "_type",
          "type": "string"
        },
        {
          "name": "_curator",
          "type": "uint8"
        },
        {
          "name": "_developer",
          "type": "uint8"
        }
      ],
      "name": "updateCommission",
      "outputs": [],
      "payable": false,
      "stateMutability": "nonpayable",
      "type": "function"
    },
    {
      "constant": true,
      "inputs": [
        {
          "name": "_type",
          "type": "string"
        }
      ],
      "name": "getCommissionForType",
      "outputs": [
        {
          "name": "_curator",
          "type": "uint8"
        },
        {
          "name": "_developer",
          "type": "uint8"
        }
      ],
      "payable": false,
      "stateMutability": "view",
      "type": "function"
    },
    {
      "constant": false,
      "inputs": [
        {
          "name": "_tokenId",
          "type": "uint256"
        }
      ],
      "name": "purchaseWithEther",
      "outputs": [],
      "payable": true,
      "stateMutability": "payable",
      "type": "function"
    },
    {
      "constant": false,
      "inputs": [
        {
          "name": "_tokenId",
          "type": "uint256"
        }
      ],
      "name": "purchaseWithFiat",
      "outputs": [],
      "payable": false,
      "stateMutability": "nonpayable",
      "type": "function"
    },
    {
      "constant": false,
      "inputs": [
        {
          "name": "_tokenId",
          "type": "uint256"
        }
      ],
      "name": "reverseFiatPurchase",
      "outputs": [],
      "payable": false,
      "stateMutability": "nonpayable",
      "type": "function"
    },
    {
      "constant": true,
      "inputs": [
        {
          "name": "_tokenId",
          "type": "uint256"
        }
      ],
      "name": "assetInfo",
      "outputs": [
        {
          "name": "_tokId",
          "type": "uint256"
        },
        {
          "name": "_owner",
          "type": "address"
        },
        {
          "name": "_purchaseState",
          "type": "uint8"
        },
        {
          "name": "_priceInWei",
          "type": "uint256"
        },
        {
          "name": "_purchaseFromTime",
          "type": "uint32"
        }
      ],
      "payable": false,
      "stateMutability": "view",
      "type": "function"
    },
    {
      "constant": true,
      "inputs": [
        {
          "name": "_tokenId",
          "type": "uint256"
        }
      ],
      "name": "editionInfo",
      "outputs": [
        {
          "name": "_tokId",
          "type": "uint256"
        },
        {
          "name": "_edition",
          "type": "bytes16"
        },
        {
          "name": "_editionNumber",
          "type": "uint256"
        },
        {
          "name": "_tokenURI",
          "type": "string"
        },
        {
          "name": "_artistAccount",
          "type": "address"
        }
      ],
      "payable": false,
      "stateMutability": "view",
      "type": "function"
    },
    {
      "constant": true,
      "inputs": [
        {
          "name": "_owner",
          "type": "address"
        }
      ],
      "name": "tokensOf",
      "outputs": [
        {
          "name": "_tokenIds",
          "type": "uint256[]"
        }
      ],
      "payable": false,
      "stateMutability": "view",
      "type": "function"
    },
    {
      "constant": true,
      "inputs": [
        {
          "name": "_edition",
          "type": "bytes16"
        }
      ],
      "name": "numberOf",
      "outputs": [
        {
          "name": "",
          "type": "uint256"
        }
      ],
      "payable": false,
      "stateMutability": "view",
      "type": "function"
    },
    {
      "constant": true,
      "inputs": [
        {
          "name": "_tokenId",
          "type": "uint256"
        }
      ],
      "name": "isPurchased",
      "outputs": [
        {
          "name": "_purchased",
          "type": "uint8"
        }
      ],
      "payable": false,
      "stateMutability": "view",
      "type": "function"
    },
    {
      "constant": true,
      "inputs": [
        {
          "name": "_tokenId",
          "type": "uint256"
        }
      ],
      "name": "editionOf",
      "outputs": [
        {
          "name": "_edition",
          "type": "bytes16"
        }
      ],
      "payable": false,
      "stateMutability": "view",
      "type": "function"
    },
    {
      "constant": true,
      "inputs": [
        {
          "name": "_tokenId",
          "type": "uint256"
        }
      ],
      "name": "purchaseFromTime",
      "outputs": [
        {
          "name": "_purchaseFromTime",
          "type": "uint32"
        }
      ],
      "payable": false,
      "stateMutability": "view",
      "type": "function"
    },
    {
      "constant": true,
      "inputs": [
        {
          "name": "_tokenId",
          "type": "uint256"
        }
      ],
      "name": "priceInWei",
      "outputs": [
        {
          "name": "_priceInWei",
          "type": "uint256"
        }
      ],
      "payable": false,
      "stateMutability": "view",
      "type": "function"
    },
    {
      "constant": true,
      "inputs": [
        {
          "name": "_edition",
          "type": "bytes16"
        }
      ],
      "name": "getTypeFromEdition",
      "outputs": [
        {
          "name": "",
          "type": "string"
        }
      ],
      "payable": false,
      "stateMutability": "pure",
      "type": "function"
    },
    {
      "constant": true,
      "inputs": [
        {
          "name": "_tokenId",
          "type": "uint256"
        }
      ],
      "name": "tokenURI",
      "outputs": [
        {
          "name": "",
          "type": "string"
        }
      ],
      "payable": false,
      "stateMutability": "view",
      "type": "function"
    },
    {
      "constant": false,
      "inputs": [
        {
          "name": "_newBaseURI",
          "type": "string"
        }
      ],
      "name": "setTokenBaseURI",
      "outputs": [],
      "payable": false,
      "stateMutability": "nonpayable",
      "type": "function"
    },
    {
      "constant": false,
      "inputs": [
        {
          "name": "_edition",
          "type": "bytes16"
        },
        {
          "name": "_artistAccount",
          "type": "address"
        }
      ],
      "name": "setArtistAccount",
      "outputs": [],
      "payable": false,
      "stateMutability": "nonpayable",
      "type": "function"
    }
  ],
  "bytecode": "0x60c0604052601c60808190527f68747470733a2f2f697066732e696e667572612e696f2f697066732f0000000060a09081526200004091600b91906200012f565b5060006010553480156200005357600080fd5b5060405160208062002d7d83398101604081815291518282018352601782527f4b6e6f776e4f726967696e4469676974616c41737365740000000000000000006020808401918252845180860190955260048086527f4b4f444100000000000000000000000000000000000000000000000000000000918601919091528351929492620000e192906200012f565b508051620000f79060059060208401906200012f565b5050600d805433600160a060020a031991821617909155600c8054909116600160a060020a03939093169290921790915550620001d4565b828054600181600116156101000203166002900490600052602060002090601f016020900481019282601f106200017257805160ff1916838001178555620001a2565b82800160010185558215620001a2579182015b82811115620001a257825182559160200191906001019062000185565b50620001b0929150620001b4565b5090565b620001d191905b80821115620001b05760008155600101620001bb565b90565b612b9980620001e46000396000f30060806040526004361061020e5763ffffffff7c010000000000000000000000000000000000000000000000000000000060003504166301ffc9a7811461021357806306fdde0314610249578063081812fc146102d3578063095ea7b314610307578063162094c41461032d57806318160ddd1461035157806318714bc81461037857806323b872dd146103905780632852ca81146103ba5780632bbd84e8146103dc5780632c9f4f62146103f15780632f745c591461042d5780633b3a1a7a146104515780634082b4991461046657806342842e0e1461047b57806342966c68146104a55780634be185f0146104bd5780634f558e79146104f25780634f6ccce71461050a5780635a3f267214610522578063624de3d9146105935780636352211e146105c55780636af79112146105dd57806370a08231146105f557806374b04fa7146106165780637e298249146106445780637e38b4241461065f5780638ef79e911461067757806395d89b4114610697578063a22cb465146106ac578063a879fcbb146106d2578063a92ca27d1461073f578063afe7041314610823578063b88d4fde1461089c578063c3b7572c1461090b578063c87b56dd14610939578063d4f74bf414610951578063d5b0c0d514610966578063e6153d1b14610988578063e6db38c7146109cf578063e985e9c514610a00578063f4ce7c1c14610a27578063f6ec91d514610a32575b600080fd5b34801561021f57600080fd5b50610235600160e060020a031960043516610a47565b604080519115158252519081900360200190f35b34801561025557600080fd5b5061025e610b4c565b6040805160208082528351818301528351919283929083019185019080838360005b83811015610298578181015183820152602001610280565b50505050905090810190601f1680156102c55780820380516001836020036101000a031916815260200191505b509250505060405180910390f35b3480156102df57600080fd5b506102eb600435610be3565b60408051600160a060020a039092168252519081900360200190f35b34801561031357600080fd5b5061032b600160a060020a0360043516602435610bfe565b005b34801561033957600080fd5b5061032b600480359060248035908101910135610ce3565b34801561035d57600080fd5b50610366610d5f565b60408051918252519081900360200190f35b34801561038457600080fd5b5061032b600435610d65565b34801561039c57600080fd5b5061032b600160a060020a0360043581169060243516604435610e4f565b3480156103c657600080fd5b5061025e6001608060020a031960043516610efe565b3480156103e857600080fd5b50610366610f0d565b3480156103fd57600080fd5b50610409600435610f13565b6040518082600281111561041957fe5b60ff16815260200191505060405180910390f35b34801561043957600080fd5b50610366600160a060020a0360043516602435610f3f565b34801561045d57600080fd5b50610366610f8c565b34801561047257600080fd5b50610366610f92565b34801561048757600080fd5b5061032b600160a060020a0360043581169060243516604435610f98565b3480156104b157600080fd5b5061032b600435610fd0565b3480156104c957600080fd5b506104d5600435611134565b604080516001608060020a03199092168252519081900360200190f35b3480156104fe57600080fd5b50610235600435611170565b34801561051657600080fd5b5061036660043561118d565b34801561052e57600080fd5b50610543600160a060020a03600435166111c2565b60408051602080825283518183015283519192839290830191858101910280838360005b8381101561057f578181015183820152602001610567565b505050509050019250505060405180910390f35b34801561059f57600080fd5b506105a861122e565b60408051600160e060020a03199092168252519081900360200190f35b3480156105d157600080fd5b506102eb600435611252565b3480156105e957600080fd5b50610366600435611276565b34801561060157600080fd5b50610366600160a060020a036004351661129f565b34801561062257600080fd5b5061032b6001608060020a031960043516600160a060020a03602435166112d2565b34801561065057600080fd5b5061032b60043560243561134f565b34801561066b57600080fd5b5061032b6004356113cd565b34801561068357600080fd5b5061032b60048035602481019101356114b5565b3480156106a357600080fd5b5061025e6114ef565b3480156106b857600080fd5b5061032b600160a060020a03600435166024351515611550565b3480156106de57600080fd5b506106ea6004356115d4565b60408051868152600160a060020a038616602082015290810184600281111561070f57fe5b60ff1681526020018381526020018263ffffffff1663ffffffff1681526020019550505050505060405180910390f35b34801561074b57600080fd5b5061075760043561161d565b60405180868152602001856fffffffffffffffffffffffffffffffff19166fffffffffffffffffffffffffffffffff191681526020018481526020018060200183600160a060020a0316600160a060020a03168152602001828103825284818151815260200191508051906020019080838360005b838110156107e45781810151838201526020016107cc565b50505050905090810190601f1680156108115780820380516001836020036101000a031916815260200191505b50965050505050505060405180910390f35b34801561082f57600080fd5b506040805160206004803580820135601f810184900484028501840190955284845261087c9436949293602493928401919081908401838280828437509497506116a39650505050505050565b6040805160ff938416815291909216602082015281519081900390910190f35b3480156108a857600080fd5b50604080516020601f60643560048181013592830184900484028501840190955281845261032b94600160a060020a0381358116956024803590921695604435953695608494019181908401838280828437509497506117249650505050505050565b34801561091757600080fd5b5061032b602460048035828101929101359060ff903581169060443516611763565b34801561094557600080fd5b5061025e600435611836565b34801561095d57600080fd5b506102eb611966565b34801561097257600080fd5b506103666001608060020a031960043516611975565b34801561099457600080fd5b5061032b60246004803582810192910135906001608060020a031990351660443563ffffffff60643516600160a060020a0360843516611991565b3480156109db57600080fd5b506109e7600435611a7d565b6040805163ffffffff9092168252519081900360200190f35b348015610a0c57600080fd5b50610235600160a060020a0360043581169060243516611aac565b61032b600435611ada565b348015610a3e57600080fd5b506102eb611c53565b6000600160e060020a031982167f01ffc9a7000000000000000000000000000000000000000000000000000000001480610aaa5750600160e060020a031982167f80ac58cd00000000000000000000000000000000000000000000000000000000145b80610ade5750600160e060020a031982167f4f558e7900000000000000000000000000000000000000000000000000000000145b80610b125750600160e060020a031982167f780e9d6300000000000000000000000000000000000000000000000000000000145b80610b465750600160e060020a031982167f5b5e139f00000000000000000000000000000000000000000000000000000000145b92915050565b60048054604080516020601f6002600019610100600188161502019095169490940493840181900481028201810190925282815260609390929091830182828015610bd85780601f10610bad57610100808354040283529160200191610bd8565b820191906000526020600020905b815481529060010190602001808311610bbb57829003601f168201915b505050505090505b90565b600090815260016020526040902054600160a060020a031690565b6000610c0982611252565b9050600160a060020a038381169082161415610c2457600080fd5b33600160a060020a0382161480610c405750610c408133611aac565b1515610c4b57600080fd5b6000610c5683610be3565b600160a060020a0316141580610c745750600160a060020a03831615155b15610cde576000828152600160209081526040918290208054600160a060020a031916600160a060020a03878116918217909255835186815293519093918516927f8c5be1e5ebec7d5bd14f71427d1e84f3dd0314c0f7b2291e5b200ac8c7c3b925928290030190a35b505050565b600c54600160a060020a0316331480610d065750600d54600160a060020a031633145b1515610d1157600080fd5b610d1a83611170565b1515610d2557600080fd5b610cde8383838080601f01602080910402602001604051908101604052809392919081815260200183838082843750611c62945050505050565b60085490565b600c54600160a060020a0316331480610d885750600d54600160a060020a031633145b1515610d9357600080fd5b806000808281526012602052604090205460ff166002811115610db257fe5b14610dbc57600080fd5b60008281526015602052604090205482904263ffffffff9091161115610de157600080fd5b610dea83611170565b1515610df557600080fd5b6000838152601260205260409020805460ff19166002179055600f54610e1c906001611c95565b600f5560405183907f0bdb01638ac3be385d9ab692cf4661a5777d486d2b58eee4bad9b76374954c7290600090a2505050565b80610e5a3382611ca2565b1515610e6557600080fd5b600160a060020a0384161515610e7a57600080fd5b600160a060020a0383161515610e8f57600080fd5b610e998483611d01565b610ea38483611da2565b610ead8383611edb565b82600160a060020a031684600160a060020a03167fddf252ad1be2c89b69c2b068fc378daa952ba7f163c4a11628f55a4df523b3ef846040518082815260200191505060405180910390a350505050565b6060610b4682600d6010611f24565b600e5481565b6000610f1e82611170565b1515610f2957600080fd5b5060009081526012602052604090205460ff1690565b6000610f4a8361129f565b8210610f5557600080fd5b600160a060020a0383166000908152600660205260409020805483908110610f7957fe5b9060005260206000200154905092915050565b60105481565b600f5481565b80610fa33382611ca2565b1515610fae57600080fd5b610fca8484846020604051908101604052806000815250611724565b50505050565b600c54600090600160a060020a0316331480610ff65750600d54600160a060020a031633145b151561100157600080fd5b816000808281526012602052604090205460ff16600281111561102057fe5b1461102a57600080fd5b600c546000848152602081905260409020548491600160a060020a03918216911614806110735750600d54600082815260208190526040902054600160a060020a039081169116145b151561107e57600080fd5b61108784611170565b151561109257600080fd5b6110a461109e85611252565b85611fcc565b600084815260136020908152604080832080546001608060020a03198082169092556014845282852085905560158452828520805463ffffffff191690557001000000000000000000000000000000000290811684526016909252909120549093506111119060016120c6565b6001608060020a0319909316600090815260166020526040902092909255505050565b600061113f82611170565b151561114a57600080fd5b506000908152601360205260409020547001000000000000000000000000000000000290565b600090815260208190526040902054600160a060020a0316151590565b6000611197610d5f565b82106111a257600080fd5b60088054839081106111b057fe5b90600052602060002001549050919050565b600160a060020a03811660009081526006602090815260409182902080548351818402810184019094528084526060939283018282801561122257602002820191906000526020600020905b81548152602001906001019080831161120e575b50505050509050919050565b7f4f558e790000000000000000000000000000000000000000000000000000000081565b600081815260208190526040812054600160a060020a0316801515610b4657600080fd5b600061128182611170565b151561128c57600080fd5b5060009081526014602052604090205490565b6000600160a060020a03821615156112b657600080fd5b50600160a060020a031660009081526002602052604090205490565b600c54600160a060020a03163314806112f55750600d54600160a060020a031633145b151561130057600080fd5b600160a060020a038116151561131557600080fd5b6001608060020a03199190911660009081526017602052604090208054600160a060020a031916600160a060020a03909216919091179055565b600c54600160a060020a03163314806113725750600d54600160a060020a031633145b151561137d57600080fd5b816000808281526012602052604090205460ff16600281111561139c57fe5b146113a657600080fd5b6113af83611170565b15156113ba57600080fd5b5060009182526014602052604090912055565b600c54600160a060020a03163314806113f05750600d54600160a060020a031633145b15156113fb57600080fd5b80600260008281526012602052604090205460ff16600281111561141b57fe5b1461142557600080fd5b60008281526015602052604090205482904263ffffffff909116111561144a57600080fd5b61145383611170565b151561145e57600080fd5b6000838152601260205260409020805460ff19169055600f546114829060016120c6565b600f5560405183907fb86b57a33124aa41b48d51668d80c57a403632f755dc2fb969ca0b0d8aded10a90600090a2505050565b600c54600160a060020a03163314806114d85750600d54600160a060020a031633145b15156114e357600080fd5b610cde600b83836129e5565b60058054604080516020601f6002600019610100600188161502019095169490940493840181900481028201810190925282815260609390929091830182828015610bd85780601f10610bad57610100808354040283529160200191610bd8565b600160a060020a03821633141561156657600080fd5b336000818152600360209081526040808320600160a060020a03871680855290835292819020805460ff1916861515908117909155815190815290519293927f17307eab39ab6107e8899845ad3d59bd9653f200f220920489ca2b5937696c31929181900390910190a35050565b6000818152602081815260408083205460128352818420546014845282852054601590945291909320549394600160a060020a039093169360ff9091169263ffffffff90911690565b600081815260136020908152604080832054700100000000000000000000000000000000026001608060020a03198116845260169092528220548291829160609183918790829061166d83611836565b6001608060020a031994909416600090815260176020526040902054929a9199509750919550600160a060020a03169350915050565b60008060006011846040518082805190602001908083835b602083106116da5780518252601f1990920191602091820191016116bb565b518151600019602094850361010090810a919091019182169119909216179091529390910195865260405195869003019094205460ff8082169a9290910416975095505050505050565b8161172f3382611ca2565b151561173a57600080fd5b611745858585610e4f565b611751858585856120d8565b151561175c57600080fd5b5050505050565b600c54600160a060020a03163314806117865750600d54600160a060020a031633145b151561179157600080fd5b600060ff8316116117a157600080fd5b600060ff8216116117b157600080fd5b606460ff83830116106117c357600080fd5b60408051908101604052808360ff1681526020018260ff1681525060118585604051808383808284379190910194855250506040516020938190038401902084518154959094015160ff1990951660ff9485161761ff001916610100949095169390930293909317909155505050505050565b600b805460408051602060026001851615610100026000190190941693909304601f8101849004840282018401909252818152606093610b4693919290918301828280156118c55780601f1061189a576101008083540402835291602001916118c5565b820191906000526020600020905b8154815290600101906020018083116118a857829003601f168201915b5050506000868152600a60209081526040918290208054835160026001831615610100026000190190921691909104601f81018490048402820184019094528381529450925083018282801561195c5780601f106119315761010080835404028352916020019161195c565b820191906000526020600020905b81548152906001019060200180831161193f57829003601f168201915b5050505050612249565b600c54600160a060020a031681565b6001608060020a03191660009081526016602052604090205490565b600c54600090600160a060020a03163314806119b75750600d54600160a060020a031633145b15156119c257600080fd5b600160a060020a03821615156119d757600080fd5b506010546119e53382612285565b611a1f8188888080601f01602080910402602001604051908101604052809392919081815260200183838082843750611c62945050505050565b6001608060020a0319851660009081526017602052604090208054600160a060020a031916600160a060020a038416179055611a5d818686866122d4565b601054611a7190600163ffffffff611c9516565b60105550505050505050565b6000611a8882611170565b1515611a9357600080fd5b5060009081526015602052604090205463ffffffff1690565b600160a060020a03918216600090815260036020908152604080832093909416825291909152205460ff1690565b6000818160008281526012602052604090205460ff166002811115611afb57fe5b14611b0557600080fd5b600c546000848152602081905260409020548491600160a060020a0391821691161480611b4e5750600d54600082815260208190526040902054600160a060020a039081169116145b1515611b5957600080fd5b60008481526015602052604090205484904263ffffffff9091161115611b7e57600080fd5b611b8785611170565b1515611b9257600080fd5b600085815260146020526040902054935034841115611bb057600080fd5b611bba3386612377565b611bcd611bc686611252565b3387610f98565b6000858152601260205260409020805460ff19166001179055600e54611bf39034611c95565b600e55600f54611c0a90600163ffffffff611c9516565b600f556000841115611c1f57611c1f85612402565b604051339086907f3817d9a4b057a227bd53f7fa5d4f61f04e716166b150ff09a06fa830f10cb50190600090a35050505050565b600d54600160a060020a031681565b611c6b82611170565b1515611c7657600080fd5b6000828152600a602090815260409091208251610cde92840190612a63565b81810182811015610b4657fe5b600080611cae83611252565b905080600160a060020a031684600160a060020a03161480611ce9575083600160a060020a0316611cde84610be3565b600160a060020a0316145b80611cf95750611cf98185611aac565b949350505050565b81600160a060020a0316611d1482611252565b600160a060020a031614611d2757600080fd5b600081815260016020526040902054600160a060020a031615611d9e5760008181526001602090815260408083208054600160a060020a031916905580518481529051600160a060020a038616927f8c5be1e5ebec7d5bd14f71427d1e84f3dd0314c0f7b2291e5b200ac8c7c3b925928290030190a35b5050565b6000806000611db185856125b5565b600084815260076020908152604080832054600160a060020a0389168452600690925290912054909350611dec90600163ffffffff6120c616565b600160a060020a038616600090815260066020526040902080549193509083908110611e1457fe5b90600052602060002001549050806006600087600160a060020a0316600160a060020a0316815260200190815260200160002084815481101515611e5457fe5b6000918252602080832090910192909255600160a060020a0387168152600690915260408120805484908110611e8657fe5b6000918252602080832090910192909255600160a060020a0387168152600690915260409020805490611ebd906000198301612ad1565b50600093845260076020526040808520859055908452909220555050565b6000611ee7838361263d565b50600160a060020a039091166000908152600660209081526040808320805460018101825590845282842081018590559383526007909152902055565b60608060008085850360ff166040519080825280601f01601f191660200182016040528015611f5d578160200160208202803883390190505b509250600091508590505b8460ff168160ff161015611fc1578660ff821660108110611f8557fe5b1a60f860020a02838360ff16815181101515611f9d57fe5b906020010190600160f860020a031916908160001a90535060019182019101611f68565b509095945050505050565b6000806000611fdb85856126bf565b6000848152600a60205260409020546002600019610100600184161502019091160415612019576000848152600a6020526040812061201991612af5565b60008481526009602052604090205460085490935061203f90600163ffffffff6120c616565b915060088281548110151561205057fe5b906000526020600020015490508060088481548110151561206d57fe5b6000918252602082200191909155600880548490811061208957fe5b60009182526020909120015560088054906120a8906000198301612ad1565b50600093845260096020526040808520859055908452909220555050565b6000828211156120d257fe5b50900390565b6000806120ed85600160a060020a0316612718565b15156120fc5760019150612240565b84600160a060020a031663f0b9e5ba8786866040518463ffffffff167c01000000000000000000000000000000000000000000000000000000000281526004018084600160a060020a0316600160a060020a0316815260200183815260200180602001828103825283818151815260200191508051906020019080838360005b8381101561219457818101518382015260200161217c565b50505050905090810190601f1680156121c15780820380516001836020036101000a031916815260200191505b50945050505050602060405180830381600087803b1580156121e257600080fd5b505af11580156121f6573d6000803e3d6000fd5b505050506040513d602081101561220c57600080fd5b5051600160e060020a031981167ff0b9e5ba0000000000000000000000000000000000000000000000000000000014925090505b50949350505050565b60408051602081810183526000808352835180830185528181528451928301909452815260609261227e928692869290612720565b9392505050565b61228f8282612981565b600880546000838152600960205260408120829055600182018355919091527ff3f7a9fe364faab93b216da50a3214154f22a0a2b415b23a84c8169e8b636ee3015550565b6000848152601360209081526040808320805470010000000000000000000000000000000088046001608060020a03199182161790915586168352601690915290205461232890600163ffffffff611c9516565b6001608060020a0319939093166000908152601660209081526040808320959095559481526014855283812092909255601590935220805463ffffffff191663ffffffff909216919091179055565b600061238282611252565b9050600160a060020a038316151561239957600080fd5b6000828152600160209081526040918290208054600160a060020a031916600160a060020a03878116918217909255835186815293519093918516927f8c5be1e5ebec7d5bd14f71427d1e84f3dd0314c0f7b2291e5b200ac8c7c3b925928290030190a3505050565b6000606061240e612b3c565b60008481526013602052604081205470010000000000000000000000000000000002935080808061243e87610efe565b95506011866040518082805190602001908083835b602083106124725780518252601f199092019160209182019101612453565b518151602093840361010090810a60001901801990931692909116919091179091529190930195865260408051968790038401872087820182525460ff808216808a52939091041693870193909352600c549251959a506064340402985050600160a060020a0316926108fc88150292508791506000818181858888f19350505050158015612505573d6000803e3d6000fd5b506020850151600d5460405160ff90921660643404029450600160a060020a03169084156108fc029085906000818181858888f1935050505015801561254f573d6000803e3d6000fd5b5050506001608060020a03198516600090815260176020526040808220549051848401340392600160a060020a0390921691829184156108fc0291859190818181858888f193505050501580156125aa573d6000803e3d6000fd5b505050505050505050565b81600160a060020a03166125c882611252565b600160a060020a0316146125db57600080fd5b600160a060020a03821660009081526002602052604090205461260590600163ffffffff6120c616565b600160a060020a0390921660009081526002602090815260408083209490945591815290819052208054600160a060020a0319169055565b600081815260208190526040902054600160a060020a03161561265f57600080fd5b6000818152602081815260408083208054600160a060020a031916600160a060020a0387169081179091558352600290915290205461269f906001611c95565b600160a060020a0390921660009081526002602052604090209190915550565b6126c98282611d01565b6126d38282611da2565b604080518281529051600091600160a060020a038516917fddf252ad1be2c89b69c2b068fc378daa952ba7f163c4a11628f55a4df523b3ef9181900360200190a35050565b6000903b1190565b6060806060806060806060806000808e98508d97508c96508b95508a94508451865188518a518c51010101016040519080825280601f01601f191660200182016040528015612779578160200160208202803883390190505b50935083925060009150600090505b88518110156127e657888181518110151561279f57fe5b90602001015160f860020a900460f860020a0283838060010194508151811015156127c657fe5b906020010190600160f860020a031916908160001a905350600101612788565b5060005b875181101561284857878181518110151561280157fe5b90602001015160f860020a900460f860020a02838380600101945081518110151561282857fe5b906020010190600160f860020a031916908160001a9053506001016127ea565b5060005b86518110156128aa57868181518110151561286357fe5b90602001015160f860020a900460f860020a02838380600101945081518110151561288a57fe5b906020010190600160f860020a031916908160001a90535060010161284c565b5060005b855181101561290c5785818151811015156128c557fe5b90602001015160f860020a900460f860020a0283838060010194508151811015156128ec57fe5b906020010190600160f860020a031916908160001a9053506001016128ae565b5060005b845181101561296e57848181518110151561292757fe5b90602001015160f860020a900460f860020a02838380600101945081518110151561294e57fe5b906020010190600160f860020a031916908160001a905350600101612910565b50909d9c50505050505050505050505050565b600160a060020a038216151561299657600080fd5b6129a08282611edb565b604080518281529051600160a060020a038416916000917fddf252ad1be2c89b69c2b068fc378daa952ba7f163c4a11628f55a4df523b3ef9181900360200190a35050565b828054600181600116156101000203166002900490600052602060002090601f016020900481019282601f10612a265782800160ff19823516178555612a53565b82800160010185558215612a53579182015b82811115612a53578235825591602001919060010190612a38565b50612a5f929150612b53565b5090565b828054600181600116156101000203166002900490600052602060002090601f016020900481019282601f10612aa457805160ff1916838001178555612a53565b82800160010185558215612a53579182015b82811115612a53578251825591602001919060010190612ab6565b815481835581811115610cde57600083815260209020610cde918101908301612b53565b50805460018160011615610100020316600290046000825580601f10612b1b5750612b39565b601f016020900490600052602060002090810190612b399190612b53565b50565b604080518082019091526000808252602082015290565b610be091905b80821115612a5f5760008155600101612b595600a165627a7a723058201ff19142b4af45565245c0cd19676e3d0332a1e31cdc92f60b47379fa8267c940029",
  "source": "pragma solidity ^0.4.21;\n\n\nimport \"./ERC721Token.sol\";\n\nimport \"../Strings.sol\";\n\nimport \"./ERC165.sol\";\n\n/**\n* @title KnownOriginDigitalAsset\n*\n* http://www.knownorigin.io/\n*\n* ERC721 compliant digital assets for real-world artwork.\n* BE ORIGINAL. BUY ORIGINAL.\n*\n*/\ncontract KnownOriginDigitalAsset is ERC721Token, ERC165 {\n  using SafeMath for uint256;\n\n  bytes4 constant InterfaceSignature_ERC165 = 0x01ffc9a7;\n    /*\n    bytes4(keccak256('supportsInterface(bytes4)'));\n    */\n\n  bytes4 constant InterfaceSignature_ERC721Enumerable = 0x780e9d63;\n    /*\n    bytes4(keccak256('totalSupply()')) ^\n    bytes4(keccak256('tokenOfOwnerByIndex(address,uint256)')) ^\n    bytes4(keccak256('tokenByIndex(uint256)'));\n    */\n\n  bytes4 constant InterfaceSignature_ERC721Metadata = 0x5b5e139f;\n    /*\n    bytes4(keccak256('name()')) ^\n    bytes4(keccak256('symbol()')) ^\n    bytes4(keccak256('tokenURI(uint256)'));\n    */\n\n  bytes4 constant InterfaceSignature_ERC721 = 0x80ac58cd;\n    /*\n    bytes4(keccak256('balanceOf(address)')) ^\n    bytes4(keccak256('ownerOf(uint256)')) ^\n    bytes4(keccak256('approve(address,uint256)')) ^\n    bytes4(keccak256('getApproved(uint256)')) ^\n    bytes4(keccak256('setApprovalForAll(address,bool)')) ^\n    bytes4(keccak256('isApprovedForAll(address,address)')) ^\n    bytes4(keccak256('transferFrom(address,address,uint256)')) ^\n    bytes4(keccak256('safeTransferFrom(address,address,uint256)')) ^\n    bytes4(keccak256('safeTransferFrom(address,address,uint256,bytes)'));\n    */\n\n  bytes4 public constant InterfaceSignature_ERC721Optional = 0x4f558e79;\n    /*\n    bytes4(keccak256('exists(uint256)'));\n    */\n\n  /**\n   * @notice Introspection interface as per ERC-165 (https://github.com/ethereum/EIPs/issues/165).\n   * @dev Returns true for any standardized interfaces implemented by this contract.\n   * @param _interfaceID bytes4 the interface to check for\n   * @return true for any standardized interfaces implemented by this contract.\n   */\n  function supportsInterface(bytes4 _interfaceID) external pure returns (bool) {\n    return ((_interfaceID == InterfaceSignature_ERC165)\n    || (_interfaceID == InterfaceSignature_ERC721)\n    || (_interfaceID == InterfaceSignature_ERC721Optional)\n    || (_interfaceID == InterfaceSignature_ERC721Enumerable)\n    || (_interfaceID == InterfaceSignature_ERC721Metadata));\n  }\n\n  struct CommissionStructure {\n    uint8 curator;\n    uint8 developer;\n  }\n\n  string internal tokenBaseURI = \"https://ipfs.infura.io/ipfs/\";\n\n  // creates and owns the original assets all primary purchases transferred to this account\n  address public curatorAccount;\n\n  // the person who is responsible for designing and building the contract\n  address public developerAccount;\n\n  // total wei been processed through the contract\n  uint256 public totalPurchaseValueInWei;\n\n  // number of assets sold of any type\n  uint256 public totalNumberOfPurchases;\n\n  // A pointer to the next token to be minted, zero indexed\n  uint256 public tokenIdPointer = 0;\n\n  enum PurchaseState {Unsold, EtherPurchase, FiatPurchase}\n\n  mapping(string => CommissionStructure) internal editionTypeToCommission;\n  mapping(uint256 => PurchaseState) internal tokenIdToPurchased;\n\n  mapping(uint256 => bytes16) internal tokenIdToEdition;\n  mapping(uint256 => uint256) internal tokenIdToPriceInWei;\n  mapping(uint256 => uint32) internal tokenIdToPurchaseFromTime;\n\n  mapping(bytes16 => uint256) internal editionToEditionNumber;\n  mapping(bytes16 => address) internal editionToArtistAccount;\n\n  event PurchasedWithEther(uint256 indexed _tokenId, address indexed _buyer);\n\n  event PurchasedWithFiat(uint256 indexed _tokenId);\n\n  event PurchasedWithFiatReversed(uint256 indexed _tokenId);\n\n  modifier onlyCurator() {\n    require(msg.sender == curatorAccount);\n    _;\n  }\n\n  modifier onlyUnsold(uint256 _tokenId) {\n    require(tokenIdToPurchased[_tokenId] == PurchaseState.Unsold);\n    _;\n  }\n\n  modifier onlyFiatPurchased(uint256 _tokenId) {\n    require(tokenIdToPurchased[_tokenId] == PurchaseState.FiatPurchase);\n    _;\n  }\n\n  modifier onlyKnownOriginOwnedToken(uint256 _tokenId) {\n    require(tokenOwner[_tokenId] == curatorAccount || tokenOwner[_tokenId] == developerAccount);\n    _;\n  }\n\n  modifier onlyKnownOrigin() {\n    require(msg.sender == curatorAccount || msg.sender == developerAccount);\n    _;\n  }\n\n  modifier onlyAfterPurchaseFromTime(uint256 _tokenId) {\n    require(tokenIdToPurchaseFromTime[_tokenId] <= block.timestamp);\n    _;\n  }\n\n  function KnownOriginDigitalAsset(address _curatorAccount) public ERC721Token(\"KnownOriginDigitalAsset\", \"KODA\") {\n    developerAccount = msg.sender;\n    curatorAccount = _curatorAccount;\n  }\n\n  // don't accept payment directly to contract\n  function() public payable {\n    revert();\n  }\n\n  /**\n   * @dev Mint a new KODA token\n   * @dev Reverts if not called by management\n   * @param _tokenURI the IPFS or equivalent hash\n   * @param _edition the identifier of the edition - leading 3 bytes are the artist code, trailing 3 bytes are the asset type\n   * @param _priceInWei the price of the KODA token\n   * @param _auctionStartDate the date when the token is available for sale\n   */\n  function mint(string _tokenURI, bytes16 _edition, uint256 _priceInWei, uint32 _auctionStartDate, address _artistAccount) external onlyKnownOrigin {\n    require(_artistAccount != address(0));\n\n    uint256 _tokenId = tokenIdPointer;\n\n    super._mint(msg.sender, _tokenId);\n    super._setTokenURI(_tokenId, _tokenURI);\n\n    editionToArtistAccount[_edition] = _artistAccount;\n\n    _populateTokenData(_tokenId, _edition, _priceInWei, _auctionStartDate);\n\n    tokenIdPointer = tokenIdPointer.add(1);\n  }\n\n  function _populateTokenData(uint _tokenId, bytes16 _edition, uint256 _priceInWei, uint32 _purchaseFromTime) internal {\n    tokenIdToEdition[_tokenId] = _edition;\n    editionToEditionNumber[_edition] = editionToEditionNumber[_edition].add(1);\n    tokenIdToPriceInWei[_tokenId] = _priceInWei;\n    tokenIdToPurchaseFromTime[_tokenId] = _purchaseFromTime;\n  }\n\n  /**\n   * @dev Burns a KODA token\n   * @dev Reverts if token is not unsold or not owned by management\n   * @param _tokenId the KODA token ID\n   */\n  function burn(uint256 _tokenId) public onlyKnownOrigin onlyUnsold(_tokenId) onlyKnownOriginOwnedToken(_tokenId) {\n    require(exists(_tokenId));\n    super._burn(ownerOf(_tokenId), _tokenId);\n\n    bytes16 edition = tokenIdToEdition[_tokenId];\n\n    delete tokenIdToEdition[_tokenId];\n    delete tokenIdToPriceInWei[_tokenId];\n    delete tokenIdToPurchaseFromTime[_tokenId];\n\n    editionToEditionNumber[edition] = editionToEditionNumber[edition].sub(1);\n  }\n\n  /**\n   * @dev Utility function for updating a KODA assets token URI\n   * @dev Reverts if not called by management\n   * @param _tokenId the KODA token ID\n   * @param _uri the token URI, will be concatenated with baseUri\n   */\n  function setTokenURI(uint256 _tokenId, string _uri) external onlyKnownOrigin {\n    require(exists(_tokenId));\n    _setTokenURI(_tokenId, _uri);\n  }\n\n  /**\n   * @dev Utility function for updating a KODA assets price\n   * @dev Reverts if token is not unsold or not called by management\n   * @param _tokenId the KODA token ID\n   * @param _priceInWei the price in wei\n   */\n  function setPriceInWei(uint _tokenId, uint256 _priceInWei) external onlyKnownOrigin onlyUnsold(_tokenId) {\n    require(exists(_tokenId));\n    tokenIdToPriceInWei[_tokenId] = _priceInWei;\n  }\n\n  /**\n   * @dev Used to pre-approve a purchaser in order for internal purchase methods\n   * to succeed without calling approve() directly\n   * @param _tokenId the KODA token ID\n   * @return address currently approved for a the given token ID\n   */\n  function _approvePurchaser(address _to, uint256 _tokenId) internal {\n    address owner = ownerOf(_tokenId);\n    require(_to != address(0));\n\n    tokenApprovals[_tokenId] = _to;\n    Approval(owner, _to, _tokenId);\n  }\n\n  /**\n   * @dev Updates the commission structure for the given _type\n   * @dev Reverts if not called by management\n   * @param _type the asset type\n   * @param _curator the curators commission\n   * @param _developer the developers commission\n   */\n  function updateCommission(string _type, uint8 _curator, uint8 _developer) external onlyKnownOrigin {\n    require(_curator > 0);\n    require(_developer > 0);\n    require((_curator + _developer) < 100);\n\n    editionTypeToCommission[_type] = CommissionStructure({curator : _curator, developer : _developer});\n  }\n\n  /**\n   * @dev Utility function for retrieving the commission structure for the provided _type\n   * @param _type the asset type\n   * @return the commission structure or zero for both values when not found\n   */\n  function getCommissionForType(string _type) public view returns (uint8 _curator, uint8 _developer) {\n    CommissionStructure storage commission = editionTypeToCommission[_type];\n    return (commission.curator, commission.developer);\n  }\n\n  /**\n   * @dev Purchase the provide token in Ether\n   * @dev Reverts if token not unsold and not available to be purchased\n   * msg.sender will become the owner of the token\n   * msg.value needs to be >= to the token priceInWei\n   * @param _tokenId the KODA token ID\n   * @return true/false depending on success\n   */\n  function purchaseWithEther(uint256 _tokenId) public payable onlyUnsold(_tokenId) onlyKnownOriginOwnedToken(_tokenId) onlyAfterPurchaseFromTime(_tokenId) {\n    require(exists(_tokenId));\n\n    uint256 priceInWei = tokenIdToPriceInWei[_tokenId];\n    require(msg.value >= priceInWei);\n\n    // approve sender as they have paid the required amount\n    _approvePurchaser(msg.sender, _tokenId);\n\n    // transfer assets from contract creator (curator) to new owner\n    safeTransferFrom(ownerOf(_tokenId), msg.sender, _tokenId);\n\n    // now purchased - don't allow re-purchase!\n    tokenIdToPurchased[_tokenId] = PurchaseState.EtherPurchase;\n\n    totalPurchaseValueInWei = totalPurchaseValueInWei.add(msg.value);\n    totalNumberOfPurchases = totalNumberOfPurchases.add(1);\n\n    // Only apply commission if the art work has value\n    if (priceInWei > 0) {\n      _applyCommission(_tokenId);\n    }\n\n    PurchasedWithEther(_tokenId, msg.sender);\n  }\n\n  /**\n   * @dev Purchase the provide token in FIAT, management command only for taking fiat payments during KODA physical exhibitions\n   * Equivalent to taking the KODA token off the market and marking as sold\n   * @dev Reverts if token not unsold and not available to be purchased and not called by management\n   * @param _tokenId the KODA token ID\n   */\n  function purchaseWithFiat(uint256 _tokenId) public onlyKnownOrigin onlyUnsold(_tokenId) onlyAfterPurchaseFromTime(_tokenId) {\n    require(exists(_tokenId));\n\n    // now purchased - don't allow re-purchase!\n    tokenIdToPurchased[_tokenId] = PurchaseState.FiatPurchase;\n\n    totalNumberOfPurchases = totalNumberOfPurchases.add(1);\n\n    PurchasedWithFiat(_tokenId);\n  }\n\n  /**\n   * @dev Reverse a fiat purchase made by calling purchaseWithFiat()\n   * @dev Reverts if token not purchased with fiat and not available to be purchased and not called by management\n   * @param _tokenId the KODA token ID\n   */\n  function reverseFiatPurchase(uint256 _tokenId) public onlyKnownOrigin onlyFiatPurchased(_tokenId) onlyAfterPurchaseFromTime(_tokenId) {\n    require(exists(_tokenId));\n\n    // reset to Unsold\n    tokenIdToPurchased[_tokenId] = PurchaseState.Unsold;\n\n    totalNumberOfPurchases = totalNumberOfPurchases.sub(1);\n\n    PurchasedWithFiatReversed(_tokenId);\n  }\n\n  /**\n   * @dev Internal function for apply commission on purchase\n   */\n  function _applyCommission(uint256 _tokenId) internal {\n    bytes16 edition = tokenIdToEdition[_tokenId];\n\n    string memory typeCode = getTypeFromEdition(edition);\n\n    CommissionStructure memory commission = editionTypeToCommission[typeCode];\n\n    // split & transfer fee for curator\n    uint curatorAccountFee = msg.value / 100 * commission.curator;\n    curatorAccount.transfer(curatorAccountFee);\n\n    // split & transfer fee for developer\n    uint developerAccountFee = msg.value / 100 * commission.developer;\n    developerAccount.transfer(developerAccountFee);\n\n    // final payment to commission would be the remaining value\n    uint finalCommissionTotal = msg.value - (curatorAccountFee + developerAccountFee);\n\n    // send ether\n    address artistAccount = editionToArtistAccount[edition];\n    artistAccount.transfer(finalCommissionTotal);\n  }\n\n  /**\n   * @dev Retrieve all asset information for the provided token\n   * @param _tokenId the KODA token ID\n   * @return tokenId, owner, purchaseState, priceInWei, purchaseFromDateTime\n   */\n  function assetInfo(uint _tokenId) public view returns (\n    uint256 _tokId,\n    address _owner,\n    PurchaseState _purchaseState,\n    uint256 _priceInWei,\n    uint32 _purchaseFromTime\n  ) {\n    return (\n      _tokenId,\n      tokenOwner[_tokenId],\n      tokenIdToPurchased[_tokenId],\n      tokenIdToPriceInWei[_tokenId],\n      tokenIdToPurchaseFromTime[_tokenId]\n    );\n  }\n\n  /**\n   * @dev Retrieve all edition information for the provided token\n   * @param _tokenId the KODA token ID\n   * @return tokenId, edition, editionNumber, tokenUri\n   */\n  function editionInfo(uint256 _tokenId) public view returns (\n    uint256 _tokId,\n    bytes16 _edition,\n    uint256 _editionNumber,\n    string _tokenURI,\n    address _artistAccount\n  ) {\n    bytes16 edition = tokenIdToEdition[_tokenId];\n    return (\n      _tokenId,\n      edition,\n      editionToEditionNumber[edition],\n      tokenURI(_tokenId),\n      editionToArtistAccount[edition]\n    );\n  }\n\n  function tokensOf(address _owner) public view returns (uint256[] _tokenIds) {\n    return ownedTokens[_owner];\n  }\n\n  /**\n   * @dev Return the total number of assets in an edition\n   * @param _edition the edition identifier\n   */\n  function numberOf(bytes16 _edition) public view returns (uint256) {\n    return editionToEditionNumber[_edition];\n  }\n\n  /**\n   * @dev Get the token purchase state for the given token\n   * @param _tokenId the KODA token ID\n   * @return the purchase sate, either 0, 1, 2, reverts if token not found\n   */\n  function isPurchased(uint256 _tokenId) public view returns (PurchaseState _purchased) {\n    require(exists(_tokenId));\n    return tokenIdToPurchased[_tokenId];\n  }\n\n  /**\n   * @dev Get the edition identifier for the given token\n   * @param _tokenId the KODA token ID\n   * @return the edition is found, reverts if token not found\n   */\n  function editionOf(uint256 _tokenId) public view returns (bytes16 _edition) {\n    require(exists(_tokenId));\n    return tokenIdToEdition[_tokenId];\n  }\n\n  /**\n   * @dev Get the purchase from time for the given token\n   * @param _tokenId the KODA token ID\n   * @return the purchased from time, reverts if token not found\n   */\n  function purchaseFromTime(uint256 _tokenId) public view returns (uint32 _purchaseFromTime) {\n    require(exists(_tokenId));\n    return tokenIdToPurchaseFromTime[_tokenId];\n  }\n\n  /**\n   * @dev Get the price in wei for the given token\n   * @param _tokenId the KODA token ID\n   * @return the price in wei, reverts if token not found\n   */\n  function priceInWei(uint256 _tokenId) public view returns (uint256 _priceInWei) {\n    require(exists(_tokenId));\n    return tokenIdToPriceInWei[_tokenId];\n  }\n\n  /**\n   * @dev Get the type for the provided edition, useful for testing purposes\n   * @param _edition the edition identifier\n   * @return the type or blank string\n   */\n  function getTypeFromEdition(bytes16 _edition) public pure returns (string) {\n    // return last 3 chars that represent the edition type\n    return Strings.bytes16ToStr(_edition, 13, 16);\n  }\n\n  /**\n   * @dev Get token URI fro the given token, useful for testing purposes\n   * @param _tokenId the KODA token ID\n   * @return the token ID or only the base URI if not found\n   */\n  function tokenURI(uint256 _tokenId) public view returns (string) {\n    return Strings.strConcat(tokenBaseURI, tokenURIs[_tokenId]);\n  }\n\n  /**\n   * @dev Allows management to update the base tokenURI path\n   * @dev Reverts if not called by management\n   * @param _newBaseURI the new base URI to set\n   */\n  function setTokenBaseURI(string _newBaseURI) external onlyKnownOrigin {\n    tokenBaseURI = _newBaseURI;\n  }\n\n  /**\n   * @dev Allows management to update the artist account (where commission is sent)\n   * @dev Reverts if not called by management\n   * @param _edition edition to adjust\n    * @param _artistAccount address of artist on blockchain\n   */\n  function setArtistAccount(bytes16 _edition, address _artistAccount) external onlyKnownOrigin {\n    require(_artistAccount != address(0));\n\n    editionToArtistAccount[_edition] = _artistAccount;\n  }\n}\n",
  "sourcePath": "/Users/jamesmorgan/Dropbox/workspace-blockrocket/known-origin-web3-marketplace/contracts/v1/KnownOriginDigitalAsset.sol",
  "compiler": {
    "name": "solc",
    "version": "0.4.24+commit.e67f0147.Emscripten.clang"
  },
  "schemaVersion": "2.0.1",
  "updatedAt": "2018-08-18T06:55:25.542Z"
}