{
  "contractName": "KnownOriginDigitalAsset",
  "abi": [
    {
      "constant": true,
      "inputs": [],
      "name": "name",
      "outputs": [
        {
          "name": "",
          "type": "string"
        }
      ],
      "payable": false,
      "stateMutability": "view",
      "type": "function",
      "signature": "0x06fdde03"
    },
    {
      "constant": true,
      "inputs": [
        {
          "name": "_tokenId",
          "type": "uint256"
        }
      ],
      "name": "getApproved",
      "outputs": [
        {
          "name": "",
          "type": "address"
        }
      ],
      "payable": false,
      "stateMutability": "view",
      "type": "function",
      "signature": "0x081812fc"
    },
    {
      "constant": false,
      "inputs": [
        {
          "name": "_to",
          "type": "address"
        },
        {
          "name": "_tokenId",
          "type": "uint256"
        }
      ],
      "name": "approve",
      "outputs": [],
      "payable": false,
      "stateMutability": "nonpayable",
      "type": "function",
      "signature": "0x095ea7b3"
    },
    {
      "constant": true,
      "inputs": [],
      "name": "totalSupply",
      "outputs": [
        {
          "name": "",
          "type": "uint256"
        }
      ],
      "payable": false,
      "stateMutability": "view",
      "type": "function",
      "signature": "0x18160ddd"
    },
    {
      "constant": false,
      "inputs": [
        {
          "name": "_from",
          "type": "address"
        },
        {
          "name": "_to",
          "type": "address"
        },
        {
          "name": "_tokenId",
          "type": "uint256"
        }
      ],
      "name": "transferFrom",
      "outputs": [],
      "payable": false,
      "stateMutability": "nonpayable",
      "type": "function",
      "signature": "0x23b872dd"
    },
    {
      "constant": true,
      "inputs": [],
      "name": "totalPurchaseValueInWei",
      "outputs": [
        {
          "name": "",
          "type": "uint256"
        }
      ],
      "payable": false,
      "stateMutability": "view",
      "type": "function",
      "signature": "0x2bbd84e8"
    },
    {
      "constant": true,
      "inputs": [
        {
          "name": "_owner",
          "type": "address"
        },
        {
          "name": "_index",
          "type": "uint256"
        }
      ],
      "name": "tokenOfOwnerByIndex",
      "outputs": [
        {
          "name": "",
          "type": "uint256"
        }
      ],
      "payable": false,
      "stateMutability": "view",
      "type": "function",
      "signature": "0x2f745c59"
    },
    {
      "constant": true,
      "inputs": [],
      "name": "tokenIdPointer",
      "outputs": [
        {
          "name": "",
          "type": "uint256"
        }
      ],
      "payable": false,
      "stateMutability": "view",
      "type": "function",
      "signature": "0x3b3a1a7a"
    },
    {
      "constant": true,
      "inputs": [],
      "name": "totalNumberOfPurchases",
      "outputs": [
        {
          "name": "",
          "type": "uint256"
        }
      ],
      "payable": false,
      "stateMutability": "view",
      "type": "function",
      "signature": "0x4082b499"
    },
    {
      "constant": false,
      "inputs": [
        {
          "name": "_from",
          "type": "address"
        },
        {
          "name": "_to",
          "type": "address"
        },
        {
          "name": "_tokenId",
          "type": "uint256"
        }
      ],
      "name": "safeTransferFrom",
      "outputs": [],
      "payable": false,
      "stateMutability": "nonpayable",
      "type": "function",
      "signature": "0x42842e0e"
    },
    {
      "constant": true,
      "inputs": [
        {
          "name": "_tokenId",
          "type": "uint256"
        }
      ],
      "name": "exists",
      "outputs": [
        {
          "name": "",
          "type": "bool"
        }
      ],
      "payable": false,
      "stateMutability": "view",
      "type": "function",
      "signature": "0x4f558e79"
    },
    {
      "constant": true,
      "inputs": [
        {
          "name": "_index",
          "type": "uint256"
        }
      ],
      "name": "tokenByIndex",
      "outputs": [
        {
          "name": "",
          "type": "uint256"
        }
      ],
      "payable": false,
      "stateMutability": "view",
      "type": "function",
      "signature": "0x4f6ccce7"
    },
    {
      "constant": true,
      "inputs": [],
      "name": "InterfaceSignature_ERC721Optional",
      "outputs": [
        {
          "name": "",
          "type": "bytes4"
        }
      ],
      "payable": false,
      "stateMutability": "view",
      "type": "function",
      "signature": "0x624de3d9"
    },
    {
      "constant": true,
      "inputs": [
        {
          "name": "_tokenId",
          "type": "uint256"
        }
      ],
      "name": "ownerOf",
      "outputs": [
        {
          "name": "",
          "type": "address"
        }
      ],
      "payable": false,
      "stateMutability": "view",
      "type": "function",
      "signature": "0x6352211e"
    },
    {
      "constant": true,
      "inputs": [
        {
          "name": "_owner",
          "type": "address"
        }
      ],
      "name": "balanceOf",
      "outputs": [
        {
          "name": "",
          "type": "uint256"
        }
      ],
      "payable": false,
      "stateMutability": "view",
      "type": "function",
      "signature": "0x70a08231"
    },
    {
      "constant": true,
      "inputs": [],
      "name": "symbol",
      "outputs": [
        {
          "name": "",
          "type": "string"
        }
      ],
      "payable": false,
      "stateMutability": "view",
      "type": "function",
      "signature": "0x95d89b41"
    },
    {
      "constant": false,
      "inputs": [
        {
          "name": "_to",
          "type": "address"
        },
        {
          "name": "_approved",
          "type": "bool"
        }
      ],
      "name": "setApprovalForAll",
      "outputs": [],
      "payable": false,
      "stateMutability": "nonpayable",
      "type": "function",
      "signature": "0xa22cb465"
    },
    {
      "constant": false,
      "inputs": [
        {
          "name": "_from",
          "type": "address"
        },
        {
          "name": "_to",
          "type": "address"
        },
        {
          "name": "_tokenId",
          "type": "uint256"
        },
        {
          "name": "_data",
          "type": "bytes"
        }
      ],
      "name": "safeTransferFrom",
      "outputs": [],
      "payable": false,
      "stateMutability": "nonpayable",
      "type": "function",
      "signature": "0xb88d4fde"
    },
    {
      "constant": true,
      "inputs": [],
      "name": "curatorAccount",
      "outputs": [
        {
          "name": "",
          "type": "address"
        }
      ],
      "payable": false,
      "stateMutability": "view",
      "type": "function",
      "signature": "0xd4f74bf4"
    },
    {
      "constant": true,
      "inputs": [
        {
          "name": "_owner",
          "type": "address"
        },
        {
          "name": "_operator",
          "type": "address"
        }
      ],
      "name": "isApprovedForAll",
      "outputs": [
        {
          "name": "",
          "type": "bool"
        }
      ],
      "payable": false,
      "stateMutability": "view",
      "type": "function",
      "signature": "0xe985e9c5"
    },
    {
      "constant": true,
      "inputs": [],
      "name": "developerAccount",
      "outputs": [
        {
          "name": "",
          "type": "address"
        }
      ],
      "payable": false,
      "stateMutability": "view",
      "type": "function",
      "signature": "0xf6ec91d5"
    },
    {
      "inputs": [
        {
          "name": "_curatorAccount",
          "type": "address"
        }
      ],
      "payable": false,
      "stateMutability": "nonpayable",
      "type": "constructor",
      "signature": "constructor"
    },
    {
      "payable": true,
      "stateMutability": "payable",
      "type": "fallback"
    },
    {
      "anonymous": false,
      "inputs": [
        {
          "indexed": true,
          "name": "_tokenId",
          "type": "uint256"
        },
        {
          "indexed": true,
          "name": "_buyer",
          "type": "address"
        }
      ],
      "name": "PurchasedWithEther",
      "type": "event",
      "signature": "0x3817d9a4b057a227bd53f7fa5d4f61f04e716166b150ff09a06fa830f10cb501"
    },
    {
      "anonymous": false,
      "inputs": [
        {
          "indexed": true,
          "name": "_tokenId",
          "type": "uint256"
        }
      ],
      "name": "PurchasedWithFiat",
      "type": "event",
      "signature": "0x0bdb01638ac3be385d9ab692cf4661a5777d486d2b58eee4bad9b76374954c72"
    },
    {
      "anonymous": false,
      "inputs": [
        {
          "indexed": true,
          "name": "_tokenId",
          "type": "uint256"
        }
      ],
      "name": "PurchasedWithFiatReversed",
      "type": "event",
      "signature": "0xb86b57a33124aa41b48d51668d80c57a403632f755dc2fb969ca0b0d8aded10a"
    },
    {
      "anonymous": false,
      "inputs": [
        {
          "indexed": true,
          "name": "_from",
          "type": "address"
        },
        {
          "indexed": true,
          "name": "_to",
          "type": "address"
        },
        {
          "indexed": false,
          "name": "_tokenId",
          "type": "uint256"
        }
      ],
      "name": "Transfer",
      "type": "event",
      "signature": "0xddf252ad1be2c89b69c2b068fc378daa952ba7f163c4a11628f55a4df523b3ef"
    },
    {
      "anonymous": false,
      "inputs": [
        {
          "indexed": true,
          "name": "_owner",
          "type": "address"
        },
        {
          "indexed": true,
          "name": "_approved",
          "type": "address"
        },
        {
          "indexed": false,
          "name": "_tokenId",
          "type": "uint256"
        }
      ],
      "name": "Approval",
      "type": "event",
      "signature": "0x8c5be1e5ebec7d5bd14f71427d1e84f3dd0314c0f7b2291e5b200ac8c7c3b925"
    },
    {
      "anonymous": false,
      "inputs": [
        {
          "indexed": true,
          "name": "_owner",
          "type": "address"
        },
        {
          "indexed": true,
          "name": "_operator",
          "type": "address"
        },
        {
          "indexed": false,
          "name": "_approved",
          "type": "bool"
        }
      ],
      "name": "ApprovalForAll",
      "type": "event",
      "signature": "0x17307eab39ab6107e8899845ad3d59bd9653f200f220920489ca2b5937696c31"
    },
    {
      "constant": true,
      "inputs": [
        {
          "name": "_interfaceID",
          "type": "bytes4"
        }
      ],
      "name": "supportsInterface",
      "outputs": [
        {
          "name": "",
          "type": "bool"
        }
      ],
      "payable": false,
      "stateMutability": "pure",
      "type": "function",
      "signature": "0x01ffc9a7"
    },
    {
      "constant": false,
      "inputs": [
        {
          "name": "_tokenURI",
          "type": "string"
        },
        {
          "name": "_edition",
          "type": "bytes16"
        },
        {
          "name": "_priceInWei",
          "type": "uint256"
        },
        {
          "name": "_auctionStartDate",
          "type": "uint32"
        },
        {
          "name": "_artistAccount",
          "type": "address"
        }
      ],
      "name": "mint",
      "outputs": [],
      "payable": false,
      "stateMutability": "nonpayable",
      "type": "function",
      "signature": "0xe6153d1b"
    },
    {
      "constant": false,
      "inputs": [
        {
          "name": "_tokenId",
          "type": "uint256"
        }
      ],
      "name": "burn",
      "outputs": [],
      "payable": false,
      "stateMutability": "nonpayable",
      "type": "function",
      "signature": "0x42966c68"
    },
    {
      "constant": false,
      "inputs": [
        {
          "name": "_tokenId",
          "type": "uint256"
        },
        {
          "name": "_uri",
          "type": "string"
        }
      ],
      "name": "setTokenURI",
      "outputs": [],
      "payable": false,
      "stateMutability": "nonpayable",
      "type": "function",
      "signature": "0x162094c4"
    },
    {
      "constant": false,
      "inputs": [
        {
          "name": "_tokenId",
          "type": "uint256"
        },
        {
          "name": "_priceInWei",
          "type": "uint256"
        }
      ],
      "name": "setPriceInWei",
      "outputs": [],
      "payable": false,
      "stateMutability": "nonpayable",
      "type": "function",
      "signature": "0x7e298249"
    },
    {
      "constant": false,
      "inputs": [
        {
          "name": "_type",
          "type": "string"
        },
        {
          "name": "_curator",
          "type": "uint8"
        },
        {
          "name": "_developer",
          "type": "uint8"
        }
      ],
      "name": "updateCommission",
      "outputs": [],
      "payable": false,
      "stateMutability": "nonpayable",
      "type": "function",
      "signature": "0xc3b7572c"
    },
    {
      "constant": true,
      "inputs": [
        {
          "name": "_type",
          "type": "string"
        }
      ],
      "name": "getCommissionForType",
      "outputs": [
        {
          "name": "_curator",
          "type": "uint8"
        },
        {
          "name": "_developer",
          "type": "uint8"
        }
      ],
      "payable": false,
      "stateMutability": "view",
      "type": "function",
      "signature": "0xafe70413"
    },
    {
      "constant": false,
      "inputs": [
        {
          "name": "_tokenId",
          "type": "uint256"
        }
      ],
      "name": "purchaseWithEther",
      "outputs": [],
      "payable": true,
      "stateMutability": "payable",
      "type": "function",
      "signature": "0xf4ce7c1c"
    },
    {
      "constant": false,
      "inputs": [
        {
          "name": "_tokenId",
          "type": "uint256"
        }
      ],
      "name": "purchaseWithFiat",
      "outputs": [],
      "payable": false,
      "stateMutability": "nonpayable",
      "type": "function",
      "signature": "0x18714bc8"
    },
    {
      "constant": false,
      "inputs": [
        {
          "name": "_tokenId",
          "type": "uint256"
        }
      ],
      "name": "reverseFiatPurchase",
      "outputs": [],
      "payable": false,
      "stateMutability": "nonpayable",
      "type": "function",
      "signature": "0x7e38b424"
    },
    {
      "constant": true,
      "inputs": [
        {
          "name": "_tokenId",
          "type": "uint256"
        }
      ],
      "name": "assetInfo",
      "outputs": [
        {
          "name": "_tokId",
          "type": "uint256"
        },
        {
          "name": "_owner",
          "type": "address"
        },
        {
          "name": "_purchaseState",
          "type": "uint8"
        },
        {
          "name": "_priceInWei",
          "type": "uint256"
        },
        {
          "name": "_purchaseFromTime",
          "type": "uint32"
        }
      ],
      "payable": false,
      "stateMutability": "view",
      "type": "function",
      "signature": "0xa879fcbb"
    },
    {
      "constant": true,
      "inputs": [
        {
          "name": "_tokenId",
          "type": "uint256"
        }
      ],
      "name": "editionInfo",
      "outputs": [
        {
          "name": "_tokId",
          "type": "uint256"
        },
        {
          "name": "_edition",
          "type": "bytes16"
        },
        {
          "name": "_editionNumber",
          "type": "uint256"
        },
        {
          "name": "_tokenURI",
          "type": "string"
        },
        {
          "name": "_artistAccount",
          "type": "address"
        }
      ],
      "payable": false,
      "stateMutability": "view",
      "type": "function",
      "signature": "0xa92ca27d"
    },
    {
      "constant": true,
      "inputs": [
        {
          "name": "_owner",
          "type": "address"
        }
      ],
      "name": "tokensOf",
      "outputs": [
        {
          "name": "_tokenIds",
          "type": "uint256[]"
        }
      ],
      "payable": false,
      "stateMutability": "view",
      "type": "function",
      "signature": "0x5a3f2672"
    },
    {
      "constant": true,
      "inputs": [
        {
          "name": "_edition",
          "type": "bytes16"
        }
      ],
      "name": "numberOf",
      "outputs": [
        {
          "name": "",
          "type": "uint256"
        }
      ],
      "payable": false,
      "stateMutability": "view",
      "type": "function",
      "signature": "0xd5b0c0d5"
    },
    {
      "constant": true,
      "inputs": [
        {
          "name": "_tokenId",
          "type": "uint256"
        }
      ],
      "name": "isPurchased",
      "outputs": [
        {
          "name": "_purchased",
          "type": "uint8"
        }
      ],
      "payable": false,
      "stateMutability": "view",
      "type": "function",
      "signature": "0x2c9f4f62"
    },
    {
      "constant": true,
      "inputs": [
        {
          "name": "_tokenId",
          "type": "uint256"
        }
      ],
      "name": "editionOf",
      "outputs": [
        {
          "name": "_edition",
          "type": "bytes16"
        }
      ],
      "payable": false,
      "stateMutability": "view",
      "type": "function",
      "signature": "0x4be185f0"
    },
    {
      "constant": true,
      "inputs": [
        {
          "name": "_tokenId",
          "type": "uint256"
        }
      ],
      "name": "purchaseFromTime",
      "outputs": [
        {
          "name": "_purchaseFromTime",
          "type": "uint32"
        }
      ],
      "payable": false,
      "stateMutability": "view",
      "type": "function",
      "signature": "0xe6db38c7"
    },
    {
      "constant": true,
      "inputs": [
        {
          "name": "_tokenId",
          "type": "uint256"
        }
      ],
      "name": "priceInWei",
      "outputs": [
        {
          "name": "_priceInWei",
          "type": "uint256"
        }
      ],
      "payable": false,
      "stateMutability": "view",
      "type": "function",
      "signature": "0x6af79112"
    },
    {
      "constant": true,
      "inputs": [
        {
          "name": "_edition",
          "type": "bytes16"
        }
      ],
      "name": "getTypeFromEdition",
      "outputs": [
        {
          "name": "",
          "type": "string"
        }
      ],
      "payable": false,
      "stateMutability": "pure",
      "type": "function",
      "signature": "0x2852ca81"
    },
    {
      "constant": true,
      "inputs": [
        {
          "name": "_tokenId",
          "type": "uint256"
        }
      ],
      "name": "tokenURI",
      "outputs": [
        {
          "name": "",
          "type": "string"
        }
      ],
      "payable": false,
      "stateMutability": "view",
      "type": "function",
      "signature": "0xc87b56dd"
    },
    {
      "constant": false,
      "inputs": [
        {
          "name": "_newBaseURI",
          "type": "string"
        }
      ],
      "name": "setTokenBaseURI",
      "outputs": [],
      "payable": false,
      "stateMutability": "nonpayable",
      "type": "function",
      "signature": "0x8ef79e91"
    },
    {
      "constant": false,
      "inputs": [
        {
          "name": "_edition",
          "type": "bytes16"
        },
        {
          "name": "_artistAccount",
          "type": "address"
        }
      ],
      "name": "setArtistAccount",
      "outputs": [],
      "payable": false,
      "stateMutability": "nonpayable",
      "type": "function",
      "signature": "0x74b04fa7"
    }
  ],
  "bytecode": "0x60c0604052601c60808190527f68747470733a2f2f697066732e696e667572612e696f2f697066732f0000000060a09081526200004091600b91906200012f565b5060006010553480156200005357600080fd5b506040516020806200302583398101604081815291518282018352601782527f4b6e6f776e4f726967696e4469676974616c41737365740000000000000000006020808401918252845180860190955260048086527f4b4f444100000000000000000000000000000000000000000000000000000000918601919091528351929492620000e192906200012f565b508051620000f79060059060208401906200012f565b5050600d805433600160a060020a031991821617909155600c8054909116600160a060020a03939093169290921790915550620001d4565b828054600181600116156101000203166002900490600052602060002090601f016020900481019282601f106200017257805160ff1916838001178555620001a2565b82800160010185558215620001a2579182015b82811115620001a257825182559160200191906001019062000185565b50620001b0929150620001b4565b5090565b620001d191905b80821115620001b05760008155600101620001bb565b90565b612e4180620001e46000396000f30060806040526004361061020e5763ffffffff7c010000000000000000000000000000000000000000000000000000000060003504166301ffc9a7811461021357806306fdde031461025e578063081812fc146102e8578063095ea7b31461031c578063162094c41461034257806318160ddd1461036657806318714bc81461038d57806323b872dd146103a55780632852ca81146103cf5780632bbd84e8146103fa5780632c9f4f621461040f5780632f745c591461044b5780633b3a1a7a1461046f5780634082b4991461048457806342842e0e1461049957806342966c68146104c35780634be185f0146104db5780634f558e79146105195780634f6ccce7146105315780635a3f267214610549578063624de3d9146105ba5780636352211e146106015780636af791121461061957806370a082311461063157806374b04fa7146106525780637e298249146106895780637e38b424146106a45780638ef79e91146106bc57806395d89b41146106dc578063a22cb465146106f1578063a879fcbb14610717578063a92ca27d14610784578063afe7041314610868578063b88d4fde146108e1578063c3b7572c14610950578063c87b56dd1461097e578063d4f74bf414610996578063d5b0c0d5146109ab578063e6153d1b146109d6578063e6db38c714610a26578063e985e9c514610a57578063f4ce7c1c14610a7e578063f6ec91d514610a89575b600080fd5b34801561021f57600080fd5b5061024a7bffffffffffffffffffffffffffffffffffffffffffffffffffffffff1960043516610a9e565b604080519115158252519081900360200190f35b34801561026a57600080fd5b50610273610c0c565b6040805160208082528351818301528351919283929083019185019080838360005b838110156102ad578181015183820152602001610295565b50505050905090810190601f1680156102da5780820380516001836020036101000a031916815260200191505b509250505060405180910390f35b3480156102f457600080fd5b50610300600435610ca3565b60408051600160a060020a039092168252519081900360200190f35b34801561032857600080fd5b50610340600160a060020a0360043516602435610cbe565b005b34801561034e57600080fd5b50610340600480359060248035908101910135610db0565b34801561037257600080fd5b5061037b610e2c565b60408051918252519081900360200190f35b34801561039957600080fd5b50610340600435610e32565b3480156103b157600080fd5b50610340600160a060020a0360043581169060243516604435610f1c565b3480156103db57600080fd5b506102736fffffffffffffffffffffffffffffffff1960043516610fcb565b34801561040657600080fd5b5061037b610fda565b34801561041b57600080fd5b50610427600435610fe0565b6040518082600281111561043757fe5b60ff16815260200191505060405180910390f35b34801561045757600080fd5b5061037b600160a060020a036004351660243561100c565b34801561047b57600080fd5b5061037b611059565b34801561049057600080fd5b5061037b61105f565b3480156104a557600080fd5b50610340600160a060020a0360043581169060243516604435611065565b3480156104cf57600080fd5b5061034060043561109d565b3480156104e757600080fd5b506104f3600435611213565b604080516fffffffffffffffffffffffffffffffff199092168252519081900360200190f35b34801561052557600080fd5b5061024a60043561124f565b34801561053d57600080fd5b5061037b60043561126c565b34801561055557600080fd5b5061056a600160a060020a03600435166112a1565b60408051602080825283518183015283519192839290830191858101910280838360005b838110156105a657818101518382015260200161058e565b505050509050019250505060405180910390f35b3480156105c657600080fd5b506105cf61130d565b604080517bffffffffffffffffffffffffffffffffffffffffffffffffffffffff199092168252519081900360200190f35b34801561060d57600080fd5b50610300600435611331565b34801561062557600080fd5b5061037b600435611355565b34801561063d57600080fd5b5061037b600160a060020a036004351661137e565b34801561065e57600080fd5b506103406fffffffffffffffffffffffffffffffff1960043516600160a060020a03602435166113b1565b34801561069557600080fd5b50610340600435602435611444565b3480156106b057600080fd5b506103406004356114c2565b3480156106c857600080fd5b5061034060048035602481019101356115aa565b3480156106e857600080fd5b506102736115e4565b3480156106fd57600080fd5b50610340600160a060020a03600435166024351515611645565b34801561072357600080fd5b5061072f6004356116c9565b60408051868152600160a060020a038616602082015290810184600281111561075457fe5b60ff1681526020018381526020018263ffffffff1663ffffffff1681526020019550505050505060405180910390f35b34801561079057600080fd5b5061079c600435611712565b60405180868152602001856fffffffffffffffffffffffffffffffff19166fffffffffffffffffffffffffffffffff191681526020018481526020018060200183600160a060020a0316600160a060020a03168152602001828103825284818151815260200191508051906020019080838360005b83811015610829578181015183820152602001610811565b50505050905090810190601f1680156108565780820380516001836020036101000a031916815260200191505b50965050505050505060405180910390f35b34801561087457600080fd5b506040805160206004803580820135601f81018490048402850184019095528484526108c19436949293602493928401919081908401838280828437509497506117aa9650505050505050565b6040805160ff938416815291909216602082015281519081900390910190f35b3480156108ed57600080fd5b50604080516020601f60643560048181013592830184900484028501840190955281845261034094600160a060020a03813581169560248035909216956044359536956084940191819084018382808284375094975061182b9650505050505050565b34801561095c57600080fd5b50610340602460048035828101929101359060ff90358116906044351661186a565b34801561098a57600080fd5b5061027360043561193d565b3480156109a257600080fd5b50610300611a6d565b3480156109b757600080fd5b5061037b6fffffffffffffffffffffffffffffffff1960043516611a7c565b3480156109e257600080fd5b5061034060246004803582810192910135906fffffffffffffffffffffffffffffffff1990351660443563ffffffff60643516600160a060020a0360843516611aa1565b348015610a3257600080fd5b50610a3e600435611ba3565b6040805163ffffffff9092168252519081900360200190f35b348015610a6357600080fd5b5061024a600160a060020a0360043581169060243516611bd2565b610340600435611c00565b348015610a9557600080fd5b50610300611d79565b60007bffffffffffffffffffffffffffffffffffffffffffffffffffffffff1982167f01ffc9a7000000000000000000000000000000000000000000000000000000001480610b2b57507bffffffffffffffffffffffffffffffffffffffffffffffffffffffff1982167f80ac58cd00000000000000000000000000000000000000000000000000000000145b80610b7457507bffffffffffffffffffffffffffffffffffffffffffffffffffffffff1982167f4f558e7900000000000000000000000000000000000000000000000000000000145b80610bbd57507bffffffffffffffffffffffffffffffffffffffffffffffffffffffff1982167f780e9d6300000000000000000000000000000000000000000000000000000000145b80610c0657507bffffffffffffffffffffffffffffffffffffffffffffffffffffffff1982167f5b5e139f00000000000000000000000000000000000000000000000000000000145b92915050565b60048054604080516020601f6002600019610100600188161502019095169490940493840181900481028201810190925282815260609390929091830182828015610c985780601f10610c6d57610100808354040283529160200191610c98565b820191906000526020600020905b815481529060010190602001808311610c7b57829003601f168201915b505050505090505b90565b600090815260016020526040902054600160a060020a031690565b6000610cc982611331565b9050600160a060020a038381169082161415610ce457600080fd5b33600160a060020a0382161480610d005750610d008133611bd2565b1515610d0b57600080fd5b6000610d1683610ca3565b600160a060020a0316141580610d345750600160a060020a03831615155b15610dab57600082815260016020908152604091829020805473ffffffffffffffffffffffffffffffffffffffff1916600160a060020a03878116918217909255835186815293519093918516927f8c5be1e5ebec7d5bd14f71427d1e84f3dd0314c0f7b2291e5b200ac8c7c3b925928290030190a35b505050565b600c54600160a060020a0316331480610dd35750600d54600160a060020a031633145b1515610dde57600080fd5b610de78361124f565b1515610df257600080fd5b610dab8383838080601f01602080910402602001604051908101604052809392919081815260200183838082843750611d88945050505050565b60085490565b600c54600160a060020a0316331480610e555750600d54600160a060020a031633145b1515610e6057600080fd5b806000808281526012602052604090205460ff166002811115610e7f57fe5b14610e8957600080fd5b60008281526015602052604090205482904263ffffffff9091161115610eae57600080fd5b610eb78361124f565b1515610ec257600080fd5b6000838152601260205260409020805460ff19166002179055600f54610ee9906001611dbb565b600f5560405183907f0bdb01638ac3be385d9ab692cf4661a5777d486d2b58eee4bad9b76374954c7290600090a2505050565b80610f273382611dc8565b1515610f3257600080fd5b600160a060020a0384161515610f4757600080fd5b600160a060020a0383161515610f5c57600080fd5b610f668483611e27565b610f708483611ed5565b610f7a838361200e565b82600160a060020a031684600160a060020a03167fddf252ad1be2c89b69c2b068fc378daa952ba7f163c4a11628f55a4df523b3ef846040518082815260200191505060405180910390a350505050565b6060610c0682600d6010612057565b600e5481565b6000610feb8261124f565b1515610ff657600080fd5b5060009081526012602052604090205460ff1690565b60006110178361137e565b821061102257600080fd5b600160a060020a038316600090815260066020526040902080548390811061104657fe5b9060005260206000200154905092915050565b60105481565b600f5481565b806110703382611dc8565b151561107b57600080fd5b611097848484602060405190810160405280600081525061182b565b50505050565b600c54600090600160a060020a03163314806110c35750600d54600160a060020a031633145b15156110ce57600080fd5b816000808281526012602052604090205460ff1660028111156110ed57fe5b146110f757600080fd5b600c546000848152602081905260409020548491600160a060020a03918216911614806111405750600d54600082815260208190526040902054600160a060020a039081169116145b151561114b57600080fd5b6111548461124f565b151561115f57600080fd5b61117161116b85611331565b85612121565b600084815260136020908152604080832080546fffffffffffffffffffffffffffffffff198082169092556014845282852085905560158452828520805463ffffffff191690557001000000000000000000000000000000000290811684526016909252909120549093506111e790600161221b565b6fffffffffffffffffffffffffffffffff19909316600090815260166020526040902092909255505050565b600061121e8261124f565b151561122957600080fd5b506000908152601360205260409020547001000000000000000000000000000000000290565b600090815260208190526040902054600160a060020a0316151590565b6000611276610e2c565b821061128157600080fd5b600880548390811061128f57fe5b90600052602060002001549050919050565b600160a060020a03811660009081526006602090815260409182902080548351818402810184019094528084526060939283018282801561130157602002820191906000526020600020905b8154815260200190600101908083116112ed575b50505050509050919050565b7f4f558e790000000000000000000000000000000000000000000000000000000081565b600081815260208190526040812054600160a060020a0316801515610c0657600080fd5b60006113608261124f565b151561136b57600080fd5b5060009081526014602052604090205490565b6000600160a060020a038216151561139557600080fd5b50600160a060020a031660009081526002602052604090205490565b600c54600160a060020a03163314806113d45750600d54600160a060020a031633145b15156113df57600080fd5b600160a060020a03811615156113f457600080fd5b6fffffffffffffffffffffffffffffffff19919091166000908152601760205260409020805473ffffffffffffffffffffffffffffffffffffffff1916600160a060020a03909216919091179055565b600c54600160a060020a03163314806114675750600d54600160a060020a031633145b151561147257600080fd5b816000808281526012602052604090205460ff16600281111561149157fe5b1461149b57600080fd5b6114a48361124f565b15156114af57600080fd5b5060009182526014602052604090912055565b600c54600160a060020a03163314806114e55750600d54600160a060020a031633145b15156114f057600080fd5b80600260008281526012602052604090205460ff16600281111561151057fe5b1461151a57600080fd5b60008281526015602052604090205482904263ffffffff909116111561153f57600080fd5b6115488361124f565b151561155357600080fd5b6000838152601260205260409020805460ff19169055600f5461157790600161221b565b600f5560405183907fb86b57a33124aa41b48d51668d80c57a403632f755dc2fb969ca0b0d8aded10a90600090a2505050565b600c54600160a060020a03163314806115cd5750600d54600160a060020a031633145b15156115d857600080fd5b610dab600b8383612c6d565b60058054604080516020601f6002600019610100600188161502019095169490940493840181900481028201810190925282815260609390929091830182828015610c985780601f10610c6d57610100808354040283529160200191610c98565b600160a060020a03821633141561165b57600080fd5b336000818152600360209081526040808320600160a060020a03871680855290835292819020805460ff1916861515908117909155815190815290519293927f17307eab39ab6107e8899845ad3d59bd9653f200f220920489ca2b5937696c31929181900390910190a35050565b6000818152602081815260408083205460128352818420546014845282852054601590945291909320549394600160a060020a039093169360ff9091169263ffffffff90911690565b600081815260136020908152604080832054700100000000000000000000000000000000026fffffffffffffffffffffffffffffffff198116845260169092528220548291829160609183918790829061176b8361193d565b6fffffffffffffffffffffffffffffffff1994909416600090815260176020526040902054929a9199509750919550600160a060020a03169350915050565b60008060006011846040518082805190602001908083835b602083106117e15780518252601f1990920191602091820191016117c2565b518151600019602094850361010090810a919091019182169119909216179091529390910195865260405195869003019094205460ff8082169a9290910416975095505050505050565b816118363382611dc8565b151561184157600080fd5b61184c858585610f1c565b6118588585858561222d565b151561186357600080fd5b5050505050565b600c54600160a060020a031633148061188d5750600d54600160a060020a031633145b151561189857600080fd5b600060ff8316116118a857600080fd5b600060ff8216116118b857600080fd5b606460ff83830116106118ca57600080fd5b60408051908101604052808360ff1681526020018260ff1681525060118585604051808383808284379190910194855250506040516020938190038401902084518154959094015160ff1990951660ff9485161761ff001916610100949095169390930293909317909155505050505050565b600b805460408051602060026001851615610100026000190190941693909304601f8101849004840282018401909252818152606093610c0693919290918301828280156119cc5780601f106119a1576101008083540402835291602001916119cc565b820191906000526020600020905b8154815290600101906020018083116119af57829003601f168201915b5050506000868152600a60209081526040918290208054835160026001831615610100026000190190921691909104601f810184900484028201840190945283815294509250830182828015611a635780601f10611a3857610100808354040283529160200191611a63565b820191906000526020600020905b815481529060010190602001808311611a4657829003601f168201915b50505050506123b3565b600c54600160a060020a031681565b6fffffffffffffffffffffffffffffffff191660009081526016602052604090205490565b600c54600090600160a060020a0316331480611ac75750600d54600160a060020a031633145b1515611ad257600080fd5b600160a060020a0382161515611ae757600080fd5b50601054611af533826123ef565b611b2f8188888080601f01602080910402602001604051908101604052809392919081815260200183838082843750611d88945050505050565b6fffffffffffffffffffffffffffffffff1985166000908152601760205260409020805473ffffffffffffffffffffffffffffffffffffffff1916600160a060020a038416179055611b838186868661243e565b601054611b9790600163ffffffff611dbb16565b60105550505050505050565b6000611bae8261124f565b1515611bb957600080fd5b5060009081526015602052604090205463ffffffff1690565b600160a060020a03918216600090815260036020908152604080832093909416825291909152205460ff1690565b6000818160008281526012602052604090205460ff166002811115611c2157fe5b14611c2b57600080fd5b600c546000848152602081905260409020548491600160a060020a0391821691161480611c745750600d54600082815260208190526040902054600160a060020a039081169116145b1515611c7f57600080fd5b60008481526015602052604090205484904263ffffffff9091161115611ca457600080fd5b611cad8561124f565b1515611cb857600080fd5b600085815260146020526040902054935034841115611cd657600080fd5b611ce033866124f3565b611cf3611cec86611331565b3387611065565b6000858152601260205260409020805460ff19166001179055600e54611d199034611dbb565b600e55600f54611d3090600163ffffffff611dbb16565b600f556000841115611d4557611d458561258b565b604051339086907f3817d9a4b057a227bd53f7fa5d4f61f04e716166b150ff09a06fa830f10cb50190600090a35050505050565b600d54600160a060020a031681565b611d918261124f565b1515611d9c57600080fd5b6000828152600a602090815260409091208251610dab92840190612ceb565b81810182811015610c0657fe5b600080611dd483611331565b905080600160a060020a031684600160a060020a03161480611e0f575083600160a060020a0316611e0484610ca3565b600160a060020a0316145b80611e1f5750611e1f8185611bd2565b949350505050565b81600160a060020a0316611e3a82611331565b600160a060020a031614611e4d57600080fd5b600081815260016020526040902054600160a060020a031615611ed1576000818152600160209081526040808320805473ffffffffffffffffffffffffffffffffffffffff1916905580518481529051600160a060020a038616927f8c5be1e5ebec7d5bd14f71427d1e84f3dd0314c0f7b2291e5b200ac8c7c3b925928290030190a35b5050565b6000806000611ee48585612747565b600084815260076020908152604080832054600160a060020a0389168452600690925290912054909350611f1f90600163ffffffff61221b16565b600160a060020a038616600090815260066020526040902080549193509083908110611f4757fe5b90600052602060002001549050806006600087600160a060020a0316600160a060020a0316815260200190815260200160002084815481101515611f8757fe5b6000918252602080832090910192909255600160a060020a0387168152600690915260408120805484908110611fb957fe5b6000918252602080832090910192909255600160a060020a0387168152600690915260409020805490611ff0906000198301612d59565b50600093845260076020526040808520859055908452909220555050565b600061201a83836127dc565b50600160a060020a039091166000908152600660209081526040808320805460018101825590845282842081018590559383526007909152902055565b60608060008085850360ff166040519080825280601f01601f191660200182016040528015612090578160200160208202803883390190505b509250600091508590505b8460ff168160ff161015612116578660ff8216601081106120b857fe5b1a600080516020612df683398151915202838360ff168151811015156120da57fe5b9060200101907effffffffffffffffffffffffffffffffffffffffffffffffffffffffffffff1916908160001a9053506001918201910161209b565b509095945050505050565b6000806000612130858561286b565b6000848152600a6020526040902054600260001961010060018416150201909116041561216e576000848152600a6020526040812061216e91612d7d565b60008481526009602052604090205460085490935061219490600163ffffffff61221b16565b91506008828154811015156121a557fe5b90600052602060002001549050806008848154811015156121c257fe5b600091825260208220019190915560088054849081106121de57fe5b60009182526020909120015560088054906121fd906000198301612d59565b50600093845260096020526040808520859055908452909220555050565b60008282111561222757fe5b50900390565b60008061224285600160a060020a03166128c4565b151561225157600191506123aa565b84600160a060020a031663f0b9e5ba8786866040518463ffffffff167c01000000000000000000000000000000000000000000000000000000000281526004018084600160a060020a0316600160a060020a0316815260200183815260200180602001828103825283818151815260200191508051906020019080838360005b838110156122e95781810151838201526020016122d1565b50505050905090810190601f1680156123165780820380516001836020036101000a031916815260200191505b50945050505050602060405180830381600087803b15801561233757600080fd5b505af115801561234b573d6000803e3d6000fd5b505050506040513d602081101561236157600080fd5b50517bffffffffffffffffffffffffffffffffffffffffffffffffffffffff1981167ff0b9e5ba0000000000000000000000000000000000000000000000000000000014925090505b50949350505050565b6040805160208181018352600080835283518083018552818152845192830190945281526060926123e89286928692906128cc565b9392505050565b6123f98282612c09565b600880546000838152600960205260408120829055600182018355919091527ff3f7a9fe364faab93b216da50a3214154f22a0a2b415b23a84c8169e8b636ee3015550565b6000848152601360209081526040808320805470010000000000000000000000000000000088046fffffffffffffffffffffffffffffffff199182161790915586168352601690915290205461249b90600163ffffffff611dbb16565b6fffffffffffffffffffffffffffffffff19939093166000908152601660209081526040808320959095559481526014855283812092909255601590935220805463ffffffff191663ffffffff909216919091179055565b60006124fe82611331565b9050600160a060020a038316151561251557600080fd5b600082815260016020908152604091829020805473ffffffffffffffffffffffffffffffffffffffff1916600160a060020a03878116918217909255835186815293519093918516927f8c5be1e5ebec7d5bd14f71427d1e84f3dd0314c0f7b2291e5b200ac8c7c3b925928290030190a3505050565b60006060612597612dc4565b6000848152601360205260408120547001000000000000000000000000000000000293508080806125c787610fcb565b95506011866040518082805190602001908083835b602083106125fb5780518252601f1990920191602091820191016125dc565b518151602093840361010090810a60001901801990931692909116919091179091529190930195865260408051968790038401872087820182525460ff808216808a52939091041693870193909352600c549251959a506064340402985050600160a060020a0316926108fc88150292508791506000818181858888f1935050505015801561268e573d6000803e3d6000fd5b506020850151600d5460405160ff90921660643404029450600160a060020a03169084156108fc029085906000818181858888f193505050501580156126d8573d6000803e3d6000fd5b5050506fffffffffffffffffffffffffffffffff198516600090815260176020526040808220549051848401340392600160a060020a0390921691829184156108fc0291859190818181858888f1935050505015801561273c573d6000803e3d6000fd5b505050505050505050565b81600160a060020a031661275a82611331565b600160a060020a03161461276d57600080fd5b600160a060020a03821660009081526002602052604090205461279790600163ffffffff61221b16565b600160a060020a039092166000908152600260209081526040808320949094559181529081905220805473ffffffffffffffffffffffffffffffffffffffff19169055565b600081815260208190526040902054600160a060020a0316156127fe57600080fd5b600081815260208181526040808320805473ffffffffffffffffffffffffffffffffffffffff1916600160a060020a0387169081179091558352600290915290205461284b906001611dbb565b600160a060020a0390921660009081526002602052604090209190915550565b6128758282611e27565b61287f8282611ed5565b604080518281529051600091600160a060020a038516917fddf252ad1be2c89b69c2b068fc378daa952ba7f163c4a11628f55a4df523b3ef9181900360200190a35050565b6000903b1190565b6060806060806060806060806000808e98508d97508c96508b95508a94508451865188518a518c51010101016040519080825280601f01601f191660200182016040528015612925578160200160208202803883390190505b50935083925060009150600090505b88518110156129be57888181518110151561294b57fe5b906020010151600080516020612df68339815191529004600080516020612df683398151915202838380600101945081518110151561298657fe5b9060200101907effffffffffffffffffffffffffffffffffffffffffffffffffffffffffffff1916908160001a905350600101612934565b5060005b8751811015612a4c5787818151811015156129d957fe5b906020010151600080516020612df68339815191529004600080516020612df6833981519152028383806001019450815181101515612a1457fe5b9060200101907effffffffffffffffffffffffffffffffffffffffffffffffffffffffffffff1916908160001a9053506001016129c2565b5060005b8651811015612ada578681815181101515612a6757fe5b906020010151600080516020612df68339815191529004600080516020612df6833981519152028383806001019450815181101515612aa257fe5b9060200101907effffffffffffffffffffffffffffffffffffffffffffffffffffffffffffff1916908160001a905350600101612a50565b5060005b8551811015612b68578581815181101515612af557fe5b906020010151600080516020612df68339815191529004600080516020612df6833981519152028383806001019450815181101515612b3057fe5b9060200101907effffffffffffffffffffffffffffffffffffffffffffffffffffffffffffff1916908160001a905350600101612ade565b5060005b8451811015612bf6578481815181101515612b8357fe5b906020010151600080516020612df68339815191529004600080516020612df6833981519152028383806001019450815181101515612bbe57fe5b9060200101907effffffffffffffffffffffffffffffffffffffffffffffffffffffffffffff1916908160001a905350600101612b6c565b50909d9c50505050505050505050505050565b600160a060020a0382161515612c1e57600080fd5b612c28828261200e565b604080518281529051600160a060020a038416916000917fddf252ad1be2c89b69c2b068fc378daa952ba7f163c4a11628f55a4df523b3ef9181900360200190a35050565b828054600181600116156101000203166002900490600052602060002090601f016020900481019282601f10612cae5782800160ff19823516178555612cdb565b82800160010185558215612cdb579182015b82811115612cdb578235825591602001919060010190612cc0565b50612ce7929150612ddb565b5090565b828054600181600116156101000203166002900490600052602060002090601f016020900481019282601f10612d2c57805160ff1916838001178555612cdb565b82800160010185558215612cdb579182015b82811115612cdb578251825591602001919060010190612d3e565b815481835581811115610dab57600083815260209020610dab918101908301612ddb565b50805460018160011615610100020316600290046000825580601f10612da35750612dc1565b601f016020900490600052602060002090810190612dc19190612ddb565b50565b604080518082019091526000808252602082015290565b610ca091905b80821115612ce75760008155600101612de156000100000000000000000000000000000000000000000000000000000000000000a165627a7a723058207135526d48d8e1f3b36ddba96ae7d9dea595ddafe9ae85b7eac80d0d525542480029",
  "source": "pragma solidity ^0.4.21;\n\n\nimport \"./ERC721Token.sol\";\n\nimport \"./Strings.sol\";\n\nimport \"./ERC165.sol\";\n\n/**\n* @title KnownOriginDigitalAssetV1\n*\n* http://www.knownorigin.io/\n*\n* ERC721 compliant digital assets for real-world artwork.\n* BE ORIGINAL. BUY ORIGINAL.\n*\n*/\ncontract KnownOriginDigitalAsset is ERC721Token, ERC165 {\n  using SafeMath for uint256;\n\n  bytes4 constant InterfaceSignature_ERC165 = 0x01ffc9a7;\n    /*\n    bytes4(keccak256('supportsInterface(bytes4)'));\n    */\n\n  bytes4 constant InterfaceSignature_ERC721Enumerable = 0x780e9d63;\n    /*\n    bytes4(keccak256('totalSupply()')) ^\n    bytes4(keccak256('tokenOfOwnerByIndex(address,uint256)')) ^\n    bytes4(keccak256('tokenByIndex(uint256)'));\n    */\n\n  bytes4 constant InterfaceSignature_ERC721Metadata = 0x5b5e139f;\n    /*\n    bytes4(keccak256('name()')) ^\n    bytes4(keccak256('symbol()')) ^\n    bytes4(keccak256('tokenURI(uint256)'));\n    */\n\n  bytes4 constant InterfaceSignature_ERC721 = 0x80ac58cd;\n    /*\n    bytes4(keccak256('balanceOf(address)')) ^\n    bytes4(keccak256('ownerOf(uint256)')) ^\n    bytes4(keccak256('approve(address,uint256)')) ^\n    bytes4(keccak256('getApproved(uint256)')) ^\n    bytes4(keccak256('setApprovalForAll(address,bool)')) ^\n    bytes4(keccak256('isApprovedForAll(address,address)')) ^\n    bytes4(keccak256('transferFrom(address,address,uint256)')) ^\n    bytes4(keccak256('safeTransferFrom(address,address,uint256)')) ^\n    bytes4(keccak256('safeTransferFrom(address,address,uint256,bytes)'));\n    */\n\n  bytes4 public constant InterfaceSignature_ERC721Optional = 0x4f558e79;\n    /*\n    bytes4(keccak256('exists(uint256)'));\n    */\n\n  /**\n   * @notice Introspection interface as per ERC-165 (https://github.com/ethereum/EIPs/issues/165).\n   * @dev Returns true for any standardized interfaces implemented by this contract.\n   * @param _interfaceID bytes4 the interface to check for\n   * @return true for any standardized interfaces implemented by this contract.\n   */\n  function supportsInterface(bytes4 _interfaceID) external pure returns (bool) {\n    return ((_interfaceID == InterfaceSignature_ERC165)\n    || (_interfaceID == InterfaceSignature_ERC721)\n    || (_interfaceID == InterfaceSignature_ERC721Optional)\n    || (_interfaceID == InterfaceSignature_ERC721Enumerable)\n    || (_interfaceID == InterfaceSignature_ERC721Metadata));\n  }\n\n  struct CommissionStructure {\n    uint8 curator;\n    uint8 developer;\n  }\n\n  string internal tokenBaseURI = \"https://ipfs.infura.io/ipfs/\";\n\n  // creates and owns the original assets all primary purchases transferred to this account\n  address public curatorAccount;\n\n  // the person who is responsible for designing and building the contract\n  address public developerAccount;\n\n  // total wei been processed through the contract\n  uint256 public totalPurchaseValueInWei;\n\n  // number of assets sold of any type\n  uint256 public totalNumberOfPurchases;\n\n  // A pointer to the next token to be minted, zero indexed\n  uint256 public tokenIdPointer = 0;\n\n  enum PurchaseState {Unsold, EtherPurchase, FiatPurchase}\n\n  mapping(string => CommissionStructure) internal editionTypeToCommission;\n  mapping(uint256 => PurchaseState) internal tokenIdToPurchased;\n\n  mapping(uint256 => bytes16) internal tokenIdToEdition;\n  mapping(uint256 => uint256) internal tokenIdToPriceInWei;\n  mapping(uint256 => uint32) internal tokenIdToPurchaseFromTime;\n\n  mapping(bytes16 => uint256) internal editionToEditionNumber;\n  mapping(bytes16 => address) internal editionToArtistAccount;\n\n  event PurchasedWithEther(uint256 indexed _tokenId, address indexed _buyer);\n\n  event PurchasedWithFiat(uint256 indexed _tokenId);\n\n  event PurchasedWithFiatReversed(uint256 indexed _tokenId);\n\n  modifier onlyCurator() {\n    require(msg.sender == curatorAccount);\n    _;\n  }\n\n  modifier onlyUnsold(uint256 _tokenId) {\n    require(tokenIdToPurchased[_tokenId] == PurchaseState.Unsold);\n    _;\n  }\n\n  modifier onlyFiatPurchased(uint256 _tokenId) {\n    require(tokenIdToPurchased[_tokenId] == PurchaseState.FiatPurchase);\n    _;\n  }\n\n  modifier onlyKnownOriginOwnedToken(uint256 _tokenId) {\n    require(tokenOwner[_tokenId] == curatorAccount || tokenOwner[_tokenId] == developerAccount);\n    _;\n  }\n\n  modifier onlyKnownOrigin() {\n    require(msg.sender == curatorAccount || msg.sender == developerAccount);\n    _;\n  }\n\n  modifier onlyAfterPurchaseFromTime(uint256 _tokenId) {\n    require(tokenIdToPurchaseFromTime[_tokenId] <= block.timestamp);\n    _;\n  }\n\n  function KnownOriginDigitalAsset(address _curatorAccount) public ERC721Token(\"KnownOriginDigitalAsset\", \"KODA\") {\n    developerAccount = msg.sender;\n    curatorAccount = _curatorAccount;\n  }\n\n  // don't accept payment directly to contract\n  function() public payable {\n    revert();\n  }\n\n  /**\n   * @dev Mint a new KODA token\n   * @dev Reverts if not called by management\n   * @param _tokenURI the IPFS or equivalent hash\n   * @param _edition the identifier of the edition - leading 3 bytes are the artist code, trailing 3 bytes are the asset type\n   * @param _priceInWei the price of the KODA token\n   * @param _auctionStartDate the date when the token is available for sale\n   */\n  function mint(string _tokenURI, bytes16 _edition, uint256 _priceInWei, uint32 _auctionStartDate, address _artistAccount) external onlyKnownOrigin {\n    require(_artistAccount != address(0));\n\n    uint256 _tokenId = tokenIdPointer;\n\n    super._mint(msg.sender, _tokenId);\n    super._setTokenURI(_tokenId, _tokenURI);\n\n    editionToArtistAccount[_edition] = _artistAccount;\n\n    _populateTokenData(_tokenId, _edition, _priceInWei, _auctionStartDate);\n\n    tokenIdPointer = tokenIdPointer.add(1);\n  }\n\n  function _populateTokenData(uint _tokenId, bytes16 _edition, uint256 _priceInWei, uint32 _purchaseFromTime) internal {\n    tokenIdToEdition[_tokenId] = _edition;\n    editionToEditionNumber[_edition] = editionToEditionNumber[_edition].add(1);\n    tokenIdToPriceInWei[_tokenId] = _priceInWei;\n    tokenIdToPurchaseFromTime[_tokenId] = _purchaseFromTime;\n  }\n\n  /**\n   * @dev Burns a KODA token\n   * @dev Reverts if token is not unsold or not owned by management\n   * @param _tokenId the KODA token ID\n   */\n  function burn(uint256 _tokenId) public onlyKnownOrigin onlyUnsold(_tokenId) onlyKnownOriginOwnedToken(_tokenId) {\n    require(exists(_tokenId));\n    super._burn(ownerOf(_tokenId), _tokenId);\n\n    bytes16 edition = tokenIdToEdition[_tokenId];\n\n    delete tokenIdToEdition[_tokenId];\n    delete tokenIdToPriceInWei[_tokenId];\n    delete tokenIdToPurchaseFromTime[_tokenId];\n\n    editionToEditionNumber[edition] = editionToEditionNumber[edition].sub(1);\n  }\n\n  /**\n   * @dev Utility function for updating a KODA assets token URI\n   * @dev Reverts if not called by management\n   * @param _tokenId the KODA token ID\n   * @param _uri the token URI, will be concatenated with baseUri\n   */\n  function setTokenURI(uint256 _tokenId, string _uri) external onlyKnownOrigin {\n    require(exists(_tokenId));\n    _setTokenURI(_tokenId, _uri);\n  }\n\n  /**\n   * @dev Utility function for updating a KODA assets price\n   * @dev Reverts if token is not unsold or not called by management\n   * @param _tokenId the KODA token ID\n   * @param _priceInWei the price in wei\n   */\n  function setPriceInWei(uint _tokenId, uint256 _priceInWei) external onlyKnownOrigin onlyUnsold(_tokenId) {\n    require(exists(_tokenId));\n    tokenIdToPriceInWei[_tokenId] = _priceInWei;\n  }\n\n  /**\n   * @dev Used to pre-approve a purchaser in order for internal purchase methods\n   * to succeed without calling approve() directly\n   * @param _tokenId the KODA token ID\n   * @return address currently approved for a the given token ID\n   */\n  function _approvePurchaser(address _to, uint256 _tokenId) internal {\n    address owner = ownerOf(_tokenId);\n    require(_to != address(0));\n\n    tokenApprovals[_tokenId] = _to;\n    Approval(owner, _to, _tokenId);\n  }\n\n  /**\n   * @dev Updates the commission structure for the given _type\n   * @dev Reverts if not called by management\n   * @param _type the asset type\n   * @param _curator the curators commission\n   * @param _developer the developers commission\n   */\n  function updateCommission(string _type, uint8 _curator, uint8 _developer) external onlyKnownOrigin {\n    require(_curator > 0);\n    require(_developer > 0);\n    require((_curator + _developer) < 100);\n\n    editionTypeToCommission[_type] = CommissionStructure({curator : _curator, developer : _developer});\n  }\n\n  /**\n   * @dev Utility function for retrieving the commission structure for the provided _type\n   * @param _type the asset type\n   * @return the commission structure or zero for both values when not found\n   */\n  function getCommissionForType(string _type) public view returns (uint8 _curator, uint8 _developer) {\n    CommissionStructure storage commission = editionTypeToCommission[_type];\n    return (commission.curator, commission.developer);\n  }\n\n  /**\n   * @dev Purchase the provide token in Ether\n   * @dev Reverts if token not unsold and not available to be purchased\n   * msg.sender will become the owner of the token\n   * msg.value needs to be >= to the token priceInWei\n   * @param _tokenId the KODA token ID\n   * @return true/false depending on success\n   */\n  function purchaseWithEther(uint256 _tokenId) public payable onlyUnsold(_tokenId) onlyKnownOriginOwnedToken(_tokenId) onlyAfterPurchaseFromTime(_tokenId) {\n    require(exists(_tokenId));\n\n    uint256 priceInWei = tokenIdToPriceInWei[_tokenId];\n    require(msg.value >= priceInWei);\n\n    // approve sender as they have paid the required amount\n    _approvePurchaser(msg.sender, _tokenId);\n\n    // transfer assets from contract creator (curator) to new owner\n    safeTransferFrom(ownerOf(_tokenId), msg.sender, _tokenId);\n\n    // now purchased - don't allow re-purchase!\n    tokenIdToPurchased[_tokenId] = PurchaseState.EtherPurchase;\n\n    totalPurchaseValueInWei = totalPurchaseValueInWei.add(msg.value);\n    totalNumberOfPurchases = totalNumberOfPurchases.add(1);\n\n    // Only apply commission if the art work has value\n    if (priceInWei > 0) {\n      _applyCommission(_tokenId);\n    }\n\n    PurchasedWithEther(_tokenId, msg.sender);\n  }\n\n  /**\n   * @dev Purchase the provide token in FIAT, management command only for taking fiat payments during KODA physical exhibitions\n   * Equivalent to taking the KODA token off the market and marking as sold\n   * @dev Reverts if token not unsold and not available to be purchased and not called by management\n   * @param _tokenId the KODA token ID\n   */\n  function purchaseWithFiat(uint256 _tokenId) public onlyKnownOrigin onlyUnsold(_tokenId) onlyAfterPurchaseFromTime(_tokenId) {\n    require(exists(_tokenId));\n\n    // now purchased - don't allow re-purchase!\n    tokenIdToPurchased[_tokenId] = PurchaseState.FiatPurchase;\n\n    totalNumberOfPurchases = totalNumberOfPurchases.add(1);\n\n    PurchasedWithFiat(_tokenId);\n  }\n\n  /**\n   * @dev Reverse a fiat purchase made by calling purchaseWithFiat()\n   * @dev Reverts if token not purchased with fiat and not available to be purchased and not called by management\n   * @param _tokenId the KODA token ID\n   */\n  function reverseFiatPurchase(uint256 _tokenId) public onlyKnownOrigin onlyFiatPurchased(_tokenId) onlyAfterPurchaseFromTime(_tokenId) {\n    require(exists(_tokenId));\n\n    // reset to Unsold\n    tokenIdToPurchased[_tokenId] = PurchaseState.Unsold;\n\n    totalNumberOfPurchases = totalNumberOfPurchases.sub(1);\n\n    PurchasedWithFiatReversed(_tokenId);\n  }\n\n  /**\n   * @dev Internal function for apply commission on purchase\n   */\n  function _applyCommission(uint256 _tokenId) internal {\n    bytes16 edition = tokenIdToEdition[_tokenId];\n\n    string memory typeCode = getTypeFromEdition(edition);\n\n    CommissionStructure memory commission = editionTypeToCommission[typeCode];\n\n    // split & transfer fee for curator\n    uint curatorAccountFee = msg.value / 100 * commission.curator;\n    curatorAccount.transfer(curatorAccountFee);\n\n    // split & transfer fee for developer\n    uint developerAccountFee = msg.value / 100 * commission.developer;\n    developerAccount.transfer(developerAccountFee);\n\n    // final payment to commission would be the remaining value\n    uint finalCommissionTotal = msg.value - (curatorAccountFee + developerAccountFee);\n\n    // send ether\n    address artistAccount = editionToArtistAccount[edition];\n    artistAccount.transfer(finalCommissionTotal);\n  }\n\n  /**\n   * @dev Retrieve all asset information for the provided token\n   * @param _tokenId the KODA token ID\n   * @return tokenId, owner, purchaseState, priceInWei, purchaseFromDateTime\n   */\n  function assetInfo(uint _tokenId) public view returns (\n    uint256 _tokId,\n    address _owner,\n    PurchaseState _purchaseState,\n    uint256 _priceInWei,\n    uint32 _purchaseFromTime\n  ) {\n    return (\n      _tokenId,\n      tokenOwner[_tokenId],\n      tokenIdToPurchased[_tokenId],\n      tokenIdToPriceInWei[_tokenId],\n      tokenIdToPurchaseFromTime[_tokenId]\n    );\n  }\n\n  /**\n   * @dev Retrieve all edition information for the provided token\n   * @param _tokenId the KODA token ID\n   * @return tokenId, edition, editionNumber, tokenUri\n   */\n  function editionInfo(uint256 _tokenId) public view returns (\n    uint256 _tokId,\n    bytes16 _edition,\n    uint256 _editionNumber,\n    string _tokenURI,\n    address _artistAccount\n  ) {\n    bytes16 edition = tokenIdToEdition[_tokenId];\n    return (\n      _tokenId,\n      edition,\n      editionToEditionNumber[edition],\n      tokenURI(_tokenId),\n      editionToArtistAccount[edition]\n    );\n  }\n\n  function tokensOf(address _owner) public view returns (uint256[] _tokenIds) {\n    return ownedTokens[_owner];\n  }\n\n  /**\n   * @dev Return the total number of assets in an edition\n   * @param _edition the edition identifier\n   */\n  function numberOf(bytes16 _edition) public view returns (uint256) {\n    return editionToEditionNumber[_edition];\n  }\n\n  /**\n   * @dev Get the token purchase state for the given token\n   * @param _tokenId the KODA token ID\n   * @return the purchase sate, either 0, 1, 2, reverts if token not found\n   */\n  function isPurchased(uint256 _tokenId) public view returns (PurchaseState _purchased) {\n    require(exists(_tokenId));\n    return tokenIdToPurchased[_tokenId];\n  }\n\n  /**\n   * @dev Get the edition identifier for the given token\n   * @param _tokenId the KODA token ID\n   * @return the edition is found, reverts if token not found\n   */\n  function editionOf(uint256 _tokenId) public view returns (bytes16 _edition) {\n    require(exists(_tokenId));\n    return tokenIdToEdition[_tokenId];\n  }\n\n  /**\n   * @dev Get the purchase from time for the given token\n   * @param _tokenId the KODA token ID\n   * @return the purchased from time, reverts if token not found\n   */\n  function purchaseFromTime(uint256 _tokenId) public view returns (uint32 _purchaseFromTime) {\n    require(exists(_tokenId));\n    return tokenIdToPurchaseFromTime[_tokenId];\n  }\n\n  /**\n   * @dev Get the price in wei for the given token\n   * @param _tokenId the KODA token ID\n   * @return the price in wei, reverts if token not found\n   */\n  function priceInWei(uint256 _tokenId) public view returns (uint256 _priceInWei) {\n    require(exists(_tokenId));\n    return tokenIdToPriceInWei[_tokenId];\n  }\n\n  /**\n   * @dev Get the type for the provided edition, useful for testing purposes\n   * @param _edition the edition identifier\n   * @return the type or blank string\n   */\n  function getTypeFromEdition(bytes16 _edition) public pure returns (string) {\n    // return last 3 chars that represent the edition type\n    return Strings.bytes16ToStr(_edition, 13, 16);\n  }\n\n  /**\n   * @dev Get token URI fro the given token, useful for testing purposes\n   * @param _tokenId the KODA token ID\n   * @return the token ID or only the base URI if not found\n   */\n  function tokenURI(uint256 _tokenId) public view returns (string) {\n    return Strings.strConcat(tokenBaseURI, tokenURIs[_tokenId]);\n  }\n\n  /**\n   * @dev Allows management to update the base tokenURI path\n   * @dev Reverts if not called by management\n   * @param _newBaseURI the new base URI to set\n   */\n  function setTokenBaseURI(string _newBaseURI) external onlyKnownOrigin {\n    tokenBaseURI = _newBaseURI;\n  }\n\n  /**\n   * @dev Allows management to update the artist account (where commission is sent)\n   * @dev Reverts if not called by management\n   * @param _edition edition to adjust\n    * @param _artistAccount address of artist on blockchain\n   */\n  function setArtistAccount(bytes16 _edition, address _artistAccount) external onlyKnownOrigin {\n    require(_artistAccount != address(0));\n\n    editionToArtistAccount[_edition] = _artistAccount;\n  }\n}\n",
  "sourcePath": "/Users/jamesmorgan/Dropbox/workspace-blockrocket/known-origin-web3-marketplace/contracts/v1/KnownOriginDigitalAsset.sol",
  "compiler": {
    "name": "solc",
    "version": "0.4.24+commit.e67f0147.Emscripten.clang"
  },
  "schemaVersion": "3.0.0-beta.1",
  "updatedAt": "2018-10-10T11:05:48.681Z"
}