{
  "contractName": "KnownOriginDigitalAssetV2",
  "abi": [
    {
      "constant": true,
      "inputs": [
        {
          "name": "_interfaceId",
          "type": "bytes4"
        }
      ],
      "name": "supportsInterface",
      "outputs": [
        {
          "name": "",
          "type": "bool"
        }
      ],
      "payable": false,
      "stateMutability": "view",
      "type": "function",
      "signature": "0x01ffc9a7"
    },
    {
      "constant": true,
      "inputs": [],
      "name": "name",
      "outputs": [
        {
          "name": "",
          "type": "string"
        }
      ],
      "payable": false,
      "stateMutability": "view",
      "type": "function",
      "signature": "0x06fdde03"
    },
    {
      "constant": true,
      "inputs": [
        {
          "name": "_tokenId",
          "type": "uint256"
        }
      ],
      "name": "getApproved",
      "outputs": [
        {
          "name": "",
          "type": "address"
        }
      ],
      "payable": false,
      "stateMutability": "view",
      "type": "function",
      "signature": "0x081812fc"
    },
    {
      "constant": false,
      "inputs": [
        {
          "name": "_to",
          "type": "address"
        },
        {
          "name": "_tokenId",
          "type": "uint256"
        }
      ],
      "name": "approve",
      "outputs": [],
      "payable": false,
      "stateMutability": "nonpayable",
      "type": "function",
      "signature": "0x095ea7b3"
    },
    {
      "constant": true,
      "inputs": [],
      "name": "totalSupply",
      "outputs": [
        {
          "name": "",
          "type": "uint256"
        }
      ],
      "payable": false,
      "stateMutability": "view",
      "type": "function",
      "signature": "0x18160ddd"
    },
    {
      "constant": true,
      "inputs": [],
      "name": "InterfaceId_ERC165",
      "outputs": [
        {
          "name": "",
          "type": "bytes4"
        }
      ],
      "payable": false,
      "stateMutability": "view",
      "type": "function",
      "signature": "0x19fa8f50"
    },
    {
      "constant": true,
      "inputs": [
        {
          "name": "_operator",
          "type": "address"
        },
        {
          "name": "_role",
          "type": "uint8"
        }
      ],
      "name": "checkRole",
      "outputs": [],
      "payable": false,
      "stateMutability": "view",
      "type": "function",
      "signature": "0x23a3ad72"
    },
    {
      "constant": false,
      "inputs": [
        {
          "name": "_from",
          "type": "address"
        },
        {
          "name": "_to",
          "type": "address"
        },
        {
          "name": "_tokenId",
          "type": "uint256"
        }
      ],
      "name": "transferFrom",
      "outputs": [],
      "payable": false,
      "stateMutability": "nonpayable",
      "type": "function",
      "signature": "0x23b872dd"
    },
    {
      "constant": true,
      "inputs": [],
      "name": "totalPurchaseValueInWei",
      "outputs": [
        {
          "name": "",
          "type": "uint256"
        }
      ],
      "payable": false,
      "stateMutability": "view",
      "type": "function",
      "signature": "0x2bbd84e8"
    },
    {
      "constant": true,
      "inputs": [
        {
          "name": "_owner",
          "type": "address"
        },
        {
          "name": "_index",
          "type": "uint256"
        }
      ],
      "name": "tokenOfOwnerByIndex",
      "outputs": [
        {
          "name": "",
          "type": "uint256"
        }
      ],
      "payable": false,
      "stateMutability": "view",
      "type": "function",
      "signature": "0x2f745c59"
    },
    {
      "constant": false,
      "inputs": [],
      "name": "unpause",
      "outputs": [],
      "payable": false,
      "stateMutability": "nonpayable",
      "type": "function",
      "signature": "0x3f4ba83a"
    },
    {
      "constant": false,
      "inputs": [
        {
          "name": "_from",
          "type": "address"
        },
        {
          "name": "_to",
          "type": "address"
        },
        {
          "name": "_tokenId",
          "type": "uint256"
        }
      ],
      "name": "safeTransferFrom",
      "outputs": [],
      "payable": false,
      "stateMutability": "nonpayable",
      "type": "function",
      "signature": "0x42842e0e"
    },
    {
      "constant": true,
      "inputs": [],
      "name": "totalNumberAvailable",
      "outputs": [
        {
          "name": "",
          "type": "uint256"
        }
      ],
      "payable": false,
      "stateMutability": "view",
      "type": "function",
      "signature": "0x42c7ea5f"
    },
    {
      "constant": false,
      "inputs": [
        {
          "name": "_operator",
          "type": "address"
        },
        {
          "name": "_role",
          "type": "uint8"
        }
      ],
      "name": "addAddressToAccessControl",
      "outputs": [],
      "payable": false,
      "stateMutability": "nonpayable",
      "type": "function",
      "signature": "0x43923258"
    },
    {
      "constant": true,
      "inputs": [],
      "name": "tokenBaseURI",
      "outputs": [
        {
          "name": "",
          "type": "string"
        }
      ],
      "payable": false,
      "stateMutability": "view",
      "type": "function",
      "signature": "0x4e99b800"
    },
    {
      "constant": true,
      "inputs": [
        {
          "name": "_tokenId",
          "type": "uint256"
        }
      ],
      "name": "exists",
      "outputs": [
        {
          "name": "",
          "type": "bool"
        }
      ],
      "payable": false,
      "stateMutability": "view",
      "type": "function",
      "signature": "0x4f558e79"
    },
    {
      "constant": true,
      "inputs": [
        {
          "name": "_index",
          "type": "uint256"
        }
      ],
      "name": "tokenByIndex",
      "outputs": [
        {
          "name": "",
          "type": "uint256"
        }
      ],
      "payable": false,
      "stateMutability": "view",
      "type": "function",
      "signature": "0x4f6ccce7"
    },
    {
      "constant": true,
      "inputs": [],
      "name": "paused",
      "outputs": [
        {
          "name": "",
          "type": "bool"
        }
      ],
      "payable": false,
      "stateMutability": "view",
      "type": "function",
      "signature": "0x5c975abb"
    },
    {
      "constant": true,
      "inputs": [
        {
          "name": "_tokenId",
          "type": "uint256"
        }
      ],
      "name": "ownerOf",
      "outputs": [
        {
          "name": "",
          "type": "address"
        }
      ],
      "payable": false,
      "stateMutability": "view",
      "type": "function",
      "signature": "0x6352211e"
    },
    {
      "constant": true,
      "inputs": [],
      "name": "koCommissionAccount",
      "outputs": [
        {
          "name": "",
          "type": "address"
        }
      ],
      "payable": false,
      "stateMutability": "view",
      "type": "function",
      "signature": "0x6e93dbdc"
    },
    {
      "constant": true,
      "inputs": [
        {
          "name": "_owner",
          "type": "address"
        }
      ],
      "name": "balanceOf",
      "outputs": [
        {
          "name": "",
          "type": "uint256"
        }
      ],
      "payable": false,
      "stateMutability": "view",
      "type": "function",
      "signature": "0x70a08231"
    },
    {
      "constant": false,
      "inputs": [],
      "name": "renounceOwnership",
      "outputs": [],
      "payable": false,
      "stateMutability": "nonpayable",
      "type": "function",
      "signature": "0x715018a6"
    },
    {
      "constant": false,
      "inputs": [],
      "name": "pause",
      "outputs": [],
      "payable": false,
      "stateMutability": "nonpayable",
      "type": "function",
      "signature": "0x8456cb59"
    },
    {
      "constant": true,
      "inputs": [],
      "name": "owner",
      "outputs": [
        {
          "name": "",
          "type": "address"
        }
      ],
      "payable": false,
      "stateMutability": "view",
      "type": "function",
      "signature": "0x8da5cb5b"
    },
    {
      "constant": true,
      "inputs": [],
      "name": "ROLE_MINTER",
      "outputs": [
        {
          "name": "",
          "type": "uint8"
        }
      ],
      "payable": false,
      "stateMutability": "view",
      "type": "function",
      "signature": "0x92afc33a"
    },
    {
      "constant": true,
      "inputs": [
        {
          "name": "_operator",
          "type": "address"
        },
        {
          "name": "_role",
          "type": "uint8"
        }
      ],
      "name": "hasRole",
      "outputs": [
        {
          "name": "",
          "type": "bool"
        }
      ],
      "payable": false,
      "stateMutability": "view",
      "type": "function",
      "signature": "0x95a8c58d"
    },
    {
      "constant": true,
      "inputs": [],
      "name": "symbol",
      "outputs": [
        {
          "name": "",
          "type": "string"
        }
      ],
      "payable": false,
      "stateMutability": "view",
      "type": "function",
      "signature": "0x95d89b41"
    },
    {
      "constant": false,
      "inputs": [
        {
          "name": "_operator",
          "type": "address"
        },
        {
          "name": "_role",
          "type": "uint8"
        }
      ],
      "name": "removeAddressFromAccessControl",
      "outputs": [],
      "payable": false,
      "stateMutability": "nonpayable",
      "type": "function",
      "signature": "0x975347b8"
    },
    {
      "constant": true,
      "inputs": [],
      "name": "ROLE_UNDER_MINTER",
      "outputs": [
        {
          "name": "",
          "type": "uint8"
        }
      ],
      "payable": false,
      "stateMutability": "view",
      "type": "function",
      "signature": "0x985989d2"
    },
    {
      "constant": false,
      "inputs": [],
      "name": "reclaimEther",
      "outputs": [],
      "payable": false,
      "stateMutability": "nonpayable",
      "type": "function",
      "signature": "0x9f727c27"
    },
    {
      "constant": false,
      "inputs": [
        {
          "name": "_to",
          "type": "address"
        },
        {
          "name": "_approved",
          "type": "bool"
        }
      ],
      "name": "setApprovalForAll",
      "outputs": [],
      "payable": false,
      "stateMutability": "nonpayable",
      "type": "function",
      "signature": "0xa22cb465"
    },
    {
      "constant": true,
      "inputs": [],
      "name": "highestEditionNumber",
      "outputs": [
        {
          "name": "",
          "type": "uint256"
        }
      ],
      "payable": false,
      "stateMutability": "view",
      "type": "function",
      "signature": "0xabf3260f"
    },
    {
      "constant": false,
      "inputs": [
        {
          "name": "_from",
          "type": "address"
        },
        {
          "name": "_to",
          "type": "address"
        },
        {
          "name": "_tokenId",
          "type": "uint256"
        },
        {
          "name": "_data",
          "type": "bytes"
        }
      ],
      "name": "safeTransferFrom",
      "outputs": [],
      "payable": false,
      "stateMutability": "nonpayable",
      "type": "function",
      "signature": "0xb88d4fde"
    },
    {
      "constant": true,
      "inputs": [],
      "name": "ROLE_KNOWN_ORIGIN",
      "outputs": [
        {
          "name": "",
          "type": "uint8"
        }
      ],
      "payable": false,
      "stateMutability": "view",
      "type": "function",
      "signature": "0xbe46b94c"
    },
    {
      "constant": true,
      "inputs": [
        {
          "name": "_owner",
          "type": "address"
        },
        {
          "name": "_operator",
          "type": "address"
        }
      ],
      "name": "isApprovedForAll",
      "outputs": [
        {
          "name": "",
          "type": "bool"
        }
      ],
      "payable": false,
      "stateMutability": "view",
      "type": "function",
      "signature": "0xe985e9c5"
    },
    {
      "constant": true,
      "inputs": [],
      "name": "totalNumberMinted",
      "outputs": [
        {
          "name": "",
          "type": "uint256"
        }
      ],
      "payable": false,
      "stateMutability": "view",
      "type": "function",
      "signature": "0xf1ff3d4b"
    },
    {
      "constant": false,
      "inputs": [
        {
          "name": "_newOwner",
          "type": "address"
        }
      ],
      "name": "transferOwnership",
      "outputs": [],
      "payable": false,
      "stateMutability": "nonpayable",
      "type": "function",
      "signature": "0xf2fde38b"
    },
    {
      "inputs": [],
      "payable": true,
      "stateMutability": "payable",
      "type": "constructor",
      "signature": "constructor"
    },
    {
      "payable": false,
      "stateMutability": "nonpayable",
      "type": "fallback"
    },
    {
      "anonymous": false,
      "inputs": [
        {
          "indexed": true,
          "name": "_tokenId",
          "type": "uint256"
        },
        {
          "indexed": true,
          "name": "_editionNumber",
          "type": "uint256"
        },
        {
          "indexed": true,
          "name": "_buyer",
          "type": "address"
        },
        {
          "indexed": false,
          "name": "_priceInWei",
          "type": "uint256"
        }
      ],
      "name": "Purchase",
      "type": "event",
      "signature": "0x145e2ff612f82ecb64f13b28a0e2825f8fd3dba6d6fbbdec265aa58800014c3d"
    },
    {
      "anonymous": false,
      "inputs": [
        {
          "indexed": true,
          "name": "_tokenId",
          "type": "uint256"
        },
        {
          "indexed": true,
          "name": "_editionNumber",
          "type": "uint256"
        },
        {
          "indexed": true,
          "name": "_buyer",
          "type": "address"
        }
      ],
      "name": "Minted",
      "type": "event",
      "signature": "0x259eb7b480b3d449f506927269e4665c83c69e4cd797143eaa8f84632dc7a02b"
    },
    {
      "anonymous": false,
      "inputs": [
        {
          "indexed": true,
          "name": "_editionNumber",
          "type": "uint256"
        },
        {
          "indexed": true,
          "name": "_editionData",
          "type": "bytes32"
        },
        {
          "indexed": true,
          "name": "_editionType",
          "type": "uint256"
        }
      ],
      "name": "EditionCreated",
      "type": "event",
      "signature": "0xf702f09ce66e1a7f60e909cfb5b6400ce4967f4fd691158bd96066cb89c5c078"
    },
    {
      "anonymous": false,
      "inputs": [],
      "name": "Pause",
      "type": "event",
      "signature": "0x6985a02210a168e66602d3235cb6db0e70f92b3ba4d376a33c0f3d9434bff625"
    },
    {
      "anonymous": false,
      "inputs": [],
      "name": "Unpause",
      "type": "event",
      "signature": "0x7805862f689e2f13df9f062ff482ad3ad112aca9e0847911ed832e158c525b33"
    },
    {
      "anonymous": false,
      "inputs": [
        {
          "indexed": true,
          "name": "previousOwner",
          "type": "address"
        }
      ],
      "name": "OwnershipRenounced",
      "type": "event",
      "signature": "0xf8df31144d9c2f0f6b59d69b8b98abd5459d07f2742c4df920b25aae33c64820"
    },
    {
      "anonymous": false,
      "inputs": [
        {
          "indexed": true,
          "name": "previousOwner",
          "type": "address"
        },
        {
          "indexed": true,
          "name": "newOwner",
          "type": "address"
        }
      ],
      "name": "OwnershipTransferred",
      "type": "event",
      "signature": "0x8be0079c531659141344cd1fd0a4f28419497f9722a3daafe3b4186f6b6457e0"
    },
    {
      "anonymous": false,
      "inputs": [
        {
          "indexed": true,
          "name": "operator",
          "type": "address"
        },
        {
          "indexed": false,
          "name": "role",
          "type": "uint8"
        }
      ],
      "name": "RoleAdded",
      "type": "event",
      "signature": "0x0ed8a6a6a166243876472f7a8610b62c1a76c67911642d39ff34ead38105534f"
    },
    {
      "anonymous": false,
      "inputs": [
        {
          "indexed": true,
          "name": "operator",
          "type": "address"
        },
        {
          "indexed": false,
          "name": "role",
          "type": "uint8"
        }
      ],
      "name": "RoleRemoved",
      "type": "event",
      "signature": "0x3824b64a1e23d936b458f4e31445c664d2bc9c14e842407917cbc100b0236a2f"
    },
    {
      "anonymous": false,
      "inputs": [
        {
          "indexed": true,
          "name": "_from",
          "type": "address"
        },
        {
          "indexed": true,
          "name": "_to",
          "type": "address"
        },
        {
          "indexed": true,
          "name": "_tokenId",
          "type": "uint256"
        }
      ],
      "name": "Transfer",
      "type": "event",
      "signature": "0xddf252ad1be2c89b69c2b068fc378daa952ba7f163c4a11628f55a4df523b3ef"
    },
    {
      "anonymous": false,
      "inputs": [
        {
          "indexed": true,
          "name": "_owner",
          "type": "address"
        },
        {
          "indexed": true,
          "name": "_approved",
          "type": "address"
        },
        {
          "indexed": true,
          "name": "_tokenId",
          "type": "uint256"
        }
      ],
      "name": "Approval",
      "type": "event",
      "signature": "0x8c5be1e5ebec7d5bd14f71427d1e84f3dd0314c0f7b2291e5b200ac8c7c3b925"
    },
    {
      "anonymous": false,
      "inputs": [
        {
          "indexed": true,
          "name": "_owner",
          "type": "address"
        },
        {
          "indexed": true,
          "name": "_operator",
          "type": "address"
        },
        {
          "indexed": false,
          "name": "_approved",
          "type": "bool"
        }
      ],
      "name": "ApprovalForAll",
      "type": "event",
      "signature": "0x17307eab39ab6107e8899845ad3d59bd9653f200f220920489ca2b5937696c31"
    },
    {
      "constant": false,
      "inputs": [
        {
          "name": "_editionNumber",
          "type": "uint256"
        },
        {
          "name": "_editionData",
          "type": "bytes32"
        },
        {
          "name": "_editionType",
          "type": "uint256"
        },
        {
          "name": "_startDate",
          "type": "uint256"
        },
        {
          "name": "_endDate",
          "type": "uint256"
        },
        {
          "name": "_artistAccount",
          "type": "address"
        },
        {
          "name": "_artistCommission",
          "type": "uint256"
        },
        {
          "name": "_priceInWei",
          "type": "uint256"
        },
        {
          "name": "_tokenURI",
          "type": "string"
        },
        {
          "name": "_totalAvailable",
          "type": "uint256"
        }
      ],
      "name": "createActiveEdition",
      "outputs": [
        {
          "name": "",
          "type": "bool"
        }
      ],
      "payable": false,
      "stateMutability": "nonpayable",
      "type": "function",
      "signature": "0x8bbb594a"
    },
    {
      "constant": false,
      "inputs": [
        {
          "name": "_editionNumber",
          "type": "uint256"
        },
        {
          "name": "_editionData",
          "type": "bytes32"
        },
        {
          "name": "_editionType",
          "type": "uint256"
        },
        {
          "name": "_startDate",
          "type": "uint256"
        },
        {
          "name": "_endDate",
          "type": "uint256"
        },
        {
          "name": "_artistAccount",
          "type": "address"
        },
        {
          "name": "_artistCommission",
          "type": "uint256"
        },
        {
          "name": "_priceInWei",
          "type": "uint256"
        },
        {
          "name": "_tokenURI",
          "type": "string"
        },
        {
          "name": "_totalAvailable",
          "type": "uint256"
        }
      ],
      "name": "createInactiveEdition",
      "outputs": [
        {
          "name": "",
          "type": "bool"
        }
      ],
      "payable": false,
      "stateMutability": "nonpayable",
      "type": "function",
      "signature": "0xe65d19ca"
    },
    {
      "constant": false,
      "inputs": [
        {
          "name": "_editionNumber",
          "type": "uint256"
        },
        {
          "name": "_editionData",
          "type": "bytes32"
        },
        {
          "name": "_editionType",
          "type": "uint256"
        },
        {
          "name": "_startDate",
          "type": "uint256"
        },
        {
          "name": "_endDate",
          "type": "uint256"
        },
        {
          "name": "_artistAccount",
          "type": "address"
        },
        {
          "name": "_artistCommission",
          "type": "uint256"
        },
        {
          "name": "_priceInWei",
          "type": "uint256"
        },
        {
          "name": "_tokenURI",
          "type": "string"
        },
        {
          "name": "_totalSupply",
          "type": "uint256"
        },
        {
          "name": "_totalAvailable",
          "type": "uint256"
        }
      ],
      "name": "createActivePreMintedEdition",
      "outputs": [
        {
          "name": "",
          "type": "bool"
        }
      ],
      "payable": false,
      "stateMutability": "nonpayable",
      "type": "function",
      "signature": "0xae8a8690"
    },
    {
      "constant": false,
      "inputs": [
        {
          "name": "_editionNumber",
          "type": "uint256"
        },
        {
          "name": "_editionData",
          "type": "bytes32"
        },
        {
          "name": "_editionType",
          "type": "uint256"
        },
        {
          "name": "_startDate",
          "type": "uint256"
        },
        {
          "name": "_endDate",
          "type": "uint256"
        },
        {
          "name": "_artistAccount",
          "type": "address"
        },
        {
          "name": "_artistCommission",
          "type": "uint256"
        },
        {
          "name": "_priceInWei",
          "type": "uint256"
        },
        {
          "name": "_tokenURI",
          "type": "string"
        },
        {
          "name": "_totalSupply",
          "type": "uint256"
        },
        {
          "name": "_totalAvailable",
          "type": "uint256"
        }
      ],
      "name": "createInactivePreMintedEdition",
      "outputs": [
        {
          "name": "",
          "type": "bool"
        }
      ],
      "payable": false,
      "stateMutability": "nonpayable",
      "type": "function",
      "signature": "0x9cd77457"
    },
    {
      "constant": false,
      "inputs": [
        {
          "name": "_editionNumber",
          "type": "uint256"
        }
      ],
      "name": "purchase",
      "outputs": [
        {
          "name": "",
          "type": "uint256"
        }
      ],
      "payable": true,
      "stateMutability": "payable",
      "type": "function",
      "signature": "0xefef39a1"
    },
    {
      "constant": false,
      "inputs": [
        {
          "name": "_to",
          "type": "address"
        },
        {
          "name": "_editionNumber",
          "type": "uint256"
        }
      ],
      "name": "purchaseTo",
      "outputs": [
        {
          "name": "",
          "type": "uint256"
        }
      ],
      "payable": true,
      "stateMutability": "payable",
      "type": "function",
      "signature": "0x891407c0"
    },
    {
      "constant": false,
      "inputs": [
        {
          "name": "_to",
          "type": "address"
        },
        {
          "name": "_editionNumber",
          "type": "uint256"
        }
      ],
      "name": "mint",
      "outputs": [
        {
          "name": "",
          "type": "uint256"
        }
      ],
      "payable": false,
      "stateMutability": "nonpayable",
      "type": "function",
      "signature": "0x40c10f19"
    },
    {
      "constant": false,
      "inputs": [
        {
          "name": "_to",
          "type": "address"
        },
        {
          "name": "_editionNumber",
          "type": "uint256"
        }
      ],
      "name": "underMint",
      "outputs": [
        {
          "name": "",
          "type": "uint256"
        }
      ],
      "payable": false,
      "stateMutability": "nonpayable",
      "type": "function",
      "signature": "0x7d55758f"
    },
    {
      "constant": false,
      "inputs": [
        {
          "name": "_tokenId",
          "type": "uint256"
        }
      ],
      "name": "burn",
      "outputs": [],
      "payable": false,
      "stateMutability": "nonpayable",
      "type": "function",
      "signature": "0x42966c68"
    },
    {
      "constant": false,
      "inputs": [
        {
          "name": "_to",
          "type": "address"
        },
        {
          "name": "_tokenIds",
          "type": "uint256[]"
        }
      ],
      "name": "batchTransfer",
      "outputs": [],
      "payable": false,
      "stateMutability": "nonpayable",
      "type": "function",
      "signature": "0xac3c9952"
    },
    {
      "constant": false,
      "inputs": [
        {
          "name": "_from",
          "type": "address"
        },
        {
          "name": "_to",
          "type": "address"
        },
        {
          "name": "_tokenIds",
          "type": "uint256[]"
        }
      ],
      "name": "batchTransferFrom",
      "outputs": [],
      "payable": false,
      "stateMutability": "nonpayable",
      "type": "function",
      "signature": "0xf3993d11"
    },
    {
      "constant": false,
      "inputs": [
        {
          "name": "_newBaseURI",
          "type": "string"
        }
      ],
      "name": "updateTokenBaseURI",
      "outputs": [],
      "payable": false,
      "stateMutability": "nonpayable",
      "type": "function",
      "signature": "0x2295ee5b"
    },
    {
      "constant": false,
      "inputs": [
        {
          "name": "_koCommissionAccount",
          "type": "address"
        }
      ],
      "name": "updateKoCommissionAccount",
      "outputs": [],
      "payable": false,
      "stateMutability": "nonpayable",
      "type": "function",
      "signature": "0x187d8803"
    },
    {
      "constant": false,
      "inputs": [
        {
          "name": "_editionNumber",
          "type": "uint256"
        },
        {
          "name": "_uri",
          "type": "string"
        }
      ],
      "name": "updateEditionTokenURI",
      "outputs": [],
      "payable": false,
      "stateMutability": "nonpayable",
      "type": "function",
      "signature": "0x75dcb70a"
    },
    {
      "constant": false,
      "inputs": [
        {
          "name": "_editionNumber",
          "type": "uint256"
        },
        {
          "name": "_priceInWei",
          "type": "uint256"
        }
      ],
      "name": "updatePriceInWei",
      "outputs": [],
      "payable": false,
      "stateMutability": "nonpayable",
      "type": "function",
      "signature": "0x7eb9f04a"
    },
    {
      "constant": false,
      "inputs": [
        {
          "name": "_editionNumber",
          "type": "uint256"
        },
        {
          "name": "_rate",
          "type": "uint256"
        }
      ],
      "name": "updateArtistCommission",
      "outputs": [],
      "payable": false,
      "stateMutability": "nonpayable",
      "type": "function",
      "signature": "0x5091f881"
    },
    {
      "constant": false,
      "inputs": [
        {
          "name": "_editionNumber",
          "type": "uint256"
        },
        {
          "name": "_artistAccount",
          "type": "address"
        }
      ],
      "name": "updateArtistsAccount",
      "outputs": [],
      "payable": false,
      "stateMutability": "nonpayable",
      "type": "function",
      "signature": "0xafa7a25f"
    },
    {
      "constant": false,
      "inputs": [
        {
          "name": "_editionNumber",
          "type": "uint256"
        },
        {
          "name": "_editionType",
          "type": "uint256"
        }
      ],
      "name": "updateEditionType",
      "outputs": [],
      "payable": false,
      "stateMutability": "nonpayable",
      "type": "function",
      "signature": "0xd4f3d6b8"
    },
    {
      "constant": false,
      "inputs": [
        {
          "name": "_editionNumber",
          "type": "uint256"
        },
        {
          "name": "_active",
          "type": "bool"
        }
      ],
      "name": "updateActive",
      "outputs": [],
      "payable": false,
      "stateMutability": "nonpayable",
      "type": "function",
      "signature": "0x04bb1e3d"
    },
    {
      "constant": false,
      "inputs": [
        {
          "name": "_editionNumber",
          "type": "uint256"
        },
        {
          "name": "_totalSupply",
          "type": "uint256"
        }
      ],
      "name": "updateTotalSupply",
      "outputs": [],
      "payable": false,
      "stateMutability": "nonpayable",
      "type": "function",
      "signature": "0xf8b4ab7a"
    },
    {
      "constant": false,
      "inputs": [
        {
          "name": "_editionNumber",
          "type": "uint256"
        },
        {
          "name": "_totalAvailable",
          "type": "uint256"
        }
      ],
      "name": "updateTotalAvailable",
      "outputs": [],
      "payable": false,
      "stateMutability": "nonpayable",
      "type": "function",
      "signature": "0xbdcdc0bc"
    },
    {
      "constant": false,
      "inputs": [
        {
          "name": "_editionNumber",
          "type": "uint256"
        },
        {
          "name": "_startDate",
          "type": "uint256"
        }
      ],
      "name": "updateStartDate",
      "outputs": [],
      "payable": false,
      "stateMutability": "nonpayable",
      "type": "function",
      "signature": "0x328a2c2d"
    },
    {
      "constant": false,
      "inputs": [
        {
          "name": "_editionNumber",
          "type": "uint256"
        },
        {
          "name": "_endDate",
          "type": "uint256"
        }
      ],
      "name": "updateEndDate",
      "outputs": [],
      "payable": false,
      "stateMutability": "nonpayable",
      "type": "function",
      "signature": "0xe6232ba1"
    },
    {
      "constant": false,
      "inputs": [
        {
          "name": "_editionNumber",
          "type": "uint256"
        },
        {
          "name": "_rate",
          "type": "uint256"
        },
        {
          "name": "_recipient",
          "type": "address"
        }
      ],
      "name": "updateOptionalCommission",
      "outputs": [],
      "payable": false,
      "stateMutability": "nonpayable",
      "type": "function",
      "signature": "0x97e851f6"
    },
    {
      "constant": false,
      "inputs": [
        {
          "name": "_tokenId",
          "type": "uint256"
        },
        {
          "name": "_uri",
          "type": "string"
        }
      ],
      "name": "setTokenURI",
      "outputs": [],
      "payable": false,
      "stateMutability": "nonpayable",
      "type": "function",
      "signature": "0x162094c4"
    },
    {
      "constant": true,
      "inputs": [
        {
          "name": "_tokenId",
          "type": "uint256"
        }
      ],
      "name": "editionOfTokenId",
      "outputs": [
        {
          "name": "_editionNumber",
          "type": "uint256"
        }
      ],
      "payable": false,
      "stateMutability": "view",
      "type": "function",
      "signature": "0x824eec3b"
    },
    {
      "constant": true,
      "inputs": [
        {
          "name": "_type",
          "type": "uint256"
        }
      ],
      "name": "editionsOfType",
      "outputs": [
        {
          "name": "_editionNumbers",
          "type": "uint256[]"
        }
      ],
      "payable": false,
      "stateMutability": "view",
      "type": "function",
      "signature": "0xe7b8d977"
    },
    {
      "constant": true,
      "inputs": [
        {
          "name": "_artistsAccount",
          "type": "address"
        }
      ],
      "name": "artistsEditions",
      "outputs": [
        {
          "name": "_editionNumbers",
          "type": "uint256[]"
        }
      ],
      "payable": false,
      "stateMutability": "view",
      "type": "function",
      "signature": "0x6641179e"
    },
    {
      "constant": true,
      "inputs": [
        {
          "name": "_editionNumber",
          "type": "uint256"
        }
      ],
      "name": "tokensOfEdition",
      "outputs": [
        {
          "name": "_tokenIds",
          "type": "uint256[]"
        }
      ],
      "payable": false,
      "stateMutability": "view",
      "type": "function",
      "signature": "0x7a85c02a"
    },
    {
      "constant": true,
      "inputs": [
        {
          "name": "_owner",
          "type": "address"
        }
      ],
      "name": "tokensOf",
      "outputs": [
        {
          "name": "_tokenIds",
          "type": "uint256[]"
        }
      ],
      "payable": false,
      "stateMutability": "view",
      "type": "function",
      "signature": "0x5a3f2672"
    },
    {
      "constant": true,
      "inputs": [
        {
          "name": "_editionNumber",
          "type": "uint256"
        }
      ],
      "name": "editionExists",
      "outputs": [
        {
          "name": "",
          "type": "bool"
        }
      ],
      "payable": false,
      "stateMutability": "view",
      "type": "function",
      "signature": "0xc2b2fb5e"
    },
    {
      "constant": true,
      "inputs": [
        {
          "name": "_editionNumber",
          "type": "uint256"
        }
      ],
      "name": "editionOptionalCommission",
      "outputs": [
        {
          "name": "_rate",
          "type": "uint256"
        },
        {
          "name": "_recipient",
          "type": "address"
        }
      ],
      "payable": false,
      "stateMutability": "view",
      "type": "function",
      "signature": "0xde56a245"
    },
    {
      "constant": true,
      "inputs": [
        {
          "name": "editionNumber",
          "type": "uint256"
        }
      ],
      "name": "detailsOfEdition",
      "outputs": [
        {
          "name": "_editionData",
          "type": "bytes32"
        },
        {
          "name": "_editionType",
          "type": "uint256"
        },
        {
          "name": "_startDate",
          "type": "uint256"
        },
        {
          "name": "_endDate",
          "type": "uint256"
        },
        {
          "name": "_artistAccount",
          "type": "address"
        },
        {
          "name": "_artistCommission",
          "type": "uint256"
        },
        {
          "name": "_priceInWei",
          "type": "uint256"
        },
        {
          "name": "_tokenURI",
          "type": "string"
        },
        {
          "name": "_totalSupply",
          "type": "uint256"
        },
        {
          "name": "_totalAvailable",
          "type": "uint256"
        },
        {
          "name": "_active",
          "type": "bool"
        }
      ],
      "payable": false,
      "stateMutability": "view",
      "type": "function",
      "signature": "0x71c847b2"
    },
    {
      "constant": true,
      "inputs": [
        {
          "name": "_tokenId",
          "type": "uint256"
        }
      ],
      "name": "tokenData",
      "outputs": [
        {
          "name": "_editionNumber",
          "type": "uint256"
        },
        {
          "name": "_editionType",
          "type": "uint256"
        },
        {
          "name": "_editionData",
          "type": "bytes32"
        },
        {
          "name": "_tokenURI",
          "type": "string"
        },
        {
          "name": "_owner",
          "type": "address"
        }
      ],
      "payable": false,
      "stateMutability": "view",
      "type": "function",
      "signature": "0xb4b5b48f"
    },
    {
      "constant": true,
      "inputs": [
        {
          "name": "_tokenId",
          "type": "uint256"
        }
      ],
      "name": "tokenURI",
      "outputs": [
        {
          "name": "",
          "type": "string"
        }
      ],
      "payable": false,
      "stateMutability": "view",
      "type": "function",
      "signature": "0xc87b56dd"
    },
    {
      "constant": true,
      "inputs": [
        {
          "name": "_tokenId",
          "type": "uint256"
        }
      ],
      "name": "tokenURISafe",
      "outputs": [
        {
          "name": "",
          "type": "string"
        }
      ],
      "payable": false,
      "stateMutability": "view",
      "type": "function",
      "signature": "0xfee7e35d"
    },
    {
      "constant": true,
      "inputs": [
        {
          "name": "_tokenId",
          "type": "uint256"
        }
      ],
      "name": "purchaseDatesToken",
      "outputs": [
        {
          "name": "_startDate",
          "type": "uint256"
        },
        {
          "name": "_endDate",
          "type": "uint256"
        }
      ],
      "payable": false,
      "stateMutability": "view",
      "type": "function",
      "signature": "0xb8f6c219"
    },
    {
      "constant": true,
      "inputs": [
        {
          "name": "_tokenId",
          "type": "uint256"
        }
      ],
      "name": "priceInWeiToken",
      "outputs": [
        {
          "name": "_priceInWei",
          "type": "uint256"
        }
      ],
      "payable": false,
      "stateMutability": "view",
      "type": "function",
      "signature": "0x15347380"
    },
    {
      "constant": true,
      "inputs": [
        {
          "name": "_editionNumber",
          "type": "uint256"
        }
      ],
      "name": "editionData",
      "outputs": [
        {
          "name": "",
          "type": "bytes32"
        }
      ],
      "payable": false,
      "stateMutability": "view",
      "type": "function",
      "signature": "0x213d6771"
    },
    {
      "constant": true,
      "inputs": [
        {
          "name": "_editionNumber",
          "type": "uint256"
        }
      ],
      "name": "editionType",
      "outputs": [
        {
          "name": "",
          "type": "uint256"
        }
      ],
      "payable": false,
      "stateMutability": "view",
      "type": "function",
      "signature": "0x593af56a"
    },
    {
      "constant": true,
      "inputs": [
        {
          "name": "_editionNumber",
          "type": "uint256"
        }
      ],
      "name": "purchaseDatesEdition",
      "outputs": [
        {
          "name": "_startDate",
          "type": "uint256"
        },
        {
          "name": "_endDate",
          "type": "uint256"
        }
      ],
      "payable": false,
      "stateMutability": "view",
      "type": "function",
      "signature": "0x652edd41"
    },
    {
      "constant": true,
      "inputs": [
        {
          "name": "_editionNumber",
          "type": "uint256"
        }
      ],
      "name": "artistCommission",
      "outputs": [
        {
          "name": "_artistAccount",
          "type": "address"
        },
        {
          "name": "_artistCommission",
          "type": "uint256"
        }
      ],
      "payable": false,
      "stateMutability": "view",
      "type": "function",
      "signature": "0x32fd8478"
    },
    {
      "constant": true,
      "inputs": [
        {
          "name": "_editionNumber",
          "type": "uint256"
        }
      ],
      "name": "priceInWeiEdition",
      "outputs": [
        {
          "name": "_priceInWei",
          "type": "uint256"
        }
      ],
      "payable": false,
      "stateMutability": "view",
      "type": "function",
      "signature": "0x43bf63e8"
    },
    {
      "constant": true,
      "inputs": [
        {
          "name": "_editionNumber",
          "type": "uint256"
        }
      ],
      "name": "tokenURIEdition",
      "outputs": [
        {
          "name": "",
          "type": "string"
        }
      ],
      "payable": false,
      "stateMutability": "view",
      "type": "function",
      "signature": "0x385df389"
    },
    {
      "constant": true,
      "inputs": [
        {
          "name": "_editionNumber",
          "type": "uint256"
        }
      ],
      "name": "editionActive",
      "outputs": [
        {
          "name": "",
          "type": "bool"
        }
      ],
      "payable": false,
      "stateMutability": "view",
      "type": "function",
      "signature": "0xbbd1e1fc"
    },
    {
      "constant": true,
      "inputs": [
        {
          "name": "_editionNumber",
          "type": "uint256"
        }
      ],
      "name": "totalRemaining",
      "outputs": [
        {
          "name": "",
          "type": "uint256"
        }
      ],
      "payable": false,
      "stateMutability": "view",
      "type": "function",
      "signature": "0xbc02844c"
    },
    {
      "constant": true,
      "inputs": [
        {
          "name": "_editionNumber",
          "type": "uint256"
        }
      ],
      "name": "totalAvailableEdition",
      "outputs": [
        {
          "name": "",
          "type": "uint256"
        }
      ],
      "payable": false,
      "stateMutability": "view",
      "type": "function",
      "signature": "0x6a028692"
    },
    {
      "constant": true,
      "inputs": [
        {
          "name": "_editionNumber",
          "type": "uint256"
        }
      ],
      "name": "totalSupplyEdition",
      "outputs": [
        {
          "name": "",
          "type": "uint256"
        }
      ],
      "payable": false,
      "stateMutability": "view",
      "type": "function",
      "signature": "0xb6f4df34"
    }
  ],
  "bytecode": "0x600e805460a060020a60ff021916905560c0604052601c60808190527f68747470733a2f2f697066732e696e667572612e696f2f697066732f0000000060a09081526200005091600f91906200029f565b50604080518082018252601781527f4b6e6f776e4f726967696e4469676974616c41737365740000000000000000006020808301919091528251808401909352600483527f4b4f4441000000000000000000000000000000000000000000000000000000009083015290620000ee7f01ffc9a70000000000000000000000000000000000000000000000000000000064010000000062000232810204565b620001227f80ac58cd0000000000000000000000000000000000000000000000000000000064010000000062000232810204565b620001567f4f558e790000000000000000000000000000000000000000000000000000000064010000000062000232810204565b81516200016b9060059060208501906200029f565b508051620001819060069060208401906200029f565b50620001b67f780e9d630000000000000000000000000000000000000000000000000000000064010000000062000232810204565b620001ea7f5b5e139f0000000000000000000000000000000000000000000000000000000064010000000062000232810204565b5050600c805433600160a060020a03199182168117909255600e8054909116909117905534156200021a57600080fd5b60148054600160a060020a0319163317905562000344565b7fffffffff0000000000000000000000000000000000000000000000000000000080821614156200026257600080fd5b7fffffffff00000000000000000000000000000000000000000000000000000000166000908152602081905260409020805460ff19166001179055565b828054600181600116156101000203166002900490600052602060002090601f016020900481019282601f10620002e257805160ff191683800117855562000312565b8280016001018555821562000312579182015b8281111562000312578251825591602001919060010190620002f5565b506200032092915062000324565b5090565b6200034191905b808211156200032057600081556001016200032b565b90565b6152b580620003546000396000f3006080604052600436106103dc5763ffffffff7c010000000000000000000000000000000000000000000000000000000060003504166301ffc9a781146103eb57806304bb1e3d1461043957806306fdde0314610458578063081812fc146104e2578063095ea7b314610516578063153473801461053a578063162094c41461056457806318160ddd14610588578063187d88031461059d57806319fa8f50146105be578063213d6771146106085780632295ee5b1461062057806323a3ad721461064057806323b872dd146106675780632bbd84e8146106915780632f745c59146106a6578063328a2c2d146106ca57806332fd8478146106e5578063385df389146107205780633f4ba83a1461073857806340c10f191461074d57806342842e0e1461077157806342966c681461079b57806342c7ea5f146107b357806343923258146107c857806343bf63e8146107ef5780634e99b800146108075780634f558e791461081c5780634f6ccce7146108345780635091f8811461084c578063593af56a146108675780635a3f26721461087f5780635c975abb146108f05780636352211e14610905578063652edd411461091d5780636641179e1461094e5780636a0286921461096f5780636e93dbdc1461098757806370a082311461099c578063715018a6146109bd57806371c847b2146109d257806375dcb70a14610ac65780637a85c02a14610aea5780637d55758f14610b025780637eb9f04a14610b26578063824eec3b14610b415780638456cb5914610b59578063891407c014610b6e5780638bbb594a14610b855780638da5cb5b14610c0a57806392afc33a14610c1f57806395a8c58d14610c4a57806395d89b4114610c71578063975347b814610c8657806397e851f614610cad578063985989d214610cd45780639cd7745714610ce95780639f727c2714610d75578063a22cb46514610d8a578063abf3260f14610db0578063ac3c995214610dc5578063ae8a869014610e28578063afa7a25f14610eb4578063b4b5b48f14610ed8578063b6f4df3414610f91578063b88d4fde14610fa9578063b8f6c21914611018578063bbd1e1fc14611030578063bc02844c14611048578063bdcdc0bc14611060578063be46b94c1461107b578063c2b2fb5e14611090578063c87b56dd146110a8578063d4f3d6b8146110c0578063de56a245146110db578063e6232ba114611114578063e65d19ca1461112f578063e7b8d977146111b4578063e985e9c5146111cc578063efef39a1146111f3578063f1ff3d4b146111fe578063f2fde38b14611213578063f3993d1114611234578063f8b4ab7a1461129f578063fee7e35d146112ba575b3480156103e857600080fd5b50005b3480156103f757600080fd5b506104257fffffffff00000000000000000000000000000000000000000000000000000000600435166112d2565b604080519115158252519081900360200190f35b34801561044557600080fd5b506104566004356024351515611309565b005b34801561046457600080fd5b5061046d6113ab565b6040805160208082528351818301528351919283929083019185019080838360005b838110156104a757818101518382015260200161048f565b50505050905090810190601f1680156104d45780820380516001836020036101000a031916815260200191505b509250505060405180910390f35b3480156104ee57600080fd5b506104fa600435611442565b60408051600160a060020a039092168252519081900360200190f35b34801561052257600080fd5b50610456600160a060020a036004351660243561145d565b34801561054657600080fd5b50610552600435611513565b60408051918252519081900360200190f35b34801561057057600080fd5b50610456600480359060248035908101910135611534565b34801561059457600080fd5b506105526115fe565b3480156105a957600080fd5b50610456600160a060020a0360043516611604565b3480156105ca57600080fd5b506105d36116bd565b604080517fffffffff000000000000000000000000000000000000000000000000000000009092168252519081900360200190f35b34801561061457600080fd5b506105526004356116e1565b34801561062c57600080fd5b5061045660048035602481019101356116f6565b34801561064c57600080fd5b50610456600160a060020a036004351660ff60243516611788565b34801561067357600080fd5b50610456600160a060020a03600435811690602435166044356117ae565b34801561069d57600080fd5b50610552611851565b3480156106b257600080fd5b50610552600160a060020a0360043516602435611857565b3480156106d657600080fd5b506104566004356024356118a5565b3480156106f157600080fd5b506106fd600435611939565b60408051600160a060020a03909316835260208301919091528051918290030190f35b34801561072c57600080fd5b5061046d600435611960565b34801561074457600080fd5b50610456611a96565b34801561075957600080fd5b50610552600160a060020a0360043516602435611b1f565b34801561077d57600080fd5b50610456600160a060020a0360043581169060243516604435611d08565b3480156107a757600080fd5b50610456600435611d24565b3480156107bf57600080fd5b50610552611db5565b3480156107d457600080fd5b50610456600160a060020a036004351660ff60243516611dbb565b3480156107fb57600080fd5b50610552600435611e4d565b34801561081357600080fd5b5061046d611e62565b34801561082857600080fd5b50610425600435611ef0565b34801561084057600080fd5b50610552600435611f0d565b34801561085857600080fd5b50610456600435602435611f42565b34801561087357600080fd5b50610552600435611fd6565b34801561088b57600080fd5b506108a0600160a060020a0360043516611feb565b60408051602080825283518183015283519192839290830191858101910280838360005b838110156108dc5781810151838201526020016108c4565b505050509050019250505060405180910390f35b3480156108fc57600080fd5b50610425612057565b34801561091157600080fd5b506104fa600435612078565b34801561092957600080fd5b5061093560043561209c565b6040805192835260208301919091528051918290030190f35b34801561095a57600080fd5b506108a0600160a060020a03600435166120b9565b34801561097b57600080fd5b50610552600435612123565b34801561099357600080fd5b506104fa612138565b3480156109a857600080fd5b50610552600160a060020a0360043516612147565b3480156109c957600080fd5b5061045661217a565b3480156109de57600080fd5b506109ea6004356121e8565b604051808c600019166000191681526020018b81526020018a815260200189815260200188600160a060020a0316600160a060020a031681526020018781526020018681526020018060200185815260200184815260200183151515158152602001828103825286818151815260200191508051906020019080838360005b83811015610a81578181015183820152602001610a69565b50505050905090810190601f168015610aae5780820380516001836020036101000a031916815260200191505b509c5050505050505050505050505060405180910390f35b348015610ad257600080fd5b506104566004803590602480359081019101356123e3565b348015610af657600080fd5b506108a0600435612484565b348015610b0e57600080fd5b50610552600160a060020a03600435166024356124e4565b348015610b3257600080fd5b506104566004356024356126a1565b348015610b4d57600080fd5b50610552600435612735565b348015610b6557600080fd5b50610456612747565b610552600160a060020a03600435166024356127e6565b348015610b9157600080fd5b5060408051602060046101043581810135601f810184900484028501840190955284845261042594823594602480359560443595606435956084359560a435600160a060020a03169560c4359560e43595369594610124949201919081908401838280828437509497505093359450612bc09350505050565b348015610c1657600080fd5b506104fa612c10565b348015610c2b57600080fd5b50610c34612c1f565b6040805160ff9092168252519081900360200190f35b348015610c5657600080fd5b50610425600160a060020a036004351660ff60243516612c24565b348015610c7d57600080fd5b5061046d612c4d565b348015610c9257600080fd5b50610456600160a060020a036004351660ff60243516612cae565b348015610cb957600080fd5b50610456600435602435600160a060020a0360443516612d40565b348015610ce057600080fd5b50610c34612f50565b348015610cf557600080fd5b5060408051602060046101043581810135601f810184900484028501840190955284845261042594823594602480359560443595606435956084359560a435600160a060020a03169560c4359560e4359536959461012494920191908190840183828082843750949750508435955050506020909201359150612f559050565b348015610d8157600080fd5b50610456612fb3565b348015610d9657600080fd5b50610456600160a060020a03600435166024351515613007565b348015610dbc57600080fd5b5061055261308b565b348015610dd157600080fd5b50604080516020600460248035828101358481028087018601909752808652610456968435600160a060020a0316963696604495919490910192918291850190849080828437509497506130919650505050505050565b348015610e3457600080fd5b5060408051602060046101043581810135601f810184900484028501840190955284845261042594823594602480359560443595606435956084359560a435600160a060020a03169560c4359560e43595369594610124949201919081908401838280828437509497505084359550505060209092013591506130e69050565b348015610ec057600080fd5b50610456600435600160a060020a0360243516613127565b348015610ee457600080fd5b50610ef0600435613264565b604080518681526020808201879052918101859052600160a060020a038316608082015260a06060820181815285519183019190915284519192909160c084019186019080838360005b83811015610f52578181015183820152602001610f3a565b50505050905090810190601f168015610f7f5780820380516001836020036101000a031916815260200191505b50965050505050505060405180910390f35b348015610f9d57600080fd5b50610552600435613326565b348015610fb557600080fd5b50604080516020601f60643560048181013592830184900484028501840190955281845261045694600160a060020a03813581169560248035909216956044359536956084940191819084018382808284375094975061333b9650505050505050565b34801561102457600080fd5b5061093560043561335d565b34801561103c57600080fd5b50610425600435613381565b34801561105457600080fd5b50610552600435613399565b34801561106c57600080fd5b506104566004356024356133c0565b34801561108757600080fd5b50610c34613538565b34801561109c57600080fd5b5061042560043561353d565b3480156110b457600080fd5b5061046d600435613565565b3480156110cc57600080fd5b506104566004356024356136c0565b3480156110e757600080fd5b506110f36004356137ce565b60408051928352600160a060020a0390911660208301528051918290030190f35b34801561112057600080fd5b506104566004356024356137f4565b34801561113b57600080fd5b5060408051602060046101043581810135601f810184900484028501840190955284845261042594823594602480359560443595606435956084359560a435600160a060020a03169560c4359560e435953695946101249492019190819084018382808284375094975050933594506138889350505050565b3480156111c057600080fd5b506108a06004356138c9565b3480156111d857600080fd5b50610425600160a060020a0360043581169060243516613929565b610552600435613957565b34801561120a57600080fd5b50610552613963565b34801561121f57600080fd5b50610456600160a060020a0360043516613969565b34801561124057600080fd5b506040805160206004604435818101358381028086018501909652808552610456958335600160a060020a0390811696602480359092169636969560649592949301928291850190849080828437509497506139899650505050505050565b3480156112ab57600080fd5b506104566004356024356139bf565b3480156112c657600080fd5b5061046d600435613b00565b7fffffffff000000000000000000000000000000000000000000000000000000001660009081526020819052604090205460ff1690565b600c54600160a060020a03163314806113285750611328336001612c24565b151561133357600080fd5b600082815260166020526040812054839110611387576040805160e560020a62461bcd028152602060048201526016602482015260008051602061526a833981519152604482015290519081900360640190fd5b50600091825260166020526040909120600901805460ff1916911515919091179055565b60058054604080516020601f60026000196101006001881615020190951694909404938401819004810282018101909252828152606093909290918301828280156114375780601f1061140c57610100808354040283529160200191611437565b820191906000526020600020905b81548152906001019060200180831161141a57829003601f168201915b505050505090505b90565b600090815260026020526040902054600160a060020a031690565b600061146882612078565b9050600160a060020a03838116908216141561148357600080fd5b33600160a060020a038216148061149f575061149f8133613929565b15156114aa57600080fd5b600082815260026020526040808220805473ffffffffffffffffffffffffffffffffffffffff1916600160a060020a0387811691821790925591518593918516917f8c5be1e5ebec7d5bd14f71427d1e84f3dd0314c0f7b2291e5b200ac8c7c3b92591a4505050565b60008181526017602052604081205461152b81611e4d565b91505b50919050565b600c54600160a060020a03163314806115535750611553336001612c24565b151561155e57600080fd5b8261156881611ef0565b15156115be576040805160e560020a62461bcd02815260206004820152601760248201527f546f6b656e20494420646f6573206e6f74206578697374000000000000000000604482015290519081900360640190fd5b6115f88484848080601f01602080910402602001604051908101604052809392919081815260200183838082843750613bfb945050505050565b50505050565b60095490565b600c54600160a060020a03163314806116235750611623336001612c24565b151561162e57600080fd5b600160a060020a038116151561168e576040805160e560020a62461bcd02815260206004820152600f60248201527f496e76616c696420616464726573730000000000000000000000000000000000604482015290519081900360640190fd5b6014805473ffffffffffffffffffffffffffffffffffffffff1916600160a060020a0392909216919091179055565b7f01ffc9a70000000000000000000000000000000000000000000000000000000081565b60009081526016602052604090206001015490565b600c54600160a060020a03163314806117155750611715336001612c24565b151561172057600080fd5b801515611777576040805160e560020a62461bcd02815260206004820152601060248201527f426173652055524920696e76616c696400000000000000000000000000000000604482015290519081900360640190fd5b611783600f83836150ff565b505050565b60ff81166000908152600d602052604090206117aa908363ffffffff613c2e16565b5050565b6117b83382613c43565b15156117c357600080fd5b600160a060020a03831615156117d857600080fd5b600160a060020a03821615156117ed57600080fd5b6117f78382613ca2565b6118018382613d11565b61180b8282613e18565b8082600160a060020a031684600160a060020a03167fddf252ad1be2c89b69c2b068fc378daa952ba7f163c4a11628f55a4df523b3ef60405160405180910390a4505050565b60115481565b600061186283612147565b821061186d57600080fd5b600160a060020a038316600090815260076020526040902080548390811061189157fe5b906000526020600020015490505b92915050565b600c54600160a060020a03163314806118c457506118c4336001612c24565b15156118cf57600080fd5b600082815260166020526040812054839110611923576040805160e560020a62461bcd028152602060048201526016602482015260008051602061526a833981519152604482015290519081900360640190fd5b5060009182526016602052604090912060030155565b60009081526016602052604090206005810154600690910154600160a060020a0390911691565b600081815260166020908152604091829020600f80548451601f60026000196101006001861615020190931692909204918201859004850281018501909552808552606094929361152b939291908301828280156119ff5780601f106119d4576101008083540402835291602001916119ff565b820191906000526020600020905b8154815290600101906020018083116119e257829003601f168201915b5050505060088401805460408051602060026001851615610100026000190190941693909304601f8101849004840282018401909252818152935090830182828015611a8c5780601f10611a6157610100808354040283529160200191611a8c565b820191906000526020600020905b815481529060010190602001808311611a6f57829003601f168201915b5050505050613e61565b600e54600160a060020a03163314611aad57600080fd5b600e5474010000000000000000000000000000000000000000900460ff161515611ad657600080fd5b600e805474ff0000000000000000000000000000000000000000191690556040517f7805862f689e2f13df9f062ff482ad3ad112aca9e0847911ed832e158c525b3390600090a1565b600c546000908190600160a060020a0316331480611b435750611b43336001612c24565b80611b545750611b54336002612c24565b1515611b5f57600080fd5b600083815260166020526040812054849110611bb3576040805160e560020a62461bcd028152602060048201526016602482015260008051602061526a833981519152604482015290519081900360640190fd5b6000848152601660205260409020600b810154600a90910154859111611c49576040805160e560020a62461bcd02815260206004820152602160248201527f4e6f206d6f72652065646974696f6e73206c65667420746f207075726368617360448201527f6500000000000000000000000000000000000000000000000000000000000000606482015290519081900360840190fd5b611c5285613e96565b6000868152601660209081526040918290206008018054835160026001831615610100026000190190921691909104601f8101849004840282018401909452838152939650611cfe938a9388938b939190830182828015611cf45780601f10611cc957610100808354040283529160200191611cf4565b820191906000526020600020905b815481529060010190602001808311611cd757829003601f168201915b5050505050613ed2565b5090949350505050565b611783838383602060405190810160405280600081525061333b565b600c5460009081908190600160a060020a0316331480611d4a5750611d4a336001612c24565b1515611d5557600080fd5b611d67611d6185612078565b85613f7f565b50505060008181526017602090815260408083208054908490558084526018835281842085855260199093529220548154829082908110611da457fe5b600091825260208220015550505050565b60135481565b600c54600160a060020a0316331480611dda5750611dda336001612c24565b1515611de557600080fd5b60ff81166000908152600d60205260409020611e07908363ffffffff61407916565b6040805160ff831681529051600160a060020a038416917f0ed8a6a6a166243876472f7a8610b62c1a76c67911642d39ff34ead38105534f919081900360200190a25050565b60009081526016602052604090206007015490565b600f805460408051602060026001851615610100026000190190941693909304601f81018490048402820184019092528181529291830182828015611ee85780601f10611ebd57610100808354040283529160200191611ee8565b820191906000526020600020905b815481529060010190602001808311611ecb57829003601f168201915b505050505081565b600090815260016020526040902054600160a060020a0316151590565b6000611f176115fe565b8210611f2257600080fd5b6009805483908110611f3057fe5b90600052602060002001549050919050565b600c54600160a060020a0316331480611f615750611f61336001612c24565b1515611f6c57600080fd5b600082815260166020526040812054839110611fc0576040805160e560020a62461bcd028152602060048201526016602482015260008051602061526a833981519152604482015290519081900360640190fd5b5060009182526016602052604090912060060155565b60009081526016602052604090206002015490565b600160a060020a03811660009081526007602090815260409182902080548351818402810184019094528084526060939283018282801561204b57602002820191906000526020600020905b815481526020019060010190808311612037575b50505050509050919050565b600e5474010000000000000000000000000000000000000000900460ff1681565b600081815260016020526040812054600160a060020a031680151561189f57600080fd5b600090815260166020526040902060038101546004909101549091565b600160a060020a0381166000908152601a602090815260409182902080548351818402810184019094528084526060939283018282801561204b57602002820191906000526020600020908154815260200190600101908083116120375750505050509050919050565b6000908152601660205260409020600b015490565b601454600160a060020a031681565b6000600160a060020a038216151561215e57600080fd5b50600160a060020a031660009081526003602052604090205490565b600e54600160a060020a0316331461219157600080fd5b600e54604051600160a060020a03909116907ff8df31144d9c2f0f6b59d69b8b98abd5459d07f2742c4df920b25aae33c6482090600090a2600e805473ffffffffffffffffffffffffffffffffffffffff19169055565b600080600080600080600060606000806000808c6000601660008381526020019081526020016000206000015411151561225a576040805160e560020a62461bcd028152602060048201526016602482015260008051602061526a833981519152604482015290519081900360640190fd5b601660008f8152602001908152602001600020915081600101548260020154836003015484600401548560050160009054906101000a9004600160a060020a0316866006015487600701546123a0600f8054600181600116156101000203166002900480601f01602080910402602001604051908101604052809291908181526020018280546001816001161561010002031660029004801561233e5780601f106123135761010080835404028352916020019161233e565b820191906000526020600020905b81548152906001019060200180831161232157829003601f168201915b5050505060088c01805460408051602060026001851615610100026000190190941693909304601f8101849004840282018401909252818152935090830182828015611a8c5780601f10611a6157610100808354040283529160200191611a8c565b89600a01548a600b01548b60090160009054906101000a900460ff169c509c509c509c509c509c509c509c509c509c509c50505091939597999b90929496989a50565b600c54600160a060020a03163314806124025750612402336001612c24565b151561240d57600080fd5b600083815260166020526040812054849110612461576040805160e560020a62461bcd028152602060048201526016602482015260008051602061526a833981519152604482015290519081900360640190fd5b600084815260166020526040902061247d9060080184846150ff565b5050505050565b60008181526018602090815260409182902080548351818402810184019094528084526060939283018282801561204b57602002820191906000526020600020908154815260200190600101908083116120375750505050509050919050565b600c546000908190600160a060020a03163314806125085750612508336001612c24565b806125195750612519336003612c24565b151561252457600080fd5b600083815260166020526040812054849110612578576040805160e560020a62461bcd028152602060048201526016602482015260008051602061526a833981519152604482015290519081900360640190fd5b6125818461409e565b6000858152601660205260409020600b01549092506125a790859063ffffffff61412916565b821115612624576040805160e560020a62461bcd02815260206004820152602e60248201527f52656163686564206d617820746f6b656e49642c2063616e6e6f7420756e646560448201527f72206d696e7420616e796d6f7265000000000000000000000000000000000000606482015290519081900360840190fd5b60008481526016602090815260409182902060080180548351601f6002600019610100600186161502019093169290920491820184900484028101840190945280845261269993899387938a939091830182828015611cf45780601f10611cc957610100808354040283529160200191611cf4565b509392505050565b600c54600160a060020a03163314806126c057506126c0336001612c24565b15156126cb57600080fd5b60008281526016602052604081205483911061271f576040805160e560020a62461bcd028152602060048201526016602482015260008051602061526a833981519152604482015290519081900360640190fd5b5060009182526016602052604090912060070155565b60009081526017602052604090205490565b600e54600160a060020a0316331461275e57600080fd5b600e5474010000000000000000000000000000000000000000900460ff161561278657600080fd5b600e805474ff00000000000000000000000000000000000000001916740100000000000000000000000000000000000000001790556040517f6985a02210a168e66602d3235cb6db0e70f92b3ba4d376a33c0f3d9434bff62590600090a1565b600e546000908190819074010000000000000000000000000000000000000000900460ff161561281557600080fd5b600084815260166020526040812054859110612869576040805160e560020a62461bcd028152602060048201526016602482015260008051602061526a833981519152604482015290519081900360640190fd5b600085815260166020526040902060090154859060ff1615156128d6576040805160e560020a62461bcd02815260206004820152601260248201527f45646974696f6e206e6f74206163746976650000000000000000000000000000604482015290519081900360640190fd5b6000868152601660205260409020600b810154600a9091015487911161296c576040805160e560020a62461bcd02815260206004820152602160248201527f4e6f206d6f72652065646974696f6e73206c65667420746f207075726368617360448201527f6500000000000000000000000000000000000000000000000000000000000000606482015290519081900360840190fd5b60008781526016602052604090206003015487904210156129d7576040805160e560020a62461bcd02815260206004820152601960248201527f45646974696f6e206e6f7420617661696c61626c652079657400000000000000604482015290519081900360640190fd5b600081815260166020526040902060040154421115612a40576040805160e560020a62461bcd02815260206004820152601b60248201527f45646974696f6e206e6f206c6f6e67657220617661696c61626c650000000000604482015290519081900360640190fd5b60008881526016602052604090206007810154909650341015612ad3576040805160e560020a62461bcd02815260206004820152602b60248201527f56616c7565206d7573742062652067726561746572207468616e20707269636560448201527f206f662065646974696f6e000000000000000000000000000000000000000000606482015290519081900360840190fd5b612adc88613e96565b600887018054604080516020601f60026000196101006001881615020190951694909404938401819004810282018101909252828152939850612b45938d938a938e93830182828015611cf45780601f10611cc957610100808354040283529160200191611cf4565b612b708887600701548860050160009054906101000a9004600160a060020a03168960060154614136565b88600160a060020a031688867f145e2ff612f82ecb64f13b28a0e2825f8fd3dba6d6fbbdec265aa58800014c3d346040518082815260200191505060405180910390a45092979650505050505050565b600c54600090600160a060020a0316331480612be25750612be2336001612c24565b1515612bed57600080fd5b612c018b8b8b8b8b8b8b8b8b8b600161428a565b9b9a5050505050505050505050565b600e54600160a060020a031681565b600281565b60ff81166000908152600d60205260408120612c46908463ffffffff6147e416565b9392505050565b60068054604080516020601f60026000196101006001881615020190951694909404938401819004810282018101909252828152606093909290918301828280156114375780601f1061140c57610100808354040283529160200191611437565b600c54600160a060020a0316331480612ccd5750612ccd336001612c24565b1515612cd857600080fd5b60ff81166000908152600d60205260409020612cfa908363ffffffff61480316565b6040805160ff831681529051600160a060020a038416917f3824b64a1e23d936b458f4e31445c664d2bc9c14e842407917cbc100b0236a2f919081900360200190a25050565b600c546000908190600160a060020a0316331480612d645750612d64336001612c24565b1515612d6f57600080fd5b600085815260166020526040812054869110612dc3576040805160e560020a62461bcd028152602060048201526016602482015260008051602061526a833981519152604482015290519081900360640190fd5b600086815260166020526040812060068101549094509250851115612e6857600160a060020a0384161515612e68576040805160e560020a62461bcd02815260206004820152603560248201527f53657474696e6720612072617465206d757374206265206163636f6d70616e6960448201527f656420627920612076616c696420616464726573730000000000000000000000606482015290519081900360840190fd5b6064612e7a838763ffffffff61412916565b1115612ef6576040805160e560020a62461bcd02815260206004820152602560248201527f43616e742073657420636f6d6d697373696f6e2067726561746572207468616e60448201527f2031303025000000000000000000000000000000000000000000000000000000606482015290519081900360840190fd5b5050604080518082018252938452600160a060020a0392831660208086019182526000968752601590529420925183555091516001909101805473ffffffffffffffffffffffffffffffffffffffff191691909216179055565b600381565b600c54600090600160a060020a0316331480612f775750612f77336001612c24565b1515612f8257600080fd5b612f968c8c8c8c8c8c8c8c8c8b600061428a565b50612fa18c846139bf565b5060019b9a5050505050505050505050565b600e54600160a060020a03163314612fca57600080fd5b600e54604051600160a060020a0390911690303180156108fc02916000818181858888f19350505050158015613004573d6000803e3d6000fd5b50565b600160a060020a03821633141561301d57600080fd5b336000818152600460209081526040808320600160a060020a03871680855290835292819020805460ff1916861515908117909155815190815290519293927f17307eab39ab6107e8899845ad3d59bd9653f200f220920489ca2b5937696c31929181900390910190a35050565b60105481565b60005b8151811015611783576130de6130c083838151811015156130b157fe5b90602001906020020151612078565b8484848151811015156130cf57fe5b90602001906020020151611d08565b600101613094565b600c54600090600160a060020a03163314806131085750613108336001612c24565b151561311357600080fd5b612f968c8c8c8c8c8c8c8c8c8b600161428a565b600c54600090819081908190600160a060020a031633148061314f575061314f336001612c24565b151561315a57600080fd5b6000868152601660205260408120548791106131ae576040805160e560020a62461bcd028152602060048201526016602482015260008051602061526a833981519152604482015290519081900360640190fd5b6000878152601660209081526040808320601b8352818420546005820154600160a060020a03168552601a9093529220805492975090955093508390859081106131f457fe5b60009182526020808320909101829055600160a060020a03909716808252601a88526040808320805460018101825590845289842081018b9055998352601b90985296902096909655505050600501805473ffffffffffffffffffffffffffffffffffffffff1916909117905550565b6000806000606060008060008761327a81611ef0565b15156132d0576040805160e560020a62461bcd02815260206004820152601760248201527f546f6b656e20494420646f6573206e6f74206578697374000000000000000000604482015290519081900360640190fd5b60008981526017602090815260408083205480845260169092529091206002810154600182015492955090935084916133088c613565565b6133118d612078565b939d929c50909a509850909650945050505050565b6000908152601660205260409020600a015490565b6133468484846117ae565b61335284848484614825565b15156115f857600080fd5b60008181526017602052604081205481906133778161209c565b9250925050915091565b60009081526016602052604090206009015460ff1690565b6000818152601660205260408120600a810154600b82015461152b9163ffffffff6149aa16565b600c546000908190600160a060020a03163314806133e457506133e4336001612c24565b15156133ef57600080fd5b600084815260166020526040812054859110613443576040805160e560020a62461bcd028152602060048201526016602482015260008051602061526a833981519152604482015290519081900360640190fd5b6000858152601660205260409020600a8101549093508410156134fc576040805160e560020a62461bcd02815260206004820152604560248201527f556e61626c6520746f2072656475636520617661696c61626c6520616d6f756e60448201527f7420746f207468652062656c6f7720746865206e756d62657220746f74616c5360648201527f7570706c79000000000000000000000000000000000000000000000000000000608482015290519081900360a40190fd5b600b830180549085905560135490925061352e908590613522908563ffffffff6149aa16565b9063ffffffff61412916565b6013555050505050565b600181565b600080821515613550576000915061152e565b50506000818152601660205260409020541490565b60608161357181611ef0565b15156135c7576040805160e560020a62461bcd02815260206004820152601760248201527f546f6b656e20494420646f6573206e6f74206578697374000000000000000000604482015290519081900360640190fd5b600f8054604080516020601f6002600019610100600188161502019095169490940493840181900481028201810190925282815261152b93909290918301828280156136545780601f1061362957610100808354040283529160200191613654565b820191906000526020600020905b81548152906001019060200180831161363757829003601f168201915b5050506000878152600b60209081526040918290208054835160026001831615610100026000190190921691909104601f810184900484028201840190945283815294509250830182828015611a8c5780601f10611a6157610100808354040283529160200191611a8c565b600c54600090819081908190600160a060020a03163314806136e857506136e8336001612c24565b15156136f357600080fd5b600086815260166020526040812054879110613747576040805160e560020a62461bcd028152602060048201526016602482015260008051602061526a833981519152604482015290519081900360640190fd5b600087815260166020908152604080832060028101548452601c83528184208b8552601d9093529220548154929750909550935084908490811061378757fe5b60009182526020808320909101829055878252601c81526040808320805460018101825590845282842081018b9055998352601d9091529020969096555050506002015550565b600090815260156020526040902080546001909101549091600160a060020a0390911690565b600c54600160a060020a03163314806138135750613813336001612c24565b151561381e57600080fd5b600082815260166020526040812054839110613872576040805160e560020a62461bcd028152602060048201526016602482015260008051602061526a833981519152604482015290519081900360640190fd5b5060009182526016602052604090912060040155565b600c54600090600160a060020a03163314806138aa57506138aa336001612c24565b15156138b557600080fd5b612c018b8b8b8b8b8b8b8b8b8b600061428a565b6000818152601c602090815260409182902080548351818402810184019094528084526060939283018282801561204b57602002820191906000526020600020908154815260200190600101908083116120375750505050509050919050565b600160a060020a03918216600090815260046020908152604080832093909416825291909152205460ff1690565b600061189f33836127e6565b60125481565b600e54600160a060020a0316331461398057600080fd5b613004816149bc565b60005b81518110156115f8576139b7848484848151811015156139a857fe5b906020019060200201516117ae565b60010161398c565b600c54600160a060020a03163314806139de57506139de336001612c24565b15156139e957600080fd5b600082815260166020526040812054839110613a3d576040805160e560020a62461bcd028152602060048201526016602482015260008051602061526a833981519152604482015290519081900360640190fd5b81613a4784612484565b511115613aea576040805160e560020a62461bcd02815260206004820152604c60248201527f43616e206e6f74206c6f77657220746f74616c537570706c7920746f2062656c60448201527f6f7720746865206e756d626572206f6620746f6b656e7320616c72656164792060648201527f696e206578697374656e63650000000000000000000000000000000000000000608482015290519081900360a40190fd5b50600091825260166020526040909120600a0155565b600f805460408051602060026001851615610100026000190190941693909304601f810184900484028201840190925281815260609361189f9391929091830182828015613b8f5780601f10613b6457610100808354040283529160200191613b8f565b820191906000526020600020905b815481529060010190602001808311613b7257829003601f168201915b5050506000868152600b60209081526040918290208054835160026001831615610100026000190190921691909104601f810184900484028201840190945283815294509250830182828015611a8c5780601f10611a6157610100808354040283529160200191611a8c565b613c0482611ef0565b1515613c0f57600080fd5b6000828152600b6020908152604090912082516117839284019061517d565b613c3882826147e4565b15156117aa57600080fd5b600080613c4f83612078565b905080600160a060020a031684600160a060020a03161480613c8a575083600160a060020a0316613c7f84611442565b600160a060020a0316145b80613c9a5750613c9a8185613929565b949350505050565b81600160a060020a0316613cb582612078565b600160a060020a031614613cc857600080fd5b600081815260026020526040902054600160a060020a0316156117aa576000908152600260205260409020805473ffffffffffffffffffffffffffffffffffffffff1916905550565b6000806000613d208585614a3a565b600084815260086020908152604080832054600160a060020a0389168452600790925290912054909350613d5b90600163ffffffff6149aa16565b600160a060020a038616600090815260076020526040902080549193509083908110613d8357fe5b90600052602060002001549050806007600087600160a060020a0316600160a060020a0316815260200190815260200160002084815481101515613dc357fe5b6000918252602080832090910192909255600160a060020a0387168152600790915260409020805490613dfa9060001983016151eb565b50600093845260086020526040808520859055908452909220555050565b6000613e248383614ad0565b50600160a060020a039091166000908152600760209081526040808320805460018101825590845282842081018590559383526008909152902055565b604080516020818101835260008083528351808301855281815284519283019094528152606092612c46928692869290614b60565b6000818152601660205260408120600a810154613eba90600163ffffffff61412916565b600a8201819055815461152b9163ffffffff61412916565b6000613ede8585614f51565b613ee88483613bfb565b506000838152601760209081526040808320859055848352601882528083208054600180820183559185528385208101889055878552601990935292208190556012549091613f3d919063ffffffff61412916565b601255604051600160a060020a03861690849086907f259eb7b480b3d449f506927269e4665c83c69e4cd797143eaa8f84632dc7a02b90600090a45050505050565b6000806000613f8e8585614fa0565b6000848152600b60205260409020546002600019610100600184161502019091160415613fcc576000848152600b60205260408120613fcc9161520f565b6000848152600a6020526040902054600954909350613ff290600163ffffffff6149aa16565b915060098281548110151561400357fe5b906000526020600020015490508060098481548110151561402057fe5b6000918252602082200191909155600980548490811061403c57fe5b600091825260209091200155600980549061405b9060001983016151eb565b506000938452600a6020526040808520859055908452909220555050565b600160a060020a0316600090815260209190915260409020805460ff19166001179055565b6000818152601660205260408120805482906140c190600163ffffffff61412916565b90505b6140cd81611ef0565b156140ea576140e381600163ffffffff61412916565b90506140c4565b600a82015482546141009163ffffffff61412916565b811115612c4657600a82015461411d90600163ffffffff61412916565b600a8301559392505050565b8181018281101561189f57fe5b600080808061415c8561415089606463ffffffff614ff016565b9063ffffffff61500516565b9350600084111561419f57604051600160a060020a0387169085156108fc029086906000818181858888f1935050505015801561419d573d6000803e3d6000fd5b505b60008881526015602052604081208054909450111561420e5782546141cf9061415089606463ffffffff614ff016565b6001840154604051919350600160a060020a03169083156108fc029084906000818181858888f1935050505015801561420c573d6000803e3d6000fd5b505b61422e82614222348763ffffffff6149aa16565b9063ffffffff6149aa16565b601454604051919250600160a060020a03169082156108fc029083906000818181858888f19350505050158015614269573d6000803e3d6000fd5b5060115461427d903463ffffffff61412916565b6011555050505050505050565b6000808c15156142e4576040805160e560020a62461bcd02815260206004820152601b60248201527f45646974696f6e206e756d626572206e6f742070726f76696465640000000000604482015290519081900360640190fd5b6010548d11614363576040805160e560020a62461bcd02815260206004820152603360248201527f45646974696f6e206e756d626572206d7573742062652067726561746572207460448201527f68616e2070726576696f75736c79207573656400000000000000000000000000606482015290519081900360840190fd5b6010546000818152601660205260409020600b01548e916143899163ffffffff61412916565b1061442a576040805160e560020a62461bcd02815260206004820152604860248201527f45646974696f6e206e756d626572206d7573742062652067726561746572207460448201527f68616e2070726576696f75736c79207573656420706c757320746f74616c206160648201527f7661696c61626c65000000000000000000000000000000000000000000000000608482015290519081900360a40190fd5b8a1515614481576040805160e560020a62461bcd02815260206004820152601960248201527f45646974696f6e2074797065206e6f742070726f766964656400000000000000604482015290519081900360640190fd5b845115156144d9576040805160e560020a62461bcd02815260206004820152601460248201527f546f6b656e20555249206973206d697373696e67000000000000000000000000604482015290519081900360640190fd5b600160a060020a0388161515614539576040805160e560020a62461bcd02815260206004820152601b60248201527f417274697374206163636f756e74206e6f742070726f76696465640000000000604482015290519081900360640190fd5b6064871115801561454b575060008710155b15156145c7576040805160e560020a62461bcd02815260206004820152603b60248201527f41727469737420636f6d6d697373696f6e2063616e6e6f74206265206772656160448201527f746572207468616e20313030206f72206c657373207468616e20300000000000606482015290519081900360840190fd5b60008d8152601660205260409020541561462b576040805160e560020a62461bcd02815260206004820152601c60248201527f45646974696f6e20616c726561647920696e206578697374656e636500000000604482015290519081900360640190fd5b508780151561463b575063ffffffff5b610180604051908101604052808e81526020018d6000191681526020018c81526020018b815260200182815260200189600160a060020a0316815260200188815260200187815260200186815260200184151581526020016000815260200185815250601660008f8152602001908152602001600020600082015181600001556020820151816001019060001916905560408201518160020155606082015181600301556080820151816004015560a08201518160050160006101000a815481600160a060020a030219169083600160a060020a0316021790555060c0820151816006015560e0820151816007015561010082015181600801908051906020019061474792919061517d565b5061012082015160098201805460ff1916911515919091179055610140820151600a82015561016090910151600b909101556013546147869085614129565b601355614793888e61502e565b61479d8b8e61506a565b6040518b908d908f907ff702f09ce66e1a7f60e909cfb5b6400ce4967f4fd691158bd96066cb89c5c07890600090a450505060109990995550600198975050505050505050565b600160a060020a03166000908152602091909152604090205460ff1690565b600160a060020a0316600090815260209190915260409020805460ff19169055565b60008061483a85600160a060020a031661509c565b151561484957600191506149a1565b6040517f150b7a020000000000000000000000000000000000000000000000000000000081523360048201818152600160a060020a03898116602485015260448401889052608060648501908152875160848601528751918a169463150b7a0294938c938b938b93909160a490910190602085019080838360005b838110156148dc5781810151838201526020016148c4565b50505050905090810190601f1680156149095780820380516001836020036101000a031916815260200191505b5095505050505050602060405180830381600087803b15801561492b57600080fd5b505af115801561493f573d6000803e3d6000fd5b505050506040513d602081101561495557600080fd5b50517fffffffff0000000000000000000000000000000000000000000000000000000081167f150b7a020000000000000000000000000000000000000000000000000000000014925090505b50949350505050565b6000828211156149b657fe5b50900390565b600160a060020a03811615156149d157600080fd5b600e54604051600160a060020a038084169216907f8be0079c531659141344cd1fd0a4f28419497f9722a3daafe3b4186f6b6457e090600090a3600e805473ffffffffffffffffffffffffffffffffffffffff1916600160a060020a0392909216919091179055565b81600160a060020a0316614a4d82612078565b600160a060020a031614614a6057600080fd5b600160a060020a038216600090815260036020526040902054614a8a90600163ffffffff6149aa16565b600160a060020a03909216600090815260036020908152604080832094909455918152600190915220805473ffffffffffffffffffffffffffffffffffffffff19169055565b600081815260016020526040902054600160a060020a031615614af257600080fd5b6000818152600160208181526040808420805473ffffffffffffffffffffffffffffffffffffffff1916600160a060020a0388169081179091558452600390915290912054614b4091614129565b600160a060020a0390921660009081526003602052604090209190915550565b6060806060806060806060806000808e98508d97508c96508b95508a94508451865188518a518c51010101016040519080825280601f01601f191660200182016040528015614bb9578160200160208202803883390190505b50935083925060009150600090505b8851811015614c76578881815181101515614bdf57fe5b9060200101517f010000000000000000000000000000000000000000000000000000000000000090047f0100000000000000000000000000000000000000000000000000000000000000028383806001019450815181101515614c3e57fe5b9060200101907effffffffffffffffffffffffffffffffffffffffffffffffffffffffffffff1916908160001a905350600101614bc8565b5060005b8751811015614d28578781815181101515614c9157fe5b9060200101517f010000000000000000000000000000000000000000000000000000000000000090047f0100000000000000000000000000000000000000000000000000000000000000028383806001019450815181101515614cf057fe5b9060200101907effffffffffffffffffffffffffffffffffffffffffffffffffffffffffffff1916908160001a905350600101614c7a565b5060005b8651811015614dda578681815181101515614d4357fe5b9060200101517f010000000000000000000000000000000000000000000000000000000000000090047f0100000000000000000000000000000000000000000000000000000000000000028383806001019450815181101515614da257fe5b9060200101907effffffffffffffffffffffffffffffffffffffffffffffffffffffffffffff1916908160001a905350600101614d2c565b5060005b8551811015614e8c578581815181101515614df557fe5b9060200101517f010000000000000000000000000000000000000000000000000000000000000090047f0100000000000000000000000000000000000000000000000000000000000000028383806001019450815181101515614e5457fe5b9060200101907effffffffffffffffffffffffffffffffffffffffffffffffffffffffffffff1916908160001a905350600101614dde565b5060005b8451811015614f3e578481815181101515614ea757fe5b9060200101517f010000000000000000000000000000000000000000000000000000000000000090047f0100000000000000000000000000000000000000000000000000000000000000028383806001019450815181101515614f0657fe5b9060200101907effffffffffffffffffffffffffffffffffffffffffffffffffffffffffffff1916908160001a905350600101614e90565b50909d9c50505050505050505050505050565b614f5b82826150a4565b600980546000838152600a60205260408120829055600182018355919091527f6e1540171b6c0c960b71a7020d9f60077f6af931a8bbf590da0223dacf75c7af015550565b614faa8282613ca2565b614fb48282613d11565b6040518190600090600160a060020a038516907fddf252ad1be2c89b69c2b068fc378daa952ba7f163c4a11628f55a4df523b3ef908390a45050565b60008183811515614ffd57fe5b049392505050565b60008215156150165750600061189f565b5081810281838281151561502657fe5b041461189f57fe5b600160a060020a039091166000908152601a6020908152604080832080546001810182559084528284208101859055938352601b909152902055565b6000918252601c6020908152604080842080546001810182559085528285208101849055928452601d90915290912055565b6000903b1190565b600160a060020a03821615156150b957600080fd5b6150c38282613e18565b6040518190600160a060020a038416906000907fddf252ad1be2c89b69c2b068fc378daa952ba7f163c4a11628f55a4df523b3ef908290a45050565b828054600181600116156101000203166002900490600052602060002090601f016020900481019282601f106151405782800160ff1982351617855561516d565b8280016001018555821561516d579182015b8281111561516d578235825591602001919060010190615152565b5061517992915061524f565b5090565b828054600181600116156101000203166002900490600052602060002090601f016020900481019282601f106151be57805160ff191683800117855561516d565b8280016001018555821561516d579182015b8281111561516d5782518255916020019190600101906151d0565b8154818355818111156117835760008381526020902061178391810190830161524f565b50805460018160011615610100020316600290046000825580601f106152355750613004565b601f01602090049060005260206000209081019061300491905b61143f91905b808211156151795760008155600101615255560045646974696f6e206e756d62657220696e76616c696400000000000000000000a165627a7a72305820eddcebeeb7b846123311081d4f46a9634192361130deac61c7121c19dd7ce4c30029",
  "source": "pragma solidity ^0.4.24;\n\n// allows for multi-address access controls to different functions\nimport \"./AccessControl.sol\";\n\n// Prevents stuck ether\nimport \"openzeppelin-solidity/contracts/ownership/HasNoEther.sol\";\n\n// For safe maths operations\nimport \"openzeppelin-solidity/contracts/math/SafeMath.sol\";\n\n// Pause purchasing only in case of emergency/migration\nimport \"openzeppelin-solidity/contracts/lifecycle/Pausable.sol\";\n\n// ERC721\nimport \"openzeppelin-solidity/contracts/token/ERC721/ERC721Token.sol\";\n\n// Utils only\nimport \"./Strings.sol\";\n\n/**\n* @title KnownOriginDigitalAsset - V2\n*\n* http://www.knownorigin.io/\n*\n* ERC721 compliant digital assets for real-world artwork.\n*\n* Base NFT Issuance Contract\n*\n* BE ORIGINAL. BUY ORIGINAL.\n*\n*/\ncontract KnownOriginDigitalAssetV2 is\nERC721Token,\nAccessControl,\nHasNoEther,\nPausable\n{\n  using SafeMath for uint256;\n\n  ////////////\n  // Events //\n  ////////////\n\n  // Emitted on purchases from within this contract\n  event Purchase(\n    uint256 indexed _tokenId,\n    uint256 indexed _editionNumber,\n    address indexed _buyer,\n    uint256 _priceInWei\n  );\n\n  // Emitted on every mint\n  event Minted(\n    uint256 indexed _tokenId,\n    uint256 indexed _editionNumber,\n    address indexed _buyer\n  );\n\n  // Emitted on every edition created\n  event EditionCreated(\n    uint256 indexed _editionNumber,\n    bytes32 indexed _editionData,\n    uint256 indexed _editionType\n  );\n\n  ////////////////\n  // Properties //\n  ////////////////\n\n  uint256 constant internal MAX_UINT32 = ~uint32(0);\n\n  string public tokenBaseURI = \"https://ipfs.infura.io/ipfs/\";\n\n  // simple counter to keep track of the highest edition number used\n  uint256 public highestEditionNumber;\n\n  // total wei been processed through the contract\n  uint256 public totalPurchaseValueInWei;\n\n  // number of assets minted of any type\n  uint256 public totalNumberMinted;\n\n  // number of assets available of any type\n  uint256 public totalNumberAvailable;\n\n  // the KO account which can receive commission\n  address public koCommissionAccount;\n\n  // Optional commission split can be defined per edition\n  mapping(uint256 => CommissionSplit) editionNumberToOptionalCommissionSplit;\n\n  // Simple structure providing an optional commission split per edition purchase\n  struct CommissionSplit {\n    uint256 rate;\n    address recipient;\n  }\n\n  // Object for edition details\n  struct EditionDetails {\n    // Identifiers\n    uint256 editionNumber;    // the range e.g. 10000\n    bytes32 editionData;      // some data about the edition\n    uint256 editionType;      // e.g. 1 = KODA V1, 2 = KOTA, 3 = Bespoke partnership\n    // Config\n    uint256 startDate;        // date when the edition goes on sale\n    uint256 endDate;          // date when the edition is available until\n    address artistAccount;    // artists account\n    uint256 artistCommission; // base artists commission, could be overridden by external contracts\n    uint256 priceInWei;       // base price for edition, could be overridden by external contracts\n    string tokenURI;          // IPFS hash - see base URI\n    bool active;              // Root control - on/off for the edition\n    // Counters\n    uint256 totalSupply;      // Total purchases or mints\n    uint256 totalAvailable;   // Total number available to be purchased\n  }\n\n  // _editionNumber : EditionDetails\n  mapping(uint256 => EditionDetails) internal editionNumberToEditionDetails;\n\n  // _tokenId : _editionNumber\n  mapping(uint256 => uint256) internal tokenIdToEditionNumber;\n\n  // _editionNumber : [_tokenId, _tokenId]\n  mapping(uint256 => uint256[]) internal editionNumberToTokenIds;\n  mapping(uint256 => uint256) internal editionNumberToTokenIdIndex;\n\n  // _artistAccount : [_editionNumber, _editionNumber]\n  mapping(address => uint256[]) internal artistToEditionNumbers;\n  mapping(uint256 => uint256) internal editionNumberToArtistIndex;\n\n  // _editionType : [_editionNumber, _editionNumber]\n  mapping(uint256 => uint256[]) internal editionTypeToEditionNumber;\n  mapping(uint256 => uint256) internal editionNumberToTypeIndex;\n\n  ///////////////\n  // Modifiers //\n  ///////////////\n\n  modifier onlyAvailableEdition(uint256 _editionNumber) {\n    require(editionNumberToEditionDetails[_editionNumber].totalSupply < editionNumberToEditionDetails[_editionNumber].totalAvailable, \"No more editions left to purchase\");\n    _;\n  }\n\n  modifier onlyActiveEdition(uint256 _editionNumber) {\n    require(editionNumberToEditionDetails[_editionNumber].active, \"Edition not active\");\n    _;\n  }\n\n  modifier onlyRealEdition(uint256 _editionNumber) {\n    require(editionNumberToEditionDetails[_editionNumber].editionNumber > 0, \"Edition number invalid\");\n    _;\n  }\n\n  modifier onlyValidTokenId(uint256 _tokenId) {\n    require(exists(_tokenId), \"Token ID does not exist\");\n    _;\n  }\n\n  modifier onlyPurchaseDuringWindow(uint256 _editionNumber) {\n    require(editionNumberToEditionDetails[_editionNumber].startDate <= block.timestamp, \"Edition not available yet\");\n    require(editionNumberToEditionDetails[_editionNumber].endDate >= block.timestamp, \"Edition no longer available\");\n    _;\n  }\n\n  /*\n   * Constructor\n   */\n  constructor () public payable ERC721Token(\"KnownOriginDigitalAsset\", \"KODA\") {\n    // set commission account to contract creator\n    koCommissionAccount = msg.sender;\n  }\n\n  /**\n   * @dev Creates an active edition from the given configuration\n   * @dev Only callable from KO staff/addresses\n   */\n  function createActiveEdition(\n    uint256 _editionNumber,\n    bytes32 _editionData,\n    uint256 _editionType,\n    uint256 _startDate,\n    uint256 _endDate,\n    address _artistAccount,\n    uint256 _artistCommission,\n    uint256 _priceInWei,\n    string _tokenURI,\n    uint256 _totalAvailable\n  )\n  public\n  onlyIfKnownOrigin\n  returns (bool)\n  {\n    return _createEdition(_editionNumber, _editionData, _editionType, _startDate, _endDate, _artistAccount, _artistCommission, _priceInWei, _tokenURI, _totalAvailable, true);\n  }\n\n  /**\n   * @dev Creates an inactive edition from the given configuration\n   * @dev Only callable from KO staff/addresses\n   */\n  function createInactiveEdition(\n    uint256 _editionNumber,\n    bytes32 _editionData,\n    uint256 _editionType,\n    uint256 _startDate,\n    uint256 _endDate,\n    address _artistAccount,\n    uint256 _artistCommission,\n    uint256 _priceInWei,\n    string _tokenURI,\n    uint256 _totalAvailable\n  )\n  public\n  onlyIfKnownOrigin\n  returns (bool)\n  {\n    return _createEdition(_editionNumber, _editionData, _editionType, _startDate, _endDate, _artistAccount, _artistCommission, _priceInWei, _tokenURI, _totalAvailable, false);\n  }\n\n  /**\n   * @dev Creates an active edition from the given configuration\n   * @dev The concept of pre0minted editions means we can 'undermint' token IDS, good for holding back editions from public sale\n   * @dev Only callable from KO staff/addresses\n   */\n  function createActivePreMintedEdition(\n    uint256 _editionNumber,\n    bytes32 _editionData,\n    uint256 _editionType,\n    uint256 _startDate,\n    uint256 _endDate,\n    address _artistAccount,\n    uint256 _artistCommission,\n    uint256 _priceInWei,\n    string _tokenURI,\n    uint256 _totalSupply,\n    uint256 _totalAvailable\n  )\n  public\n  onlyIfKnownOrigin\n  returns (bool)\n  {\n    _createEdition(_editionNumber, _editionData, _editionType, _startDate, _endDate, _artistAccount, _artistCommission, _priceInWei, _tokenURI, _totalAvailable, true);\n    updateTotalSupply(_editionNumber, _totalSupply);\n    return true;\n  }\n\n  /**\n   * @dev Creates an inactive edition from the given configuration\n   * @dev The concept of pre0minted editions means we can 'undermint' token IDS, good for holding back editions from public sale\n   * @dev Only callable from KO staff/addresses\n   */\n  function createInactivePreMintedEdition(\n    uint256 _editionNumber,\n    bytes32 _editionData,\n    uint256 _editionType,\n    uint256 _startDate,\n    uint256 _endDate,\n    address _artistAccount,\n    uint256 _artistCommission,\n    uint256 _priceInWei,\n    string _tokenURI,\n    uint256 _totalSupply,\n    uint256 _totalAvailable\n  )\n  public\n  onlyIfKnownOrigin\n  returns (bool)\n  {\n    _createEdition(_editionNumber, _editionData, _editionType, _startDate, _endDate, _artistAccount, _artistCommission, _priceInWei, _tokenURI, _totalAvailable, false);\n    updateTotalSupply(_editionNumber, _totalSupply);\n    return true;\n  }\n\n  /**\n   * @dev Internal factory method for building editions\n   */\n  function _createEdition(\n    uint256 _editionNumber,\n    bytes32 _editionData,\n    uint256 _editionType,\n    uint256 _startDate,\n    uint256 _endDate,\n    address _artistAccount,\n    uint256 _artistCommission,\n    uint256 _priceInWei,\n    string _tokenURI,\n    uint256 _totalAvailable,\n    bool _active\n  )\n  internal\n  returns (bool)\n  {\n    // Prevent missing edition number\n    require(_editionNumber != 0, \"Edition number not provided\");\n\n    // Prevent edition number lower than last one used\n    require(_editionNumber > highestEditionNumber, \"Edition number must be greater than previously used\");\n\n    // Check previously edition plus total available is less than new edition number\n    require(highestEditionNumber.add(editionNumberToEditionDetails[highestEditionNumber].totalAvailable) < _editionNumber, \"Edition number must be greater than previously used plus total available\");\n\n    // Prevent missing types\n    require(_editionType != 0, \"Edition type not provided\");\n\n    // Prevent missing token URI\n    require(bytes(_tokenURI).length != 0, \"Token URI is missing\");\n\n    // Prevent empty artists address\n    require(_artistAccount != address(0), \"Artist account not provided\");\n\n    // Prevent invalid commissions\n    require(_artistCommission <= 100 && _artistCommission >= 0, \"Artist commission cannot be greater than 100 or less than 0\");\n\n    // Prevent duplicate editions\n    require(editionNumberToEditionDetails[_editionNumber].editionNumber == 0, \"Edition already in existence\");\n\n    // Default end date to max uint256\n    uint256 endDate = _endDate;\n    if (_endDate == 0) {\n      endDate = MAX_UINT32;\n    }\n\n    editionNumberToEditionDetails[_editionNumber] = EditionDetails({\n      editionNumber : _editionNumber,\n      editionData : _editionData,\n      editionType : _editionType,\n      startDate : _startDate,\n      endDate : endDate,\n      artistAccount : _artistAccount,\n      artistCommission : _artistCommission,\n      priceInWei : _priceInWei,\n      tokenURI : _tokenURI,\n      totalSupply : 0, // default to all available\n      totalAvailable : _totalAvailable,\n      active : _active\n      });\n\n    // Add to total available count\n    totalNumberAvailable = totalNumberAvailable.add(_totalAvailable);\n\n    // Update mappings\n    _updateArtistLookupData(_artistAccount, _editionNumber);\n    _updateEditionTypeLookupData(_editionType, _editionNumber);\n\n    emit EditionCreated(_editionNumber, _editionData, _editionType);\n\n    // Update the edition pointer if needs be\n    highestEditionNumber = _editionNumber;\n\n    return true;\n  }\n\n  function _updateEditionTypeLookupData(uint256 _editionType, uint256 _editionNumber) internal {\n    uint256 typeEditionIndex = editionTypeToEditionNumber[_editionType].length;\n    editionTypeToEditionNumber[_editionType].push(_editionNumber);\n    editionNumberToTypeIndex[_editionNumber] = typeEditionIndex;\n  }\n\n  function _updateArtistLookupData(address _artistAccount, uint256 _editionNumber) internal {\n    uint256 artistEditionIndex = artistToEditionNumbers[_artistAccount].length;\n    artistToEditionNumbers[_artistAccount].push(_editionNumber);\n    editionNumberToArtistIndex[_editionNumber] = artistEditionIndex;\n  }\n\n  /**\n   * @dev Public entry point for purchasing an edition\n   * @dev Reverts if edition is invalid\n   * @dev Reverts if payment not provided in full\n   * @dev Reverts if edition is sold out\n   * @dev Reverts if edition is not active or available\n   */\n  function purchase(uint256 _editionNumber)\n  public\n  payable\n  returns (uint256) {\n    return purchaseTo(msg.sender, _editionNumber);\n  }\n\n  /**\n   * @dev Public entry point for purchasing an edition on behalf of someone else\n   * @dev Reverts if edition is invalid\n   * @dev Reverts if payment not provided in full\n   * @dev Reverts if edition is sold out\n   * @dev Reverts if edition is not active or available\n   */\n  function purchaseTo(address _to, uint256 _editionNumber)\n  public\n  payable\n  whenNotPaused\n  onlyRealEdition(_editionNumber)\n  onlyActiveEdition(_editionNumber)\n  onlyAvailableEdition(_editionNumber)\n  onlyPurchaseDuringWindow(_editionNumber)\n  returns (uint256) {\n\n    EditionDetails storage _editionDetails = editionNumberToEditionDetails[_editionNumber];\n    require(msg.value >= _editionDetails.priceInWei, \"Value must be greater than price of edition\");\n\n    // Construct next token ID e.g. 100000 + 1 = ID of 100001 (this first in the edition set)\n    uint256 _tokenId = _nextTokenId(_editionNumber);\n\n    // Create the token\n    _mintToken(_to, _tokenId, _editionNumber, _editionDetails.tokenURI);\n\n    // Splice funds and handle commissions\n    _handleFunds(_editionNumber, _editionDetails.priceInWei, _editionDetails.artistAccount, _editionDetails.artistCommission);\n\n    // Broadcast purchase\n    emit Purchase(_tokenId, _editionNumber, _to, msg.value);\n\n    return _tokenId;\n  }\n\n  /**\n   * @dev Private (KO only) method for minting editions\n   * @dev Payment not needed for this method\n   */\n  function mint(address _to, uint256 _editionNumber)\n  public\n  onlyIfMinter\n  onlyRealEdition(_editionNumber)\n  onlyAvailableEdition(_editionNumber)\n  returns (uint256) {\n    // Construct next token ID e.g. 100000 + 1 = ID of 100001 (this first in the edition set)\n    uint256 _tokenId = _nextTokenId(_editionNumber);\n\n    // Create the token\n    _mintToken(_to, _tokenId, _editionNumber, editionNumberToEditionDetails[_editionNumber].tokenURI);\n\n    // Create the token\n    return _tokenId;\n  }\n\n  /**\n   * @dev Private (KO only) method for under minting editions\n   * @dev Under minting allows for token IDs to be back filled if total supply is not set to zero by default\n   * @dev Payment not needed for this method\n   */\n  function underMint(address _to, uint256 _editionNumber)\n  public\n  onlyIfUnderMinter\n  onlyRealEdition(_editionNumber)\n  returns (uint256) {\n    // Under mint token, meaning it takes one from the already sold version\n    uint256 _tokenId = _underMintNextTokenId(_editionNumber);\n\n    // If the next tokenId generate is more than the available number, abort as we have reached maximum under mint\n    if (_tokenId > _editionNumber.add(editionNumberToEditionDetails[_editionNumber].totalAvailable)) {\n      revert(\"Reached max tokenId, cannot under mint anymore\");\n    }\n\n    // Create the token\n    _mintToken(_to, _tokenId, _editionNumber, editionNumberToEditionDetails[_editionNumber].tokenURI);\n\n    // Create the token\n    return _tokenId;\n  }\n\n  function _nextTokenId(uint256 _editionNumber) internal returns (uint256) {\n    EditionDetails storage _editionDetails = editionNumberToEditionDetails[_editionNumber];\n\n    // Bump number totalSupply\n    _editionDetails.totalSupply = _editionDetails.totalSupply.add(1);\n\n    // Construct next token ID e.g. 100000 + 1 = ID of 100001 (this first in the edition set)\n    return _editionDetails.editionNumber.add(_editionDetails.totalSupply);\n  }\n\n  function _underMintNextTokenId(uint256 _editionNumber) internal returns (uint256) {\n    EditionDetails storage _editionDetails = editionNumberToEditionDetails[_editionNumber];\n\n    // For old editions start the counter as edition + 1\n    uint256 _tokenId = _editionDetails.editionNumber.add(1);\n\n    // Work your way up until you find a free token based on the new _tokenIdd\n    while (exists(_tokenId)) {\n      _tokenId = _tokenId.add(1);\n    }\n\n    // Bump number totalSupply if we are now over minting new tokens\n    if (_tokenId > _editionDetails.editionNumber.add(_editionDetails.totalSupply)) {\n      _editionDetails.totalSupply = _editionDetails.totalSupply.add(1);\n    }\n\n    return _tokenId;\n  }\n\n  function _mintToken(address _to, uint256 _tokenId, uint256 _editionNumber, string _tokenURI) internal {\n\n    // Mint new base token\n    super._mint(_to, _tokenId);\n    super._setTokenURI(_tokenId, _tokenURI);\n\n    // Maintain mapping for tokenId to edition for lookup\n    tokenIdToEditionNumber[_tokenId] = _editionNumber;\n\n    // Get next insert position for edition to token Id mapping\n    uint256 currentIndexOfTokenId = editionNumberToTokenIds[_editionNumber].length;\n\n    // Maintain mapping of edition to token array for \"edition minted tokens\"\n    editionNumberToTokenIds[_editionNumber].push(_tokenId);\n\n    // Maintain a position index for the tokenId within the edition number mapping array, used for clean up token burn\n    editionNumberToTokenIdIndex[_tokenId] = currentIndexOfTokenId;\n\n    // Record sale volume\n    totalNumberMinted = totalNumberMinted.add(1);\n\n    // Emit minted event\n    emit Minted(_tokenId, _editionNumber, _to);\n  }\n\n  function _handleFunds(uint256 _editionNumber, uint256 _priceInWei, address _artistAccount, uint256 _artistCommission) internal {\n\n    // Extract the artists commission and send it\n    uint256 artistPayment = _priceInWei.div(100).mul(_artistCommission);\n    if (artistPayment > 0) {\n      _artistAccount.transfer(artistPayment);\n    }\n\n    // Load any commission overrides\n    CommissionSplit storage commission = editionNumberToOptionalCommissionSplit[_editionNumber];\n\n    // Apply optional commission structure\n    if (commission.rate > 0) {\n      uint256 rateSplit = _priceInWei.div(100).mul(commission.rate);\n      commission.recipient.transfer(rateSplit);\n    }\n\n    // Send remaining eth to KO\n    uint256 remainingCommission = msg.value.sub(artistPayment).sub(rateSplit);\n    koCommissionAccount.transfer(remainingCommission);\n\n    // Record wei sale value\n    totalPurchaseValueInWei = totalPurchaseValueInWei.add(msg.value);\n  }\n\n  /**\n   * @dev Private (KO only) method for burning tokens which have been created incorrectly\n   */\n  function burn(uint256 _tokenId) public onlyIfKnownOrigin {\n\n    // Clear from parents\n    super._burn(ownerOf(_tokenId), _tokenId);\n\n    // Get hold of the edition for cleanup\n    uint256 _editionNumber = tokenIdToEditionNumber[_tokenId];\n\n    // Delete token ID mapping\n    delete tokenIdToEditionNumber[_tokenId];\n\n    // Delete tokens associated to the edition - this will leave a gap in the array of zero\n    uint256[] storage tokenIdsForEdition = editionNumberToTokenIds[_editionNumber];\n    uint256 editionTokenIdIndex = editionNumberToTokenIdIndex[_tokenId];\n    delete tokenIdsForEdition[editionTokenIdIndex];\n  }\n\n  /**\n   * @dev An extension to the default ERC721 behaviour, derived from ERC-875.\n   * @dev Allowing for batch transfers from the sender, will fail if from does not own all the tokens\n   */\n  function batchTransfer(address _to, uint256[] _tokenIds) public {\n    for (uint i = 0; i < _tokenIds.length; i++) {\n      safeTransferFrom(ownerOf(_tokenIds[i]), _to, _tokenIds[i]);\n    }\n  }\n\n  /**\n   * @dev An extension to the default ERC721 behaviour, derived from ERC-875.\n   * @dev Allowing for batch transfers from the provided address, will fail if from does not own all the tokens\n   */\n  function batchTransferFrom(address _from, address _to, uint256[] _tokenIds) public {\n    for (uint i = 0; i < _tokenIds.length; i++) {\n      transferFrom(_from, _to, _tokenIds[i]);\n    }\n  }\n\n  //////////////////\n  // Base Updates //\n  //////////////////\n\n  function updateTokenBaseURI(string _newBaseURI)\n  external\n  onlyIfKnownOrigin {\n    require(bytes(_newBaseURI).length != 0, \"Base URI invalid\");\n    tokenBaseURI = _newBaseURI;\n  }\n\n  function updateKoCommissionAccount(address _koCommissionAccount)\n  external\n  onlyIfKnownOrigin {\n    require(_koCommissionAccount != address(0), \"Invalid address\");\n    koCommissionAccount = _koCommissionAccount;\n  }\n\n  /////////////////////\n  // Edition Updates //\n  /////////////////////\n\n  function updateEditionTokenURI(uint256 _editionNumber, string _uri)\n  external\n  onlyIfKnownOrigin\n  onlyRealEdition(_editionNumber) {\n    editionNumberToEditionDetails[_editionNumber].tokenURI = _uri;\n  }\n\n  function updatePriceInWei(uint256 _editionNumber, uint256 _priceInWei)\n  external\n  onlyIfKnownOrigin\n  onlyRealEdition(_editionNumber) {\n    editionNumberToEditionDetails[_editionNumber].priceInWei = _priceInWei;\n  }\n\n  function updateArtistCommission(uint256 _editionNumber, uint256 _rate)\n  external\n  onlyIfKnownOrigin\n  onlyRealEdition(_editionNumber) {\n    editionNumberToEditionDetails[_editionNumber].artistCommission = _rate;\n  }\n\n  function updateArtistsAccount(uint256 _editionNumber, address _artistAccount)\n  external\n  onlyIfKnownOrigin\n  onlyRealEdition(_editionNumber) {\n\n    EditionDetails storage _originalEditionDetails = editionNumberToEditionDetails[_editionNumber];\n\n    uint256 editionArtistIndex = editionNumberToArtistIndex[_editionNumber];\n\n    // Get list of editions old artist works with\n    uint256[] storage editionNumbersForArtist = artistToEditionNumbers[_originalEditionDetails.artistAccount];\n\n    // Remove edition from artists lists\n    delete editionNumbersForArtist[editionArtistIndex];\n\n    // Add new artists to the list\n    uint256 newArtistsEditionIndex = artistToEditionNumbers[_artistAccount].length;\n    artistToEditionNumbers[_artistAccount].push(_editionNumber);\n    editionNumberToArtistIndex[_editionNumber] = newArtistsEditionIndex;\n\n    // Update the edition\n    _originalEditionDetails.artistAccount = _artistAccount;\n  }\n\n  function updateEditionType(uint256 _editionNumber, uint256 _editionType)\n  external\n  onlyIfKnownOrigin\n  onlyRealEdition(_editionNumber) {\n\n    EditionDetails storage _originalEditionDetails = editionNumberToEditionDetails[_editionNumber];\n\n    // Get list of editions for old type\n    uint256[] storage editionNumbersForType = editionTypeToEditionNumber[_originalEditionDetails.editionType];\n\n    // Remove edition from old type list\n    uint256 editionTypeIndex = editionNumberToTypeIndex[_editionNumber];\n    delete editionNumbersForType[editionTypeIndex];\n\n    // Add new type to the list\n    uint256 newTypeEditionIndex = editionTypeToEditionNumber[_editionType].length;\n    editionTypeToEditionNumber[_editionType].push(_editionNumber);\n    editionNumberToTypeIndex[_editionNumber] = newTypeEditionIndex;\n\n    // Update the edition\n    _originalEditionDetails.editionType = _editionType;\n  }\n\n  function updateActive(uint256 _editionNumber, bool _active)\n  external\n  onlyIfKnownOrigin\n  onlyRealEdition(_editionNumber) {\n    editionNumberToEditionDetails[_editionNumber].active = _active;\n  }\n\n  function updateTotalSupply(uint256 _editionNumber, uint256 _totalSupply)\n  public\n  onlyIfKnownOrigin\n  onlyRealEdition(_editionNumber) {\n    require(tokensOfEdition(_editionNumber).length <= _totalSupply, \"Can not lower totalSupply to below the number of tokens already in existence\");\n    editionNumberToEditionDetails[_editionNumber].totalSupply = _totalSupply;\n  }\n\n  function updateTotalAvailable(uint256 _editionNumber, uint256 _totalAvailable)\n  external\n  onlyIfKnownOrigin\n  onlyRealEdition(_editionNumber) {\n    EditionDetails storage _editionDetails = editionNumberToEditionDetails[_editionNumber];\n\n    require(_editionDetails.totalSupply <= _totalAvailable, \"Unable to reduce available amount to the below the number totalSupply\");\n\n    uint256 originalAvailability = _editionDetails.totalAvailable;\n    _editionDetails.totalAvailable = _totalAvailable;\n    totalNumberAvailable = totalNumberAvailable.sub(originalAvailability).add(_totalAvailable);\n  }\n\n  function updateStartDate(uint256 _editionNumber, uint256 _startDate)\n  external\n  onlyIfKnownOrigin\n  onlyRealEdition(_editionNumber) {\n    editionNumberToEditionDetails[_editionNumber].startDate = _startDate;\n  }\n\n  function updateEndDate(uint256 _editionNumber, uint256 _endDate)\n  external\n  onlyIfKnownOrigin\n  onlyRealEdition(_editionNumber) {\n    editionNumberToEditionDetails[_editionNumber].endDate = _endDate;\n  }\n\n  function updateOptionalCommission(uint256 _editionNumber, uint256 _rate, address _recipient)\n  external\n  onlyIfKnownOrigin\n  onlyRealEdition(_editionNumber) {\n    EditionDetails storage _editionDetails = editionNumberToEditionDetails[_editionNumber];\n    uint256 artistCommission = _editionDetails.artistCommission;\n\n    if (_rate > 0) {\n      require(_recipient != address(0), \"Setting a rate must be accompanied by a valid address\");\n    }\n    require(artistCommission.add(_rate) <= 100, \"Cant set commission greater than 100%\");\n\n    editionNumberToOptionalCommissionSplit[_editionNumber] = CommissionSplit({rate : _rate, recipient : _recipient});\n  }\n\n  ///////////////////\n  // Token Updates //\n  ///////////////////\n\n  function setTokenURI(uint256 _tokenId, string _uri)\n  external\n  onlyIfKnownOrigin\n  onlyValidTokenId(_tokenId) {\n    _setTokenURI(_tokenId, _uri);\n  }\n\n  ///////////////////\n  // Query Methods //\n  ///////////////////\n\n  /**\n   * @dev Lookup the edition of the provided token ID\n   * @dev Returns 0 if not valid\n   */\n  function editionOfTokenId(uint256 _tokenId) public view returns (uint256 _editionNumber) {\n    return tokenIdToEditionNumber[_tokenId];\n  }\n\n  /**\n   * @dev Lookup all editions added for the given edition type\n   * @dev Returns array of edition numbers, any zero edition ids can be ignore/stripped\n   */\n  function editionsOfType(uint256 _type) public view returns (uint256[] _editionNumbers) {\n    return editionTypeToEditionNumber[_type];\n  }\n\n  /**\n   * @dev Lookup all editions for the given artist account\n   * @dev Returns empty list if not valid\n   */\n  function artistsEditions(address _artistsAccount) public view returns (uint256[] _editionNumbers) {\n    return artistToEditionNumbers[_artistsAccount];\n  }\n\n  /**\n   * @dev Lookup all tokens minted for the given edition number\n   * @dev Returns array of token IDs, any zero edition ids can be ignore/stripped\n   */\n  function tokensOfEdition(uint256 _editionNumber) public view returns (uint256[] _tokenIds) {\n    return editionNumberToTokenIds[_editionNumber];\n  }\n\n  /**\n   * @dev Lookup all owned tokens for the provided address\n   * @dev Returns array of token IDs\n   */\n  function tokensOf(address _owner) public view returns (uint256[] _tokenIds) {\n    return ownedTokens[_owner];\n  }\n\n  /**\n   * @dev Checks to see if the edition exists, assumes edition of zero is invalid\n   */\n  function editionExists(uint256 _editionNumber) public view returns (bool) {\n    if (_editionNumber == 0) {\n      return false;\n    }\n    EditionDetails storage editionNumber = editionNumberToEditionDetails[_editionNumber];\n    return editionNumber.editionNumber == _editionNumber;\n  }\n\n  /**\n   * @dev Lookup any optional commission split set for the edition\n   * @dev Both values will be zero if not present\n   */\n  function editionOptionalCommission(uint256 _editionNumber) public view returns (uint256 _rate, address _recipient) {\n    CommissionSplit storage commission = editionNumberToOptionalCommissionSplit[_editionNumber];\n    return (commission.rate, commission.recipient);\n  }\n\n  /**\n   * @dev Main entry point for looking up edition config/metadata\n   * @dev Reverts if invalid edition number provided\n   */\n  function detailsOfEdition(uint256 editionNumber)\n  public view\n  onlyRealEdition(editionNumber)\n  returns (\n    bytes32 _editionData,\n    uint256 _editionType,\n    uint256 _startDate,\n    uint256 _endDate,\n    address _artistAccount,\n    uint256 _artistCommission,\n    uint256 _priceInWei,\n    string _tokenURI,\n    uint256 _totalSupply,\n    uint256 _totalAvailable,\n    bool _active\n  ) {\n    EditionDetails storage _editionDetails = editionNumberToEditionDetails[editionNumber];\n    return (\n    _editionDetails.editionData,\n    _editionDetails.editionType,\n    _editionDetails.startDate,\n    _editionDetails.endDate,\n    _editionDetails.artistAccount,\n    _editionDetails.artistCommission,\n    _editionDetails.priceInWei,\n    Strings.strConcat(tokenBaseURI, _editionDetails.tokenURI),\n    _editionDetails.totalSupply,\n    _editionDetails.totalAvailable,\n    _editionDetails.active\n    );\n  }\n\n  /**\n   * @dev Lookup a tokens common identifying characteristics\n   * @dev Reverts if invalid token ID provided\n   */\n  function tokenData(uint256 _tokenId)\n  public view\n  onlyValidTokenId(_tokenId)\n  returns (\n    uint256 _editionNumber,\n    uint256 _editionType,\n    bytes32 _editionData,\n    string _tokenURI,\n    address _owner\n  ) {\n    uint256 editionNumber = tokenIdToEditionNumber[_tokenId];\n    EditionDetails storage editionDetails = editionNumberToEditionDetails[editionNumber];\n    return (\n    editionNumber,\n    editionDetails.editionType,\n    editionDetails.editionData,\n    tokenURI(_tokenId),\n    ownerOf(_tokenId)\n    );\n  }\n\n  function tokenURI(uint256 _tokenId) public view onlyValidTokenId(_tokenId) returns (string) {\n    return Strings.strConcat(tokenBaseURI, tokenURIs[_tokenId]);\n  }\n\n  function tokenURISafe(uint256 _tokenId) public view returns (string) {\n    return Strings.strConcat(tokenBaseURI, tokenURIs[_tokenId]);\n  }\n\n  function purchaseDatesToken(uint256 _tokenId) public view returns (uint256 _startDate, uint256 _endDate) {\n    uint256 _editionNumber = tokenIdToEditionNumber[_tokenId];\n    return purchaseDatesEdition(_editionNumber);\n  }\n\n  function priceInWeiToken(uint256 _tokenId) public view returns (uint256 _priceInWei) {\n    uint256 _editionNumber = tokenIdToEditionNumber[_tokenId];\n    return priceInWeiEdition(_editionNumber);\n  }\n\n  //////////////////////////\n  // Edition config query //\n  //////////////////////////\n\n  function editionData(uint256 _editionNumber) public view returns (bytes32) {\n    EditionDetails storage _editionDetails = editionNumberToEditionDetails[_editionNumber];\n    return _editionDetails.editionData;\n  }\n\n  function editionType(uint256 _editionNumber) public view returns (uint256) {\n    EditionDetails storage _editionDetails = editionNumberToEditionDetails[_editionNumber];\n    return _editionDetails.editionType;\n  }\n\n  function purchaseDatesEdition(uint256 _editionNumber) public view returns (uint256 _startDate, uint256 _endDate) {\n    EditionDetails storage _editionDetails = editionNumberToEditionDetails[_editionNumber];\n    return (\n    _editionDetails.startDate,\n    _editionDetails.endDate\n    );\n  }\n\n  function artistCommission(uint256 _editionNumber) public view returns (address _artistAccount, uint256 _artistCommission) {\n    EditionDetails storage _editionDetails = editionNumberToEditionDetails[_editionNumber];\n    return (\n    _editionDetails.artistAccount,\n    _editionDetails.artistCommission\n    );\n  }\n\n  function priceInWeiEdition(uint256 _editionNumber) public view returns (uint256 _priceInWei) {\n    EditionDetails storage _editionDetails = editionNumberToEditionDetails[_editionNumber];\n    return _editionDetails.priceInWei;\n  }\n\n  function tokenURIEdition(uint256 _editionNumber) public view returns (string) {\n    EditionDetails storage _editionDetails = editionNumberToEditionDetails[_editionNumber];\n    return Strings.strConcat(tokenBaseURI, _editionDetails.tokenURI);\n  }\n\n  function editionActive(uint256 _editionNumber) public view returns (bool) {\n    EditionDetails storage _editionDetails = editionNumberToEditionDetails[_editionNumber];\n    return _editionDetails.active;\n  }\n\n  function totalRemaining(uint256 _editionNumber) public view returns (uint256) {\n    EditionDetails storage _editionDetails = editionNumberToEditionDetails[_editionNumber];\n    return _editionDetails.totalAvailable.sub(_editionDetails.totalSupply);\n  }\n\n  function totalAvailableEdition(uint256 _editionNumber) public view returns (uint256) {\n    EditionDetails storage _editionDetails = editionNumberToEditionDetails[_editionNumber];\n    return _editionDetails.totalAvailable;\n  }\n\n  function totalSupplyEdition(uint256 _editionNumber) public view returns (uint256) {\n    EditionDetails storage _editionDetails = editionNumberToEditionDetails[_editionNumber];\n    return _editionDetails.totalSupply;\n  }\n\n}\n",
  "sourcePath": "/Users/jamesmorgan/Dropbox/workspace-blockrocket/known-origin-web3-marketplace/contracts/v2/KnownOriginDigitalAssetV2.sol",
  "compiler": {
    "name": "solc",
    "version": "0.4.24+commit.e67f0147.Emscripten.clang"
  },
  "schemaVersion": "3.0.0-beta.1",
  "updatedAt": "2018-10-12T10:21:46.508Z"
}