{
  "contractName": "SelfServiceEditionCuration",
  "abi": [
    {
      "constant": true,
      "inputs": [
        {
          "name": "",
          "type": "address"
        }
      ],
      "name": "timeOfFirstInvocationInPeriod",
      "outputs": [
        {
          "name": "",
          "type": "uint256"
        }
      ],
      "payable": false,
      "stateMutability": "view",
      "type": "function",
      "signature": "0x2ec8d5bb"
    },
    {
      "constant": false,
      "inputs": [],
      "name": "unpause",
      "outputs": [],
      "payable": false,
      "stateMutability": "nonpayable",
      "type": "function",
      "signature": "0x3f4ba83a"
    },
    {
      "constant": true,
      "inputs": [
        {
          "name": "",
          "type": "address"
        }
      ],
      "name": "invocationsInTimePeriod",
      "outputs": [
        {
          "name": "",
          "type": "uint256"
        }
      ],
      "payable": false,
      "stateMutability": "view",
      "type": "function",
      "signature": "0x43ce3354"
    },
    {
      "constant": true,
      "inputs": [
        {
          "name": "",
          "type": "address"
        }
      ],
      "name": "allowedArtists",
      "outputs": [
        {
          "name": "",
          "type": "bool"
        }
      ],
      "payable": false,
      "stateMutability": "view",
      "type": "function",
      "signature": "0x46f7c98a"
    },
    {
      "constant": true,
      "inputs": [],
      "name": "kodaV2",
      "outputs": [
        {
          "name": "",
          "type": "address"
        }
      ],
      "payable": false,
      "stateMutability": "view",
      "type": "function",
      "signature": "0x5b638fa5"
    },
    {
      "constant": true,
      "inputs": [],
      "name": "paused",
      "outputs": [
        {
          "name": "",
          "type": "bool"
        }
      ],
      "payable": false,
      "stateMutability": "view",
      "type": "function",
      "signature": "0x5c975abb"
    },
    {
      "constant": true,
      "inputs": [],
      "name": "maxInvocations",
      "outputs": [
        {
          "name": "",
          "type": "uint256"
        }
      ],
      "payable": false,
      "stateMutability": "view",
      "type": "function",
      "signature": "0x6cbdef61"
    },
    {
      "constant": false,
      "inputs": [],
      "name": "renounceOwnership",
      "outputs": [],
      "payable": false,
      "stateMutability": "nonpayable",
      "type": "function",
      "signature": "0x715018a6"
    },
    {
      "constant": true,
      "inputs": [],
      "name": "maxEditionSize",
      "outputs": [
        {
          "name": "",
          "type": "uint256"
        }
      ],
      "payable": false,
      "stateMutability": "view",
      "type": "function",
      "signature": "0x7b37ce4f"
    },
    {
      "constant": true,
      "inputs": [],
      "name": "auction",
      "outputs": [
        {
          "name": "",
          "type": "address"
        }
      ],
      "payable": false,
      "stateMutability": "view",
      "type": "function",
      "signature": "0x7d9f6db5"
    },
    {
      "constant": false,
      "inputs": [],
      "name": "pause",
      "outputs": [],
      "payable": false,
      "stateMutability": "nonpayable",
      "type": "function",
      "signature": "0x8456cb59"
    },
    {
      "constant": true,
      "inputs": [],
      "name": "owner",
      "outputs": [
        {
          "name": "",
          "type": "address"
        }
      ],
      "payable": false,
      "stateMutability": "view",
      "type": "function",
      "signature": "0x8da5cb5b"
    },
    {
      "constant": true,
      "inputs": [],
      "name": "disableInvocationCheck",
      "outputs": [
        {
          "name": "",
          "type": "bool"
        }
      ],
      "payable": false,
      "stateMutability": "view",
      "type": "function",
      "signature": "0x8e6e1577"
    },
    {
      "constant": true,
      "inputs": [],
      "name": "artistCommission",
      "outputs": [
        {
          "name": "",
          "type": "uint256"
        }
      ],
      "payable": false,
      "stateMutability": "view",
      "type": "function",
      "signature": "0x983586b1"
    },
    {
      "constant": true,
      "inputs": [],
      "name": "maxInvocationsTimePeriod",
      "outputs": [
        {
          "name": "",
          "type": "uint256"
        }
      ],
      "payable": false,
      "stateMutability": "view",
      "type": "function",
      "signature": "0xb83281b0"
    },
    {
      "constant": true,
      "inputs": [],
      "name": "openToAllArtist",
      "outputs": [
        {
          "name": "",
          "type": "bool"
        }
      ],
      "payable": false,
      "stateMutability": "view",
      "type": "function",
      "signature": "0xe29cda48"
    },
    {
      "constant": false,
      "inputs": [
        {
          "name": "_newOwner",
          "type": "address"
        }
      ],
      "name": "transferOwnership",
      "outputs": [],
      "payable": false,
      "stateMutability": "nonpayable",
      "type": "function",
      "signature": "0xf2fde38b"
    },
    {
      "inputs": [
        {
          "name": "_kodaV2",
          "type": "address"
        },
        {
          "name": "_auction",
          "type": "address"
        }
      ],
      "payable": false,
      "stateMutability": "nonpayable",
      "type": "constructor",
      "signature": "constructor"
    },
    {
      "anonymous": false,
      "inputs": [
        {
          "indexed": true,
          "name": "_editionNumber",
          "type": "uint256"
        },
        {
          "indexed": true,
          "name": "_creator",
          "type": "address"
        },
        {
          "indexed": false,
          "name": "_priceInWei",
          "type": "uint256"
        },
        {
          "indexed": false,
          "name": "_totalAvailable",
          "type": "uint256"
        },
        {
          "indexed": false,
          "name": "_enableAuction",
          "type": "bool"
        }
      ],
      "name": "SelfServiceEditionCreated",
      "type": "event",
      "signature": "0xaa456f9f24703ca25ecf5b0bfd7bed18ed96589119418060049a312d98372766"
    },
    {
      "anonymous": false,
      "inputs": [],
      "name": "Pause",
      "type": "event",
      "signature": "0x6985a02210a168e66602d3235cb6db0e70f92b3ba4d376a33c0f3d9434bff625"
    },
    {
      "anonymous": false,
      "inputs": [],
      "name": "Unpause",
      "type": "event",
      "signature": "0x7805862f689e2f13df9f062ff482ad3ad112aca9e0847911ed832e158c525b33"
    },
    {
      "anonymous": false,
      "inputs": [
        {
          "indexed": true,
          "name": "previousOwner",
          "type": "address"
        }
      ],
      "name": "OwnershipRenounced",
      "type": "event",
      "signature": "0xf8df31144d9c2f0f6b59d69b8b98abd5459d07f2742c4df920b25aae33c64820"
    },
    {
      "anonymous": false,
      "inputs": [
        {
          "indexed": true,
          "name": "previousOwner",
          "type": "address"
        },
        {
          "indexed": true,
          "name": "newOwner",
          "type": "address"
        }
      ],
      "name": "OwnershipTransferred",
      "type": "event",
      "signature": "0x8be0079c531659141344cd1fd0a4f28419497f9722a3daafe3b4186f6b6457e0"
    },
    {
      "constant": false,
      "inputs": [
        {
          "name": "_totalAvailable",
          "type": "uint256"
        },
        {
          "name": "_priceInWei",
          "type": "uint256"
        },
        {
          "name": "_startDate",
          "type": "uint256"
        },
        {
          "name": "_tokenUri",
          "type": "string"
        },
        {
          "name": "_enableAuction",
          "type": "bool"
        }
      ],
      "name": "createEdition",
      "outputs": [
        {
          "name": "_editionNumber",
          "type": "uint256"
        }
      ],
      "payable": false,
      "stateMutability": "nonpayable",
      "type": "function",
      "signature": "0xa86f2057"
    },
    {
      "constant": false,
      "inputs": [
        {
          "name": "_artist",
          "type": "address"
        },
        {
          "name": "_totalAvailable",
          "type": "uint256"
        },
        {
          "name": "_priceInWei",
          "type": "uint256"
        },
        {
          "name": "_startDate",
          "type": "uint256"
        },
        {
          "name": "_tokenUri",
          "type": "string"
        },
        {
          "name": "_enableAuction",
          "type": "bool"
        }
      ],
      "name": "createEditionFor",
      "outputs": [
        {
          "name": "_editionNumber",
          "type": "uint256"
        }
      ],
      "payable": false,
      "stateMutability": "nonpayable",
      "type": "function",
      "signature": "0x9ca3bbb3"
    },
    {
      "constant": false,
      "inputs": [
        {
          "name": "_kodaV2",
          "type": "address"
        }
      ],
      "name": "setKodavV2",
      "outputs": [],
      "payable": false,
      "stateMutability": "nonpayable",
      "type": "function",
      "signature": "0xbbee17a3"
    },
    {
      "constant": false,
      "inputs": [
        {
          "name": "_auction",
          "type": "address"
        }
      ],
      "name": "setAuction",
      "outputs": [],
      "payable": false,
      "stateMutability": "nonpayable",
      "type": "function",
      "signature": "0xb8c6f579"
    },
    {
      "constant": false,
      "inputs": [
        {
          "name": "_artistCommission",
          "type": "uint256"
        }
      ],
      "name": "setArtistCommission",
      "outputs": [],
      "payable": false,
      "stateMutability": "nonpayable",
      "type": "function",
      "signature": "0x67a27b91"
    },
    {
      "constant": false,
      "inputs": [
        {
          "name": "_openToAllArtist",
          "type": "bool"
        }
      ],
      "name": "setOpenToAllArtist",
      "outputs": [],
      "payable": false,
      "stateMutability": "nonpayable",
      "type": "function",
      "signature": "0xdf282d91"
    },
    {
      "constant": false,
      "inputs": [
        {
          "name": "_artist",
          "type": "address"
        },
        {
          "name": "_allowed",
          "type": "bool"
        }
      ],
      "name": "setAllowedArtist",
      "outputs": [],
      "payable": false,
      "stateMutability": "nonpayable",
      "type": "function",
      "signature": "0xa2ed4088"
    },
    {
      "constant": false,
      "inputs": [
        {
          "name": "_maxEditionSize",
          "type": "uint256"
        }
      ],
      "name": "setMaxEditionSize",
      "outputs": [],
      "payable": false,
      "stateMutability": "nonpayable",
      "type": "function",
      "signature": "0x566aac2f"
    },
    {
      "constant": false,
      "inputs": [
        {
          "name": "_maxInvocations",
          "type": "uint256"
        }
      ],
      "name": "setMaxInvocations",
      "outputs": [],
      "payable": false,
      "stateMutability": "nonpayable",
      "type": "function",
      "signature": "0x97e950f7"
    },
    {
      "constant": false,
      "inputs": [
        {
          "name": "_disableInvocationCheck",
          "type": "bool"
        }
      ],
      "name": "setDisableInvocationCheck",
      "outputs": [],
      "payable": false,
      "stateMutability": "nonpayable",
      "type": "function",
      "signature": "0x21319d4d"
    },
    {
      "constant": true,
      "inputs": [
        {
          "name": "account",
          "type": "address"
        }
      ],
      "name": "isEnabledForAccount",
      "outputs": [
        {
          "name": "",
          "type": "bool"
        }
      ],
      "payable": false,
      "stateMutability": "view",
      "type": "function",
      "signature": "0x2bd3152d"
    },
    {
      "constant": false,
      "inputs": [
        {
          "name": "_withdrawalAccount",
          "type": "address"
        }
      ],
      "name": "withdrawStuckEther",
      "outputs": [],
      "payable": false,
      "stateMutability": "nonpayable",
      "type": "function",
      "signature": "0x26ccd77a"
    }
  ],
  "bytecode": "0x60806040526000805460a060020a60ff021916905560556003556004805460ff1990811690915560646006556007805490911681556008556201518060095534801561004a57600080fd5b5060405160408061129183398101604052805160209091015160008054600160a060020a0319908116331790915560018054600160a060020a03948516908316179055600280549390921692169190911790556111e5806100ac6000396000f30060806040526004361061015b5763ffffffff60e060020a60003504166321319d4d811461016057806326ccd77a1461017c5780632bd3152d1461019d5780632ec8d5bb146101d25780633f4ba83a1461020557806343ce33541461021a57806346f7c98a1461023b578063566aac2f1461025c5780635b638fa5146102745780635c975abb146102a557806367a27b91146102ba5780636cbdef61146102d2578063715018a6146102e75780637b37ce4f146102fc5780637d9f6db5146103115780638456cb59146103265780638da5cb5b1461033b5780638e6e15771461035057806397e950f714610365578063983586b11461037d5780639ca3bbb314610392578063a2ed40881461040a578063a86f205714610430578063b83281b014610497578063b8c6f579146104ac578063bbee17a3146104cd578063df282d91146104ee578063e29cda4814610508578063f2fde38b1461051d575b600080fd5b34801561016c57600080fd5b5061017a600435151561053e565b005b34801561018857600080fd5b5061017a600160a060020a0360043516610568565b3480156101a957600080fd5b506101be600160a060020a0360043516610619565b604080519115158252519081900360200190f35b3480156101de57600080fd5b506101f3600160a060020a0360043516610652565b60408051918252519081900360200190f35b34801561021157600080fd5b5061017a610664565b34801561022657600080fd5b506101f3600160a060020a03600435166106da565b34801561024757600080fd5b506101be600160a060020a03600435166106ec565b34801561026857600080fd5b5061017a600435610701565b34801561028057600080fd5b5061028961071d565b60408051600160a060020a039092168252519081900360200190f35b3480156102b157600080fd5b506101be61072c565b3480156102c657600080fd5b5061017a60043561073c565b3480156102de57600080fd5b506101f3610758565b3480156102f357600080fd5b5061017a61075e565b34801561030857600080fd5b506101f36107ca565b34801561031d57600080fd5b506102896107d0565b34801561033257600080fd5b5061017a6107df565b34801561034757600080fd5b5061028961085a565b34801561035c57600080fd5b506101be610869565b34801561037157600080fd5b5061017a600435610872565b34801561038957600080fd5b506101f361088e565b34801561039e57600080fd5b50604080516020601f6084356004818101359283018490048402850184019095528184526101f394600160a060020a03813516946024803595604435956064359536959460a4949093910191908190840183828082843750949750505050913515159250610894915050565b34801561041657600080fd5b5061017a600160a060020a036004351660243515156108c5565b34801561043c57600080fd5b50604080516020601f6064356004818101359283018490048402850184019095528184526101f39480359460248035956044359536956084949301918190840183828082843750949750505050913515159250610907915050565b3480156104a357600080fd5b506101f361093f565b3480156104b857600080fd5b5061017a600160a060020a0360043516610945565b3480156104d957600080fd5b5061017a600160a060020a036004351661098b565b3480156104fa57600080fd5b5061017a60043515156109d1565b34801561051457600080fd5b506101be6109fb565b34801561052957600080fd5b5061017a600160a060020a0360043516610a04565b600054600160a060020a0316331461055557600080fd5b6007805460ff1916911515919091179055565b600054600160a060020a0316331461057f57600080fd5b600160a060020a03811615156105df576040805160e560020a62461bcd02815260206004820152601860248201527f496e76616c696420616464726573732070726f76696465640000000000000000604482015290519081900360640190fd5b604051600160a060020a03821690303180156108fc02916000818181858888f19350505050158015610615573d6000803e3d6000fd5b5050565b60045460009060ff161561062f5750600161064d565b50600160a060020a03811660009081526005602052604090205460ff165b919050565b600b6020526000908152604090205481565b600054600160a060020a0316331461067b57600080fd5b60005460a060020a900460ff16151561069357600080fd5b6000805474ff0000000000000000000000000000000000000000191681556040517f7805862f689e2f13df9f062ff482ad3ad112aca9e0847911ed832e158c525b339190a1565b600a6020526000908152604090205481565b60056020526000908152604090205460ff1681565b600054600160a060020a0316331461071857600080fd5b600655565b600154600160a060020a031681565b60005460a060020a900460ff1681565b600054600160a060020a0316331461075357600080fd5b600355565b60085481565b600054600160a060020a0316331461077557600080fd5b60008054604051600160a060020a03909116917ff8df31144d9c2f0f6b59d69b8b98abd5459d07f2742c4df920b25aae33c6482091a26000805473ffffffffffffffffffffffffffffffffffffffff19169055565b60065481565b600254600160a060020a031681565b600054600160a060020a031633146107f657600080fd5b60005460a060020a900460ff161561080d57600080fd5b6000805474ff0000000000000000000000000000000000000000191660a060020a1781556040517f6985a02210a168e66602d3235cb6db0e70f92b3ba4d376a33c0f3d9434bff6259190a1565b600054600160a060020a031681565b60075460ff1681565b600054600160a060020a0316331461088957600080fd5b600855565b60035481565b60008054600160a060020a031633146108ac57600080fd5b6108ba878787878787610a27565b979650505050505050565b600054600160a060020a031633146108dc57600080fd5b600160a060020a03919091166000908152600560205260409020805460ff1916911515919091179055565b6000805460a060020a900460ff161561091f57600080fd5b610927610d36565b610935338787878787610a27565b9695505050505050565b60095481565b600054600160a060020a0316331461095c57600080fd5b6002805473ffffffffffffffffffffffffffffffffffffffff1916600160a060020a0392909216919091179055565b600054600160a060020a031633146109a257600080fd5b6001805473ffffffffffffffffffffffffffffffffffffffff1916600160a060020a0392909216919091179055565b600054600160a060020a031633146109e857600080fd5b6004805460ff1916911515919091179055565b60045460ff1681565b600054600160a060020a03163314610a1b57600080fd5b610a2481610e6b565b50565b60008080808811610aa8576040805160e560020a62461bcd02815260206004820152602860248201527f556e61626c6520746f206372656174652065646974696f6e73206f662074686960448201527f732073697a652030000000000000000000000000000000000000000000000000606482015290519081900360840190fd5b600654881115610b28576040805160e560020a62461bcd02815260206004820152603160248201527f556e61626c6520746f206372656174652065646974696f6e73206f662074686960448201527f732073697a652061742070726573656e74000000000000000000000000000000606482015290519081900360840190fd5b600054600160a060020a03163314610bde5760045460ff161515610bde57600160a060020a03891660009081526005602052604090205460ff161515610bde576040805160e560020a62461bcd02815260206004820152603060248201527f4f6e6c7920616c6c6f77656420617274697374732063616e206372656174652060448201527f65646974696f6e7320666f72206e6f7700000000000000000000000000000000606482015290519081900360840190fd5b610be6610ee8565b9150610bf6828a8a8a8a8a611047565b9050801515610c4f576040805160e560020a62461bcd02815260206004820152601c60248201527f4661696c656420746f20637265617465206e65772065646974696f6e00000000604482015290519081900360640190fd5b8315610cdc57600254604080517fb5e7f3c300000000000000000000000000000000000000000000000000000000815260048101859052600160a060020a038c811660248301529151919092169163b5e7f3c391604480830192600092919082900301818387803b158015610cc357600080fd5b505af1158015610cd7573d6000803e3d6000fd5b505050505b60408051888152602081018a9052851515818301529051600160a060020a038b169184917faa456f9f24703ca25ecf5b0bfd7bed18ed96589119418060049a312d983727669181900360600190a350979650505050505050565b6007546000908190819060ff1615610d4d57610e66565b336000908152600b602052604090205492508215610e45578242039150600954821015610e1f5750336000908152600a6020526040902054600854811115610e05576040805160e560020a62461bcd02815260206004820152602860248201527f4578636565646564206d617820696e766f636174696f6e7320666f722074696d60448201527f6520706572696f64000000000000000000000000000000000000000000000000606482015290519081900360840190fd5b336000908152600a60205260409020600182019055610e40565b336000908152600a6020908152604080832060019055600b90915290204390555b610e66565b336000908152600a6020908152604080832060019055600b90915290204390555b505050565b600160a060020a0381161515610e8057600080fd5b60008054604051600160a060020a03808516939216917f8be0079c531659141344cd1fd0a4f28419497f9722a3daafe3b4186f6b6457e091a36000805473ffffffffffffffffffffffffffffffffffffffff1916600160a060020a0392909216919091179055565b600080600080600160009054906101000a9004600160a060020a0316600160a060020a031663abf3260f6040518163ffffffff1660e060020a028152600401602060405180830381600087803b158015610f4157600080fd5b505af1158015610f55573d6000803e3d6000fd5b505050506040513d6020811015610f6b57600080fd5b5051600154604080517f6a028692000000000000000000000000000000000000000000000000000000008152600481018490529051929550600160a060020a0390911691636a028692916024808201926020929091908290030181600087803b158015610fd757600080fd5b505af1158015610feb573d6000803e3d6000fd5b505050506040513d602081101561100157600080fd5b50519150611026600161101a858563ffffffff6111a616565b9063ffffffff6111a616565b600654909150806000198184010181151561103d57fe5b0402935050505090565b6000600160009054906101000a9004600160a060020a0316600160a060020a0316638bbb594a88600060018760008c6003548c8b8f6040518b63ffffffff1660e060020a028152600401808b81526020018a60010260001916815260200189815260200188815260200187815260200186600160a060020a0316600160a060020a0316815260200185815260200184815260200180602001838152602001828103825284818151815260200191508051906020019080838360005b8381101561111a578181015183820152602001611102565b50505050905090810190601f1680156111475780820380516001836020036101000a031916815260200191505b509b505050505050505050505050602060405180830381600087803b15801561116f57600080fd5b505af1158015611183573d6000803e3d6000fd5b505050506040513d602081101561119957600080fd5b5051979650505050505050565b818101828110156111b357fe5b929150505600a165627a7a723058204ba1d38742ad1e06730f0e7a7203826a78763f1b0aa95450925b93e91d5093960029",
  "source": "pragma solidity 0.4.24;\n\nimport \"openzeppelin-solidity/contracts/ownership/Ownable.sol\";\nimport \"openzeppelin-solidity/contracts/lifecycle/Pausable.sol\";\nimport \"openzeppelin-solidity/contracts/math/SafeMath.sol\";\n\ninterface IKODAV2SelfServiceEditionCuration {\n\n  function createActiveEdition(\n    uint256 _editionNumber,\n    bytes32 _editionData,\n    uint256 _editionType,\n    uint256 _startDate,\n    uint256 _endDate,\n    address _artistAccount,\n    uint256 _artistCommission,\n    uint256 _priceInWei,\n    string _tokenUri,\n    uint256 _totalAvailable\n  ) external returns (bool);\n\n  function artistsEditions(address _artistsAccount) external returns (uint256[1] _editionNumbers);\n\n  function totalAvailableEdition(uint256 _editionNumber) external returns (uint256);\n\n  function highestEditionNumber() external returns (uint256);\n}\n\n\ninterface IKODAAuction {\n  function setArtistsControlAddressAndEnabledEdition(uint256 _editionNumber, address _address) external;\n}\n\ncontract SelfServiceEditionCuration is Ownable, Pausable {\n  using SafeMath for uint256;\n\n  event SelfServiceEditionCreated(\n    uint256 indexed _editionNumber,\n    address indexed _creator,\n    uint256 _priceInWei,\n    uint256 _totalAvailable,\n    bool _enableAuction\n  );\n\n  // Calling address\n  IKODAV2SelfServiceEditionCuration public kodaV2;\n  IKODAAuction public auction;\n\n  // Default artist commission\n  uint256 public artistCommission = 85;\n\n  // When true any existing KO artist can mint their own editions\n  bool public openToAllArtist = false;\n\n  // Simple map to only allow certain artist create editions at first\n  mapping(address => bool) public allowedArtists;\n\n  // Config which enforces editions to not be over this size\n  uint256 public maxEditionSize = 100;\n\n  constructor(\n    IKODAV2SelfServiceEditionCuration _kodaV2,\n    IKODAAuction _auction\n  ) public {\n    kodaV2 = _kodaV2;\n    auction = _auction;\n  }\n\n  // When true this will skip the invocation in time period check\n  bool public disableInvocationCheck = false;\n\n  // Max number of editions to be created in the time period\n  uint256 public maxInvocations = 7;\n\n  // The rolling time period for max number of invocations\n  uint256 public maxInvocationsTimePeriod = 1 days;\n\n  // Number of invocations the caller has performed in the time period\n  mapping(address => uint256) public invocationsInTimePeriod;\n\n  // When the current time period started\n  mapping(address => uint256) public timeOfFirstInvocationInPeriod;\n\n  /**\n   * @dev Called by artists, create new edition on the KODA platform\n   */\n  function createEdition(\n    uint256 _totalAvailable,\n    uint256 _priceInWei,\n    uint256 _startDate,\n    string _tokenUri,\n    bool _enableAuction\n  )\n  public\n  whenNotPaused\n  returns (uint256 _editionNumber)\n  {\n    validateInvocations();\n    return _createEdition(msg.sender, _totalAvailable, _priceInWei, _startDate, _tokenUri, _enableAuction);\n  }\n\n  /**\n   * @dev Caller by owner, can create editions for other artists\n   * @dev Only callable from owner regardless of pause state\n   */\n  function createEditionFor(\n    address _artist,\n    uint256 _totalAvailable,\n    uint256 _priceInWei,\n    uint256 _startDate,\n    string _tokenUri,\n    bool _enableAuction\n  )\n  public\n  onlyOwner\n  returns (uint256 _editionNumber)\n  {\n    return _createEdition(_artist, _totalAvailable, _priceInWei, _startDate, _tokenUri, _enableAuction);\n  }\n\n  /**\n   * @dev Internal function for edition creation\n   */\n  function _createEdition(\n    address _artist,\n    uint256 _totalAvailable,\n    uint256 _priceInWei,\n    uint256 _startDate,\n    string _tokenUri,\n    bool _enableAuction\n  )\n  internal\n  returns (uint256 _editionNumber){\n\n    // Enforce edition size\n    require(_totalAvailable > 0, \"Unable to create editions of this size 0\");\n    require(_totalAvailable <= maxEditionSize, \"Unable to create editions of this size at present\");\n\n\n    // If we are the owner, skip this artists check\n    if (msg.sender != owner) {\n\n      // Enforce who can call this\n      if (!openToAllArtist) {\n        require(allowedArtists[_artist], \"Only allowed artists can create editions for now\");\n      }\n    }\n\n    // Find the next edition number we can use\n    uint256 editionNumber = getNextAvailableEditionNumber();\n\n    // Attempt to create a new edition\n    bool success = createNewEdition(editionNumber, _artist, _totalAvailable, _priceInWei, _startDate, _tokenUri);\n    require(success, \"Failed to create new edition\");\n\n    // Enable the auction if desired\n    if (_enableAuction) {\n      auction.setArtistsControlAddressAndEnabledEdition(editionNumber, _artist);\n    }\n\n    // Trigger event\n    emit SelfServiceEditionCreated(editionNumber, _artist, _priceInWei, _totalAvailable, _enableAuction);\n\n    return editionNumber;\n  }\n\n  /**\n   * @dev Internal function for calling external create methods with some none configurable defaults\n   */\n  function createNewEdition(\n    uint256 _editionNumber,\n    address _artist,\n    uint256 _totalAvailable,\n    uint256 _priceInWei,\n    uint256 _startDate,\n    string _tokenUri\n  )\n  internal\n  returns (bool) {\n    return kodaV2.createActiveEdition(\n      _editionNumber,\n      0x0, // _editionData - no edition data\n      1, // _editionType - KODA always type 1\n      _startDate,\n      0, // _endDate - 0 = MAX unit256\n      _artist,\n      artistCommission,\n      _priceInWei,\n      _tokenUri,\n      _totalAvailable\n    );\n  }\n\n  function validateInvocations() internal {\n    if (disableInvocationCheck) {\n      return;\n    }\n    uint256 invocationPeriodStart = timeOfFirstInvocationInPeriod[msg.sender];\n\n    // If we are new to this process or its been cleared, skip the check\n    if (invocationPeriodStart != 0) {\n\n      // Work out how much time has passed\n      uint256 timePassedInPeriod = block.timestamp - invocationPeriodStart;\n\n      // If we are still in this time period\n      if (timePassedInPeriod < maxInvocationsTimePeriod) {\n\n        uint256 invocations = invocationsInTimePeriod[msg.sender];\n\n        // Ensure the number of invocations does not exceed the max number of invocations allowed\n        require(invocations <= maxInvocations, \"Exceeded max invocations for time period\");\n\n        // Update the invocations for this period if passed validation check\n        invocationsInTimePeriod[msg.sender] = invocations + 1;\n\n      } else {\n        // if we have passed the time period simple clear out the fields and start the period again\n        invocationsInTimePeriod[msg.sender] = 1;\n        timeOfFirstInvocationInPeriod[msg.sender] = block.number;\n      }\n\n    } else {\n      // initial the counters if not used before\n      invocationsInTimePeriod[msg.sender] = 1;\n      timeOfFirstInvocationInPeriod[msg.sender] = block.number;\n    }\n  }\n\n  /**\n   * @dev Internal function for dynamically generating the next KODA edition number\n   */\n  function getNextAvailableEditionNumber()\n  internal\n  returns (uint256 editionNumber) {\n\n    // Get current highest edition and total in the edition\n    uint256 highestEditionNumber = kodaV2.highestEditionNumber();\n    uint256 totalAvailableEdition = kodaV2.totalAvailableEdition(highestEditionNumber);\n\n    // Add the current highest plus its total, plus 1 as tokens start at 1 not zero\n    uint256 nextAvailableEditionNumber = highestEditionNumber.add(totalAvailableEdition).add(1);\n\n    // Round up to next 100, 1000 etc based on max allowed size\n    return ((nextAvailableEditionNumber + maxEditionSize - 1) / maxEditionSize) * maxEditionSize;\n  }\n\n  /**\n   * @dev Sets the KODA address\n   * @dev Only callable from owner\n   */\n  function setKodavV2(IKODAV2SelfServiceEditionCuration _kodaV2) onlyOwner public {\n    kodaV2 = _kodaV2;\n  }\n\n  /**\n   * @dev Sets the KODA auction\n   * @dev Only callable from owner\n   */\n  function setAuction(IKODAAuction _auction) onlyOwner public {\n    auction = _auction;\n  }\n\n  /**\n   * @dev Sets the default commission for each edition\n   * @dev Only callable from owner\n   */\n  function setArtistCommission(uint256 _artistCommission) onlyOwner public {\n    artistCommission = _artistCommission;\n  }\n\n  /**\n   * @dev Controls is the contract is open to all\n   * @dev Only callable from owner\n   */\n  function setOpenToAllArtist(bool _openToAllArtist) onlyOwner public {\n    openToAllArtist = _openToAllArtist;\n  }\n\n  /**\n   * @dev Controls who can call this contract\n   * @dev Only callable from owner\n   */\n  function setAllowedArtist(address _artist, bool _allowed) onlyOwner public {\n    allowedArtists[_artist] = _allowed;\n  }\n\n  /**\n   * @dev Sets the max edition size\n   * @dev Only callable from owner\n   */\n  function setMaxEditionSize(uint256 _maxEditionSize) onlyOwner public {\n    maxEditionSize = _maxEditionSize;\n  }\n\n  /**\n   * @dev Sets the max invocations\n   * @dev Only callable from owner\n   */\n  function setMaxInvocations(uint256 _maxInvocations) onlyOwner public {\n    maxInvocations = _maxInvocations;\n  }\n\n  /**\n   * @dev Sets the disable invocation check, when true the invocation in time period check is skipped\n   * @dev Only callable from owner\n   */\n  function setDisableInvocationCheck(bool _disableInvocationCheck) onlyOwner public {\n    disableInvocationCheck = _disableInvocationCheck;\n  }\n\n  /**\n   * @dev Checks to see if the account can create editions\n   */\n  function isEnabledForAccount(address account) public view returns (bool) {\n    if (openToAllArtist) {\n      return true;\n    }\n    return allowedArtists[account];\n  }\n\n  /**\n   * @dev Allows for the ability to extract stuck ether\n   * @dev Only callable from owner\n   */\n  function withdrawStuckEther(address _withdrawalAccount) onlyOwner public {\n    require(_withdrawalAccount != address(0), \"Invalid address provided\");\n    _withdrawalAccount.transfer(address(this).balance);\n  }\n}\n",
  "sourcePath": "/Users/jamesmorgan/Dropbox/workspace-blockrocket/known-origin-web3-marketplace/contracts/v2/tools/SelfServiceEditionCuration.sol",
  "compiler": {
    "name": "solc",
    "version": "0.4.24+commit.e67f0147.Emscripten.clang"
  },
  "schemaVersion": "3.0.2",
  "updatedAt": "2019-03-19T08:35:57.160Z",
  "devdoc": {
    "methods": {
      "createEdition(uint256,uint256,uint256,string,bool)": {
        "details": "Called by artists, create new edition on the KODA platform"
      },
      "createEditionFor(address,uint256,uint256,uint256,string,bool)": {
        "details": "Caller by owner, can create editions for other artistsOnly callable from owner regardless of pause state"
      },
      "isEnabledForAccount(address)": {
        "details": "Checks to see if the account can create editions"
      },
      "pause()": {
        "details": "called by the owner to pause, triggers stopped state"
      },
      "renounceOwnership()": {
        "details": "Allows the current owner to relinquish control of the contract."
      },
      "setAllowedArtist(address,bool)": {
        "details": "Controls who can call this contractOnly callable from owner"
      },
      "setArtistCommission(uint256)": {
        "details": "Sets the default commission for each editionOnly callable from owner"
      },
      "setAuction(address)": {
        "details": "Sets the KODA auctionOnly callable from owner"
      },
      "setDisableInvocationCheck(bool)": {
        "details": "Sets the disable invocation check, when true the invocation in time period check is skippedOnly callable from owner"
      },
      "setKodavV2(address)": {
        "details": "Sets the KODA addressOnly callable from owner"
      },
      "setMaxEditionSize(uint256)": {
        "details": "Sets the max edition sizeOnly callable from owner"
      },
      "setMaxInvocations(uint256)": {
        "details": "Sets the max invocationsOnly callable from owner"
      },
      "setOpenToAllArtist(bool)": {
        "details": "Controls is the contract is open to allOnly callable from owner"
      },
      "transferOwnership(address)": {
        "details": "Allows the current owner to transfer control of the contract to a newOwner.",
        "params": {
          "_newOwner": "The address to transfer ownership to."
        }
      },
      "unpause()": {
        "details": "called by the owner to unpause, returns to normal state"
      },
      "withdrawStuckEther(address)": {
        "details": "Allows for the ability to extract stuck etherOnly callable from owner"
      }
    }
  },
  "userdoc": {
    "methods": {
      "renounceOwnership()": {
        "notice": "Renouncing to ownership will leave the contract without an owner. It will not be possible to call the functions with the `onlyOwner` modifier anymore."
      }
    }
  }
}