{
  "contractName": "SelfServiceEditionCuration",
  "abi": [
    {
      "constant": false,
      "inputs": [],
      "name": "unpause",
      "outputs": [],
      "payable": false,
      "stateMutability": "nonpayable",
      "type": "function",
      "signature": "0x3f4ba83a"
    },
    {
      "constant": true,
      "inputs": [
        {
          "name": "",
          "type": "address"
        }
      ],
      "name": "allowedArtists",
      "outputs": [
        {
          "name": "",
          "type": "bool"
        }
      ],
      "payable": false,
      "stateMutability": "view",
      "type": "function",
      "signature": "0x46f7c98a"
    },
    {
      "constant": true,
      "inputs": [],
      "name": "kodaV2",
      "outputs": [
        {
          "name": "",
          "type": "address"
        }
      ],
      "payable": false,
      "stateMutability": "view",
      "type": "function",
      "signature": "0x5b638fa5"
    },
    {
      "constant": true,
      "inputs": [],
      "name": "paused",
      "outputs": [
        {
          "name": "",
          "type": "bool"
        }
      ],
      "payable": false,
      "stateMutability": "view",
      "type": "function",
      "signature": "0x5c975abb"
    },
    {
      "constant": false,
      "inputs": [],
      "name": "renounceOwnership",
      "outputs": [],
      "payable": false,
      "stateMutability": "nonpayable",
      "type": "function",
      "signature": "0x715018a6"
    },
    {
      "constant": true,
      "inputs": [],
      "name": "maxEditionSize",
      "outputs": [
        {
          "name": "",
          "type": "uint256"
        }
      ],
      "payable": false,
      "stateMutability": "view",
      "type": "function",
      "signature": "0x7b37ce4f"
    },
    {
      "constant": true,
      "inputs": [],
      "name": "auction",
      "outputs": [
        {
          "name": "",
          "type": "address"
        }
      ],
      "payable": false,
      "stateMutability": "view",
      "type": "function",
      "signature": "0x7d9f6db5"
    },
    {
      "constant": false,
      "inputs": [],
      "name": "pause",
      "outputs": [],
      "payable": false,
      "stateMutability": "nonpayable",
      "type": "function",
      "signature": "0x8456cb59"
    },
    {
      "constant": true,
      "inputs": [],
      "name": "owner",
      "outputs": [
        {
          "name": "",
          "type": "address"
        }
      ],
      "payable": false,
      "stateMutability": "view",
      "type": "function",
      "signature": "0x8da5cb5b"
    },
    {
      "constant": true,
      "inputs": [],
      "name": "artistCommission",
      "outputs": [
        {
          "name": "",
          "type": "uint256"
        }
      ],
      "payable": false,
      "stateMutability": "view",
      "type": "function",
      "signature": "0x983586b1"
    },
    {
      "constant": true,
      "inputs": [],
      "name": "openToAllArtist",
      "outputs": [
        {
          "name": "",
          "type": "bool"
        }
      ],
      "payable": false,
      "stateMutability": "view",
      "type": "function",
      "signature": "0xe29cda48"
    },
    {
      "constant": false,
      "inputs": [
        {
          "name": "_newOwner",
          "type": "address"
        }
      ],
      "name": "transferOwnership",
      "outputs": [],
      "payable": false,
      "stateMutability": "nonpayable",
      "type": "function",
      "signature": "0xf2fde38b"
    },
    {
      "inputs": [
        {
          "name": "_kodaV2",
          "type": "address"
        },
        {
          "name": "_auction",
          "type": "address"
        }
      ],
      "payable": false,
      "stateMutability": "nonpayable",
      "type": "constructor",
      "signature": "constructor"
    },
    {
      "anonymous": false,
      "inputs": [
        {
          "indexed": true,
          "name": "_editionNumber",
          "type": "uint256"
        },
        {
          "indexed": true,
          "name": "_creator",
          "type": "address"
        },
        {
          "indexed": false,
          "name": "_priceInWei",
          "type": "uint256"
        },
        {
          "indexed": false,
          "name": "_totalAvailable",
          "type": "uint256"
        },
        {
          "indexed": false,
          "name": "_enableAuction",
          "type": "bool"
        }
      ],
      "name": "SelfServiceEditionCreated",
      "type": "event",
      "signature": "0xaa456f9f24703ca25ecf5b0bfd7bed18ed96589119418060049a312d98372766"
    },
    {
      "anonymous": false,
      "inputs": [],
      "name": "Pause",
      "type": "event",
      "signature": "0x6985a02210a168e66602d3235cb6db0e70f92b3ba4d376a33c0f3d9434bff625"
    },
    {
      "anonymous": false,
      "inputs": [],
      "name": "Unpause",
      "type": "event",
      "signature": "0x7805862f689e2f13df9f062ff482ad3ad112aca9e0847911ed832e158c525b33"
    },
    {
      "anonymous": false,
      "inputs": [
        {
          "indexed": true,
          "name": "previousOwner",
          "type": "address"
        }
      ],
      "name": "OwnershipRenounced",
      "type": "event",
      "signature": "0xf8df31144d9c2f0f6b59d69b8b98abd5459d07f2742c4df920b25aae33c64820"
    },
    {
      "anonymous": false,
      "inputs": [
        {
          "indexed": true,
          "name": "previousOwner",
          "type": "address"
        },
        {
          "indexed": true,
          "name": "newOwner",
          "type": "address"
        }
      ],
      "name": "OwnershipTransferred",
      "type": "event",
      "signature": "0x8be0079c531659141344cd1fd0a4f28419497f9722a3daafe3b4186f6b6457e0"
    },
    {
      "constant": false,
      "inputs": [
        {
          "name": "_totalAvailable",
          "type": "uint256"
        },
        {
          "name": "_tokenUri",
          "type": "string"
        },
        {
          "name": "_priceInWei",
          "type": "uint256"
        },
        {
          "name": "enableAuction",
          "type": "bool"
        }
      ],
      "name": "createEdition",
      "outputs": [
        {
          "name": "_editionNumber",
          "type": "uint256"
        }
      ],
      "payable": false,
      "stateMutability": "nonpayable",
      "type": "function",
      "signature": "0x146410d6"
    },
    {
      "constant": false,
      "inputs": [],
      "name": "getNextAvailableEditionNumber",
      "outputs": [
        {
          "name": "editionNumber",
          "type": "uint256"
        }
      ],
      "payable": false,
      "stateMutability": "nonpayable",
      "type": "function",
      "signature": "0x711ffe2d"
    },
    {
      "constant": false,
      "inputs": [
        {
          "name": "_kodaV2",
          "type": "address"
        }
      ],
      "name": "setKodavV2",
      "outputs": [],
      "payable": false,
      "stateMutability": "nonpayable",
      "type": "function",
      "signature": "0xbbee17a3"
    },
    {
      "constant": false,
      "inputs": [
        {
          "name": "_auction",
          "type": "address"
        }
      ],
      "name": "setAuction",
      "outputs": [],
      "payable": false,
      "stateMutability": "nonpayable",
      "type": "function",
      "signature": "0xb8c6f579"
    },
    {
      "constant": false,
      "inputs": [
        {
          "name": "_artistCommission",
          "type": "uint256"
        }
      ],
      "name": "setArtistCommission",
      "outputs": [],
      "payable": false,
      "stateMutability": "nonpayable",
      "type": "function",
      "signature": "0x67a27b91"
    },
    {
      "constant": false,
      "inputs": [
        {
          "name": "_openToAllArtist",
          "type": "bool"
        }
      ],
      "name": "setOpenToAllArtist",
      "outputs": [],
      "payable": false,
      "stateMutability": "nonpayable",
      "type": "function",
      "signature": "0xdf282d91"
    },
    {
      "constant": false,
      "inputs": [
        {
          "name": "_artist",
          "type": "address"
        },
        {
          "name": "_allowed",
          "type": "bool"
        }
      ],
      "name": "setAllowedArtist",
      "outputs": [],
      "payable": false,
      "stateMutability": "nonpayable",
      "type": "function",
      "signature": "0xa2ed4088"
    },
    {
      "constant": false,
      "inputs": [
        {
          "name": "_maxEditionSize",
          "type": "uint256"
        }
      ],
      "name": "setMaxEditionSize",
      "outputs": [],
      "payable": false,
      "stateMutability": "nonpayable",
      "type": "function",
      "signature": "0x566aac2f"
    },
    {
      "constant": true,
      "inputs": [
        {
          "name": "account",
          "type": "address"
        }
      ],
      "name": "isEnabledForAccount",
      "outputs": [
        {
          "name": "",
          "type": "bool"
        }
      ],
      "payable": false,
      "stateMutability": "view",
      "type": "function",
      "signature": "0x2bd3152d"
    },
    {
      "constant": false,
      "inputs": [
        {
          "name": "_withdrawalAccount",
          "type": "address"
        }
      ],
      "name": "withdrawStuckEther",
      "outputs": [],
      "payable": false,
      "stateMutability": "nonpayable",
      "type": "function",
      "signature": "0x26ccd77a"
    }
  ],
  "bytecode": "0x60806040526000805460a060020a60ff021916905560556003556004805460ff19169055606460065534801561003457600080fd5b5060405160408061103083398101604052805160209091015160008054600160a060020a0319908116331790915560018054600160a060020a0394851690831617905560028054939092169216919091179055610f9a806100966000396000f30060806040526004361061010e5763ffffffff60e060020a600035041663146410d6811461011357806326ccd77a1461018a5780632bd3152d146101ad5780633f4ba83a146101e257806346f7c98a146101f7578063566aac2f146102185780635b638fa5146102305780635c975abb1461026157806367a27b9114610276578063711ffe2d1461028e578063715018a6146102a35780637b37ce4f146102b85780637d9f6db5146102cd5780638456cb59146102e25780638da5cb5b146102f7578063983586b11461030c578063a2ed408814610321578063b8c6f57914610347578063bbee17a314610368578063df282d9114610389578063e29cda48146103a3578063f2fde38b146103b8575b600080fd5b34801561011f57600080fd5b5060408051602060046024803582810135601f81018590048502860185019096528585526101789583359536956044949193909101919081908401838280828437509497505084359550505050506020013515156103d9565b60408051918252519081900360200190f35b34801561019657600080fd5b506101ab600160a060020a0360043516610802565b005b3480156101b957600080fd5b506101ce600160a060020a03600435166108b3565b604080519115158252519081900360200190f35b3480156101ee57600080fd5b506101ab6108ec565b34801561020357600080fd5b506101ce600160a060020a0360043516610962565b34801561022457600080fd5b506101ab600435610977565b34801561023c57600080fd5b50610245610993565b60408051600160a060020a039092168252519081900360200190f35b34801561026d57600080fd5b506101ce6109a2565b34801561028257600080fd5b506101ab6004356109b2565b34801561029a57600080fd5b506101786109ce565b3480156102af57600080fd5b506101ab610b2d565b3480156102c457600080fd5b50610178610b99565b3480156102d957600080fd5b50610245610b9f565b3480156102ee57600080fd5b506101ab610bae565b34801561030357600080fd5b50610245610c29565b34801561031857600080fd5b50610178610c38565b34801561032d57600080fd5b506101ab600160a060020a03600435166024351515610c3e565b34801561035357600080fd5b506101ab600160a060020a0360043516610c80565b34801561037457600080fd5b506101ab600160a060020a0360043516610cc6565b34801561039557600080fd5b506101ab6004351515610d0c565b3480156103af57600080fd5b506101ce610d36565b3480156103c457600080fd5b506101ab600160a060020a0360043516610d3f565b60006103e3610f4f565b60008054819060a060020a900460ff16156103fd57600080fd5b6000881161047b576040805160e560020a62461bcd02815260206004820152602860248201527f556e61626c6520746f206372656174652065646974696f6e73206f662074686960448201527f732073697a652030000000000000000000000000000000000000000000000000606482015290519081900360840190fd5b6006548811156104fb576040805160e560020a62461bcd02815260206004820152603160248201527f556e61626c6520746f206372656174652065646974696f6e73206f662074686960448201527f732073697a652061742070726573656e74000000000000000000000000000000606482015290519081900360840190fd5b60045460ff161515610596573360009081526005602052604090205460ff161515610596576040805160e560020a62461bcd02815260206004820152603060248201527f4f6e6c7920616c6c6f77656420617274697374732063616e206372656174652060448201527f65646974696f6e7320666f72206e6f7700000000000000000000000000000000606482015290519081900360840190fd5b600154604080517f6641179e0000000000000000000000000000000000000000000000000000000081523360048201529051600160a060020a0390921691636641179e916024808201926020929091908290030181600087803b1580156105fc57600080fd5b505af1158015610610573d6000803e3d6000fd5b505050506040513d601f19601f82011682018060405250602081101561063557600080fd5b5080519093506000106106b8576040805160e560020a62461bcd02815260206004820152603f60248201527f43616e206f6e6c79206d696e7420796f7572206f776e206f6e6365207765206860448201527f61766520656e61626c656420796f75206f6e2074686520706c6174666f726d00606482015290519081900360840190fd5b6106c06109ce565b91506106ce82878a8a610d62565b9050801515610727576040805160e560020a62461bcd02815260206004820152601860248201527f556e61626c6520746f206372656174652065646974696f6e0000000000000000604482015290519081900360640190fd5b84156107b257600254604080517fb5e7f3c3000000000000000000000000000000000000000000000000000000008152600481018590523360248201529051600160a060020a039092169163b5e7f3c39160448082019260009290919082900301818387803b15801561079957600080fd5b505af11580156107ad573d6000803e3d6000fd5b505050505b60408051878152602081018a9052861515818301529051339184917faa456f9f24703ca25ecf5b0bfd7bed18ed96589119418060049a312d983727669181900360600190a3509695505050505050565b600054600160a060020a0316331461081957600080fd5b600160a060020a0381161515610879576040805160e560020a62461bcd02815260206004820152601860248201527f496e76616c696420616464726573732070726f76696465640000000000000000604482015290519081900360640190fd5b604051600160a060020a03821690303180156108fc02916000818181858888f193505050501580156108af573d6000803e3d6000fd5b5050565b60045460009060ff16156108c9575060016108e7565b50600160a060020a03811660009081526005602052604090205460ff165b919050565b600054600160a060020a0316331461090357600080fd5b60005460a060020a900460ff16151561091b57600080fd5b6000805474ff0000000000000000000000000000000000000000191681556040517f7805862f689e2f13df9f062ff482ad3ad112aca9e0847911ed832e158c525b339190a1565b60056020526000908152604090205460ff1681565b600054600160a060020a0316331461098e57600080fd5b600655565b600154600160a060020a031681565b60005460a060020a900460ff1681565b600054600160a060020a031633146109c957600080fd5b600355565b600080600080600160009054906101000a9004600160a060020a0316600160a060020a031663abf3260f6040518163ffffffff1660e060020a028152600401602060405180830381600087803b158015610a2757600080fd5b505af1158015610a3b573d6000803e3d6000fd5b505050506040513d6020811015610a5157600080fd5b5051600154604080517f6a028692000000000000000000000000000000000000000000000000000000008152600481018490529051929550600160a060020a0390911691636a028692916024808201926020929091908290030181600087803b158015610abd57600080fd5b505af1158015610ad1573d6000803e3d6000fd5b505050506040513d6020811015610ae757600080fd5b50519150610b0c6001610b00858563ffffffff610ebf16565b9063ffffffff610ebf16565b6006549091508060001981840101811515610b2357fe5b0402935050505090565b600054600160a060020a03163314610b4457600080fd5b60008054604051600160a060020a03909116917ff8df31144d9c2f0f6b59d69b8b98abd5459d07f2742c4df920b25aae33c6482091a26000805473ffffffffffffffffffffffffffffffffffffffff19169055565b60065481565b600254600160a060020a031681565b600054600160a060020a03163314610bc557600080fd5b60005460a060020a900460ff1615610bdc57600080fd5b6000805474ff0000000000000000000000000000000000000000191660a060020a1781556040517f6985a02210a168e66602d3235cb6db0e70f92b3ba4d376a33c0f3d9434bff6259190a1565b600054600160a060020a031681565b60035481565b600054600160a060020a03163314610c5557600080fd5b600160a060020a03919091166000908152600560205260409020805460ff1916911515919091179055565b600054600160a060020a03163314610c9757600080fd5b6002805473ffffffffffffffffffffffffffffffffffffffff1916600160a060020a0392909216919091179055565b600054600160a060020a03163314610cdd57600080fd5b6001805473ffffffffffffffffffffffffffffffffffffffff1916600160a060020a0392909216919091179055565b600054600160a060020a03163314610d2357600080fd5b6004805460ff1916911515919091179055565b60045460ff1681565b600054600160a060020a03163314610d5657600080fd5b610d5f81610ed2565b50565b6000600160009054906101000a9004600160a060020a0316600160a060020a0316638bbb594a8660006001600080336003548c8b8d6040518b63ffffffff1660e060020a028152600401808b81526020018a60010260001916815260200189815260200188815260200187815260200186600160a060020a0316600160a060020a0316815260200185815260200184815260200180602001838152602001828103825284818151815260200191508051906020019080838360005b83811015610e35578181015183820152602001610e1d565b50505050905090810190601f168015610e625780820380516001836020036101000a031916815260200191505b509b505050505050505050505050602060405180830381600087803b158015610e8a57600080fd5b505af1158015610e9e573d6000803e3d6000fd5b505050506040513d6020811015610eb457600080fd5b505195945050505050565b81810182811015610ecc57fe5b92915050565b600160a060020a0381161515610ee757600080fd5b60008054604051600160a060020a03808516939216917f8be0079c531659141344cd1fd0a4f28419497f9722a3daafe3b4186f6b6457e091a36000805473ffffffffffffffffffffffffffffffffffffffff1916600160a060020a0392909216919091179055565b60206040519081016040528060019060208202803883395091929150505600a165627a7a723058202c50dd60386425e60b213cd45c8dad2dbded2f069b4dd6b6704495b67ac77a6c0029",
  "source": "pragma solidity 0.4.24;\n\nimport \"openzeppelin-solidity/contracts/ownership/Ownable.sol\";\nimport \"openzeppelin-solidity/contracts/lifecycle/Pausable.sol\";\nimport \"openzeppelin-solidity/contracts/math/SafeMath.sol\";\n\ninterface IKODAV2SelfServiceEditionCuration {\n\n  function createActiveEdition(\n    uint256 _editionNumber,\n    bytes32 _editionData,\n    uint256 _editionType,\n    uint256 _startDate,\n    uint256 _endDate,\n    address _artistAccount,\n    uint256 _artistCommission,\n    uint256 _priceInWei,\n    string _tokenUri,\n    uint256 _totalAvailable\n  ) external returns (bool);\n\n  function artistsEditions(address _artistsAccount) external returns (uint256[1] _editionNumbers);\n\n  function totalAvailableEdition(uint256 _editionNumber) external returns (uint256);\n\n  function highestEditionNumber() external returns (uint256);\n}\n\n\ninterface IKODAAuction {\n  function setArtistsControlAddressAndEnabledEdition(uint256 _editionNumber, address _address) external;\n}\n\ncontract SelfServiceEditionCuration is Ownable, Pausable {\n  using SafeMath for uint256;\n\n  event SelfServiceEditionCreated(\n    uint256 indexed _editionNumber,\n    address indexed _creator,\n    uint256 _priceInWei,\n    uint256 _totalAvailable,\n    bool _enableAuction\n  );\n\n  // Calling address\n  IKODAV2SelfServiceEditionCuration public kodaV2;\n  IKODAAuction public auction;\n\n  // Default artist commission\n  uint256 public artistCommission = 85;\n\n  // When true any existing KO artist can mint their own editions\n  bool public openToAllArtist = false;\n\n  // Simple map to only allow certain artist create editions at first\n  mapping(address => bool) public allowedArtists;\n\n  // Config which enforces editions to not be over this size\n  uint256 public maxEditionSize = 100;\n\n  constructor(\n    IKODAV2SelfServiceEditionCuration _kodaV2,\n    IKODAAuction _auction\n  ) public {\n    kodaV2 = _kodaV2;\n    auction = _auction;\n  }\n\n  // TODO - restrict the volume per day - make configurable\n  // TODO - do we need to always enable artists?\n\n  function createEdition(uint256 _totalAvailable, string _tokenUri, uint256 _priceInWei, bool enableAuction)\n  public\n  whenNotPaused\n  returns (uint256 _editionNumber)\n  {\n    // Enforce edition size\n    require(_totalAvailable > 0, \"Unable to create editions of this size 0\");\n    require(_totalAvailable <= maxEditionSize, \"Unable to create editions of this size at present\");\n\n    // Enforce who can call this\n    if (!openToAllArtist) {\n      require(allowedArtists[msg.sender], \"Only allowed artists can create editions for now\");\n    }\n\n    // FIXME test this code here\n    // Enforce the artist is the real deal and is on the platform in some form\n    uint256[1] memory _editionNumbers = kodaV2.artistsEditions(msg.sender);\n    require(_editionNumbers[0] > 0, \"Can only mint your own once we have enabled you on the platform\");\n\n    // Find the next edition number we can use\n    uint256 editionNumber = getNextAvailableEditionNumber();\n\n    // Attempt to create a new edition\n    bool created = createNewEdition(editionNumber, _priceInWei, _totalAvailable, _tokenUri);\n\n    // If the creation fails for some reason, revert the block\n    require(created, \"Unable to create edition\");\n\n    // Enable the auction if desired\n    if (enableAuction) {\n      auction.setArtistsControlAddressAndEnabledEdition(editionNumber, msg.sender);\n    }\n\n    // Trigger event\n    emit SelfServiceEditionCreated(editionNumber, msg.sender, _priceInWei, _totalAvailable, enableAuction);\n\n    return editionNumber;\n  }\n\n  function getNextAvailableEditionNumber()\n  public\n  returns (uint256 editionNumber) {\n\n    // Get current highest edition and total in the edition\n    uint256 highestEditionNumber = kodaV2.highestEditionNumber();\n    uint256 totalAvailableEdition = kodaV2.totalAvailableEdition(highestEditionNumber);\n\n    // Add the current highest plus its total, plus 1 as tokens start at 1 not zero\n    uint256 nextAvailableEditionNumber = highestEditionNumber.add(totalAvailableEdition).add(1);\n\n    // Round up to next 100/1000 etc based on max allowed size\n    return ((nextAvailableEditionNumber + maxEditionSize - 1) / maxEditionSize) * maxEditionSize;\n  }\n\n  function createNewEdition(uint256 _editionNumber, uint256 _priceInWei, uint256 _totalAvailable, string _tokenUri)\n  internal\n  returns (bool) {\n    return kodaV2.createActiveEdition(\n      _editionNumber,\n      0x0, // _editionData\n      1, // _editionType\n      0, // _startDate\n      0, // _endDate\n      msg.sender,\n      artistCommission,\n      _priceInWei,\n      _tokenUri,\n      _totalAvailable\n    );\n  }\n\n  /**\n   * @dev Sets the KODA address\n   * @dev Only callable from owner\n   */\n  function setKodavV2(IKODAV2SelfServiceEditionCuration _kodaV2) onlyOwner public {\n    kodaV2 = _kodaV2;\n  }\n\n  /**\n   * @dev Sets the KODA auction\n   * @dev Only callable from owner\n   */\n  function setAuction(IKODAAuction _auction) onlyOwner public {\n    auction = _auction;\n  }\n\n  /**\n   * @dev Sets the default commission for each edition\n   * @dev Only callable from owner\n   */\n  function setArtistCommission(uint256 _artistCommission) onlyOwner public {\n    artistCommission = _artistCommission;\n  }\n\n  /**\n   * @dev Controls is the contract is open to all\n   * @dev Only callable from owner\n   */\n  function setOpenToAllArtist(bool _openToAllArtist) onlyOwner public {\n    openToAllArtist = _openToAllArtist;\n  }\n\n  /**\n   * @dev Controls who can call this contract\n   * @dev Only callable from owner\n   */\n  function setAllowedArtist(address _artist, bool _allowed) onlyOwner public {\n    allowedArtists[_artist] = _allowed;\n  }\n\n  /**\n   * @dev Sets the max edition size\n   * @dev Only callable from owner\n   */\n  function setMaxEditionSize(uint256 _maxEditionSize) onlyOwner public {\n    maxEditionSize = _maxEditionSize;\n  }\n\n  /**\n   * @dev Checks to see if the account can create editions\n   */\n  function isEnabledForAccount(address account) public view returns (bool) {\n    if (openToAllArtist) {\n      return true;\n    }\n    return allowedArtists[account];\n  }\n\n  /**\n   * @dev Allows for the ability to extract stuck ether\n   * @dev Only callable from owner\n   */\n  function withdrawStuckEther(address _withdrawalAccount) onlyOwner public {\n    require(_withdrawalAccount != address(0), \"Invalid address provided\");\n    _withdrawalAccount.transfer(address(this).balance);\n  }\n}\n",
  "sourcePath": "/Users/jamesmorgan/Dropbox/workspace-blockrocket/known-origin-web3-marketplace/contracts/v2/tools/SelfServiceEditionCuration.sol",
  "compiler": {
    "name": "solc",
    "version": "0.4.24+commit.e67f0147.Emscripten.clang"
  },
  "schemaVersion": "3.0.2",
  "updatedAt": "2019-02-27T15:59:02.405Z",
  "devdoc": {
    "methods": {
      "isEnabledForAccount(address)": {
        "details": "Checks to see if the account can create editions"
      },
      "pause()": {
        "details": "called by the owner to pause, triggers stopped state"
      },
      "renounceOwnership()": {
        "details": "Allows the current owner to relinquish control of the contract."
      },
      "setAllowedArtist(address,bool)": {
        "details": "Controls who can call this contractOnly callable from owner"
      },
      "setArtistCommission(uint256)": {
        "details": "Sets the default commission for each editionOnly callable from owner"
      },
      "setAuction(address)": {
        "details": "Sets the KODA auctionOnly callable from owner"
      },
      "setKodavV2(address)": {
        "details": "Sets the KODA addressOnly callable from owner"
      },
      "setMaxEditionSize(uint256)": {
        "details": "Sets the max edition sizeOnly callable from owner"
      },
      "setOpenToAllArtist(bool)": {
        "details": "Controls is the contract is open to allOnly callable from owner"
      },
      "transferOwnership(address)": {
        "details": "Allows the current owner to transfer control of the contract to a newOwner.",
        "params": {
          "_newOwner": "The address to transfer ownership to."
        }
      },
      "unpause()": {
        "details": "called by the owner to unpause, returns to normal state"
      },
      "withdrawStuckEther(address)": {
        "details": "Allows for the ability to extract stuck etherOnly callable from owner"
      }
    }
  },
  "userdoc": {
    "methods": {
      "renounceOwnership()": {
        "notice": "Renouncing to ownership will leave the contract without an owner. It will not be possible to call the functions with the `onlyOwner` modifier anymore."
      }
    }
  }
}