{
  "contractName": "SelfServiceEditionCuration",
  "abi": [
    {
      "constant": false,
      "inputs": [],
      "name": "unpause",
      "outputs": [],
      "payable": false,
      "stateMutability": "nonpayable",
      "type": "function",
      "signature": "0x3f4ba83a"
    },
    {
      "constant": true,
      "inputs": [
        {
          "name": "",
          "type": "address"
        }
      ],
      "name": "allowedArtists",
      "outputs": [
        {
          "name": "",
          "type": "bool"
        }
      ],
      "payable": false,
      "stateMutability": "view",
      "type": "function",
      "signature": "0x46f7c98a"
    },
    {
      "constant": true,
      "inputs": [],
      "name": "kodaV2",
      "outputs": [
        {
          "name": "",
          "type": "address"
        }
      ],
      "payable": false,
      "stateMutability": "view",
      "type": "function",
      "signature": "0x5b638fa5"
    },
    {
      "constant": true,
      "inputs": [],
      "name": "paused",
      "outputs": [
        {
          "name": "",
          "type": "bool"
        }
      ],
      "payable": false,
      "stateMutability": "view",
      "type": "function",
      "signature": "0x5c975abb"
    },
    {
      "constant": false,
      "inputs": [],
      "name": "renounceOwnership",
      "outputs": [],
      "payable": false,
      "stateMutability": "nonpayable",
      "type": "function",
      "signature": "0x715018a6"
    },
    {
      "constant": true,
      "inputs": [],
      "name": "maxEditionSize",
      "outputs": [
        {
          "name": "",
          "type": "uint256"
        }
      ],
      "payable": false,
      "stateMutability": "view",
      "type": "function",
      "signature": "0x7b37ce4f"
    },
    {
      "constant": true,
      "inputs": [],
      "name": "auction",
      "outputs": [
        {
          "name": "",
          "type": "address"
        }
      ],
      "payable": false,
      "stateMutability": "view",
      "type": "function",
      "signature": "0x7d9f6db5"
    },
    {
      "constant": false,
      "inputs": [],
      "name": "pause",
      "outputs": [],
      "payable": false,
      "stateMutability": "nonpayable",
      "type": "function",
      "signature": "0x8456cb59"
    },
    {
      "constant": true,
      "inputs": [],
      "name": "owner",
      "outputs": [
        {
          "name": "",
          "type": "address"
        }
      ],
      "payable": false,
      "stateMutability": "view",
      "type": "function",
      "signature": "0x8da5cb5b"
    },
    {
      "constant": true,
      "inputs": [],
      "name": "artistCommission",
      "outputs": [
        {
          "name": "",
          "type": "uint256"
        }
      ],
      "payable": false,
      "stateMutability": "view",
      "type": "function",
      "signature": "0x983586b1"
    },
    {
      "constant": true,
      "inputs": [],
      "name": "openToAllArtist",
      "outputs": [
        {
          "name": "",
          "type": "bool"
        }
      ],
      "payable": false,
      "stateMutability": "view",
      "type": "function",
      "signature": "0xe29cda48"
    },
    {
      "constant": false,
      "inputs": [
        {
          "name": "_newOwner",
          "type": "address"
        }
      ],
      "name": "transferOwnership",
      "outputs": [],
      "payable": false,
      "stateMutability": "nonpayable",
      "type": "function",
      "signature": "0xf2fde38b"
    },
    {
      "inputs": [
        {
          "name": "_kodaV2",
          "type": "address"
        },
        {
          "name": "_auction",
          "type": "address"
        }
      ],
      "payable": false,
      "stateMutability": "nonpayable",
      "type": "constructor",
      "signature": "constructor"
    },
    {
      "anonymous": false,
      "inputs": [
        {
          "indexed": true,
          "name": "_editionNumber",
          "type": "uint256"
        },
        {
          "indexed": true,
          "name": "_creator",
          "type": "address"
        },
        {
          "indexed": false,
          "name": "_priceInWei",
          "type": "uint256"
        },
        {
          "indexed": false,
          "name": "_totalAvailable",
          "type": "uint256"
        },
        {
          "indexed": false,
          "name": "_enableAuction",
          "type": "bool"
        }
      ],
      "name": "SelfServiceEditionCreated",
      "type": "event",
      "signature": "0xaa456f9f24703ca25ecf5b0bfd7bed18ed96589119418060049a312d98372766"
    },
    {
      "anonymous": false,
      "inputs": [],
      "name": "Pause",
      "type": "event",
      "signature": "0x6985a02210a168e66602d3235cb6db0e70f92b3ba4d376a33c0f3d9434bff625"
    },
    {
      "anonymous": false,
      "inputs": [],
      "name": "Unpause",
      "type": "event",
      "signature": "0x7805862f689e2f13df9f062ff482ad3ad112aca9e0847911ed832e158c525b33"
    },
    {
      "anonymous": false,
      "inputs": [
        {
          "indexed": true,
          "name": "previousOwner",
          "type": "address"
        }
      ],
      "name": "OwnershipRenounced",
      "type": "event",
      "signature": "0xf8df31144d9c2f0f6b59d69b8b98abd5459d07f2742c4df920b25aae33c64820"
    },
    {
      "anonymous": false,
      "inputs": [
        {
          "indexed": true,
          "name": "previousOwner",
          "type": "address"
        },
        {
          "indexed": true,
          "name": "newOwner",
          "type": "address"
        }
      ],
      "name": "OwnershipTransferred",
      "type": "event",
      "signature": "0x8be0079c531659141344cd1fd0a4f28419497f9722a3daafe3b4186f6b6457e0"
    },
    {
      "constant": false,
      "inputs": [
        {
          "name": "_totalAvailable",
          "type": "uint256"
        },
        {
          "name": "_priceInWei",
          "type": "uint256"
        },
        {
          "name": "_startDate",
          "type": "uint256"
        },
        {
          "name": "_tokenUri",
          "type": "string"
        },
        {
          "name": "_enableAuction",
          "type": "bool"
        }
      ],
      "name": "createEdition",
      "outputs": [
        {
          "name": "_editionNumber",
          "type": "uint256"
        }
      ],
      "payable": false,
      "stateMutability": "nonpayable",
      "type": "function",
      "signature": "0xa86f2057"
    },
    {
      "constant": false,
      "inputs": [
        {
          "name": "_artist",
          "type": "address"
        },
        {
          "name": "_totalAvailable",
          "type": "uint256"
        },
        {
          "name": "_priceInWei",
          "type": "uint256"
        },
        {
          "name": "_startDate",
          "type": "uint256"
        },
        {
          "name": "_tokenUri",
          "type": "string"
        },
        {
          "name": "_enableAuction",
          "type": "bool"
        }
      ],
      "name": "createEditionFor",
      "outputs": [
        {
          "name": "_editionNumber",
          "type": "uint256"
        }
      ],
      "payable": false,
      "stateMutability": "nonpayable",
      "type": "function",
      "signature": "0x9ca3bbb3"
    },
    {
      "constant": false,
      "inputs": [
        {
          "name": "_kodaV2",
          "type": "address"
        }
      ],
      "name": "setKodavV2",
      "outputs": [],
      "payable": false,
      "stateMutability": "nonpayable",
      "type": "function",
      "signature": "0xbbee17a3"
    },
    {
      "constant": false,
      "inputs": [
        {
          "name": "_auction",
          "type": "address"
        }
      ],
      "name": "setAuction",
      "outputs": [],
      "payable": false,
      "stateMutability": "nonpayable",
      "type": "function",
      "signature": "0xb8c6f579"
    },
    {
      "constant": false,
      "inputs": [
        {
          "name": "_artistCommission",
          "type": "uint256"
        }
      ],
      "name": "setArtistCommission",
      "outputs": [],
      "payable": false,
      "stateMutability": "nonpayable",
      "type": "function",
      "signature": "0x67a27b91"
    },
    {
      "constant": false,
      "inputs": [
        {
          "name": "_openToAllArtist",
          "type": "bool"
        }
      ],
      "name": "setOpenToAllArtist",
      "outputs": [],
      "payable": false,
      "stateMutability": "nonpayable",
      "type": "function",
      "signature": "0xdf282d91"
    },
    {
      "constant": false,
      "inputs": [
        {
          "name": "_artist",
          "type": "address"
        },
        {
          "name": "_allowed",
          "type": "bool"
        }
      ],
      "name": "setAllowedArtist",
      "outputs": [],
      "payable": false,
      "stateMutability": "nonpayable",
      "type": "function",
      "signature": "0xa2ed4088"
    },
    {
      "constant": false,
      "inputs": [
        {
          "name": "_maxEditionSize",
          "type": "uint256"
        }
      ],
      "name": "setMaxEditionSize",
      "outputs": [],
      "payable": false,
      "stateMutability": "nonpayable",
      "type": "function",
      "signature": "0x566aac2f"
    },
    {
      "constant": true,
      "inputs": [
        {
          "name": "account",
          "type": "address"
        }
      ],
      "name": "isEnabledForAccount",
      "outputs": [
        {
          "name": "",
          "type": "bool"
        }
      ],
      "payable": false,
      "stateMutability": "view",
      "type": "function",
      "signature": "0x2bd3152d"
    },
    {
      "constant": false,
      "inputs": [
        {
          "name": "_withdrawalAccount",
          "type": "address"
        }
      ],
      "name": "withdrawStuckEther",
      "outputs": [],
      "payable": false,
      "stateMutability": "nonpayable",
      "type": "function",
      "signature": "0x26ccd77a"
    }
  ],
  "bytecode": "0x60806040526000805460a060020a60ff021916905560556003556004805460ff19169055606460065534801561003457600080fd5b50604051604080610fbf83398101604052805160209091015160008054600160a060020a0319908116331790915560018054600160a060020a0394851690831617905560028054939092169216919091179055610f29806100966000396000f30060806040526004361061010e5763ffffffff60e060020a60003504166326ccd77a81146101135780632bd3152d146101365780633f4ba83a1461016b57806346f7c98a14610180578063566aac2f146101a15780635b638fa5146101b95780635c975abb146101ea57806367a27b91146101ff578063715018a6146102175780637b37ce4f1461022c5780637d9f6db5146102535780638456cb59146102685780638da5cb5b1461027d578063983586b1146102925780639ca3bbb3146102a7578063a2ed40881461031f578063a86f205714610345578063b8c6f579146103ac578063bbee17a3146103cd578063df282d91146103ee578063e29cda4814610408578063f2fde38b1461041d575b600080fd5b34801561011f57600080fd5b50610134600160a060020a036004351661043e565b005b34801561014257600080fd5b50610157600160a060020a03600435166104ef565b604080519115158252519081900360200190f35b34801561017757600080fd5b50610134610528565b34801561018c57600080fd5b50610157600160a060020a036004351661059e565b3480156101ad57600080fd5b506101346004356105b3565b3480156101c557600080fd5b506101ce6105cf565b60408051600160a060020a039092168252519081900360200190f35b3480156101f657600080fd5b506101576105de565b34801561020b57600080fd5b506101346004356105ee565b34801561022357600080fd5b5061013461060a565b34801561023857600080fd5b50610241610676565b60408051918252519081900360200190f35b34801561025f57600080fd5b506101ce61067c565b34801561027457600080fd5b5061013461068b565b34801561028957600080fd5b506101ce610706565b34801561029e57600080fd5b50610241610715565b3480156102b357600080fd5b50604080516020601f60843560048181013592830184900484028501840190955281845261024194600160a060020a03813516946024803595604435956064359536959460a494909391019190819084018382808284375094975050505091351515925061071b915050565b34801561032b57600080fd5b50610134600160a060020a0360043516602435151561074c565b34801561035157600080fd5b50604080516020601f606435600481810135928301849004840285018401909552818452610241948035946024803595604435953695608494930191819084018382808284375094975050505091351515925061078e915050565b3480156103b857600080fd5b50610134600160a060020a03600435166107be565b3480156103d957600080fd5b50610134600160a060020a0360043516610804565b3480156103fa57600080fd5b50610134600435151561084a565b34801561041457600080fd5b50610157610874565b34801561042957600080fd5b50610134600160a060020a036004351661087d565b600054600160a060020a0316331461045557600080fd5b600160a060020a03811615156104b5576040805160e560020a62461bcd02815260206004820152601860248201527f496e76616c696420616464726573732070726f76696465640000000000000000604482015290519081900360640190fd5b604051600160a060020a03821690303180156108fc02916000818181858888f193505050501580156104eb573d6000803e3d6000fd5b5050565b60045460009060ff161561050557506001610523565b50600160a060020a03811660009081526005602052604090205460ff165b919050565b600054600160a060020a0316331461053f57600080fd5b60005460a060020a900460ff16151561055757600080fd5b6000805474ff0000000000000000000000000000000000000000191681556040517f7805862f689e2f13df9f062ff482ad3ad112aca9e0847911ed832e158c525b339190a1565b60056020526000908152604090205460ff1681565b600054600160a060020a031633146105ca57600080fd5b600655565b600154600160a060020a031681565b60005460a060020a900460ff1681565b600054600160a060020a0316331461060557600080fd5b600355565b600054600160a060020a0316331461062157600080fd5b60008054604051600160a060020a03909116917ff8df31144d9c2f0f6b59d69b8b98abd5459d07f2742c4df920b25aae33c6482091a26000805473ffffffffffffffffffffffffffffffffffffffff19169055565b60065481565b600254600160a060020a031681565b600054600160a060020a031633146106a257600080fd5b60005460a060020a900460ff16156106b957600080fd5b6000805474ff0000000000000000000000000000000000000000191660a060020a1781556040517f6985a02210a168e66602d3235cb6db0e70f92b3ba4d376a33c0f3d9434bff6259190a1565b600054600160a060020a031681565b60035481565b60008054600160a060020a0316331461073357600080fd5b6107418787878787876108a0565b979650505050505050565b600054600160a060020a0316331461076357600080fd5b600160a060020a03919091166000908152600560205260409020805460ff1916911515919091179055565b6000805460a060020a900460ff16156107a657600080fd5b6107b43387878787876108a0565b9695505050505050565b600054600160a060020a031633146107d557600080fd5b6002805473ffffffffffffffffffffffffffffffffffffffff1916600160a060020a0392909216919091179055565b600054600160a060020a0316331461081b57600080fd5b6001805473ffffffffffffffffffffffffffffffffffffffff1916600160a060020a0392909216919091179055565b600054600160a060020a0316331461086157600080fd5b6004805460ff1916911515919091179055565b60045460ff1681565b600054600160a060020a0316331461089457600080fd5b61089d81610baf565b50565b60008080808811610921576040805160e560020a62461bcd02815260206004820152602860248201527f556e61626c6520746f206372656174652065646974696f6e73206f662074686960448201527f732073697a652030000000000000000000000000000000000000000000000000606482015290519081900360840190fd5b6006548811156109a1576040805160e560020a62461bcd02815260206004820152603160248201527f556e61626c6520746f206372656174652065646974696f6e73206f662074686960448201527f732073697a652061742070726573656e74000000000000000000000000000000606482015290519081900360840190fd5b600054600160a060020a03163314610a575760045460ff161515610a5757600160a060020a03891660009081526005602052604090205460ff161515610a57576040805160e560020a62461bcd02815260206004820152603060248201527f4f6e6c7920616c6c6f77656420617274697374732063616e206372656174652060448201527f65646974696f6e7320666f72206e6f7700000000000000000000000000000000606482015290519081900360840190fd5b610a5f610c2c565b9150610a6f828a8a8a8a8a610d8b565b9050801515610ac8576040805160e560020a62461bcd02815260206004820152601c60248201527f4661696c656420746f20637265617465206e65772065646974696f6e00000000604482015290519081900360640190fd5b8315610b5557600254604080517fb5e7f3c300000000000000000000000000000000000000000000000000000000815260048101859052600160a060020a038c811660248301529151919092169163b5e7f3c391604480830192600092919082900301818387803b158015610b3c57600080fd5b505af1158015610b50573d6000803e3d6000fd5b505050505b60408051888152602081018a9052851515818301529051600160a060020a038b169184917faa456f9f24703ca25ecf5b0bfd7bed18ed96589119418060049a312d983727669181900360600190a350979650505050505050565b600160a060020a0381161515610bc457600080fd5b60008054604051600160a060020a03808516939216917f8be0079c531659141344cd1fd0a4f28419497f9722a3daafe3b4186f6b6457e091a36000805473ffffffffffffffffffffffffffffffffffffffff1916600160a060020a0392909216919091179055565b600080600080600160009054906101000a9004600160a060020a0316600160a060020a031663abf3260f6040518163ffffffff1660e060020a028152600401602060405180830381600087803b158015610c8557600080fd5b505af1158015610c99573d6000803e3d6000fd5b505050506040513d6020811015610caf57600080fd5b5051600154604080517f6a028692000000000000000000000000000000000000000000000000000000008152600481018490529051929550600160a060020a0390911691636a028692916024808201926020929091908290030181600087803b158015610d1b57600080fd5b505af1158015610d2f573d6000803e3d6000fd5b505050506040513d6020811015610d4557600080fd5b50519150610d6a6001610d5e858563ffffffff610eea16565b9063ffffffff610eea16565b6006549091508060001981840101811515610d8157fe5b0402935050505090565b6000600160009054906101000a9004600160a060020a0316600160a060020a0316638bbb594a88600060018760008c6003548c8b8f6040518b63ffffffff1660e060020a028152600401808b81526020018a60010260001916815260200189815260200188815260200187815260200186600160a060020a0316600160a060020a0316815260200185815260200184815260200180602001838152602001828103825284818151815260200191508051906020019080838360005b83811015610e5e578181015183820152602001610e46565b50505050905090810190601f168015610e8b5780820380516001836020036101000a031916815260200191505b509b505050505050505050505050602060405180830381600087803b158015610eb357600080fd5b505af1158015610ec7573d6000803e3d6000fd5b505050506040513d6020811015610edd57600080fd5b5051979650505050505050565b81810182811015610ef757fe5b929150505600a165627a7a723058202baf134f55980b8b996f0d2247965658bd4b69119ab4dad49295b1e81cff7c4b0029",
  "source": "pragma solidity 0.4.24;\n\nimport \"openzeppelin-solidity/contracts/ownership/Ownable.sol\";\nimport \"openzeppelin-solidity/contracts/lifecycle/Pausable.sol\";\nimport \"openzeppelin-solidity/contracts/math/SafeMath.sol\";\n\ninterface IKODAV2SelfServiceEditionCuration {\n\n  function createActiveEdition(\n    uint256 _editionNumber,\n    bytes32 _editionData,\n    uint256 _editionType,\n    uint256 _startDate,\n    uint256 _endDate,\n    address _artistAccount,\n    uint256 _artistCommission,\n    uint256 _priceInWei,\n    string _tokenUri,\n    uint256 _totalAvailable\n  ) external returns (bool);\n\n  function artistsEditions(address _artistsAccount) external returns (uint256[1] _editionNumbers);\n\n  function totalAvailableEdition(uint256 _editionNumber) external returns (uint256);\n\n  function highestEditionNumber() external returns (uint256);\n}\n\n\ninterface IKODAAuction {\n  function setArtistsControlAddressAndEnabledEdition(uint256 _editionNumber, address _address) external;\n}\n\ncontract SelfServiceEditionCuration is Ownable, Pausable {\n  using SafeMath for uint256;\n\n  event SelfServiceEditionCreated(\n    uint256 indexed _editionNumber,\n    address indexed _creator,\n    uint256 _priceInWei,\n    uint256 _totalAvailable,\n    bool _enableAuction\n  );\n\n  // Calling address\n  IKODAV2SelfServiceEditionCuration public kodaV2;\n  IKODAAuction public auction;\n\n  // Default artist commission\n  uint256 public artistCommission = 85;\n\n  // When true any existing KO artist can mint their own editions\n  bool public openToAllArtist = false;\n\n  // Simple map to only allow certain artist create editions at first\n  mapping(address => bool) public allowedArtists;\n\n  // Config which enforces editions to not be over this size\n  uint256 public maxEditionSize = 100;\n\n  constructor(\n    IKODAV2SelfServiceEditionCuration _kodaV2,\n    IKODAAuction _auction\n  ) public {\n    kodaV2 = _kodaV2;\n    auction = _auction;\n  }\n\n  // TODO - restrict the volume per day - make configurable\n\n  /**\n   * @dev Called by artists, create new edition on the KODA platform\n   */\n  function createEdition(\n    uint256 _totalAvailable,\n    uint256 _priceInWei,\n    uint256 _startDate,\n    string _tokenUri,\n    bool _enableAuction\n  )\n  public\n  whenNotPaused\n  returns (uint256 _editionNumber)\n  {\n    return _createEdition(msg.sender, _totalAvailable, _priceInWei, _startDate, _tokenUri, _enableAuction);\n  }\n\n  /**\n   * @dev Caller by owner, can create editions for other artists\n   * @dev Only callable from owner regardless of pause state\n   */\n  function createEditionFor(\n    address _artist,\n    uint256 _totalAvailable,\n    uint256 _priceInWei,\n    uint256 _startDate,\n    string _tokenUri,\n    bool _enableAuction\n  )\n  public\n  onlyOwner\n  returns (uint256 _editionNumber)\n  {\n    return _createEdition(_artist, _totalAvailable, _priceInWei, _startDate, _tokenUri, _enableAuction);\n  }\n\n  /**\n   * @dev Internal function for edition creation\n   */\n  function _createEdition(\n    address _artist,\n    uint256 _totalAvailable,\n    uint256 _priceInWei,\n    uint256 _startDate,\n    string _tokenUri,\n    bool _enableAuction\n  )\n  internal\n  returns (uint256 _editionNumber){\n\n    // Enforce edition size\n    require(_totalAvailable > 0, \"Unable to create editions of this size 0\");\n    require(_totalAvailable <= maxEditionSize, \"Unable to create editions of this size at present\");\n\n\n    // If we are the owner, skip this artists check\n    if (msg.sender != owner) {\n\n      // Enforce who can call this\n      if (!openToAllArtist) {\n        require(allowedArtists[_artist], \"Only allowed artists can create editions for now\");\n      }\n    }\n\n    // Find the next edition number we can use\n    uint256 editionNumber = getNextAvailableEditionNumber();\n\n    // Attempt to create a new edition\n    bool success = createNewEdition(editionNumber, _artist, _totalAvailable, _priceInWei, _startDate, _tokenUri);\n    require(success, \"Failed to create new edition\");\n\n    // Enable the auction if desired\n    if (_enableAuction) {\n      auction.setArtistsControlAddressAndEnabledEdition(editionNumber, _artist);\n    }\n\n    // Trigger event\n    emit SelfServiceEditionCreated(editionNumber, _artist, _priceInWei, _totalAvailable, _enableAuction);\n\n    return editionNumber;\n  }\n\n  /**\n   * @dev Internal function for calling external create methods with some none configurable defaults\n   */\n  function createNewEdition(\n    uint256 _editionNumber,\n    address _artist,\n    uint256 _totalAvailable,\n    uint256 _priceInWei,\n    uint256 _startDate,\n    string _tokenUri\n  )\n  internal\n  returns (bool) {\n    return kodaV2.createActiveEdition(\n      _editionNumber,\n      0x0, // _editionData - no edition data\n      1, // _editionType - KODA always type 1\n      _startDate,\n      0, // _endDate - 0 = MAX unit256\n      _artist,\n      artistCommission,\n      _priceInWei,\n      _tokenUri,\n      _totalAvailable\n    );\n  }\n\n  /**\n   * @dev Internal function for dynamically generating the next KODA edition number\n   */\n  function getNextAvailableEditionNumber()\n  internal\n  returns (uint256 editionNumber) {\n\n    // Get current highest edition and total in the edition\n    uint256 highestEditionNumber = kodaV2.highestEditionNumber();\n    uint256 totalAvailableEdition = kodaV2.totalAvailableEdition(highestEditionNumber);\n\n    // Add the current highest plus its total, plus 1 as tokens start at 1 not zero\n    uint256 nextAvailableEditionNumber = highestEditionNumber.add(totalAvailableEdition).add(1);\n\n    // Round up to next 100, 1000 etc based on max allowed size\n    return ((nextAvailableEditionNumber + maxEditionSize - 1) / maxEditionSize) * maxEditionSize;\n  }\n\n  /**\n   * @dev Sets the KODA address\n   * @dev Only callable from owner\n   */\n  function setKodavV2(IKODAV2SelfServiceEditionCuration _kodaV2) onlyOwner public {\n    kodaV2 = _kodaV2;\n  }\n\n  /**\n   * @dev Sets the KODA auction\n   * @dev Only callable from owner\n   */\n  function setAuction(IKODAAuction _auction) onlyOwner public {\n    auction = _auction;\n  }\n\n  /**\n   * @dev Sets the default commission for each edition\n   * @dev Only callable from owner\n   */\n  function setArtistCommission(uint256 _artistCommission) onlyOwner public {\n    artistCommission = _artistCommission;\n  }\n\n  /**\n   * @dev Controls is the contract is open to all\n   * @dev Only callable from owner\n   */\n  function setOpenToAllArtist(bool _openToAllArtist) onlyOwner public {\n    openToAllArtist = _openToAllArtist;\n  }\n\n  /**\n   * @dev Controls who can call this contract\n   * @dev Only callable from owner\n   */\n  function setAllowedArtist(address _artist, bool _allowed) onlyOwner public {\n    allowedArtists[_artist] = _allowed;\n  }\n\n  /**\n   * @dev Sets the max edition size\n   * @dev Only callable from owner\n   */\n  function setMaxEditionSize(uint256 _maxEditionSize) onlyOwner public {\n    maxEditionSize = _maxEditionSize;\n  }\n\n  /**\n   * @dev Checks to see if the account can create editions\n   */\n  function isEnabledForAccount(address account) public view returns (bool) {\n    if (openToAllArtist) {\n      return true;\n    }\n    return allowedArtists[account];\n  }\n\n  /**\n   * @dev Allows for the ability to extract stuck ether\n   * @dev Only callable from owner\n   */\n  function withdrawStuckEther(address _withdrawalAccount) onlyOwner public {\n    require(_withdrawalAccount != address(0), \"Invalid address provided\");\n    _withdrawalAccount.transfer(address(this).balance);\n  }\n}\n",
  "sourcePath": "/Users/jamesmorgan/Dropbox/workspace-blockrocket/known-origin-web3-marketplace/contracts/v2/tools/SelfServiceEditionCuration.sol",
  "compiler": {
    "name": "solc",
    "version": "0.4.24+commit.e67f0147.Emscripten.clang"
  },
  "schemaVersion": "3.0.2",
  "updatedAt": "2019-03-01T12:07:44.684Z",
  "devdoc": {
    "methods": {
      "createEdition(uint256,uint256,uint256,string,bool)": {
        "details": "Called by artists, create new edition on the KODA platform"
      },
      "createEditionFor(address,uint256,uint256,uint256,string,bool)": {
        "details": "Caller by owner, can create editions for other artistsOnly callable from owner regardless of pause state"
      },
      "isEnabledForAccount(address)": {
        "details": "Checks to see if the account can create editions"
      },
      "pause()": {
        "details": "called by the owner to pause, triggers stopped state"
      },
      "renounceOwnership()": {
        "details": "Allows the current owner to relinquish control of the contract."
      },
      "setAllowedArtist(address,bool)": {
        "details": "Controls who can call this contractOnly callable from owner"
      },
      "setArtistCommission(uint256)": {
        "details": "Sets the default commission for each editionOnly callable from owner"
      },
      "setAuction(address)": {
        "details": "Sets the KODA auctionOnly callable from owner"
      },
      "setKodavV2(address)": {
        "details": "Sets the KODA addressOnly callable from owner"
      },
      "setMaxEditionSize(uint256)": {
        "details": "Sets the max edition sizeOnly callable from owner"
      },
      "setOpenToAllArtist(bool)": {
        "details": "Controls is the contract is open to allOnly callable from owner"
      },
      "transferOwnership(address)": {
        "details": "Allows the current owner to transfer control of the contract to a newOwner.",
        "params": {
          "_newOwner": "The address to transfer ownership to."
        }
      },
      "unpause()": {
        "details": "called by the owner to unpause, returns to normal state"
      },
      "withdrawStuckEther(address)": {
        "details": "Allows for the ability to extract stuck etherOnly callable from owner"
      }
    }
  },
  "userdoc": {
    "methods": {
      "renounceOwnership()": {
        "notice": "Renouncing to ownership will leave the contract without an owner. It will not be possible to call the functions with the `onlyOwner` modifier anymore."
      }
    }
  }
}